:10000000D5C0000004C1000002C1000000C1000012
:10001000FEC00000FCC00000FAC00000F8C00000F4
:10002000F6C00000F4C00000F2C00000F0C0000004
:10003000EEC00000ECC00000EAC00000E8C0000014
:10004000E6C00000E4C00000E2C00000E0C0000024
:10005000DEC00000DCC00000DAC000000C9476288E
:10006000D6C000000C94062B0C943C2BD0C0000092
:10007000CEC00000CCC00000CAC00000C8C0000054
:10008000C6C00000C4C00000C2C00000C0C0000064
:100090000C94922B0C94C82BBAC00000B8C000007E
:1000A000B6C00000B4C00000B2C00000B0C0000084
:1000B000AEC00000ACC00000AAC00000A8C0000094
:1000C000A6C00000A4C000000C94A1240C941E2C17
:1000D0000C94542C9CC000000C94AA2C0C94E02C82
:1000E00096C00000010210202008081020401020B7
:1000F00040800201020108040201010204081020EC
:1001000040808040201008040201800402018040E9
:100110002010080402010804020101020408102052
:1001200040800102040810204080050505050705F0
:1001300008080808020202020A0A08080404040463
:10014000010101010101010103030303030303038F
:10015000040707070C0C0C0C0C0C0C0C020202021E
:1001600006060606060606060B0B0B0B0B0B0B0B07
:1001700000002200250028002B002E003100340052
:1001800002010000050108010B010000210024000C
:1001900027002A002D003000330001010000040177
:1001A00007010A01652BF12B7D2C092D11241FBE9F
:1001B000CFEFD1E2DEBFCDBF00E00CBF13E0A0E087
:1001C000B2E0EAE9FBE500E00BBF02C007900D9248
:1001D000A230B107D9F72AE0A2E0B3E001C01D9236
:1001E000A43DB207E1F710E0C6EDD0E000E006C0A4
:1001F00021970109802FFE010E949A2DC23DD1074F
:1002000080E00807A9F70E94FC250C94CB2DF8CEBE
:10021000CF93DF93882349F0EB0181500E947D2921
:1002200099838883DF91CF910895FB011182108219
:10023000F9CF0F931F938B019C0183E0369527958F
:10024000179507958A95D1F70E5F1C4F462F47707B
:1002500021E030E0F90102C0EE0FFF1F4A95E2F7FE
:10026000AF01F80120812423CB010196211102C0A6
:1002700090E080E01F910F9108950F931F938B01E1
:100280009C0183E036952795179507958A95D1F7B8
:10029000677081E090E001C0880F6A95EAF7F80185
:1002A000EE5FFC4F2081452B31F4809582238083C3
:1002B0001F910F910895822BFACFCF92DF92EF9288
:1002C000FF92CF93DF936B017C0160E086E3C81659
:1002D000D104E104F10490F486E38C0D0E94A0297E
:1002E000E6012196AE01C701B601C7DFCE01DF915D
:1002F000CF91FF90EF90DF90CF9008958C2DEECFAF
:10030000882341F08150682F70E090E080E050E059
:1003100040E0B3CF089590E080E008950F931F93DD
:10032000009709F48BC06115710509F487C000912D
:100330002C0210912D0220912E0230912F020E3F9F
:100340001F4F2F4F3F4F09F06AC04FEF5FEFBA01C9
:1003500040932C0250932D0260932E0270932F0233
:1003600040912C0250912D0260912E0270912F022B
:10037000DC011296ED91FC9180819181A281B38183
:1003800080931A0490931B04A0931C04B0931D0443
:1003900084819581A681B781809316049093170478
:1003A000A0931804B093190480859185A285B38524
:1003B0008093120490931304A0931404B093150433
:1003C00084859585A685B78580930E0490930F0448
:1003D000A0931004B093110410920A0410920B041D
:1003E00010920C0410920D046AD684E898E0909361
:1003F0000C0380930B0390930E0380930D03909353
:10040000100380930F034AD5009731F421E030E0C8
:1004100030931F0420931E041F910F9108950091A3
:100420002C0210912D0220912E0230912F02DB011F
:100430000D931D932D933C93139792CF8FEF9FEFC6
:10044000EBCF8F929F92AF92BF92CF92DF92EF92BB
:10045000FF921F93CF93DF934B015C011091210416
:1004600082E090E090931F0480931E048114910415
:10047000A104B10441F480912104811104C0809150
:100480002004C1E08111C0E0C12CD12C7601809103
:100490002104811106C080912004811102C0CC2367
:1004A000D9F083E090E090931F0480931E04CC2346
:1004B00079F1CCE9DFEF111102C00E94E90BCE0106
:1004C000DF91CF911F91FF90EF90DF90CF90BF9081
:1004D000AF909F908F9008956AE070E080E090E088
:1004E0000E94E52880E1C80E87E2D81EE11CF11CBD
:1004F0008FEF88169806A806B80631F0C1E08C1474
:100500009D04AE04BF0408F0C0E080E0FBD4BFCF80
:10051000D0E0C0E0D0CFCF92DF92EF92FF920F9366
:100520001F93CF93DF938F3F910511F008F050C0D8
:1005300020911E0430911F042330310539F02091A1
:100540001E0430911F042130310531F424E030E0E5
:1005500030931F0420931E046A017B01EC01833059
:100560009105A0F011E0AE01C701B60196D4AB0130
:10057000BC01CE011123F9F0DF91CF911F910F91B2
:10058000FF90EF90DF90CF900C94150E8C01000F30
:10059000111F055F1C4FD8018D919C91892B11F380
:1005A0000E941F0E0297F1F6D801ED91FC91CE0149
:1005B0001995182FD8CF0E94370E90E080E0DF9178
:1005C000CF911F910F91FF90EF90DF90CF90089502
:1005D0008FEF9FEFF4CF80E095C4CF93DF9386E059
:1005E00090E090931F0480931E04E5D4EC01EBE0AF
:1005F000F3E086E0DF011D928A95E9F70E94810B06
:1006000010921F0410921E04CE01DF91CF91089525
:1006100080912004089580910904089560932C022C
:1006200070932D0280932E0290932F0290E080E031
:100630000895FC0191E08091D603811190E09283AE
:1006400008954F925F926F927F928F929F92AF9296
:10065000BF92CF92DF92EF92FF92CF93DF9300D0C1
:1006600000D0CDB7DEB78091D6039091D50391111C
:1006700005C091E0811190E09093D7038F5F8530A2
:1006800008F07DC18093D6038091A10A8150823009
:1006900008F478C11E823E813093A10A8091A00A9D
:1006A0008150823008F471C11D829D819093A00A0F
:1006B000E091980AF091990A80819181A281B38199
:1006C00089839A83AB83BC838093A20A9093A30A05
:1006D000A093A40AB093A50A84809580A680B780D1
:1006E0008092A60A9092A70AA092A80AB092A90A9C
:1006F000C084D184E284F384C092AA0AD092AB0A67
:10070000E092AC0AF092AD0A4090100250901102B3
:10071000609012027090130220E030EC4FEF53E42F
:10072000C701B6010E94F12687FF35C1A7019601D6
:10073000C301B2010E948D266093B60A7093B70A76
:100740008093B80A9093B90A9E81992309F420C135
:10075000933011F4A1E0AE83EE81E093A10AA501EC
:10076000940169817A818B819C810E948C262091E1
:1007700014023091150240911602509117020E9406
:10078000F5264B015C018091D703882381F080918D
:10079000920A9091930AA091940AB091950A80933D
:1007A000AE0A9093AF0AA093B00AB093B10AA50124
:1007B00094016091AE0A7091AF0A8091B00A909155
:1007C000B10A0E94F5266B017C01C092B20AD09258
:1007D000B30AE092B40AF092B50A2091B60A3091B9
:1007E000B70A4091B80A5091B90A60911C02709101
:1007F0001D0280911E0290911F020E948D26A5016C
:1008000094010E94F5269B01AC012093BA0A309313
:10081000BB0A4093BC0A5093BD0AC701B6010E94AF
:100820008C266B017C01C092BE0AD092BF0AE09276
:10083000C00AF092C10A80908E0A90908F0AA09010
:10084000900AB090910A209128023091290240919B
:100850002A0250912B020E9413282B013C01209167
:100860002402309125024091260250912702C501B1
:10087000B4010E9413289B01AC01C301B2010E9484
:100880008D266093C20A7093C30A8093C40A909322
:10089000C50A6093CE0A7093CF0A8093D00A9093D2
:1008A000D10A2091200230912102409122025091E0
:1008B0002302C501B4010E941328A70196010E94DA
:1008C0008D2660938E0A70938F0A8093900A90937E
:1008D000910A6091C4037091C5038091C603909101
:1008E000C7036F5F7F4F8F4F9F4F6093C403709319
:1008F000C5038093C6039093C703A091DF03B09113
:10090000E003BA83A9830E945D279B01AC0160913B
:10091000C8037091C9038091CA039091CB030E94D0
:100920001328E981FA8160837183828393838091A4
:10093000CC039091CD03A091CE03B091CF0301964B
:10094000A11DB11D8093CC039093CD03A093CE0342
:10095000B093CF0326960FB6F894DEBF0FBECDBF7F
:10096000DF91CF91FF90EF90DF90CF90BF90AF904D
:100970009F908F907F906F905F904F90089510920E
:10098000D60382CE23E02E8386CE83E08D838DCE68
:10099000B2E0BE83E1CEA3019201C701B6010E947D
:1009A0008C266093B60A7093B70A8093B80A909326
:1009B000B90AFD81FF2341F0F33011F421E02D83CA
:1009C0008D818093A00ACBCE32E03D83F9CFCF92C8
:1009D000DF92EF92FF92CF93DF931F921F92CDB7DA
:1009E000DEB7C0900C02D0900D02E0900E02F090A5
:1009F0000F02A701960160918A0A70918B0A80917B
:100A00008C0A90918D0A0E94F126882341F0C092B1
:100A10008A0AD0928B0AE0928C0AF0928D0A6BE3DC
:100A200070E080E090E005DC9093890A8093880A6A
:100A300043E050E0BE016F5F7F4FEADB69817A815E
:100A400090E080E00E945D276093C60A7093C70A19
:100A50008093C80A9093C90A6093CA0A7093CB0A1C
:100A60008093CC0A9093CD0A6093920A7093930A74
:100A70008093940A9093950A8091D0039091D1032A
:100A8000A091D203B091D3030196A11DB11D809313
:100A9000D0039093D103A093D203B093D3030F90CC
:100AA0000F90DF91CF91FF90EF90DF90CF9008955E
:100AB0000F931F93CF93DF93E9E2F3E08CED93E084
:100AC00097838683CFEDD3E0D0936A03C093690305
:100AD00008EC13E0158B048BF0939403E0939303DD
:100AE000F583E48321E030E0DC012D933C93109208
:100AF000AA031092B10386E592E09387828781EE84
:100B000093E09983888340E050E060E87FEB409376
:100B1000D8035093D9036093DA037093DB034AE060
:100B200057ED63E27CE3D8014D935D936D937C9325
:100B30001397C2EBD3E04BE758E064EB79E94883C5
:100B400059836A837B8348E958E76FE07FED4093E0
:100B5000B6035093B7036093B8037093B9034FEE95
:100B600056EE64ED73E84093BA035093BB03609371
:100B7000BC037093BD034BE251E364ED75ED40930C
:100B8000BE035093BF036093C0037093C103ADE1F4
:100B9000B3E0B383A283E5E1F3E01196FC93EE9317
:100BA00028E632E0318320833383228321EA3AE04E
:100BB0003583248320EA3AE03783268322EC33E02E
:100BC00015963C932E9314971396DC93CE9312971D
:100BD00017969C938E931697C2E8DAE081E193E032
:100BE0009D8B8C8B80E092E09F8B8E8B1D8E1C8E5C
:100BF000ECE0F2E084859585A685B7858093AE0A02
:100C00009093AF0AA093B00AB093B10A888B998BE6
:100C1000AA8BBB8B188280819181A281B381888746
:100C20009987AA87BB8781E090E0A0E0B0E0898344
:100C30009A83AB83BC836BE370E080E090E03DDBA4
:100C40009F838E8381E08D83DF91CF911F910F91E0
:100C500008958091820A81111DC081E08093820AEB
:100C60008091830A9091840AA091850AB091860AA6
:100C70000197A105B10571F48091870A882351F08D
:100C80006BE370E080E090E0D4DA9093890A80937F
:100C9000880A36CB08954F925F926F927F928F921F
:100CA0009F92AF92BF92CF92DF92EF92FF920F93FB
:100CB0001F93F8944090F9035090FA036090FB035F
:100CC0007090FC03C090ED03D090EE03E090EF0332
:100CD000F090F0034130510509F0A4C09B01AC0134
:100CE000241935094609570929013A010091F503EC
:100CF0001091F6032091F7033091F8034801590150
:100D0000840C951CA61CB71C80169106A206B3067F
:100D1000A0F40091F1031091F2032091F3033091BC
:100D2000F4030F5F1F4F2F4F3F4F0093F1031093BA
:100D3000F2032093F3033093F4038092F50390922F
:100D4000F603A092F703B092F8030091F10310911B
:100D5000F2032091F3033091F4038092FD0390920B
:100D6000FE03A092FF03B0920004009301041093CD
:100D7000020420930304309304046093F9037093F6
:100D8000FA038093FB039093FC03A0E1B7E2A30175
:100D900092010E94A22D6C0D7D1D8E1D9F1D6093E2
:100DA000ED037093EE038093EF039093F0030091B3
:100DB0002C0210912D0220912E0230912F020F3F14
:100DC0001F4F2F4F3F4FF1F000912C0210912D0239
:100DD00020912E0230912F020E3F1F4F2F4F3F4F79
:100DE00089F0C0902C02D0902D02E0902E02F0905D
:100DF0002F0221E08C149D04AE04BF0408F420E00F
:100E00002093090478941F910F91FF90EF90DF9049
:100E1000CF90BF90AF909F908F907F906F905F909A
:100E20004F9008954B015C0184189508A608B708F7
:100E3000A3019201261B370B480B590B641575054E
:100E400086059705D0F082169306A406B50640F4F1
:100E500020E030E0A90181149104A104B10491F4CF
:100E6000A0E1B7E20E94A22DA7019601261B370B35
:100E7000480B590BCA01B901C5CF82169306A406C7
:100E8000B50670F7A0E1B7E2A50194010E94A22D7A
:100E90006C0D7D1D8E1D9F1DB5CFFDCECF93DF93B5
:100EA00000D01F92CDB7DEB71C821B821A82198236
:100EB0001092050410920604109207041092080480
:100EC000BE016F5F7F4FCE0103960E943624698179
:100ED0007A818B819C810E94561D009761F4BE012E
:100EE0006F5F7F4FCE0103960E94422469817A8111
:100EF0008B819C8132D50F900F900F900F90DF91D6
:100F0000CF910895FF920F931F93CF93DF93082FF4
:100F100060E070E0CB010E94E528FF24F3940E947A
:100F20003F1CEC01892B89F010E0CE3F8FEFD807F2
:100F300069F0002361F160E070E0CB010E94E528D8
:100F400081E090E0892B59F322C011E029D5EC0112
:100F5000892B21F0CE3F8FEFD80759F711111EC012
:100F600011E0229609F410E00E94EF1BEC01892B9E
:100F700021F0CE3F8FEFD807E1F6111111C011E03B
:100F8000CE3F8FEFD80709F410E001110BC0CE015E
:100F9000DF91CF911F910F91FF90089511E0E4CF61
:100FA00011E0F3CF60E070E0CB010E94E5281F253F
:100FB000812F90E0C7CFCF93DF93809109048823DE
:100FC00021F060E070E0CB0150D639D6D0E0C0E02F
:100FD000892B71F06AE070E080E090E00E94E528E3
:100FE00081E090DF2CD62196C03D27E0D20781F723
:100FF0002BD60E94AA1D1092210410922004109258
:101000001A0410921B0410921C0410921D041092DA
:1010100016041092170410921804109219041092DA
:1010200012041092130410921404109215041092DA
:101030000E0410920F0410921004109211041092DA
:101040000A0410920B0410920C0410920D044EEF3F
:101050005FEF6FEF7FEF40932C0250932D02609370
:101060002E0270932F0210920904EDEFF3E028E0B6
:10107000DF011D922A95E9F71092F9031092FA0305
:101080001092FB031092FC031092F5031092F603EA
:101090001092F7031092F8031092F1031092F203EA
:1010A0001092F3031092F4031092ED031092EE03EA
:1010B0001092EF031092F003DF91CF9108951092F8
:1010C0002D0410922E0410922F04109230041092CE
:1010D0002C04809135049091360490932B048093D6
:1010E0002A041092290410922804109224041092C9
:1010F00025041092260410922704109232041092B4
:10110000310490E080E00895CF92DF92EF92FF9259
:101110000F931F93CF938C01019709F055C0209135
:1011200035043091360480912A0490912B0440912B
:1011300035045091360450932B0440932A04281709
:10114000390781F010922904109228041092240487
:101150001092250410922604109227041092320453
:10116000109231048091350490913604019761F515
:101170008091310490913204892B21F480913002C6
:10118000811112C080913104909132040197E1F4F1
:101190008091240490912504A0912604B091270405
:1011A0000197A105B10581F4109224041092250441
:1011B00010922604109227041092300282E090E0F0
:1011C00090933204809331048091350490913604D9
:1011D000019709F01CC180914B0490914C04801739
:1011E000910709F014C18091470490914804A0919F
:1011F0004904B0914A04009709F409C120914604BA
:1012000021110DC040914704509148046091490458
:1012100070914A04452B462B472B09F4F8C02091C6
:101220003104309132042230310509F0F0C02091B0
:1012300028042111ECC0FC01C080D180E280F38041
:1012400080912C04882309F4D3C0809138049091B4
:101250003904892B09F4FEC02091380430913904F7
:1012600081E02230310509F080E02091380430918E
:101270003904C1E02130310549F020913804309122
:101280003904C1E02230310509F0C0E0882309F4B7
:1012900056C020914204309143044091440450913F
:1012A0004504C701B6010E940F2887FD14C0209194
:1012B00042043091430440914404509145046091AC
:1012C0002D0470912E0480912F04909130040E947F
:1012D000F12687FD22C020914204309143044091C1
:1012E000440450914504C701B6010E940F28181606
:1012F00034F52091420430914304409144045091CC
:10130000450460912D0470912E0480912F049091DA
:1013100030040E94F126811112C080913A0490910C
:101320003B04A0913C04B0913D04892B8A2B8B2B6C
:1013300019F481E08093290481E080932804CC2370
:1013400009F456C020914204309143044091440472
:1013500050914504C701B6010E94F12687FF14C0D1
:10136000209142043091430440914404509145043B
:1013700060912D0470912E0480912F04909130047F
:101380000E940F2887FF22C020914204309143041D
:101390004091440450914504C701B6010E94F126D2
:1013A000811126C0209142043091430440914404AD
:1013B0005091450460912D0470912E0480912F046A
:1013C000909130040E940F28181694F480913A04EA
:1013D00090913B04A0913C04B0913D04892B8A2B51
:1013E0008B2B19F481E08093290481E080932804F9
:1013F00081E090912804911180E080932C04C092A8
:101400002D04D0922E04E0922F04F092300401308B
:10141000110509F067C18091310490913204892B44
:10142000D9F4109237041092280480913002882356
:1014300079F082E090E0909332048093310410922E
:101440003002209135043091360481E0232BE9F0FD
:1014500080E01BC081E009CF1092300280913704F8
:10146000882349F01092290410923204109231041A
:1014700010923704EDCF8091350490913604892B7A
:10148000E1F08091280410922804209131043091D9
:1014900032042230310509F45EC088F4211531058B
:1014A00009F448C02130310509F4F3C01092290431
:1014B000109228041092370438C081E0E6CF233020
:1014C000310509F4B1C02430310581F7409124047D
:1014D000509125046091260470912704411551050F
:1014E0006105710561F0415051096109710940932D
:1014F000240450932504609326047093270440919C
:101500002404509125046091260470912704452BF2
:10151000462B472BD9F420913304309134042130E9
:10152000310509F046C0109229041092320410923D
:1015300031040CC080913002882341F082E090E0B9
:10154000909332048093310410923002109222045E
:1015500080912904CEC08823C9F380913A049091E8
:101560003B04A0913C04B0913D04181619061A06DC
:101570001B060CF07DC080913504909136040197D4
:1015800009F076C080913A0490913B04A0913C040C
:10159000B0913D048093240490932504A0932604E5
:1015A000B093270483E090E0909332048093310459
:1015B000CDCF40913E0450913F0460914004709122
:1015C0004104452B462B472BA9F01092290480910A
:1015D0003E0490913F04A0914004B0914104809357
:1015E000240490932504A0932604B093270481E05B
:1015F00090E0DACF882399F0809131029091320205
:10160000A0913302B0913402809324049093250476
:10161000A0932604B093270484E090E0C5CF1092F5
:10162000290482E090E0C0CF8091240490912504A9
:10163000A0912604B09127040097A105B10559F0A7
:101640000197A109B1098093240490932504A093E4
:101650002604B09327048091240490912504A0913E
:101660002604B0912704892B8A2B8B2B09F06ECF8F
:101670008091310290913202A0913302B0913402F4
:10168000892B8A2B8B2B09F44ECF81E08093290480
:10169000B3CF4091240450912504609126047091A9
:1016A0002704411551056105710561F0415051094B
:1016B0006109710940932404509325046093260422
:1016C00070932704409124045091250460912604CE
:1016D00070912704452B462B472B09F037CF8111FA
:1016E000C7CF9FCF80912204882309F431CF809106
:1016F0002304CF911F910F91FF90EF90DF90CF9037
:10170000089510922D0410922E0410922F0410921E
:10171000300410922C041092320410923104109272
:101720002B0410922A0410924C0410924B04109235
:101730002904109228041092240410922504109277
:10174000260410922704109223041092220410926F
:101750004704109248041092490410924A041092CF
:1017600046041092420410924304109244041092D2
:10177000450488EE93E0A0E0B0E0809331029093BE
:101780003202A0933302B093340210923E041092BE
:101790003F04109240041092410410923A041092B7
:1017A0003B0410923C0410923D04109239041092B4
:1017B000380481E08093300210923704109236048E
:1017C00010923504109234041092330490E080E0BB
:1017D00008958091350490913604892B19F58091F4
:1017E0003002882351F080913704811106C081E0D6
:1017F000809323048093220408952091370430912C
:10180000300281E090E0332311F090E080E030E09E
:1018100082239323892B21F01092230481E0EACFC5
:1018200010922204089582E090E0FA01918380836F
:101830008FEF9FEF0895CF93DF93EA01009711F0A8
:101840000E94C41E1982188290E080E0DF91CF913F
:101850000895DB01009719F48FEF8C9308952EEF14
:101860002C93FC017096E031F10508F037C0882711
:10187000E35CF34F8F4F0C949A2D6C0C6A0C680C40
:10188000660C640C620C5E0C600C5C0C5A0C580C00
:10189000550C510C4D0C530C6E0C80E311968C932F
:1018A000089589E2FBCF82E2F9CF11961C92089548
:1018B00083E2F4CF81E2F2CF81E1F0CF87E2EECF95
:1018C0008AE2ECCF80E1EACF84E2E8CF88E2E6CF9B
:1018D00086E2E4CF81E3E2CF83E3E0CF80E2DECFB4
:1018E0008091590490915A04089590935A048093DA
:1018F0005904089580915804089590915804892BB3
:10190000809358040895982F9095809158048923C6
:101910008093580408958091570408958091550448
:101920009091560408956115710559F0FB0130E05E
:1019300020E070E060E02417350719F061157105AB
:1019400011F0CB010895A081B181A817B90709F45E
:10195000BF012F5F3F4F3696EECF80915B04811120
:101960001CC060D266D290934E0480934D040E94B6
:10197000C6160E94D81690935204809351040E9478
:10198000571B0E945E1B9093500480934F0481E08C
:1019900080935B0490E080E0089584EF9FEF0895CA
:1019A0008F929F92AF92BF92CF92DF92EF92FF926F
:1019B0000F931F93CF93DF9300D000D000D01F92DE
:1019C000CDB7DEB71A86198618861F821E821D8241
:1019D0001C821B821A82198280915B0407EF1FEF21
:1019E000882309F49CC08E010D5F1F4F9E012B5F61
:1019F0003F4FAE01495F5F4FBE01675F7F4F90E091
:101A000080E00E94DB1C8C01009721F00596029774
:101A100008F0DBC029853A852115310509F402C19A
:101A2000ED80FE804B815C81B701640F751F8F8153
:101A300098858617970708F4F5C0E20EF31ED701C4
:101A40009C91903C09F07FC04230510508F47BC066
:101A500011968C914091590450915A04452B09F4E8
:101A60009CC0913F08F071C02CE1290F2D3008F483
:101A70008BC02DE2290F203108F489C0903C21F45D
:101A80008150823008F483C088E3890F8B3008F4DA
:101A900081C099E2C92E9CE0D92EE3E1FCE06D8182
:101AA0007E81AE014F5F5F4F89859A8519955C01F4
:101AB000C114D104A1F189809A808114910479F133
:101AC0008B819C818815990508F487C010E000E09F
:101AD0004B815C8170E060E0C7010E94C42D01155C
:101AE0001105E9F449815A8169857A858D819E8144
:101AF000680F791FC501F6011995E980FA800D81FB
:101B00001E812F81388549855A856FEF7FEF81E0EF
:101B100090E00E94761C8C01892B09F056C0C80108
:101B20002A960FB6F894DEBF0FBECDBFDF91CF91DE
:101B30001F910F91FF90EF90DF90CF90BF90AF90EB
:101B40009F908F90089580E085CF30E020E0220FB5
:101B5000331FF901E35BFB4F0190F081E02D3097DB
:101B600009F497CF892F90E01995009709F491CF48
:101B7000DC011296ED91FC9113971496CD90DC90B8
:101B8000309709F08CCF1FC021E030E0E0CF22E099
:101B900030E0DDCF23E030E0DACFD12CC12CEBE117
:101BA000FCE09F3F09F07BCFE0914D04F0914E04A3
:101BB000309721F4C90104EF1FEF0CC08FEF90E0C4
:101BC00019950097A9F604EF1FEF89859A8500976C
:101BD00009F4A5CF0E94C41EA2CF0E94A51D8C01AE
:101BE00089859A850E94C41E70E060E0C4010E944D
:101BF0003E1D98878F830E94731C9E838D836F8107
:101C000078856115710559F0C8010E9423209A87D3
:101C1000898706EF1FEF892B09F058CF59CF08EFBE
:101C20001FEF56CF08EF1FEFD0CF20915B04222388
:101C300019F020E00C94DD1687EF9FEF0895809156
:101C4000590490915A0408950E94631B0E94BD1A82
:101C5000F5D0EDE4F4E088E0DF011D928A95E9F724
:101C600010925B0490E080E008950C941A1921E032
:101C700040E050E0BA010C94DD1686E090E0FA01F5
:101C80009183808390E080E0089547E050E06BE628
:101C900072E049CEDF92EF92FF920F931F93CF93A2
:101CA000DF938A01EC01C60FD71FE0905F04F0902C
:101CB0006004D9800E948D1DD816190678F082E044
:101CC00090E0F801918380838EEF9FEFDF91CF91B9
:101CD0001F910F91FF90EF90DF900895EF2841F44E
:101CE00082E090E0F8019183808384EF9FEFEECF54
:101CF000898180935E0490E00196F801918380834E
:101D000090E080E0E3CFCF93DF93EA010E94CB190C
:101D1000882321F00E949A1D0E94CC1982E090E055
:101D2000998388838BEF9FEFDF91CF910895CF93B5
:101D3000DF93EB0186E0FB0111928A95E9F78FEFC3
:101D40008883D8DD8983E7DD8A83E8DD9D838C8302
:101D5000DF91CF910895CF93DF93EA010E94CE19CE
:101D6000811109C082E090E09983888385EF9FEF1D
:101D7000DF91CF91089590E080E0B7DD81E090E0C1
:101D80009983888390E080E0F3CF0F931F93CF93E4
:101D9000DF93EA018C01060F171F0E94CE198111F3
:101DA0000BC082E090E09983888385EF9FEFDF91FD
:101DB000CF911F910F910895F8018181823038F001
:101DC00082E090E0998388838EEF9FEFF0CF81E0EF
:101DD00090E08BDD88E090E09983888390E080E05C
:101DE000E6CFCF93DF930097D1F4EB01FB0132965E
:101DF00086E0DF011D928A95E9F78FEF888385E001
:101E000089831A820E948D1D8B830E948C1D9D8365
:101E10008C8381E08E838F83DF91CF910895DF9152
:101E2000CF9117CD85E49EE090935D0480935C0490
:101E3000089580915C0490915D04089510925D0472
:101E400010925C04089580915F049091600408955D
:101E5000411105C0611571058105910561F060931F
:101E60005F047093600480936104909362044093D4
:101E7000630481E0089580E00895FF920F931F931B
:101E8000CF93DF938A01EC01C60FD71FF9800E9420
:101E90008D1DF816190668F082E090E0F801918334
:101EA00080838EEF9FEFDF91CF911F910F91FF9075
:101EB00008956C817D818E819F814B81C9DF811165
:101EC00008C082E090E0F8019183808384EF9FEF67
:101ED000EACF898180935E0490E00196F8019183B6
:101EE000808390E080E0DFCFCF93DF93EA01FC01B5
:101EF000E60FF71F64817581868197814381A8DF92
:101F0000811109C082E090E09983888384EF9FEF7C
:101F1000DF91CF91089581E090E09983888390E0EC
:101F200080E0F6CFEFE5F4E040815181628173817A
:101F3000480F511D611D711D40835183628373835E
:101F40000895CF93C0915E044C2F50E060915F04E0
:101F50007091600401960E94BB2D8C2FE3DF1092DC
:101F60005E04CF910895009799F480915F04909159
:101F700060042FEFFB012083892B59F020915E0430
:101F800030E02F5F3F4F2417350719F4CB01D9CF2D
:101F900060CC0895009799F480915F04909160045B
:101FA0002FEFFB012083892B59F020915E0430E054
:101FB0002F5F3F4F2417350719F4CB01C2CF49CC0F
:101FC000089523E1AC01249FC001259F900D1124A9
:101FD000E0916804F0916904E80FF91F23813481CE
:101FE0002250310981E02230310508F080E0089567
:101FF0000F931F93CF93DF9300916A0410916B04AA
:10200000D0E0C0E080E00C171D0749F491E0811199
:1020100090E0892FDF91CF911F910F910895811149
:10202000F5CFCE01CEDF2196EECFA0916804B0911E
:102030006904109729F120916A0430916B0482178A
:102040009307F0F453E1589F9001599F300D1124EC
:10205000A20FB31FED91FC911197309789F0129662
:102060008C91681768F48DE0689FE00DF11D1124D4
:1020700080819181892B21F081E09281491708F0BC
:1020800080E008959C0143E1429FC001439F900D71
:102090001124E0916804F0916904E80FF91F838529
:1020A000823099F481E090E065817681409135023B
:1020B000509136026417750711F490E080E0892B87
:1020C00021F081E02230310508F080E00895FC0124
:1020D000A081B1818DE0689FA00DB11D11241396E0
:1020E0004D915C9185859685489F9001499F300D63
:1020F000589F300D1124C9010196611103C0478119
:1021000044FD04960895EF92FF920F931F93CF938F
:10211000DF93EA01FC01E60FF71F02811381E480DF
:10212000F5804F2D6E2DC80180DF81110DC082E03A
:1021300090E0998388838EEF9FEFDF91CF911F917D
:102140000F91FF90EF900895C8013BDF882339F08D
:1021500082E090E09983888388EF9FEFEECF109321
:102160003C0200933B02E0923D02F0923E0281E08D
:1021700090E09983888390E080E0DFCFCF92DF9278
:10218000EF92FF920F931F93CF93DF937A01EC01AD
:10219000C60FD71FC0903B02D0903C0200913D0279
:1021A00010913E02412F602FC6013FDF811110C008
:1021B00082E090E0F701918380838AEF9FEFDF91C7
:1021C000CF911F910F91FF90EF90DF90CF900895E6
:1021D000C601F7DE882341F082E090E0F7019183A9
:1021E000808388EF9FEFEBCF4C815D816E817F8193
:1021F0009A8189818F3F41F082E090E0F7019183DD
:1022000080838EEF9FEFDBCFE3E1EC9D9001ED9DAE
:10221000300D1124E0916804F0916904E20FF31F7E
:102220000190F081E02D2DE0029FE00DF11D1124C1
:102230000190F081E02D27E0129FE00DF11D1124A7
:10224000808391838B8182834383548365837683E8
:102250001F5F10933E0281E090E0F701918380833D
:1022600090E080E0ACCFEF92FF920F931F93CF935B
:10227000DF937A018C01060F171FC0916804D0917B
:102280006904209781F021E030E0F8018281938198
:1022900040916A0450916B048417950710F030E068
:1022A00020E0232B71F482E090E0F701918380839A
:1022B0008EEF9FEFDF91CF911F910F91FF90EF90E5
:1022C000089543E1489F9001499F300D1124C20FAA
:1022D000D31F77DE882341F082E090E0F7019183FD
:1022E000808388EF9FEFE6CFF80124813581203885
:1022F0003105C8F687818111D6CF4181842F90E0C6
:102300008F7E009741F082E090E0F7019183808317
:1023100086EF9FEFCFCF4F833E832D832681288783
:102320001986223010F421E0288721E030E0F701FF
:1023300031832083BFCF88E090E0FA0191838083CE
:1023400090E080E00895FB018FEF808381E181833D
:102350008FEF9FEF9383828380E890E0958384835F
:10236000168217820895FB018FEF808391E091839D
:1023700082839383848384E3858381E090E09783E1
:102380008683089582E090E0FA019183808380EF54
:102390009FEF0895BF92CF92DF92EF92FF920F933B
:1023A0001F93CF93DF93DA01FC01E60FF71F8181C2
:1023B000813081F082E090E08D939C938FEF9FEFCE
:1023C000DF91CF911F910F91FF90EF90DF90CF9011
:1023D000BF900895C281D381B48085810681178121
:1023E000E0906804F0906904E114F10439F482E0AB
:1023F00090E08D939C938CEF9FEFE2CF20916A0445
:1024000030916B04C217D30738F082E090E08D93CF
:102410009C938EEF9FEFD4CFC230D10538F082E08D
:1024200090E08D939C9386EF9FEFCACF9B2D9D7F6D
:10243000B1F78130A1F7B11005C00130110531F0BD
:1024400080E004C081E002301105D0F3882339F325
:102450006D01CE01B6DD882341F082E090E0F60107
:102460009183808388EF9FEFABCF83E18C9FF00156
:102470008D9FF00D1124EE0DFF1DB38681E0848742
:1024800016870587108A178681E090E0F601918310
:10249000808390E080E094CF4DE050E065E972E009
:1024A00042CA8F929F92BF92CF92DF92EF92FF9299
:1024B0000F931F93CF93DF93EA01FC01E60FF71F01
:1024C000828193810481B580E0916804F091690470
:1024D000309791F482E090E0998388838CEF9FEFAE
:1024E000DF91CF911F910F91FF90EF90DF90CF90F0
:1024F000BF909F908F90089520916A0430916B0453
:102500008217930738F082E090E0998388838EEFFA
:102510009FEFE6CF23E1289F6001299FD00C112473
:10252000EC0DFD1DE080F180E114F10499F282814F
:10253000081748F78DE0089F80011124E00EF11E76
:10254000F70180819181892B29F6BB20E1F2F7E028
:10255000BF9E40011124C4010E948B1EF70191838C
:102560008083E0916804F0916904EC0DFD1D0190F9
:10257000F081E02DE00FF11F80819181009739F407
:1025800082E090E0998388838DEF9FEFA9CFA4012B
:1025900070E060E00E94C42D80916804909169040D
:1025A000C80ED91EF60180819181080F191FF8010C
:1025B000B28281E090E09983888390E080E090CFC0
:1025C000AF92BF92CF92DF92FF920F931F93CF9360
:1025D000DF93EA01FC01E60FF71F82819381F4800B
:1025E00000916804109169040115110581F482E0DD
:1025F00090E0998388838CEF9FEFDF91CF911F91BB
:102600000F91FF90DF90CF90BF90AF9008952091F1
:102610006A0430916B048217930738F082E090E0EF
:10262000998388838EEF9FEFE8CF2FEF2F0D2C3FFC
:10263000A8F723E1289F6001299FD00C11240C0DDD
:102640001D1DF80180819181892B89F6FDE0FF9E97
:1026500050011124C5010E948B1EF80191838083D3
:10266000E0916804F0916904EC0DFD1D8081918179
:10267000009739F482E090E0998388838DEF9FEF93
:10268000BCCFA50170E060E00E94C42DE091680419
:10269000F0916904EC0DFD1DF28281E090E09983D8
:1026A000888390E080E0A9CFCF92DF92EF92FF92F3
:1026B0000F931F93CF93DF93860F971FFC01028127
:1026C00013818091680490916904892B81F082E0E4
:1026D00090E0FA01918380838CEF9FEFDF91CF919F
:1026E0001F910F91FF90EF90DF90CF900895C80158
:1026F000B0E0A0E00197A109B1098F3F9F4FA1056C
:10270000B10540F082E090E0FA01918380838EEF82
:102710009FEFE4CF7A0183E1809F6001819FD00C1D
:102720001124C6010E948B1EEC01009741F482E047
:1027300090E0F701918380838DEF9FEFCFCFA601CB
:1027400070E060E00E94C42DD0936904C0936804D7
:1027500010936B0400936A0490E080E02FEF3FEF4A
:1027600041E061E070E08017910741F481E090E082
:10277000F7019183808390E080E0B0CF3A8B298B82
:102780001B864C877E876D87188A1F860196639605
:10279000EACFEF92FF921F93CF93DF93EC0110E00B
:1027A000F12CE12C6A811617B0F083E0689FB0012C
:1027B0001124AE014F5E5F4FC7010E94F01E0097CB
:1027C00021F02FEF3FEF3A8B298BDF91CF911F91B3
:1027D000FF90EF900895612FCE0179DC61E070E009
:1027E0000E943E1DE816F90608F47C011F5FDACF4F
:1027F000F894209166043091670481E02115310539
:1028000009F080E0232B09F0789408952F923F92ED
:102810004F925F926F927F928F929F92AF92BF92F0
:10282000CF92DF92EF92FF920F931F93CF93DF939C
:102830003C01660E771EF301828193814C01B12C1D
:10284000A12CC0916804D0916904209769F021E01F
:1028500030E060916A0470916B048617970710F05E
:1028600030E020E0232BD1F482E090E0FA01918364
:1028700080838EEF9FEFDF91CF911F910F91FF909B
:10288000EF90DF90CF90BF90AF909F908F907F9010
:102890006F905F904F903F902F90089580923F02ED
:1028A00090924002A0924102B092420263E1689F7E
:1028B0009001699F300D1124C20FD31FF301818154
:1028C000833040F082E090E0FA019183808386EFCC
:1028D0009FEFD1CF2A012B813C81232BF1F428815A
:1028E00039819F8191FF2EC0232B09F46FC0209165
:1028F0006D049A81422F490F5527551FBA0141E0B7
:1029000050E06138710514F050E040E0452B09F4C7
:102910005DC02A87920F90936D048150823008F435
:1029200081C066DF882309F4DAC0F3018181813038
:1029300009F48DC008F47BC0823009F4C8C090E06F
:1029400080E0ADC0232B09F441C020916C049A8132
:10295000E22FE90FFF27FF1F41E050E0ED3FF105B7
:1029600014F050E040E0452B89F12A87920F9093B4
:102970006C04D3CFA081B181A20FB31F11966C91CB
:10298000060F111D0196295F3F4F8417950794F399
:102990008D859E85089F1001099F300C189F300C73
:1029A0001124C114D104D1F48F8184FF17C00E9477
:1029B0008C1DF5E02F0E311C21E08215930508F4E3
:1029C00020E0A701435F5F4F21110EC082E090E03D
:1029D000F2019183808387EF9FEF4DCF0E948C1D82
:1029E0002FEF221A320AE8CF88819981E80EF91E6A
:1029F000F70114830383FFEFCF1ADF0A7A018A817C
:102A00008C151D0409F00CF48CCFE881F981EE0DD2
:102A1000FF1D428150E030E020E010E000E090E057
:102A200080E0B3CFF12CE12CD12CC12CE8CF81E098
:102A300090E09C838B83DCDA882309F480CF81E0EB
:102A400090E00E94750C80E40E94830C78CF898905
:102A50009A89019661F083E090E09C838B8382E009
:102A600090E00E94750C80E40E947D0C68CF8D81FF
:102A70009E81209135023091360282179307D1F45E
:102A80006091390270913A02AE014F5E5F4F8091C2
:102A90003702909138020E94E21F0097E1F2789489
:102AA00022E030E0F20131832083892BA9F08DEF01
:102AB0009FEFE1CE22E082169104A104B1045CF6FE
:102AC000039748F6CE0165DE188A1F86E6CF82E0BE
:102AD00090E09C838B8333CF90E080E0CCCE82E08B
:102AE00090E0F2019183808385EF9FEFC4CE8F92B7
:102AF0009F92AF92BF92CF92DF92EF92FF920F938D
:102B00001F93CF93DF93EA018C01060F171FF80183
:102B10008181833098F082E090E09983888386EF0A
:102B20009FEFDF91CF911F910F91FF90EF90DF907A
:102B3000CF90BF90AF909F908F9008958091680440
:102B400090916904892B61F081E090E020916A0402
:102B500030916B04232B11F490E080E0892B39F441
:102B600082E090E0998388838EEF9FEFDACF40DE9A
:102B7000882309F4E1C0F8018181813009F497C00C
:102B8000E8F0823099F420916A0430916B04E0916E
:102B90006804F091690490E080E041E050E028177B
:102BA000390709F0BFC024DA811117C0789481E099
:102BB00090E09983888390E080E0B3CF20916A040D
:102BC00030916B04E0916804F091690490E080E03A
:102BD00041E050E02817390741F481E090E00E947D
:102BE000750C80E40E94830CE1CF63817481672BB4
:102BF00011F05483438301967396ECCFE0916804FF
:102C0000F0916904E00FF11F2381348122303105F6
:102C1000D9F4218932892F3F3F4FB1F42581368184
:102C200040913502509136022417350761F5AF0106
:102C30004F5E5F4F6091390270913A028091370286
:102C4000909138020E94E21FEFEFCE1ADE0AEE0AE0
:102C5000FE0A0D5E1F4F40916A0450916B0470E0B4
:102C600060E0C416D506E606F7064CF5009731F28B
:102C70007894892B09F49BCF82E090E09983888334
:102C80008DEF9FEF4ECF42E0C416D104E104F10472
:102C9000DCF623303105C0F6CF017BDDE09168041E
:102CA000F0916904E00FF11F108A1786CDCF10E074
:102CB00000E090E080E0C12CD12C7601CCCF0097D1
:102CC000B9F610E000E0812C912C540183E0E82E4D
:102CD000F12C1AC0E0916804F0916904E00FF11F33
:102CE00083819481029749F4F482E38282E090E048
:102CF0000E94750C80E40E947D0CFFEF8F1A9F0AE2
:102D0000AF0ABF0A0D5E1F4F80916A0490916B0459
:102D1000B0E0A0E088169906AA06BB06DCF290E0B7
:102D200080E0A6CF638174816230710511F4548311
:102D300043830196739633CF82E090E09983888332
:102D400085EF9FEFEECE0097B9F48FEFFB01808304
:102D500020913F023091400243E1429FC001439FD6
:102D6000900D1124E0916804F0916904E80FF91FB7
:102D70008285FB01818308950C94290C88E090E002
:102D8000FA019183808390E080E0089510926704B7
:102D900010926604E8E6F4E086E0DF011D928A9571
:102DA000E9F78CE492E190936504809364040895BC
:102DB000809164049091650408952F923F924F9200
:102DC0005F926F927F928F929F92AF92BF92CF92BB
:102DD000DF92EF92FF920F931F93CF93DF93CDB7C4
:102DE000DEB72F970FB6F894DEBF0FBECDBFF894B5
:102DF000E0916604F09167043196F0936704E093E4
:102E00006604789440906804509069044114510419
:102E100009F40DC2E0916A04F0916B04EF2B09F400
:102E200006C22D8749875A876B877C8798878F834F
:102E30001201B12CA12C10E000E080916A04909165
:102E40006B04A816B90618F40115110529F1F894B8
:102E50008091660490916704019790936704809332
:102E600066047894C8012F960FB6F894DEBF0FBEA3
:102E7000CDBFDF91CF911F910F91FF90EF90DF9029
:102E8000CF90BF90AF909F908F907F906F905F900A
:102E90004F903F902F9008957101E418F508D101EB
:102EA00017968C91179781FD54C013968D919C9124
:102EB0001497039709F04DC015968D919C91EF8161
:102EC000F8858E179F0709F044C0B50190E080E0B7
:102ED00081D48A8320916804309169043D832C83D6
:102EE0003D85332309F44CC04C815D81452B09F4A9
:102EF0009BC180916A0490916B04A816B90608F0F2
:102F000093C1C501BFD88823E9F06C817D816E0D26
:102F10007F1D7D836C83DB011F968D919C91892B96
:102F200089F0D12CC12CF12CE12CAC81BD81129601
:102F30008C9112978E151F0409F094F450961C92F0
:102F40001E921F972A81222321F0B50190E080E094
:102F500043D43FEFA31AB30A43E1240E311C6DCFD3
:102F6000AC81BD81ED91FC91EC0DFD1D85819681BB
:102F70000BD7BFEFEB1AFB0AEDE0CE0ED11CD5CF7D
:102F8000EC81FD81309709F44FC180916A049091E2
:102F90006B04A816B90608F047C1EE0DFF1DFF87A8
:102FA000EE87C5016FD88B83882339F1AE85BF8545
:102FB0001F968D919C915097019621E01D964D9101
:102FC0005C918417950709F020E02E831982712CFB
:102FD00010E000E0AE85BF8512968C91781608F45B
:102FE0005DC0EE85FF85878590890196658576852C
:102FF0000E94642D908B8787A5CFB1E0BE83E6CF7A
:10300000992493946BC087D6F6019683858383C0F9
:10301000D601ED90FC90B7E06B9EE00CF11C112402
:10302000F7016381748180818F3F61F121E030E09D
:1030300002C0220F331F8A95E2F7C901092E000C46
:10304000AA0BBB0BFB0140815181628173818423F8
:103050009523A623B72321E0892B8A2B8B2B09F4F8
:1030600020E0D4012C93D70111968C91F601238591
:103070003485820F932F911D880E991E1486138616
:1030800063949CC0418150E0C4010E94BB2DEBCFF2
:10309000998206EF1FEFC6C01982C4C0F981F111F1
:1030A000A0CFEDE07E9E70011124AE85BF85CD904E
:1030B000DC90CE0CDF1C17D49D838C83BB81BB239B
:1030C00009F49ECF81E0EE85FF8527853089232B8B
:1030D00009F080E0982E882309F459C0672D8E8569
:1030E0009F850E946710D60118969C938E93179720
:1030F00061E070E0C3D4EE85FF85218932892F3FDE
:10310000320709F480CFBC01C9019DD7D6011696BC
:103110009C938E931597D60115968D919C91169739
:10312000009709F4B5CFEC81FD818E0F9F1F1A9691
:103130009C938E931997AE85BF85ED91FC91119765
:10314000EE0EFF1EF70121853285148613861A962E
:103150008C91870DD9018D93711016C0EE85FF8576
:10316000878184FF11C049855A856B857C85F9016B
:103170004183528363837483F70183859485049626
:10318000A80FB91F14861386F701B287A187D6014D
:1031900015968D919C911697892B09F443C0EE8565
:1031A000FF8525813681809135029091360228175E
:1031B000390779F019968D909C90612CD601129662
:1031C0008C911297681608F423CF1A969C928E92CF
:1031D0001997BE81BB2309F45FCF61E070E0F6016F
:1031E000878190854BD4D6011796ED90FC90189767
:1031F00015964D915C91E1E0F0E0BA81BB2311F0AE
:10320000F0E0E0E00C811D819C01B5018827992741
:103210008E1B9F0B6BD38C01892B21F0F6018581CE
:103220009681B2D57394D6CE0FEF1FEF8BCE10E000
:1032300000E00DCE2F923F924F925F926F927F925D
:103240008F929F92AF92BF92CF92DF92EF92FF92B6
:103250000F931F93CF93DF9380916804909169043B
:1032600010E000E0892BA9F0C3DA0AEF1FEF8823F2
:1032700081F020906A0430906B04C0916804D09172
:103280006904D12CC12C10E000E02C143D04A9F4F9
:103290007894C801DF91CF911F910F91FF90EF902B
:1032A000DF90CF90BF90AF909F908F907F906F9066
:1032B0005F904F903F902F900895C6010E9442105A
:1032C000882309F18B819C810397E9F48F85988984
:1032D000892BC9F0B60190E080E07CD221E030E09B
:1032E000882311F030E020E044245524421A530A88
:1032F000B12CA12C912C812C8A818815190409F0FC
:1033000038F4188A1F864FEFC41AD40A6396BDCFCB
:10331000E881F981EA0DFB1D85819681892BA1F158
:1033200061E070E087819085A9D33C01DCD28C01FB
:10333000E881F981EA0DFB1D818592852581368121
:10334000200F311FAC01421B530B9A01478150855E
:10335000421B530B70E060E00E94C42DE881F981AC
:10336000EA0DFB1DE780F084458156819301B6018B
:10337000C201BCD28C01892B39F0E881F981EA0DB8
:10338000FB1D8581968100D55FEF851A950A8DE03A
:10339000A80EB11CB1CF2CCA789408952F923F92F9
:1033A0004F925F926F927F929F92AF92BF92CF9215
:1033B000DF92EF92FF920F931F93CF93DF9300D092
:1033C00000D0CDB7DEB7009168041091690499244C
:1033D00093940115110509F43EC0A0906A04B090C1
:1033E0006B0406DA982E8823B1F1109269041092CA
:1033F000680410926B0410926A0410926C0410928C
:103400006D048FEF9FEFDC0180933F0290934002A9
:10341000A0934102B0934202789480D31E830D831F
:10342000C12CD12C7601C501B0E0A0E089839A833C
:10343000AB83BC8322242A94322C89819A81AB816C
:10344000BC81C816D906EA06FB06F4F0C8019CD474
:1034500080E40E94830C892D26960FB6F894DEBF77
:103460000FBECDBFDF91CF911F910F91FF90EF90D5
:10347000DF90CF90BF90AF909F907F906F905F90C4
:103480004F903F902F900895AD81BE8115968D91FC
:103490009C9116972091350230913602821793073E
:1034A000D1F451968D919C91BCD5ED81FE818081A6
:1034B0009181B12CA12C412C512C3201892B91F5F9
:1034C000BFEFCB1ADB0AEB0AFB0AED81FE81739694
:1034D000FE83ED83B2CFB2E0CB16D104E104F10458
:1034E00024F7039710F7ED81FE81818992898F3F40
:1034F000980709F011D5AD81BE8152963C922E926B
:103500005197D3CF8A0D9B1DDC018D919C91009723
:1035100009F03AD4BFEF4B1A5B0A6B0A7B0AEDE065
:10352000AE0EB11CAD81BE818D919C91119712960A
:103530004C9150E070E060E0441655066606770650
:103540000CF322D4BDCFCF93DF93EA0127DF8111A3
:1035500009C082E090E09983888385EF9FEFDF9137
:10356000CF91089581E090E00E94750C81E090E099
:103570009983888390E080E0F2CF10DF1092650499
:1035800010926404089542E050E063EE72E00C94FF
:10359000930CFF920F931F93CF93DF938A01EC015B
:1035A000C60FD71FF980B9D20897F816190671F01F
:1035B00068F082E090E0F801918380838EEF9FEFC6
:1035C000DF91CF911F910F91FF9008956C817D81C4
:1035D0008E819F814B810E94280F811108C082E05B
:1035E00090E0F8019183808384EF9FEFE9CFF98029
:1035F0000E94230F4F2D50E0BE01685F7F4F0E9455
:10360000BB2D89810E94920F81E090E0F8019183A7
:10361000808390E080E0D4CFDF92EF92FF920F930F
:103620001F93CF93DF938A01EC01C60FD71F0E942F
:10363000230F7C01D98071D2DD2059F0029721E05F
:1036400030E0D816190619F010F030E020E0232BF6
:1036500079F482E090E0F801918380838EEF9FEF10
:10366000DF91CF911F910F91FF90EF90DF90089520
:10367000EF2841F482E090E0F8019183808384EFA9
:103680009FEFEECFF9800E94230F4F2D50E0BE0137
:103690006E5F7F4F0E94BB2D89810E94920F81E057
:1036A00090E0F8019183808390E080E0D9CF83ECB3
:1036B0009AE190936F0480936E04089580916E0454
:1036C00090916F0408950895FC01118210829383F4
:1036D00082830895DB011D921C92DC011296ED910C
:1036E000FC9113977183608313967C936E9312976A
:1036F0000895FC0180819181DB018D939C93A081D1
:10370000B181109741F08D919C9191838083892B99
:1037100011F4F383E2830895FC0180819181DB0140
:103720008D939C93892B11F47383628371836083DF
:103730000895FC0111821082938382830895CF93B0
:10374000DF931F921F92CDB7DEB71A821982F894C9
:10375000BE016F5F7F4F85E794E0CBDF89819A815F
:10376000009709F011D389819A81892B89F7BE01CD
:103770006F5F7F4F89E794E0BCDF89819A81009772
:1037800009F002D389819A81892B89F778940F9067
:103790000F90DF91CF910895CF93DF931F921F92E7
:1037A000CDB7DEB71A821982F894BE016F5F7F4FE2
:1037B00081E794E09EDF89819A81009709F0E4D245
:1037C00089819A81892B89F778940F900F90DF91E6
:1037D000CF91089581E0089590E080E00895EF9200
:1037E000FF920F931F93CF93DF931F921F92CDB73A
:1037F000DEB71A8219828091700407EF1FEF8823C9
:10380000A1F1F894BE016F5F7F4F89E794E071DF0B
:10381000789489819A81EE24E394F12C892B51F4D8
:10382000F894BE016F5F7F4F85E794E062DF789484
:10383000F12CE12C89819A810EEF1FEF0097A9F0FE
:10384000FC014281538164E070E044D68C01892BF5
:1038500061F0F89469817A81C701880F991F880FF8
:10386000991F8B589B4F58DF7894C8010F900F9089
:10387000DF91CF911F910F91FF90EF9008950F93DB
:103880001F93CF93DF9300D01F92CDB7DEB71C827A
:103890001B821A8219828091700407EF1FEF882320
:1038A000C1F0AE014D5F5F4F64E070E0CE01019664
:1038B00084D68C01892B69F4E981FA818B819C8102
:1038C00093838283F89469817A8181E794E002DFAF
:1038D0007894C8010F900F900F900F90DF91CF91C7
:1038E0001F910F91089589D7049608958F929F9202
:1038F000AF92BF92CF92DF92EF92FF920F931F93FE
:10390000CF93DF931F921F92CDB7DEB71A82198231
:10391000BC016F5F7F4F6330710598F0AA24AA94B1
:10392000BA2CC5010F900F90DF91CF911F910F918D
:10393000FF90EF90DF90CF90BF90AF909F908F90CF
:1039400008954115510551F3480159018A016C014F
:10395000CADF8815990511F7E114F104F9F28E0D0B
:103960009F1DA816B906D0F2809170048823F1F04B
:10397000F894B501645071099701AE014F5F5F4F34
:10398000C8010496AFD65C01892B71F489819A81B4
:10399000F80193838283C601880F991F880F991FAE
:1039A000B8018B589B4F96DE7894BBCF87EFA82E3B
:1039B000BB24BA94B6CFAF92BF92CF92DF92EF9270
:1039C000FF920F931F93CF93DF931F921F92CDB758
:1039D000DEB71A821982892B09F047C0611571057B
:1039E00009F443C04115510509F43FC021153105C3
:1039F00009F43BC001151105C1F1809170048823C1
:103A0000B9F179016A015B01F894BE016F5F7F4FE4
:103A100081E794E06EDE789489819A81009759F16C
:103A2000DC0112966D917C91A801049674D68C01EC
:103A3000E981FA81D501ED93FC938281938104960B
:103A4000F601918380834FDFD7018D939C93C8014A
:103A50000F900F90DF91CF911F910F91FF90EF90FA
:103A6000DF90CF90BF90AF9008950FEF1FEFEFCF93
:103A700007EF1FEFECCF0EEF1FEFE9CFCF93DF93F0
:103A8000EC01672B71F4C2D68C179D0760F0B5D698
:103A90002496C80FD91FB4D68C0F9D1FDF91CF91EC
:103AA0000895B1D6F1CF90E080E0F8CF0F931F9347
:103AB000CF93DF932091700421112BC08B01EC0177
:103AC00085E794E001DE89E794E0FEDD81E794E09C
:103AD000FBDD97D00097C1F499D670E060E0CEDFAF
:103AE00043E452E062E070E07BD1009769F480919A
:103AF0004302909144029CD6B801CE01D1D40097E4
:103B000019F421E020937004DF91CF911F910F9160
:103B1000089584EF9FEFF8CF76C678C6CF93DF93F2
:103B200078D6EC01892B11F40ADE36DECE01DF9166
:103B3000CF910895CF93DF936CD6EC01892B09F4D4
:103B4000FEDDCE01DF91CF910895809143029091E7
:103B500044020895CF93DF9380917004D0E0C0E0D9
:103B60008823D1F06AD6EC01892BB1F4E8DD14DEAC
:103B70008091430290914402CFD1B5D2EC01892BC0
:103B800059F485E794E0D5DD89E794E0D2DD81E75B
:103B900094E0CFDD10927004CE01DF91CF910895B3
:103BA000EF92FF920F931F93CF93DF93EC017A0173
:103BB0008B010F5F1F4F0E9DA0010F9D500D1E9D8D
:103BC000500D112470E060E00E94C42D90E080E070
:103BD000F0E0E0E02FEFE816F90639F4DF91CF913D
:103BE0001F910F91FF90EF9008951A8219822883F8
:103BF000309711F0D283C1830196FE01C00FD11F0F
:103C0000EACFAF92BF92CF92DF92EF92FF920F93E3
:103C10001F93CF93DF938DE896E07C012CEFE22297
:103C200043E050E065E472E08BE492E0E6D385E4A3
:103C3000C82E82E0D82E9BE4A92E92E0B92EC6EBC6
:103C4000D7E08E01D6014D915D916D01F501619135
:103C500071915F01D8011196FC92EE9215965C93DA
:103C60004E93149713965C934E93129717967C93EA
:103C70006E9316979B012F5F3F4F249FC001259F96
:103C8000900D349F900D112419969C938E93189744
:103C9000E114F10411F0C70183DFF80180859185FB
:103CA000E80EF91E065F1F4FFBE4CF16F2E0DF06B9
:103CB00049F6EFE7F4E08BE092E0DF019C011D9212
:103CC00021503040E1F710927E0410927D041F8E47
:103CD0001E8E1BA21AA219A218A21DA21CA21FA20C
:103CE0001EA22A9637E0C43DD30789F71092B30786
:103CF0001092B2071092B5071092B40790E080E0DE
:103D0000DF91CF911F910F91FF90EF90DF90CF90B7
:103D1000BF90AF9008950097F1F0F894ABE4B2E053
:103D2000E6EBF7E030E020E04D915D914817590750
:103D3000A8F0428153814115510581F08AE0829FAC
:103D4000F001839FF00D1124EA54F84F8081918196
:103D5000009759F4789490E080E008952F5F3F4FEA
:103D60003A962330310501F7F5CFDC0111966D91BC
:103D70007C91718360834150510953834283FC01DC
:103D80002193CF0178940895009749F1DC018E9139
:103D9000863041F4E091B407F091B5073097F9F01F
:103DA000CD0119948630D8F4282F30E0F8948FEFA5
:103DB0008C938AE0829FF001839FF00D1124EA54D6
:103DC000F84F8081918112969C938E931197B183C5
:103DD000A08382819381019693838283789408954E
:103DE000CF92DF92EF92FF920F931F93CF93DF93C7
:103DF0009C0182E894E08C7F4115510509F489C04B
:103E00002115310509F485C06115710509F481C0DA
:103E10008A01AB01B9016D5F7F4F6C7F9B012F5F02
:103E20003F4F249F7001259FF00C349FF00C11240C
:103E3000F894E6EBF7E023E030E0E901A6A1B7A1B2
:103E4000C68CD78CCD2809F058C0109709F03EC019
:103E5000C0907D04D0907E0428E032E02C193D090A
:103E60002E153F0530F47894CFEFDFEF86EF9FEF0C
:103E700021C02AE02C9FF0012D9FF00D1124EA545F
:103E8000F84F9183808355834483538342837783A0
:103E90006683F186E086009709F082DEEC0CFD1C5B
:103EA000F0927E04E0927D047894CF3FDC07F1F23B
:103EB00090E080E0F801D183C083DF91CF911F9122
:103EC0000F91FF90EF90DF90CF900895AE15BF0552
:103ED000A0F02AE02C9FF0012D9FF00D1124EA5450
:103EE000F84F918380835583448353834283778340
:103EF00066830097C9F254DED7CF8A0F9B1F2F5FCE
:103F00003F4F3A962630310509F097CFCFEFDFEFDC
:103F1000CBCF8FEF9FEFD1CF9C010397039708F092
:103F20004EC0F89485E09AE0482F50E024173507FA
:103F30009CF191E08AE0829FF001839FF00D1124B3
:103F4000EA54F84F11821082158214821382128271
:103F5000178216829923E1F080917D0490917E046E
:103F6000E6EBF7E0268D378D232B49F426A137A108
:103F70002115310521F0821B930B17A216A23A9648
:103F800027E0E43DF20771F790937E0480937D046F
:103F9000789490E080E00895949FF001959FF00D53
:103FA0001124EA54F84F40815181452B31F440856A
:103FB0005185452B11F48150B7CF90E0BBCF8FEFE7
:103FC0009FEF08954115510549F1009739F16115A9
:103FD000710521F1F8942091B2073091B307232B9A
:103FE000B9F42091B4073091B507232B89F490934D
:103FF000B3078093B2077093B5076093B4077894C2
:1040000026E030E090E080E0FA01318320830895DB
:1040100078942FEF3FEF86EF9FEFF6CF8FEF9FEF74
:104020000895069769F4F8941092B3071092B207B6
:104030001092B5071092B407789490E080E008954C
:104040008FEF9FEF08956115710519F4F0E0E0E03E
:1040500011C08630910581F4E091B207F091B30769
:104060003097A1F3CB0101961995009779F3FC01E4
:1040700086E08193CF0108959C01235031092330BC
:10408000310520F72AE0289FD001299FB00D112487
:10409000AA54B84F2D913C911197232BB9F2169643
:1040A0002D913C9117972617370780F2F8941296B6
:1040B0002D913C9113972115310529F0ED91FC913B
:1040C0001197309711F47894C1CF418152811196A4
:1040D0005C934E932150310913963C932E93129783
:1040E00081937894C7CFEAE8F6E088E291E0DF01B7
:1040F0009C011D9221503040E1F7EFE7F4E08BE0A6
:1041000092E0DF019C011D9221503040E1F71092B6
:104110007E0410927D04E6EBF7E08CE3DF011D9254
:104120008A95E9F7E2EBF7E084E0DF011D928A95DA
:10413000E9F790E080E00895CF93DF93C0915102BA
:10414000D0915202CF3FDC0759F45CD490935202D5
:104150008093510297FF09C0D0935202C09351023D
:1041600084EF9FEFDF91CF91089590E080E0FACF48
:104170008230910528F48093F20790E080E0089562
:104180008FEF9FEF08954F925F926F927F92AF9261
:10419000BF92CF92DF92EF92FF920F931F93CF9334
:1041A000DF931F921F92CDB7DEB71A821982009754
:1041B00009F478C06115710509F474C020915102A9
:1041C0003091520207EF1FEF2F3F3F4F09F444C0D9
:1041D0006B015C01412C512C3201F12CE12C10E0DF
:1041E00000E09E012F5F3F4FA6014E195F09B50108
:1041F0006E0D7F1D809151029091520262D4892BE5
:1042000009F04AC089819A81009741F4E114F104D0
:1042100029F42091F207222309F441C0E80EF91E87
:10422000EC14FD04C8F480E8481684E858068EE1D2
:104230006806710418F560E070E0CB01C6D72AE08B
:10424000420E511C611C711C0A3F4FEF140721F0F4
:10425000043F8FEF1807A1F4C8010F900F90DF9172
:10426000CF911F910F91FF90EF90DF90CF90BF9073
:10427000AF907F906F905F904F90089501EF1FEF88
:1042800081E090E0013F2FEF120711F090E080E015
:10429000892B09F4A6CFE0CF04EF1FEFDDCF0AEFA3
:1042A0001FEFDACF0FEF1FEFD7CF4F925F926F92D2
:1042B0007F92AF92BF92CF92DF92EF92FF920F93D5
:1042C0001F93CF93DF931F921F92CDB7DEB71A8251
:1042D0001982009709F478C06115710509F474C05A
:1042E000209151023091520207EF1FEF2F3F3F4FB5
:1042F00009F444C06B015C01412C512C3201F12CBA
:10430000E12C10E000E09E012F5F3F4FA6014E1907
:104310005F09B5016E0D7F1D80915102909152028F
:1043200086D3892B09F04AC089819A81009741F48C
:10433000E114F10429F42091F207222309F441C089
:10434000E80EF91EEC14FD04C8F480E4481682E47B
:1043500058068FE06806710418F560E070E0CB0144
:1043600034D72AE0420E511C611C711C0E3F4FEFE6
:10437000140721F0043F8FEF1807A1F4C8010F9034
:104380000F90DF91CF911F910F91FF90EF90DF90F1
:10439000CF90BF90AF907F906F905F904F900895B7
:1043A00002EF1FEF81E090E0023F2FEF120711F0C4
:1043B00090E080E0892B09F4A6CFE0CF04EF1FEF57
:1043C000DDCF0EEF1FEFDACF0FEF1FEFD7CF8091CA
:1043D0005102909152028F3F980749F00BD3892BDD
:1043E00049F48FEF9FEF909352028093510290E037
:1043F00080E0089584EF9FEF0895CF92DF92EF92CF
:10440000FF920F931F93CF93DF9321E04115510546
:1044100009F020E04150510921112CC0DC01FB01C1
:10442000D12CC12C21E022C03FEFC31AD30A7D0159
:104430000D911D91E701EA80FB80E016F106A8F4DA
:1044400020813181E280F380F182E0823383228314
:10445000ED90FC9011979D0122503109E901F982FC
:10446000E88211961C930E9320E03296C416D5066E
:10447000D8F2D2CFDF91CF911F910F91FF90EF90A3
:10448000DF90CF900895FC01680F791F90E080E0E5
:10449000E617F70709F408952191820F911DF8CFCF
:1044A0002091F307211113C047DE009791F4109279
:1044B000F9071092F8071092F7071092F60710927A
:1044C000F5071092F40721E02093F307089584EF95
:1044D0009FEF0895AF92BF92CF92DF92EF92FF923B
:1044E0000F931F93CF93DF93009709F460C046307A
:1044F000510508F45CC02091F307C7EFDFEF2223DA
:1045000009F449C08C01060F171FF801C080D18043
:10451000C114D10409F44EC096012A5F3F4F4217DF
:10452000530708F447C07C018091F8079091F90780
:1045300093838283B6016C5F7F4F5801A60EB71E2E
:10454000C801A1DFF5019183808364E070E0C801B8
:104550001ADEEC01892BF9F481E090E009DEB60166
:10456000C801049610DEEC01892B91F462E070E042
:10457000C50109DEEC01892B59F4C70105DC8091E6
:10458000F8079091F90701969093F9078093F8073F
:1045900090E080E0EDDDCE01DF91CF911F910F9192
:1045A000FF90EF90DF90CF90BF90AF900895CFEF46
:1045B000DFEFF1CFC9EFDFEFEECF6F927F928F92F7
:1045C0009F92AF92BF92CF92DF92EF92FF920F93A2
:1045D0001F93CF93DF9300D01F92CDB7DEB7009724
:1045E00009F47AC04115510509F476C02091F3070A
:1045F00007EF1FEF222309F44DC03A017B015C0154
:1046000064E070E0CE01019650DE8C01892B09F048
:1046100041C009811A810115110509F45AC04801E8
:1046200086E0880E911CB701680D791D80915302B8
:104630009091540208DD6C01009709F450C0A70165
:1046400070E060E00E94C42D89819A81AB81BC81B9
:10465000EC0CFD1CF70181939193A193B1937F0121
:1046600081E090E085DDB801C7011FDE892B31F5BF
:1046700062E070E0C701800F911F17DE8C01892B6B
:10468000E9F490E080E074DDF501D182C082F301AD
:1046900091828082C8010F900F900F900F90DF9150
:1046A000CF911F910F91FF90EF90DF90CF90BF902F
:1046B000AF909F908F907F906F90089590E080E0F2
:1046C00057DDF50111821082F30111821082C601BB
:1046D0005BDB09EF1FEFDECF0FEF1FEFDBCF06EF46
:1046E0001FEFD8CF0097A1F04115510589F0211592
:1046F000310571F0F90136966E177F0748F0DC013D
:104700002D933C93DA01ED93FC9390E080E00895C3
:104710008FEF9FEF0895AF92BF92CF92DF92EF920B
:10472000FF920F931F93CF93DF93009709F45FC01D
:104730004115510509F45BC06530710508F457C097
:104740002091F307C7EFDFEF222391F1DC01CD9039
:10475000DC9011971296ED91FC9196012A5F3F4FE4
:10476000C9EFDFEF2617370719F5C091F407D0918D
:10477000F507209749F521E030E03093F5072093C5
:10478000F4077A018C01F093F707E093F6075601DE
:10479000B4E0AB0EB11CB50176DE0A0D1B1DF801AD
:1047A000208131818217930729F5D701CD92DC92C0
:1047B000CE01DF91CF911F910F91FF90EF90DF908D
:1047C000CF90BF90AF9008952091F6073091F707F2
:1047D0002F5F3F4FCCEFDFEFE217F30790F2CBEF05
:1047E000DFEF2E173F0768F2D0E0C0E0CACFCFEF6F
:1047F000DFEFDECFC3EFDFEFDBCF84E090E00895A3
:1048000082E090E008958CEF9FEF089580E290E0C1
:1048100008951092F9071092F8071092F707109276
:10482000F6071092F5071092F40790E080E00895E3
:10483000909354028093530208958091F307882344
:1048400091F0C5DD009789F41092F9071092F807EE
:104850001092F7071092F6071092F5071092F407DE
:104860001092F307089590E080E00895009749F0D2
:104870006115710531F0FC0111821082FB0111827A
:1048800010820895F3CF26E030E040E855E260E082
:1048900070E090E080E000C01092FB071092FA07F1
:1048A0008930910508F03AC0FC018827E55AFB4D94
:1048B0008F4F0C949A2D64246D2476247F248824B1
:1048C0008F24922495249B2481E090E09093FB0711
:1048D0008093FA078EE098E039C682E090E09093EA
:1048E000FB078093FA078BEA98E0F6CF84E090E02C
:1048F0009093FB078093FA0788E499E0EDCF88E076
:1049000090E09093FB078093FA0785EE99E0E4CF5F
:1049100080E190E09093FB078093FA07089580E28E
:1049200090E0F8CF80E490E0F5CF80E890E09093BD
:10493000FB078093FA078091FA079091FB0791603B
:10494000E9CF1F920F920FB60F9211240BB60F9260
:104950002F933F934F935F936F937F938F939F9387
:10496000AF93BF93EF93FF938FE89DEF9093250153
:1049700080932401B9D0FF91EF91BF91AF919F91A6
:104980008F917F916F915F914F913F912F910F90F8
:104990000BBE0F900FBE0F901F9018958FE89DEFE4
:1049A0009093250180932401A3E7B0E08C918E7F42
:1049B0008C93E0E2F1E080818C7F8083E1E2F1E0A2
:1049C0008081877E808380818460808380818C7FEA
:1049D00080838C9181608C930895E3E7F0E080817F
:1049E00090819E7F90838170089581E00895109258
:1049F000FC07089568EE73E080E090E0E6D390E075
:104A000080E0089526E030E040E050E16EE070E0A4
:104A100090E080E041DF8EE098E0CED4892B21F059
:104A20008EE098E0E3D4F7CF90E080E00895CF9255
:104A3000DF92EF92FF920F931F93CF93DF936B015F
:104A40007A01E901198218828EE098E0B5D4892BA9
:104A500069F18601CC24C39482E0D82E8091FC07B2
:104A6000811110C08EE098E0C1D40297B9F7C092CE
:104A7000FC07F801D1928F01888199810196998371
:104A80008883ECCF888199818E159F0578F48EE01C
:104A900098E0ACD48F3F9807A9F3F80181938F0178
:104AA00088819981019699838883ECCF90E080E09A
:104AB000DF91CF911F910F91FF90EF90DF90CF90FA
:104AC00008950F931F93CF93DF93EA0189018EE03E
:104AD00098E0CCD7F801D183C08390E080E0DF91EB
:104AE000CF911F910F910895CF92DF92EF92FF9295
:104AF0000F931F93CF93DF9300D0CDB7DEB7809194
:104B0000000891E0980F909300088823A1F021E01D
:104B100030E03093040820930308809300080F903E
:104B20000F900F90DF91CF911F910F91FF90EF9019
:104B3000DF90CF900895CE0101960E9419037894DA
:104B40000091690210916A02F801E556FF4FC0809A
:104B5000D180E280F3800E942103B701A60181E0A9
:104B600090E00E948B02F89480910008815080931D
:104B700000088B81882389F08091FF0791E0980FCE
:104B80009093FF07882349F021E030E03093040838
:104B9000209303088093FF07C2CF8091FF078823EB
:104BA00009F4BDCF809101088111B9CF809102082D
:104BB0008F5F809302087894F801E955FF4F2081B8
:104BC000318142815381A5E0B0E0BCD76B017C010B
:104BD0000E94E704B701A60182E090E00E948B02E8
:104BE000F8948091FF0781508093FF07809102081D
:104BF00081508093020893CF0F931F93CF93DF933D
:104C00001092D30A1092D20A16D33DDEC0916902E7
:104C1000D0916A02198218826FEF7FEFCB010E9458
:104C20000E0370E060E090E080E00E948B0100974E
:104C300009F042C00E945805F8947894BE0161556D
:104C40007F4F8A819B810E948E01892B71F46FEFC7
:104C50007FEFCB010E9421020E940803882329F0E4
:104C600081E0FE01EB54FF4F8083F89497DE0E94B1
:104C70000B03882311F080E00BC00E940803811110
:104C8000FACF81E0FE01EB54FF4F90819111F3CFF9
:104C90008093D20A78940E94700C8C017894CB5443
:104CA000DF4F8091D20A81110CC00E9429060E9418
:104CB000ED02F89490E080E0DF91CF911F910F9189
:104CC00008950E94EB020E940B038823D9F081E033
:104CD0008093D30A9091D30A81E0911180E0809370
:104CE000D20A8091D30A811178DE0130110529F4AE
:104CF0000E94700C892B09F47ADE0E94700C8C01E2
:104D000074DECFCF0E9408038111E1CF81E098814A
:104D10009111DECF80E0DCCF5058BB27AA270ED000
:104D200044C135D130F03AD120F031F49F3F11F435
:104D30001EF42AC10EF4E095E7FB20C1E92F46D10D
:104D400080F3BA17620773078407950718F071F4A8
:104D50009EF55EC10EF4E0950B2EBA2FA02D0B012F
:104D6000B90190010C01CA01A0011124FF27591BB0
:104D700099F0593F50F4503E68F11A16F040A22FB6
:104D8000232F342F4427585FF3CF46953795279527
:104D9000A795F0405395C9F77EF41F16BA0B620B26
:104DA000730B840BBAF09150A1F0FF0FBB1F661F6D
:104DB000771F881FC2F70EC0BA0F621F731F841FB0
:104DC00048F4879577956795B795F7959E3F08F0D6
:104DD000B3CF9395880F08F09927EE0F9795879595
:104DE0000895A8D008F481E008950CD0DEC0D6D094
:104DF00040F0CDD030F021F45F3F19F0BFC0511129
:104E000008C1C2C0E3D098F39923C9F35523B1F385
:104E1000951B550BBB27AA2762177307840738F029
:104E20009F5F5F4F220F331F441FAA1FA9F333D088
:104E30000E2E3AF0E0E830D091505040E695001C3C
:104E4000CAF729D0FE2F27D0660F771F881FBB1FF8
:104E5000261737074807AB07B0E809F0BB0B802DD2
:104E6000BF01FF2793585F4F2AF09E3F510568F01E
:104E700085C0CFC05F3FECF3983EDCF38695779515
:104E80006795B795F7959F5FC9F7880F911D969520
:104E9000879597F90895E1E0660F771F881FBB1F7C
:104EA000621773078407BA0720F0621B730B840B29
:104EB000BA0BEE1F88F7E0950895E89409C097FBB8
:104EC0003EF490958095709561957F4F8F4F9F4FE1
:104ED0009923A9F0F92F96E9BB279395F695879525
:104EE00077956795B795F111F8CFFAF4BB0F11F4E8
:104EF00060FF1BC06F5F7F4F8F4F9F4F16C088238F
:104F000011F096E911C0772321F09EE8872F762FC4
:104F100005C0662371F096E8862F70E060E02AF005
:104F20009A95660F771F881FDAF7880F96958795F1
:104F300097F90895990F0008550FAA0BE0E8FEEFC6
:104F400016161706E807F907C0F012161306E4074D
:104F5000F50798F0621B730B840B950B39F40A2646
:104F600061F0232B242B252B21F408950A2609F424
:104F7000A140A6958FEF811D811D089597F99F6728
:104F800080E870E060E008959FEF80EC08950024D1
:104F90000A941616170618060906089500240A949E
:104FA00012161306140605060895092E0394000C24
:104FB00011F4882352F0BB0F40F4BF2B11F460FFB3
:104FC00004C06F5F7F4F8F4F9F4F089557FD9058DC
:104FD000440F551F59F05F3F71F04795880F97FBBD
:104FE000991F61F09F3F79F0879508951216130677
:104FF0001406551FF2CF4695F1DF08C016161706A6
:105000001806991FF1CF86957105610508940895DA
:10501000E894BB2766277727CB0197F908958ADFA5
:1050200008F48FEF08950BD0C0CFB1DF28F0B6DFC2
:1050300018F0952309F0A2CFA7CF1124EACFC6DF3D
:10504000A0F3959FD1F3950F50E0551F629FF0019B
:10505000729FBB27F00DB11D639FAA27F00DB11DF4
:10506000AA1F649F6627B00DA11D661F829F22277D
:10507000B00DA11D621F739FB00DA11D621F839F04
:10508000A00D611D221F749F3327A00D611D231FDA
:10509000849F600D211D822F762F6A2F11249F5728
:1050A00050408AF0E1F088234AF0EE0FFF1FBB1F4B
:1050B000661F771F881F91505040A9F79E3F5105EA
:1050C00070F05CCFA6CF5F3FECF3983EDCF38695A3
:1050D00077956795B795F795E7959F5FC1F7FE2B95
:1050E000880F911D9695879597F908951F920F92B5
:1050F0000FB60F9211242F933F938F939F93AF93EB
:10510000BF938091060890910708A0910808B0917C
:1051100009083091050823E0230F2D3758F5019633
:10512000A11DB11D209305088093060890930708E0
:10513000A0930808B093090880910A0890910B0881
:10514000A0910C08B0910D080196A11DB11D80938E
:105150000A0890930B08A0930C08B0930D08BF9118
:10516000AF919F918F913F912F910F900FBE0F9014
:105170001F90189526E8230F0296A11DB11DD2CFCE
:105180003FB7F89480910A0890910B08A0910C0801
:10519000B0910D0826B5A89B05C02F3F19F00196C8
:1051A000A11DB11D3FBFBA2FA92F982F8827BC0181
:1051B000CD01620F711D811D911D42E0660F771FA9
:1051C000881F991F4A95D1F708958F929F92AF92A9
:1051D000BF92CF92DF92EF92FF926B017C01D0DF02
:1051E0004B015C01C114D104E104F104D9F06BD48A
:1051F000C7DF681979098A099B09683E73408105F0
:10520000910580F321E0C21AD108E108F10888EE87
:10521000880E83E0981EA11CB11CC114D104E104C6
:10522000F10431F7FF90EF90DF90CF90BF90AF90F7
:105230009F908F900895789484B5826084BD84B5E2
:10524000816084BD85B5826085BD85B5816085BD81
:10525000EEE6F0E0808181608083E1E8F0E010829A
:10526000808182608083808181608083E0E8F0E0DB
:10527000808181608083E1EBF0E0808184608083C5
:10528000E0EBF0E0808181608083E1E9F0E0808103
:1052900082608083808181608083E0E9F0E08081AA
:1052A00081608083E1EAF0E0808182608083808198
:1052B00081608083E0EAF0E0808181608083E1E2C8
:1052C000F1E0808182608083808181608083E0E280
:1052D000F1E0808181608083EAE7F0E08081846092
:1052E00080838081826080838081816080838081EF
:1052F000806880831092C1000895863308F0865339
:1053000020917B00982F9870277F922B90937B00A1
:105310002091550290E4299F900111248770822BDF
:1053200080937C0080917A00806480937A008091E1
:105330007A0086FDFCCF80917800909179000895E5
:10534000CF93DF9390E0FC01EC51FF4F2491865DF9
:105350009E4FFC0184918823C9F090E0880F991F2B
:10536000FC01E657FE4FA591B491FC01E059FE4FB8
:10537000C591D49161110DC09FB7F8948C9120957F
:1053800082238C938881282328839FBFDF91CF912C
:105390000895623051F49FB7F8943C91822F809524
:1053A00083238C93E8812E2BEFCF8FB7F894EC9169
:1053B0002E2B2C938FBFEACFFC01918D228D892F4C
:1053C00090E0805C9F4F821B91098F73992708950D
:1053D000FC01918D828D981731F0828DE80FF11DBF
:1053E000858D90E008958FEF9FEF0895FC01918DDA
:1053F000828D981761F0A28DAE0FBF2FB11D5D9603
:105400008C91928D9F5F9F73928F90E008958FEFA4
:105410009FEF0895FC01538D448D252F30E0842F9C
:1054200090E0821B930B541710F0CF9608950197CC
:105430000895FC01A48DA80FB92FB11DA35ABF4F29
:105440002C91848D90E001968F739927848FA68983
:10545000B7892C93A089B1898C91837080648C93D7
:10546000938D848D981306C00288F389E02D808186
:105470008F7D80830895CF93DF93EC01888D8823FF
:10548000B1F0AA89BB89E889F9898C9185FD03C0AF
:10549000808186FD0CC00FB607FCF7CF8C9185FF8D
:1054A000F2CF808185FFEDCFCE01C3DFEACFDF9160
:1054B000CF910895EF92FF920F931F93CF93DF93B5
:1054C000EC0181E0888F9B8D8C8D98131AC0E88940
:1054D000F989808185FF15C09FB7F894EE89FF890F
:1054E0006083E889F98980818370806480839FBFAD
:1054F00081E090E0DF91CF911F910F91FF90EF90AD
:105500000895F62E0B8D10E00F5F1F4F0F731127BC
:10551000E02E8C8D8E110BC00FB607FCFACFE889F8
:10552000F989808185FFF5CFCE0183DFF2CFEB8D46
:10553000EC0FFD2FF11DE35AFF4FF0829FB7F89457
:105540000B8FEA89FB8980818062D0CFCF92DF9276
:10555000EF92FF921F93CF93DF93EC016A017B01DF
:10556000122FE889F98982E08083C11481EED80680
:10557000E104F10499F060E079E08DE390E0A701A7
:105580009601B6D2215031094109510956954795E6
:1055900037952795211580E1380790F0E889F9893A
:1055A000108260E874E88EE190E0A7019601A0D235
:1055B000215031094109510956954795379527954D
:1055C000EC85FD853083EE85FF852083188EEC8980
:1055D000FD891083EA89FB89808180618083EA8963
:1055E000FB89808188608083EA89FB89808180686B
:1055F0008083EA89FB8980818F7D8083DF91CF91D1
:105600001F91FF90EF90DF90CF9008951F920F921F
:105610000FB60F9211240BB60F922F938F939F9377
:10562000EF93FF93E0911E08F0911F088081E091B5
:105630002408F091250882FD1DC0908180912708E3
:105640008F5F8F7320912808821741F0E09127081F
:10565000F0E0E25FF74F958F80932708FF91EF917D
:105660009F918F912F910F900BBE0F900FBE0F90B7
:105670001F9018958081F2CF1F920F920FB60F9254
:1056800011240BB60F922F933F934F935F936F9319
:105690007F938F939F93AF93BF93EF93FF938EE08E
:1056A00098E0C7DEFF91EF91BF91AF919F918F91ED
:1056B0007F916F915F914F913F912F910F900BBE12
:1056C0000F900FBE0F901F901895EEE0F8E0138238
:1056D000128288EE93E0A0E0B0E084839583A683F5
:1056E000B78383EF92E09183808385EC90E0958788
:1056F000848784EC90E09787868780EC90E0918B9C
:10570000808B81EC90E0938B828B82EC90E0958B88
:10571000848B86EC90E0978B868B118E128E138E85
:10572000148E08951F920F920FB60F9211240BB68C
:105730000F922F938F939F93EF93FF93E091BB086A
:10574000F091BC088081E091C108F091C20882FD0F
:105750001DC090818091C4088F5F8F732091C50810
:10576000821741F0E091C408F0E0E555F74F958FBE
:105770008093C408FF91EF919F918F912F910F908B
:105780000BBE0F900FBE0F901F9018958081F2CF27
:105790001F920F920FB60F9211240BB60F922F93F8
:1057A0003F934F935F936F937F938F939F93AF93A9
:1057B000BF93EF93FF938BEA98E03BDEFF91EF916D
:1057C000BF91AF919F918F917F916F915F914F9119
:1057D0003F912F910F900BBE0F900FBE0F901F9017
:1057E0001895EBEAF8E01382128288EE93E0A0E0CD
:1057F000B0E084839583A683B78383EF92E091839F
:1058000080838DEC90E0958784878CEC90E097877F
:10581000868788EC90E0918B808B89EC90E0938B6D
:10582000828B8AEC90E0958B848B8EEC90E0978B4A
:10583000868B118E128E138E148E08951F920F92E6
:105840000FB60F9211240BB60F922F938F939F9345
:10585000EF93FF93E0915809F09159098081E0910D
:105860005E09F0915F0982FD1DC090818091610900
:105870008F5F8F7320916209821741F0E091610977
:10588000F0E0E85BF64F958F80936109FF91EF910F
:105890009F918F912F910F900BBE0F900FBE0F9085
:1058A0001F9018958081F2CF1F920F920FB60F9222
:1058B00011240BB60F922F933F934F935F936F93E7
:1058C0007F938F939F93AF93BF93EF93FF9388E45E
:1058D00099E0AFDDFF91EF91BF91AF919F918F91D3
:1058E0007F916F915F914F913F912F910F900BBEE0
:1058F0000F900FBE0F901F901895E8E4F9E0138207
:10590000128288EE93E0A0E0B0E084839583A683C2
:10591000B78383EF92E09183808385ED90E0958754
:10592000848784ED90E09787868780ED90E0918B67
:10593000808B81ED90E0938B828B82ED90E0958B54
:10594000848B86ED90E0978B868B118E128E138E52
:10595000148E08951F920F920FB60F9211240BB65A
:105960000F922F938F939F93EF93FF93E091F509FD
:10597000F091F6098081E091FB09F091FC0982FD2C
:105980001DC090818091FE098F5F8F732091FF0968
:10599000821741F0E091FE09F0E0EB51F64F958F50
:1059A0008093FE09FF91EF919F918F912F910F901E
:1059B0000BBE0F900FBE0F901F9018958081F2CFF5
:1059C0001F920F920FB60F9211240BB60F922F93C6
:1059D0003F934F935F936F937F938F939F93AF9377
:1059E000BF93EF93FF9385EE99E023DDFF91EF9155
:1059F000BF91AF919F918F917F916F915F914F91E7
:105A00003F912F910F900BBE0F900FBE0F901F90E4
:105A10001895E5EEF9E01382128288EE93E0A0E09B
:105A2000B0E084839583A683B78383EF92E091836C
:105A3000808385E391E09587848784E391E097876D
:105A4000868780E391E0918B808B81E391E0938B5B
:105A5000828B82E391E0958B848B86E391E0978B38
:105A6000868B118E128E138E148E0895AF92BF9274
:105A7000CF92DF92EF92FF920F931F93CF93DF931A
:105A80006C017B018B01040F151FEB015E01AE1849
:105A9000BF08C017D10759F06991D601ED91FC916B
:105AA0000190F081E02DC6011995892B79F7C50188
:105AB000DF91CF911F910F91FF90EF90DF90CF90EA
:105AC000BF90AF9008950895AA1BBB1B51E107C07A
:105AD000AA1FBB1FA617B70710F0A61BB70B881F7E
