:1000000005C100000C94CE180C94F9180C94241916
:100010000C944F190C947A190C94A5190C94D019BE
:100020000C94FB1924C1000022C1000020C1000073
:100030001EC100001CC100001AC1000018C1000050
:1000400016C1000014C1000012C1000010C1000060
:100050000EC100000CC100000AC100000C94261A59
:1000600006C100000C94F61D0C942C1E00C100006B
:10007000FEC00000FCC00000FAC00000F8C0000094
:10008000F6C00000F4C00000F2C00000F0C00000A4
:100090000C94821E0C94B81EEAC00000E8C0000058
:1000A000E6C00000E4C00000E2C00000E0C00000C4
:1000B000DEC00000DCC00000DAC00000D8C00000D4
:1000C000D6C00000D4C000000C94A8140C940E1FDD
:1000D0000C94441FCCC000000C949A1F0C94D01FA9
:1000E000C6C0000000000A0B02090C0D0E08070331
:1000F00004010000000000000000000000000000FB
:1001000000000000000000000000000000000000EF
:1001100012111000000000000000000000000000AC
:100120000000000000000000000001021020200874
:100130000810204010204080020102010804020142
:1001400001020408102040808040201008040201B1
:10015000800402018040201008040201080402010A
:100160000102040810204080010204081020408091
:1001700005050505070508080808020202020A0A23
:100180000808040404040101010101010101030341
:10019000030303030303040707070C0C0C0C0C0CEC
:1001A0000C0C0202020206060606060606060B0BE9
:1001B0000B0B0B0B0B0B000020002300260029006B
:1001C0002C002F003200000100000301060109018C
:1001D00000002200250028002B002E0031003400F2
:1001E00002010000050108010B01000021002400AC
:1001F00027002A002D003000330001010000040117
:1002000007010A01551EE11E6D1FF91F11241FBEB3
:10021000CFEFD1E2DEBFCDBF00E00CBF12E0A0E027
:10022000B2E0E6ECF5E400E00BBF02C007900D92EF
:10023000A63EB107D9F727E0A6EEB2E001C01D92B5
:10024000A43CB207E1F711E0C6E0D1E000E006C04F
:1002500021970109802FFE010E94D422C230D107CC
:1002600080E00807A9F70E944D150C94E122C8CE42
:10027000611102C00C943B1C6130E1F362E0FACFE3
:10028000662319F061E00C94771C60E0FCCFCF93FB
:10029000282F8823E1F0CB01BA01CFEFC20FEC2F5A
:1002A000F0E0EA51FD4F2081213059F490580E942E
:1002B0006D169B01AC016C2F70E090E080E0CF9157
:1002C000A2C00E9468168C2FCF910C94011BCF9175
:1002D00008950F931F938B019C0183E0369527951A
:1002E000179507958A95D1F7045D1C4F462F4770E7
:1002F00021E030E0F90102C0EE0FFF1F4A95E2F75E
:10030000AF01F80120812423CB010196211102C005
:1003100090E080E01F910F9108950F931F938B0140
:100320009C0183E036952795179507958A95D1F717
:10033000677081E090E001C0880F6A95EAF7F801E4
:10034000E45DFC4F2081452B31F48095822380832E
:100350001F910F910895822BFACF4F925F926F9267
:100360007F928F929F92AF92BF92CF92DF92EF9245
:10037000FF920F931F93CF93DF934B015C012901F1
:100380003A01670161E0882D0E943B1CE40121963F
:10039000AE01C501B401C1DF20E030E0A901C80110
:1003A000B6010E94EC1718168CF4F401EA51FD4FC7
:1003B00081E08083C801B6010E946D166B01C30104
:1003C000B2010E946D16A601C40121D0CE01DF91B9
:1003D000CF911F910F91FF90EF90DF90CF90BF9042
:1003E000AF909F908F907F906F905F904F90089507
:1003F000882341F08150682F70E090E080E050E069
:1004000040E08BCF0895862FB9010C94011B9C010D
:10041000FC01EC51FF4FE491E150E231E0F4F0E0F7
:100420008827EA5EFD4F8F4F0C94D42228022F02BA
:10043000320249025E022B0273027F0283029A0299
:10044000AF02C402DB02F0022B0205031C033103DE
:1004500084B5806884BD60E0822F0C94771C84B5DD
:100460008062F8CF809180008C7F826080938000D2
:1004700080918100807E8061682B60938100509321
:100480008700409386008091800080688093800080
:10049000E2CF809180008C7F826080938000809189
:1004A0008100807E8061682B60938100509387007B
:1004B00040938600809180008062E8CF8091800028
:1004C0008C7F82608093800080918100807E80613B
:1004D000682B609381005093870040938600809141
:1004E00080008860D3CF8091B00080688093B00096
:1004F0008091B100887F682B6093B100ACCF809170
:10050000B0008062F3CF809190008C7F82608093F6
:10051000900080919100807E8061682B60939100B3
:10052000509397004093960080919000806880934C
:10053000900091CF809190008C7F8260809390009A
:1005400080919100807E8061682B60939100509330
:10055000970040939600809190008062E8CF809150
:1005600090008C7F82608093900080919100807ECB
:100570008061682B609391005093970040939600A0
:10058000809190008860D3CF8091A0008C7F8260A2
:100590008093A0008091A100807E8061682B609391
:1005A000A1005093A7004093A6008091A00080680E
:1005B0008093A00050CF8091A0008C7F82608093B8
:1005C000A0008091A100807E8061682B6093A100D3
:1005D0005093A7004093A6008091A0008062E8CFCE
:1005E0008091A0008C7F82608093A0008091A10008
:1005F000807E8061682B6093A1005093A700409398
:10060000A6008091A0008860D3CF809120018C7FCC
:1006100082608093200180912101807E8061682B1F
:10062000609321015093270140932601809120017E
:100630008068809320010FCF809120018C7F8260A1
:100640008093200180912101807E8061682B6093DE
:10065000210150932701409326018091200180625F
:10066000E8CF809120018C7F82608093200180916F
:100670002101807E8061682B6093210150932701C6
:1006800040932601809120018860D3CFCF93DF93E0
:10069000882349F0EB0181500E94DE1A99838883F8
:1006A000DF91CF910895FB0111821082F9CF0F9352
:1006B0001F938B019C0183E036952795179507952D
:1006C0008A95D1F70B5C1C4F462F477021E030E034
:1006D000F90102C0EE0FFF1F4A95E2F7AF01F801E2
:1006E00020812423CB010196211102C090E080E0FB
:1006F0001F910F9108950F931F938B019C0183E02D
:1007000036952795179507958A95D1F7677081E0FB
:1007100090E001C0880F6A95EAF7F801EB5CFC4FA6
:100720002081452B31F48095822380831F910F9186
:100730000895822BFACFCF92DF92EF92FF92CF9360
:10074000DF936B017C0160E086E3C816D104E1040D
:10075000F10490F486E38C0D0E943B1CE601219687
:10076000AE01C701B601C7DFCE01DF91CF91FF9087
:10077000EF90DF90CF9008958C2DEECF882341F03D
:100780008150682F70E090E080E050E040E0B3CF0F
:100790000895AB01BC0184E194E00C948A22AB0182
:1007A000BC0181EB94E00C948A22AB01BC018EE485
:1007B00095E00C948A22AB01BC018BEE95E00C9481
:1007C0008A228F929F92AF92BF92CF92DF92EF9246
:1007D000FF920F931F93CF93DF93CDB7DEB77B01CB
:1007E0004A015901CDB6DEB69B01220F331F4DB72A
:1007F0005EB7421B530B0FB6F8945EBF0FBE4DBFE2
:100800000DB71EB70F5F1F4FE82FF0E0EE0FFF1F71
:10081000E05FFD4F0190F081E02DC8011995F801CE
:10082000D401E00EF11EEE15FF0519F081918D93B4
:10083000FACF81E0F50180830FB6F894DEBE0FBEDB
:10084000CDBEDF91CF911F910F91FF90EF90DF9080
:10085000CF90BF90AF909F908F9008952F923F922E
:100860004F925F926F927F928F929F92AF92BF92C0
:10087000CF92DF92EF92FF920F931F93CF93DF936C
:1008800000D000D000D01F92CDB7DEB7682E7A8797
:100890006987742EB52E3C832B8348012A2C312C7A
:1008A0004E2C512C81E090E0012B11F490E080E07F
:1008B000849D9001859D300D949D300D11244985B6
:1008C0005A85420F531F5A834983062D10E0000FAB
:1008D000111FF801E050FE4F0190F081E02D1995B5
:1008E00041E050E0C114D10411F450E040E0429DD9
:1008F0009001439D300D529D300D1124A981BA8184
:100900002A0F3B1F821793075CF5E72DFB2D2985E6
:100910003A852E0F3F1F3A83298349815A81E41774
:10092000F50711F01192F9CFAB81BC811C922A9688
:100930000FB6F894DEBF0FBECDBFDF91CF911F91F0
:100940000F91FF90EF90DF90CF90BF90AF909F906E
:100950008F907F906F905F904F903F902F90089571
:10096000C114D10409F441C0F12CE12CF801E0508C
:10097000FE4FFE83ED839801285F3D4F38872F831C
:10098000AD81BE81ED91FC91E214F30474F51995EB
:10099000892B81F4E72DFB2D29853A852E0F3F1FEA
:1009A0003A83298349815A81E417F50709F4BCCFBA
:1009B0001192F8CFAF81B885ED91FC911995F601B0
:1009C000EE0DFF1D9081981761F021E030E0F601F7
:1009D0009081981302C030E020E0EE24FF24E21A58
:1009E000F30AFFEFEF1AFF0ACBCF980120503E4FDA
:1009F0006901D901ED91FC911995E981FA818E1770
:100A00009F0784F4E72DFB2D29853A852E0F3F1F84
:100A10003A83298349815A81E417F50709F484CF81
:100A20001192F8CF2B813C81472D5B2D69857A850A
:100A3000862DC7DE8114910409F479CF7401085F13
:100A40001D4FC70188199909841595050CF06FCFC2
:100A5000D601ED91FC911995892B81F4E72DFB2DA1
:100A600029853A852E0F3F1F3A83298349815A8170
:100A7000E417F50709F458CF1192F8CFD801ED919A
:100A8000FC911995F70191917F019817D1F2E72D0B
:100A9000FB2D29853A852E0F3F1F3A8329834981F3
:100AA0005A81E417F50709F43FCF1192F8CF84E19A
:100AB00094E00C94E61C81EB94E00C94E61C8EE42C
:100AC00095E00C94E61C8BEE95E00C94E61C84E11A
:100AD00094E00C94CC1C81EB94E00C94CC1C8EE440
:100AE00095E00C94CC1C8BEE95E00C94CC1C8823E8
:100AF00011F1823071F08330A9F08130E1F426E009
:100B000030E040E050E16EE070E081E090E00C9475
:100B1000521426E030E040E050E16EE070E082E008
:100B200090E0F5CF26E030E040E050E16EE070E08C
:100B300083E090E0ECCF08952F923F924F925F9226
:100B40006F927F928F929F92AF92BF92CF92DF92DD
:100B5000EF92FF920F931F93CF93DF931F92CDB726
:100B6000DEB72B013A01D02EE9829C2DCA2CF4016C
:100B7000EF88F88C998C6A8D7B8D4C8D843008F0D1
:100B8000EBC1823051F0833009F456C0813049F412
:100B900031EB232E34E0332E04C0AEE42A2EA5E040
:100BA0003A2E30E02830310511F424E030E0269D63
:100BB0005001279DB00C369DB00C11240AE010E0C6
:100BC000992351F000E110E0913031F008E010E09D
:100BD000923011F002E010E08111E1C0D11031C07B
:100BE0006115710529F050E084E194E00E9426200F
:100BF000A501B20184E194E00E942620E114F104F1
:100C000009F4AAC1492D50E0B70184E194E00F90A6
:100C1000DF91CF911F910F91FF90EF90DF90CF90D8
:100C2000BF90AF909F908F907F906F905F904F900C
:100C30003F902F900C9426205BEE252E55E0352E0C
:100C4000B0CFBF0184E194E00E94622089818730A7
:100C500008F082C1E82FF0E08827EE5CF94F8F4F53
:100C60000C94D4225106640678068E06A406B806B3
:100C70003906AC2CB12CE1E06E1A710808F46CC195
:100C8000D2014D915D916D917D912D01B1E0950164
:100C900084E194E0DB1280C00E944C22ECCF0E94E1
:100CA0003A216A94AFEF6A1609F456C1F2016191D4
:100CB0002F01F1E0A80184E194E0DF12F0CF0E945F
:100CC0003421EFCF0E944F216A948FEF681609F408
:100CD00043C1D2016D917D912D01B1E0A80184E164
:100CE00094E0DB12EFCF0E944A21EECF0E945F21F9
:100CF0006A94EFEF6E1609F42FC1D2014D915D9108
:100D00006D917D912D01B1E0980184E194E0DB12B9
:100D1000EDCF0E942821ECCF0E9408216A94EFEFCA
:100D20006E1609F419C1D2016D912D01062E000C29
:100D3000770BB1E0A80184E194E0DB12EDCF0E94D3
:100D40000221ECCF0E9408216A94EFEF6E1609F49D
:100D500003C1D2016D917D912D01B1E0A80184E123
:100D600094E0DB12EFCF0E940221EECF0E94182107
:100D70006A94EFEF6E1609F4EFC0D2014D915D91C8
:100D80006D917D912D01B1E0980184E194E0DB1239
:100D9000EDCF0E94BD20ECCF0E944D226CCFD11030
:100DA00038C06115710549F050E0D101ED91FC9119
:100DB0000280F381E02DC1011995D101ED91FC91E3
:100DC0000280F381E02DA501B201C1011995E11462
:100DD000F10409F4C1C0492D50E0D101ED91FC911D
:100DE0000280F381E02DB701C1010F90DF91CF9117
:100DF0001F910F91FF90EF90DF90CF90BF90AF9039
:100E00009F908F907F906F905F904F903F902F902A
:100E10001994BF01C1010E946220B981B73008F066
:100E20009BC0EB2FF0E08827E75EF84F8F4F0C94C4
:100E3000D422370749075C07710785079707200702
:100E4000AC2CB12CE1E06E1A710808F485C0D20117
:100E50004D915D916D917D912D01B1E09501C101A3
:100E6000DB1277C00E944C22EDCF0E943A216A9497
:100E7000EFEF6E1609F470C0D2016D912D01B1E053
:100E8000A801C101DB12F1CF0E943421F0CF0E94F2
:100E90004F216A94EFEF6E1609F45EC0D2016D9196
:100EA0007D912D01B1E0A801C101DB12F0CF0E94BC
:100EB0004A21EFCF0E945F216A94EFEF6E1609F48A
:100EC0004BC0D2014D915D916D917D912D01B1E0AD
:100ED0009801C101DB12EECF0E942821EDCF0E94C4
:100EE00008216A94EFEF6E16B9F1D2016D912D01D0
:100EF000062E000C770BB1E0A801C101DB12EFCF89
:100F00000E940221EECF0E9408216A94EFEF6E1634
:100F100019F1D2016D917D912D01B1E0A801C101BE
:100F2000DB12F1CF0E940221F0CF0E9418216A94B7
:100F3000EFEF6E1689F0D2014D915D916D917D912B
:100F40002D01B1E09801C101DB12EFCF0E94BD205D
:100F5000EECF0E944D2276CF0F90DF91CF911F915F
:100F60000F91FF90EF90DF90CF90BF90AF909F9048
:100F70008F907F906F905F904F903F902F9008954B
:100F80008F929F92AF92BF92CF92DF92EF92FF9299
:100F90004B015C010E944613882399F0C090B6076C
:100FA000D090B707E090B807F090B907C701B60135
:100FB000FF90EF90DF90CF90BF90AF909F908F9079
:100FC0000895C501B4010E9403138111E7CF20E009
:100FD00030E0A901C501B4010E94FC15882329F164
:100FE00020E030E040E050E4C501B4010E94F0167A
:100FF0006B017C0120E030E0A9010E94FC158823F0
:10100000A1F020E030E0A901C501B4010E94FC1567
:1010100087FFCCCF20E030E040E050E4C701B601CC
:101020000E9485156B017C01C1CFC12CD12C7601AA
:10103000BDCFFC0191E08091D703811190E09283B4
:101040000895CF92DF92EF92FF926B017C019F7720
:1010500020E030E040E859E50E94FC1587FF2BC0F6
:1010600020E030E040E05FE3C701B6010E94EC17EA
:1010700087FD0EC020E030E040E05FE3C701B6012D
:101080000E948515FF90EF90DF90CF900C94D616BC
:1010900020E030E040E05FEBC701B6010E94EC17B2
:1010A000181684F420E030E0A901C701B6010E94BF
:1010B000F0176B017C01C701B601FF90EF90DF9044
:1010C000CF90089520E030E040E05FE3C701B60133
:1010D0000E948415FF90EF90DF90CF900C94E9155B
:1010E0004F925F926F927F928F929F92AF92BF9238
:1010F000CF92DF92EF92FF920F931F93CF93DF93E4
:10110000CDB7DEB7A3970FB6F894DEBF0FBECDBF45
:101110008091D7039091D603911105C091E0811180
:1011200090E09093D8038F5F8A3008F06EC380936D
:10113000D703E0917E07F0917F0780819181A281A2
:10114000B3818093840790938507A0938607B0931B
:10115000870784819581A681B781809388079093C2
:101160008907A0938A07B0938B0780859185A28514
:10117000B38580938C0790938D07A0938E07B093CF
:101180008F07C0903002D0903102E0903202F09090
:101190003302A70196016091AE067091AF0680916F
:1011A000B0069091B1060E94FC15882341F0C092D0
:1011B000AE06D092AF06E092B006F092B106C090B3
:1011C0003402D0903502E0903602F0903702A70149
:1011D00096016091B2067091B3068091B406909129
:1011E000B5060E94FC15882341F0C092B206D09249
:1011F000B306E092B406F092B5066091B60670911F
:10120000B706A12CD12CC12CE12C10E000E09E01EE
:101210002D5F3F4F40E957E080E020DB8B8181303C
:10122000A1F560919007709191078091920790913C
:10123000930707DF6B017C01C092A007D092A10742
:10124000E092A207F092A30720E030E040E053E4F0
:101250000E94FC1587FF19C020E030E040E053EC0D
:10126000C701B6010E94EC1787FD0FC0C701B60188
:101270000E946816633009F419C30CF0C9C26130CA
:1012800009F4E4C2623009F4F9C2AA24A394B12C8F
:101290006AE8C62E62E0D62EEE24E394F12C09E82B
:1012A00012E021E030E048E852E060EE76E088EAC3
:1012B00097E00E94A8136091A8077091A907072ED4
:1012C000000C880B990B0E949B16209140023091D4
:1012D000410240914202509143020E940016209127
:1012E00044023091450240914602509147020E94CB
:1012F000F0176B017C01C0929C07D0929D07E09291
:101300009E07F0929F074090100750901107609041
:1013100012077090130720E030E0A901C301B20169
:101320000E94FC15811184C08090180790901907C5
:10133000A0901A07B0901B0720E030E0A90160914F
:1013400040077091410780914207909143070E94A6
:10135000FC1520E030E0A90181114AC3C501B401A8
:101360000E94FC1581112FC010923C0710923D077E
:1013700010923E0710923F071092400710924107CB
:1013800010924207109243071092440710924507AB
:10139000109246071092470710924C0710924D0783
:1013A00010924E0710924F0710925007109251075B
:1013B0001092520710925307E4E5F7E088E2DF014C
:1013C0001D928A95E9F720913C0730913D074091A5
:1013D0003E0750913F072C833D834E835F8320E07F
:1013E00030E0A9016C817D818E819F810E94FC1576
:1013F00081118CC2109238071092390710923A0767
:1014000010923B0720E030E040E85FE3C501B40103
:101410000E94FC1581110CC080E090E0A0E8BFE3C1
:1014200080933C0790933D07A0933E07B0933F07FE
:1014300020E030E040E85FE36091400770914107B1
:1014400080914207909143070E94FC15811100C3CF
:101450002091500730915107409152075091530706
:1014600060E070E084EA93EC0E948415A701960185
:101470000E9485156B017C01C0929C07D0929D074C
:10148000E0929E07F0929F0720E030E040E85FE3A3
:1014900060911C0770911D0780911E0790911F0796
:1014A0000E94FC158111D4C2A701960160913407F6
:1014B0007091350780913607909137070E94841507
:1014C0006B017C01C092A407D092A507E092A60709
:1014D000F092A7079F7720E030E040E251E40E94BD
:1014E000FC1587FDACC2A701960160913007709191
:1014F000310780913207909133070E94F017609373
:10150000A0077093A1078093A2079093A3078B81F4
:10151000813081F48091940790919507A09196076E
:10152000B091970780930C0790930D07A0930E0737
:10153000B0930F0720E030E0A901C301B2010E947F
:10154000FC15811110C08091A0079091A107A09176
:10155000A207B091A30780932C0790932D07A09327
:101560002E07B0932F0720E030E040E85FE3C3018F
:10157000B2010E94FC15811130C020E030E040E84B
:101580005FE360914007709141078091420790911D
:1015900043070E94FC15811120C020E030E040E8A4
:1015A0005FE360912007709121078091220790915D
:1015B00023070E94FC1581115CC280910C07909159
:1015C0000D07A0910E07B0910F0780932C07909301
:1015D0002D07A0932E07B0932F07C0902402D09020
:1015E0002502E0902602F0902702A7019601609163
:1015F000C4067091C5068091C6069091C7060E94E8
:10160000FC15882341F0C092C406D092C506E09232
:10161000C606F092C7066BE370E080E090E047D822
:101620009093C3068093C20643E050E0BE016F5F13
:101630007F4F2CD8209188073091890740918A07E5
:1016400050918B0760918407709185078091860780
:10165000909187070E948415209148023091490299
:1016600040914A0250914B020E9400166B017C018E
:10167000C092A407D092A507E092A607F092A70710
:1016800080908C0790908D07A0908E07B0908F0768
:1016900020E030EC4FEF53E4C501B4010E94FC158B
:1016A00087FFF0C1A501940160913C0270913D0259
:1016B00080913E0290913F020E9485156093A007A1
:1016C0007093A1078093A2079093A30769817A8101
:1016D00090E080E00E949916A70196010E940016F2
:1016E0004B015C012091A0073091A1074091A20716
:1016F0005091A30760914C0270914D0280914E026F
:1017000090914F020E948515A70196010E94001634
:101710009B01AC01C501B4010E9484156093980738
:101720007093990780939A0790939B072091580292
:101730003091590240915A0250915B020E94F01779
:101740006B017C012091E4063091E5064091E606AC
:101750005091E706609154027091550280915602B3
:10176000909157020E94F017A70196010E948515DB
:101770004B015C0120E030E040E85FE3609114073A
:101780007091150780911607909117070E94FC151C
:101790008111AAC120E030E0A90160911007709189
:1017A000110780911207909113070E94FC15811177
:1017B00076C1C0902C07D0902D07E0902E07F090B6
:1017C0002F0720E030E0A901C701B6010E94EC1705
:1017D00018160CF0EEC32FE93CE34CEB50E4C701C4
:1017E000B6010E9400166093280770932907809322
:1017F0002A0790932B071092240710922507109226
:1018000026071092270761E070C11092D70391CC90
:10181000643009F463C0653009F037CD20E030E072
:1018200040E85FE3609120077091210780912207D3
:10183000909123070E948515A3DB60932007709386
:10184000210780932207909323071FCD20E030E0EB
:1018500040E85FE3609114077091150780911607C7
:10186000909117070E9485158BDB60931407709386
:101870001507809316079093170707CD20E030E0F7
:1018800040E85FE3609118077091190780911A078B
:1018900090911B070E94851573DB60931807709366
:1018A000190780931A0790931B07EFCC20E030E0D4
:1018B00040E85FE360911C0770911D0780911E074F
:1018C00090911F070E9485155BDB60931C07709346
:1018D0001D0780931E0790931F07D7CC20E030E0B0
:1018E00040E85FE360911007709111078091120743
:1018F000909113070E94851543DB60931007709346
:1019000011078093120790931307BFCC20E030E0BB
:1019100040E85FE36C817D818E819F810E94FC1590
:10192000811111C080E090E0AAE7B3EC8093380702
:1019300090933907A0933A07B0933B0780E090E07B
:10194000A0E0B0E46DCD8090440790904507A09052
:101950004607B090470720E030E048EC52E4C5016C
:10196000B4010E94FC15811132C004E517E04CE778
:10197000A42E47E0B42ED8012D913D914D915D915B
:101980008D01C701B6010E94FC1581114AC3A01642
:10199000B10689F7109238071092390710923A076A
:1019A00010923B0780E090E0A0E8BFE380934007FF
:1019B00090934107A0934207B0934307C09250070A
:1019C000D0925107E0925207F092530731CD20E0B8
:1019D00030E040E85FE3C501B4010E9485156093E3
:1019E000440770934507809346079093470720CD9F
:1019F000C501B4010E94FC1581111ACD10923C075B
:101A000010923D0710923E0710923F071092400738
:101A10001092410710924207109243071092440718
:101A200010924507109246071092470710925007F0
:101A3000109251071092520710925307F9CC10924E
:101A4000A0071092A1071092A2071092A3075FCDE2
:101A50008091380790913907A0913A07B0913B07E0
:101A60008093A0079093A107A093A207B093A30728
:101A70004ECD10922C0710922D0710922E07109227
:101A80002F07ABCD20913C0230913D0240913E02A8
:101A900050913F02C501B4010E9484150FCE20E091
:101AA00030E040EA51ECC501B4010E94EC1787FD1B
:101AB0000BC020E030E040EA51E4C501B4010E94CF
:101AC000FC1518160CF075CE1092240710922507FD
:101AD00010922607109227071092280710922907C4
:101AE00010922A0710922B0760E08CE00E944001C0
:101AF0006091240770912507809126079091270710
:101B0000A0DA6B017C01C092A007D092A107E092FD
:101B1000A207F092A30720E030E040E853E40E94DF
:101B2000FC1587FF6EC220E030E0A901C701B601B5
:101B30000E94EC1787FD63C2C701B6010E946D16B3
:101B40006B836B8182E20E9440016BE070E080E079
:101B500090E00E9469018C019093DF068093DE067D
:101B6000C0902807D0902907E0902A07F0902B0713
:101B700020E030E04FE753E4C701B6010E94FC15B6
:101B800018160CF441C2C092A007D092A107E092AF
:101B9000A207F092A30720E030E0A9016091A0071E
:101BA0007091A1078091A2079091A3070E94EC1762
:101BB00087FF08C01092A0071092A1071092A207F9
:101BC0001092A3074091A0075091A1076091A2072E
:101BD0007091A307C8010E94470120915C023091D7
:101BE0005D0240915E0250915F02C501B4010E9406
:101BF000F0174B015C018092A0079092A107A09280
:101C0000A207B092A3072091600230916102409137
:101C10006202509163020E94F0176C837D838E8371
:101C20009F832091E8063091E9064091EA065091A1
:101C3000EB066AD7688779878A879B8720916C0231
:101C400030916D0240916E0250916F02288B398B5A
:101C50004A8B5B8B8091680290916902A0916A0225
:101C6000B0916B028C8B9D8BAE8BBF8B2091EC0661
:101C70003091ED064091EE065091EF06288F398F96
:101C80004A8F5B8F209174023091750240917602E9
:101C90005091770260919C0770919D0780919E07FB
:101CA00090919F070E94F0176B017C01C0929C07E6
:101CB000D0929D07E0929E07F0929F0720917802B4
:101CC0003091790240917A0250917B020E94F01784
:101CD0006C877D878E879F872091F0063091F10673
:101CE0004091F2065091F3060FD72B013C018091F1
:101CF000D803882309F47CC0609184027091850226
:101D00008091860290918702209180023091810219
:101D100040918202509183022C8F3D8F4E8F5F8FB6
:101D20002091F4063091F5064091F6065091F706A1
:101D300028A339A34AA35BA30091700210917102FA
:101D400020917202309173020093F8061093F90605
:101D50002093FA063093FB06C092FC06D092FD0653
:101D6000E092FE06F092FF06A30192010E94F01796
:101D70006B017C0128A139A14AA15BA16C8D7D8DED
:101D80008E8D9F8D0E94F017A7019601BED660939D
:101D900000077093010780930207909303078092D6
:101DA000040790920507A0920607B09207072885BE
:101DB00039854A855B85688979898A899B890E94EA
:101DC000F0176B017C01288D398D4A8D5B8D6C89F4
:101DD0007D898E899F890E94F017A701960195D66B
:101DE000609308077093090780930A0790930B0785
:101DF000AA24A394B12C2AE8C22E22E0D22EEE24EB
:101E0000E394F12C09E812E021E030E048E852E0E8
:101E100060EE76E088EA97E0C1D42091E406309144
:101E2000E5064091E6065091E706609150027091F8
:101E3000510280915202909153020E94F01720911A
:101E400098073091990740919A0750919B075DD66A
:101E50006093E4067093E5068093E6069093E706A8
:101E60008C819D81AE81BF818093E8069093E906C5
:101E7000A093EA06B093EB062091EC063091ED06B4
:101E80004091EE065091EF066091640270916502F8
:101E900080916602909167020E94F017288539852B
:101EA0004A855B8532D66093EC067093ED0680938D
:101EB000EE069093EF062C853D854E855F85209339
:101EC000F0063093F1064093F2065093F30620910A
:101ED000F4063091F5064091F6065091F7066091B0
:101EE0007C0270917D0280917E0290917F020E941F
:101EF000F017A301920109D66093F4067093F506DA
:101F00008093F6069093F7066091C9037091CA0317
:101F10008091CB039091CC036F5F7F4F8F4F9F4F8A
:101F20006093C9037093CA038093CB039093CC034F
:101F30000091DB031091DC03FCD69B01AC016091A6
:101F4000CD037091CE038091CF039091D0030E9476
:101F5000F017D8016D937D938D939C931397809187
:101F6000D1039091D203A091D303B091D4030196F1
:101F7000A11DB11D8093D1039093D203A093D303ED
:101F8000B093D403A3960FB6F894DEBF0FBECDBFB7
:101F9000DF91CF911F910F91FF90EF90DF90CF9045
:101FA000BF90AF909F908F907F906F905F904F9079
:101FB000089520E030E0A901C701B6011DD618162A
:101FC0000CF421CCC701B60190582FE93CE34CEB4F
:101FD00050E416D6609328077093290780932A0748
:101FE00090932B0780E090E0A0E8BFE38093240764
:101FF00090932507A0932607B093270704CC1B8254
:10200000A0CD8FEF8B839DCD80E090E0AFE7B3E470
:102010008093A0079093A107A093A207B093A30772
:10202000BACD20E030E040E85FE36091480770916E
:10203000490780914A0790914B0767D54B015C0196
:102040008092480790924907A0924A07B0924B07A6
:102050003FD66E5C7F4F660F771F660F771FFB01C1
:10206000E857F94F80914C0790914D07A0914E078A
:10207000B0914F0780839183A283B38320E030E047
:1020800040E251E4C501B401B7D5811108C01092F6
:1020900048071092490710924A0710924B07C092C6
:1020A0004C07D0924D07E0924E07F0924F07C0C9FF
:1020B0008F929F92AF92CF92DF92EF92FF920F9307
:1020C0001F93CF93DF93CDB7DEB764970FB6F89425
:1020D000DEBF0FBECDBFC0903802D0903902E09075
:1020E0003A02F0903B02A701960160918E06709132
:1020F0008F0680919006909191067ED5882341F0BD
:10210000C0928E06D0928F06E0929006F0929106D1
:10211000A8EFB6E0FE013196CE014596DE2EFF2EE9
:102120004D915D916D917D91419351936193719327
:10213000E817F907A9F76091A2067091A3068091AC
:10214000A4069091A506C9D5C62E60919A067091F5
:102150009B0680919C0690919D06BFD5E62E6091CE
:102160009E0670919F068091A0069091A106B5D51C
:10217000062F60919606709197068091980690912F
:102180009906ABD5162F60919206709193068091B7
:10219000940690919506A1D5862F1F921F921F92AB
:1021A0001F921F921F92912C812C92E0A92E212F19
:1021B00045E050E06D2D7F2D0E949C050F900F9003
:1021C0000F900F900F900F9064960FB6F894DEBFAB
:1021D0000FBECDBFDF91CF911F910F91FF90EF9078
:1021E000DF90CF90AF909F908F9008954F925F9225
:1021F0006F927F92AF92BF92DF92EF92FF920F9316
:102200001F93CF93DF9384E090E0C6D184E2A82EA1
:1022100082E0B82E8091B2079091B307A091B407E5
:10222000B091B5078093700290937102A0937202EF
:10223000B0937302E2E4F3E089ED93E09583848345
:10224000CBEDD3E0D7AFC6AF0DEC13E0138B028B11
:10225000F093AB03E093AA03F383E28321E030E041
:10226000DC012D933C931092C1031092C8038CE9BA
:1022700092E0918780878DED93E0998388834AE08F
:1022800057ED63EA7BE3F8014083518362837383F4
:10229000C8E8D6E08EE393E090937D0780937C07B7
:1022A00088E192E090937F0780937E0710928307E6
:1022B000109282071092E0061092E1061092E20658
:1022C0001092E306F50184819581A681B781809300
:1022D000E8069093E906A093EA06B093EB068085A2
:1022E0009185A285B3858093F0069093F106A09323
:1022F000F206B093F30680E090E0A0E2B1E48093B0
:10230000300790933107A0933207B093330718A298
:1023100084859585A685B7858EA39FA3A8A7B9A711
:1023200080899189A289B3898AA79BA7ACA7BDA7F9
:10233000412C512C3201439449A25AA26BA27CA297
:1023400084E090E099AB88AB88E090E09FA78EA7EF
:1023500080E00E947705DD24D394DDA21CAAF5015C
:1023600080819181A281B3818CAF9DAFAEAFBFAFB1
:102370004DAA5EAA6FAA78AE6BE370E080E090E0B1
:102380000E949B039BAF8AAFD9AE1092D0064092B9
:10239000D1065092D2066092D3067092D40661E0C4
:1023A0008CE00E943801D092D5061092C806409267
:1023B000C9065092CA066092CB067092CC0661E0C4
:1023C00082E20E943801D092CD061092D806409247
:1023D000D9065092DA066092DB067092DC06E12C98
:1023E000F12C8701A80197016BE070E080E090E09C
:1023F0000E94AD019093DF068093DE06D092DD0649
:102400001882F50184899589A689B7898E839F836F
:10241000A887B98749825A826B827C82EA86FB86CA
:102420000C871D8780E090E0A0E0B1E48E879F8755
:10243000A88BB98B80E090E0A0ECB0E48A8B9B8BFA
:10244000AC8BBD8BEE8AFF8A088F198FEA8EFB8ECC
:102450000C8F1D8F80E00E947705DD82DF91CF9188
:102460001F910F91FF90EF90DF90BF90AF907F9002
:102470006F905F904F9008958091A806811103C0DE
:1024800081E08093A8068091BC0681111FC081E085
:102490008093BC068091BD069091BE06A091BF06B8
:1024A000B091C0060197A105B10581F48091C106E4
:1024B000882361F06BE370E080E090E00E945703B6
:1024C0009093C3068093C2060E94BE038091D006FB
:1024D000811103C081E08093D0068091C8068111EC
:1024E00003C081E08093C8068091D80681112EC078
:1024F00081E08093D8068091D9069091DA06A09168
:10250000DB06B091DC060197A105B105F9F48091D5
:10251000DD068823D9F06BE070E080E090E00E9457
:1025200069019093DF068093DE0640E050E0BA0137
:102530000E9447016BE070E080E090E00E9469013A
:102540009093DF068093DE060E94F8018091880652
:10255000811103C081E080938806089560E070E0F7
:1025600080E89FE7089560E070E080E89FE70895C5
:1025700060E070E080E89FEF089560E070E080E840
:102580009FEF089560E070E080EC9FEF089560E0B9
:1025900070E080EC9FEF0895F5DF6093B6077093CD
:1025A000B7078093B8079093B907F1DF6093AA0744
:1025B0007093AB078093AC079093AD07CFDF609328
:1025C000B2077093B3078093B4079093B507CBDF3E
:1025D0006093AE077093AF078093B0079093B107F5
:1025E000C7DF6093BA077093BB078093BC079093D3
:1025F000BD07C3DF6093BE077093BF078093C0071A
:102600009093C1070895CF92DF92EF92FF92CF93FC
:102610006B017C01AC019B016091B2077091B30723
:102620008091B4079091B507E7D2C1E0882369F0A3
:10263000A70196016091BA077091BB078091BC0712
:102640009091BD07D9D28111C0E08C2FCF91FF901E
:10265000EF90DF90CF9008950F931F938B019C0113
:102660000027112720783F770115110520483F47A3
:1026700049F4AB01BC016F77772781E0452B462BEE
:10268000472B09F480E01F910F910895E5CF029741
:102690008431910540F480559D4FFC018081082EC6
:1026A000000C990B08958FEF9FEF0895CF93DF9360
:1026B000EC0170E060E06C177D071CF0DF91CF91BA
:1026C0000895072E000C880B990B35D320E030E0DD
:1026D000A9011BD220E030E0A90117D220E030E0B0
:1026E00040E450E412D220E030E040E450E40CD268
:1026F000EFD26F5F7F4FDFCFCF93DF938091EB03FC
:102700009091EC030E94A41CEC018091EF03909146
:10271000F003CCDF8091E9039091EA030E94A41CAE
:10272000019771F48091ED039091EE03CD2B71F43C
:1027300001969093EE038093ED03DF91CF9108957E
:102740008091ED039091EE03219791F30197F1CFE2
:102750000F931F93CF93DF93EC018A0120E030E0C9
:1027600040E85FE3DB016D917D918D919C9144D2B6
:1027700081110FC0D801EC91B8E0EB9FF00111245A
:10278000E751FC4F848195819195819591099983B9
:102790008883DF91CF911F910F910895CF92DF929F
:1027A000EF92FF920F931F93CF93DF937B01EA0188
:1027B00020E030E040E85FE3DB016D917D918D9199
:1027C0009C911AD2882309F45BC0E881D8018C91CE
:1027D00090E0B8E0EB9FF0011124E751FC4F9183AA
:1027E0008083E881D6018C9190E0B8E0EB9FF00106
:1027F0001124E751FC4F93838283E88128E0E29F14
:10280000F0011124E751FC4F8081918160E00E942A
:102810003B1CE88188E0E89FF0011124E751FC4F60
:102820008281938160E00E943B1CE881A8E0EA9FDE
:10283000F0011124E751FC4F8081918161E00E94F9
:10284000771CE881B8E0EB9FF0011124E751FC4FC1
:102850008281938161E00E94771C8091E9039091CD
:10286000EA0315DF41E050E06CE773E11DD480E03E
:1028700090E0A0E8BFE3F70180839183A283B38354
:10288000DF91CF911F910F91FF90EF90DF90CF904C
:10289000089526E030E040E050E16EE070E090E026
:1028A00080E000C01092020410920104893091056A
:1028B00008F03BC0FC018827EF59FB4E8F4F0C946A
:1028C000D4226A1474147D1486148F1496149914E7
:1028D0009C14A21481E090E0909302048093010480
:1028E00084E194E00C94961D82E090E090930204C1
:1028F0008093010481EB94E0F5CF84E090E0909325
:102900000204809301048EE495E0ECCF88E090E02F
:1029100090930204809301048BEE95E0E3CF80E175
:1029200090E09093020480930104089580E290E087
:10293000F8CF80E490E0F5CF80E890E09093020437
:102940008093010480910104909102049160E9CF89
:102950001F920F920FB60F9211240BB60F922F9366
:102960003F934F935F936F937F938F939F93AF9317
:10297000BF93EF93FF938EE19BEF9093250180939C
:10298000240134D0FF91EF91BF91AF919F918F912E
:102990007F916F915F914F913F912F910F900BBE5F
:1029A0000F900FBE0F901F9018958EE19BEF9093A4
:1029B000250180932401A3E7B0E08C918E7F8C9356
:1029C000E0E2F1E080818C7F8083E1E2F1E08081D0
:1029D000877E808380818360808380818B7F8083FA
:1029E0008C9181608C93089581E00895CF93DF935B
:1029F00000D0CDB7DEB78091060491E0980F909398
:102A00000604882371F021E030E030930A0420931B
:102A10000904809306040F900F900F90DF91CF91DF
:102A20000895CE0101960E94190878940E947008BA
:102A3000F894809106048150809306048B8188234A
:102A400089F08091050491E0980F90930504882304
:102A500049F021E030E030930A0420930904809388
:102A60000504D9CF809105048823A9F28091070439
:102A70008111D1CF809108048F5F809308047894EE
:102A800017DBF894809105048150809305048091B0
:102A90000804815080930804BECFCF93DF93109237
:102AA000C3071092C20728D5F4DEC091AE02D091C0
:102AB000AF02198218829ADBF89477DF81E02881CF
:102AC0003981232B09F080E08093C20778947894B1
:102AD0008091C207811107C0CFDCF89490E080E0BC
:102AE000DF91CF91089581E028813981232B09F46A
:102AF00080E08093C3079091C30781E0911180E04B
:102B00008093C20771DFE4CF5058BB27AA270ED0AD
:102B100012C203D230F008D220F031F49F3F11F4FA
:102B20001EF4F8C10EF4E095E7FBC5C1E92F14D2FD
:102B300080F3BA17620773078407950718F071F4DA
:102B40009EF543C20EF4E0950B2EBA2FA02D0B017B
:102B5000B90190010C01CA01A0011124FF27591BE2
:102B600099F0593F50F4503E68F11A16F040A22FE8
:102B7000232F342F4427585FF3CF46953795279559
:102B8000A795F0405395C9F77EF41F16BA0B620B58
:102B9000730B840BBAF09150A1F0FF0FBB1F661F9F
:102BA000771F881FC2F70EC0BA0F621F731F841FE2
:102BB00048F4879577956795B795F7959E3F08F008
:102BC000B3CF9395880F08F09927EE0F97958795C7
:102BD0000895E4D180F09F3740F491110EF4F6C1CE
:102BE00060E070E080E89FE3089526F01B16611D09
:102BF000711D811D66C180C13AD108F481E008953C
:102C00000CD099C191D140F088D130F021F45F3FD0
:102C100019F051C15111DAC17DC19ED198F39923A8
:102C2000C9F35523B1F3951B550BBB27AA27621790
:102C30007307840738F09F5F5F4F220F331F441FD5
:102C4000AA1FA9F333D00E2E3AF0E0E830D091500D
:102C50005040E695001CCAF729D0FE2F27D0660FFA
:102C6000771F881FBB1F261737074807AB07B0E839
:102C700009F0BB0B802DBF01FF2793585F4F2AF04F
:102C80009E3F510568F017C1A1C15F3FECF3983E2C
:102C9000DCF3869577956795B795F7959F5FC9F7AC
:102CA000880F911D9695879597F90895E1E0660F35
:102CB000771F881FBB1F621773078407BA0720F0AE
:102CC000621B730B840BBA0BEE1F88F7E095089517
:102CD00004D06894B1117AC1089546D188F09F5705
:102CE00090F0B92F9927B751A0F0D1F0660F771F58
:102CF000881F991F1AF0BA95C9F712C0B13081F038
:102D000064D1B1E0089561C1672F782F8827B85F3B
:102D100039F0B93FCCF3869577956795B395D9F798
:102D20003EF490958095709561957F4F8F4F9F4FA2
:102D30000895E89409C097FB3EF4909580957095AE
:102D400061957F4F8F4F9F4F9923A9F0F92F96E9F7
:102D5000BB279395F695879577956795B795F1116C
:102D6000F8CFFAF4BB0F11F460FF1BC06F5F7F4F09
:102D70008F4F9F4F16C0882311F096E911C077231B
:102D800021F09EE8872F762F05C0662371F096E824
:102D9000862F70E060E02AF09A95660F771F881FF3
:102DA000DAF7880F9695879597F90895F7D080F010
:102DB0009F3740F491110EF009C160E070E080E8A7
:102DC0009FEB089526F41B16611D711D811D79C0AE
:102DD00093C0A3D018F011F0A7D038F49BC0F6C070
:102DE000E92FBAD0B0F35523C9F3E7FB6217730795
:102DF00084079507A8F199F3E92FFF2788232AF084
:102E00003197660F771F881FDAF7952F55274423D0
:102E100032F091505040220F331F441FD2F7BB278E
:102E2000E91BF50B621B730B840BB109C1F222F491
:102E3000620F731F841FB11D31972AF0660F771F31
:102E4000881FBB1FEFCF915050405AF041F08823AC
:102E500032F0660F771F881F91505040C1F793954D
:102E60004BC08695779567959F5FD9F7F8CF990FF7
:102E70000008550FAA0BE0E8FEEF16161706E80744
:102E8000F907C0F012161306E407F50798F0621B65
:102E9000730B840B950B39F40A2661F0232B242B3A
:102EA000252B21F408950A2609F4A140A6958FEF59
:102EB000811D811D089597F99F6780E870E060E0AB
:102EC0000895882371F4772321F09850872B762F6B
:102ED00007C0662311F499270DC09051862B70E02E
:102EE00060E02AF09A95660F771F881FDAF7880F3F
:102EF0009695879597F908959F3F31F0915020F46A
:102F0000879577956795B795880F911D96958795C5
:102F100097F908959FEF80EC089500240A941616FF
:102F2000170618060906089500240A9412161306B7
:102F3000140605060895092E0394000C11F4882345
:102F400052F0BB0F40F4BF2B11F460FF04C06F5F61
:102F50007F4F8F4F9F4F089557FD9058440F551F37
:102F600059F05F3F71F04795880F97FB991F61F00B
:102F70009F3F79F087950895121613061406551F82
:102F8000F2CF4695F1DF08C0161617061806991FEE
:102F9000F1CF86957105610508940895E5DFA0F0ED
:102FA000BEE7B91788F4BB279F3860F41616B11D29
:102FB000672F782F8827985FF7CF86957795679545
:102FC000B11D93959639C8F30895E894BB276627F9
:102FD0007727CB0197F908954ADF08F48FEF08951A
:102FE0000BD0A9CF9ADF28F09FDF18F0952309F0C6
:102FF00062CF90CF1124EACFAFDFA0F3959FD1F33A
:10300000950F50E0551F629FF001729FBB27F00D96
:10301000B11D639FAA27F00DB11DAA1F649F6627EB
:10302000B00DA11D661F829F2227B00DA11D621F3A
:10303000739FB00DA11D621F839FA00D611D221FF4
:10304000749F3327A00D611D231F849F600D211DD8
:10305000822F762F6A2F11249F5750408AF0E1F07B
:1030600088234AF0EE0FFF1FBB1F661F771F881FC4
:1030700091505040A9F79E3F510570F01CCFA6CF4C
:103080005F3FECF3983EDCF3869577956795B795AF
:10309000F795E7959F5FC1F7FE2B880F911D9695D9
:1030A000879597F908950895883008F076C0E82F3D
:1030B000F0E0EE0FFF1FE557FD4F718360838150F5
:1030C000873008F03DC0E82FF0E08827E559F74E3B
:1030D0008F4F0C94D422A81872187A188618931857
:1030E000B418C118809169008C7F482B4093690007
:1030F000E89A089580916900837F440F551F440F1B
:10310000551F482B40936900E99A08958091690002
:103110008F7C74E0440F551F7A95E1F7482B40935C
:103120006900EA9A0895809169008F7366E0440F00
:10313000551F6A95E1F7482B40936900EB9A089573
:1031400080916A008C7F482B40936A00EC9A089526
:1031500080916A00837F440F551F440F551F482BF1
:1031600040936A00ED9A089580916A008F7C24E074
:10317000440F551F2A95E1F7482B40936A00EE9AB9
:10318000089580916A008F7396E0440F551F9A95B9
:10319000E1F7482B40936A00EF9A08951F920F922F
:1031A0000FB60F9211240BB60F922F933F934F93AC
:1031B0005F936F937F938F939F93AF93BF93EF939F
:1031C000FF93E0918F02F09190021995FF91EF919A
:1031D000BF91AF919F918F917F916F915F914F912F
:1031E0003F912F910F900BBE0F900FBE0F901F902D
:1031F00018951F920F920FB60F9211240BB60F92D3
:103200002F933F934F935F936F937F938F939F93EE
:10321000AF93BF93EF93FF93E0919102F0919202ED
:103220001995FF91EF91BF91AF919F918F917F91F0
:103230006F915F914F913F912F910F900BBE0F9027
:103240000FBE0F901F9018951F920F920FB60F92FE
:1032500011240BB60F922F933F934F935F936F936D
:103260007F938F939F93AF93BF93EF93FF93E091DF
:103270009302F09194021995FF91EF91BF91AF9154
:103280009F918F917F916F915F914F913F912F917E
:103290000F900BBE0F900FBE0F901F9018951F92AE
:1032A0000F920FB60F9211240BB60F922F933F93EC
:1032B0004F935F936F937F938F939F93AF93BF933E
:1032C000EF93FF93E0919502F09196021995FF918B
:1032D000EF91BF91AF919F918F917F916F915F918E
:1032E0004F913F912F910F900BBE0F900FBE0F90FB
:1032F0001F9018951F920F920FB60F9211240BB6C4
:103300000F922F933F934F935F936F937F938F937E
:103310009F93AF93BF93EF93FF93E0918B02F09154
:103320008C021995FF91EF91BF91AF919F918F9171
:103330007F916F915F914F913F912F910F900BBEB5
:103340000F900FBE0F901F9018951F920F920FB6FF
:103350000F9211240BB60F922F933F934F935F93CD
:103360006F937F938F939F93AF93BF93EF93FF934D
:10337000E0918D02F0918E021995FF91EF91BF912E
:10338000AF919F918F917F916F915F914F913F91FD
:103390002F910F900BBE0F900FBE0F901F9018959E
:1033A0001F920F920FB60F9211240BB60F922F930C
:1033B0003F934F935F936F937F938F939F93AF93BD
:1033C000BF93EF93FF93E0919702F09198021995C4
:1033D000FF91EF91BF91AF919F918F917F916F91ED
:1033E0005F914F913F912F910F900BBE0F900FBEA9
:1033F0000F901F9018951F920F920FB60F921124E5
:103400000BB60F922F933F934F935F936F937F93DE
:103410008F939F93AF93BF93EF93FF93E0919902A4
:10342000F0919A021995FF91EF91BF91AF919F9101
:103430008F917F916F915F914F913F912F910F905D
:103440000BBE0F900FBE0F901F9018951F920F92FA
:103450000FB60F9211242F933F938F939F93AF93A7
:10346000BF9380910C0490910D04A0910E04B09133
:103470000F0430910B0423E0230F2D3758F50196EC
:10348000A11DB11D20930B0480930C0490930D0497
:10349000A0930E04B0930F04809110049091110436
:1034A000A0911204B09113040196A11DB11D809347
:1034B000100490931104A0931204B0931304BF91CD
:1034C000AF919F918F913F912F910F900FBE0F90D1
:1034D0001F90189526E8230F0296A11DB11DD2CF8B
:1034E0002FB7F89460910C0470910D0480910E0434
:1034F00090910F042FBF0895789484B5826084BDA5
:1035000084B5816084BD85B5826085BD85B58160E7
:1035100085BDEEE6F0E0808181608083E1E8F0E047
:103520001082808182608083808181608083E0E876
:10353000F0E0808181608083E1EBF0E08081846055
:103540008083E0EBF0E0808181608083E1E9F0E05E
:10355000808182608083808181608083E0E9F0E007
:10356000808181608083E1EAF0E0808182608083F5
:10357000808181608083E0EAF0E0808181608083E7
:10358000E1E2F1E0808182608083808181608083DC
:10359000E0E2F1E0808181608083EAE7F0E0808111
:1035A0008460808380818260808380818160808369
:1035B0008081806880831092C1000895863308F06E
:1035C000865320917B00982F9870277F922B9093A1
:1035D0007B0020919B0290E4299F90011124877029
:1035E000822B80937C0080917A00806480937A00A3
:1035F00080917A0086FDFCCF8091780090917900CF
:1036000008951F93CF93DF93182FEB0161E033D11F
:10361000209731F460E0812FDF91CF911F9167C136
:10362000CF3FD10511F461E0F6CFE12FF0E0EC518E
:10363000FF4FE491E150E23108F0B2C0F0E088279A
:10364000EC5DF44E8F4FB0C7361B3E1B431B4D1B2A
:10365000571BD01B611B691B711B7B1B851B8F1BA1
:103660009E1BA81BD01BB21BBC1BC61B84B580684D
:1036700084BDC7BDDF91CF911F91089584B580624D
:1036800084BDC8BDF7CF80918000806880938000A2
:10369000D0938900C0938800EDCF80918000806234
:1036A00080938000D0938B00C0938A00E3CF8091F9
:1036B0008000886080938000D0938D00C0938C0040
:1036C000D9CF8091B00080688093B000C093B300E0
:1036D000D1CF8091B00080628093B000C093B400DD
:1036E000C9CF80919000806880939000D09399001A
:1036F000C0939800BFCF809190008062809390002B
:10370000D0939B00C0939A00B5CF809190008860C1
:1037100080939000D0939D00C0939C00ABCF80918C
:10372000A00080688093A0008091A0008F7B809390
:10373000A000D093A900C093A8009CCF8091A000C6
:1037400080628093A000D093AB00C093AA0092CF78
:103750008091A00088608093A000D093AD00C093BA
:10376000AC0088CF80912001806880932001D093A5
:103770002901C09328017ECF80912001806280932F
:103780002001D0932B01C0932A0174CF8091200196
:10379000886080932001D0932D01C0932C016ACFC3
:1037A000C038D1050CF03FCF35CF8150823108F0C1
:1037B00059C0E82FF0E08827E052F44E8F4FF4C64E
:1037C000001C041CF21BF81BFC1B321C071C0D1CEC
:1037D000111C171C1B1C1F1C251C291C321C2D1CFA
:1037E000331C371C809180008F7780938000089570
:1037F000809180008F7DF9CF80918000877FF5CF09
:1038000084B58F7784BD089584B58F7DFBCF80917B
:10381000B0008F778093B00008958091B0008F7DC5
:10382000F9CF809190008F778093900008958091D8
:1038300090008F7DF9CF80919000877FF5CF8091A8
:10384000A0008F778093A00008958091A0008F7DC5
:10385000F9CF8091A000877FF5CF809120018F77ED
:10386000809320010895809120018F7DF9CF809170
:103870002001877FF5CFCF93DF9390E0FC01E65DD9
:10388000FE4F249180599E4FFC0184918823C9F0FA
:1038900090E0880F991FFC01E651FE4FA591B4916D
:1038A000FC01E053FE4FC591D49161110DC09FB74B
:1038B000F8948C91209582238C93888128232883E7
:1038C0009FBFDF91CF910895623051F49FB7F89474
:1038D0003C91822F809583238C93E8812E2BEFCF10
:1038E0008FB7F894EC912E2B2C938FBFEACF1F93B8
:1038F000CF93DF93282F30E0F901EC51FF4F8491F3
:10390000F901E65DFE4FD491F901E059FE4FC491F3
:10391000CC23A1F0162F811148DFEC2FF0E0EE0F41
:10392000FF1FE053FE4FA591B4918FB7F894EC912F
:10393000111108C0D095DE23DC938FBFDF91CF91AA
:103940001F910895DE2BF8CFCF93DF93282F30E01F
:10395000F901EC51FF4F8491F901E65DFE4FD491DE
:10396000F901E059FE4FC491CC2399F081111DDF7C
:10397000EC2FF0E0EE0FFF1FEA54FE4FA591B4913B
:10398000EC91ED2381E090E009F480E0DF91CF91AC
:10399000089580E090E0FACFFC01918D228D892F6F
:1039A00090E0805C9F4F821B91098F739927089547
:1039B000FC01918D828D981731F0828DE80FF11DF9
:1039C000858D90E008958FEF9FEF0895FC01918D14
:1039D000828D981761F0A28DAE0FBF2FB11D5D963D
:1039E0008C91928D9F5F9F73928F90E008958FEFDF
:1039F0009FEF0895FC01538D448D252F30E0842FD7
:103A000090E0821B930B541710F0CF960895019706
:103A10000895FC01A48DA80FB92FB11DA35ABF4F63
:103A20002C91848D90E001968F739927848FA689BD
:103A3000B7892C93A089B1898C91837080648C9311
:103A4000938D848D981306C00288F389E02D8081C0
:103A50008F7D80830895CF93DF93EC01888D882339
:103A6000B1F0AA89BB89E889F9898C9185FD03C0E9
:103A7000808186FD0CC00FB607FCF7CF8C9185FFC7
:103A8000F2CF808185FFEDCFCE01C3DFEACFDF919A
:103A9000CF910895EF92FF920F931F93CF93DF93EF
:103AA000EC0181E0888F9B8D8C8D98131AC0E8897A
:103AB000F989808185FF15C09FB7F894EE89FF8949
:103AC0006083E889F98980818370806480839FBFE7
:103AD00081E090E0DF91CF911F910F91FF90EF90E7
:103AE0000895F62E0B8D10E00F5F1F4F0F731127F7
:103AF000E02E8C8D8E110BC00FB607FCFACFE88933
:103B0000F989808185FFF5CFCE0183DFF2CFEB8D80
:103B1000EC0FFD2FF11DE35AFF4FF0829FB7F89491
:103B20000B8FEA89FB8980818062D0CFCF92DF92B0
:103B3000EF92FF921F93CF93DF93EC016A017B0119
:103B4000122FE889F98982E08083C11481EED806BA
:103B5000E104F10499F060E079E08DE390E0A701E1
:103B6000960100D5215031094109510956954795D3
:103B700037952795211580E1380790F0E889F98974
:103B8000108260E874E88EE190E0A7019601EAD423
:103B90002150310941095109569547953795279587
:103BA000EC85FD853083EE85FF852083188EEC89BA
:103BB000FD891083EA89FB89808180618083EA899D
:103BC000FB89808188608083EA89FB8980818068A5
:103BD0008083EA89FB8980818F7D8083DF91CF910B
:103BE0001F91FF90EF90DF90CF9008951F920F925A
:103BF0000FB60F9211240BB60F922F938F939F93B2
:103C0000EF93FF93E0912404F09125048081E091EB
:103C10002A04F0912B0482FD1DC0908180912D0417
:103C20008F5F8F7320912E04821741F0E0912D0455
:103C3000F0E0EC5EFB4F958F80932D04FF91EF91A8
:103C40009F918F912F910F900BBE0F900FBE0F90F1
:103C50001F9018958081F2CF1F920F920FB60F928E
:103C600011240BB60F922F933F934F935F936F9353
:103C70007F938F939F93AF93BF93EF93FF9384E1D1
:103C800094E0C7DEFF91EF91BF91AF919F918F912B
:103C90007F916F915F914F913F912F910F900BBE4C
:103CA0000F900FBE0F901F901895E4E1F4E013827F
:103CB000128288EE93E0A0E0B0E084839583A6832F
:103CC000B78388EC92E09183808385EC90E09587C0
:103CD000848784EC90E09787868780EC90E0918BD6
:103CE000808B81EC90E0938B828B82EC90E0958BC3
:103CF000848B86EC90E0978B868B118E128E138EC0
:103D0000148E08951F920F920FB60F9211240BB6C6
:103D10000F922F938F939F93EF93FF93E091C104A2
:103D2000F091C2048081E091C704F091C80482FD43
:103D30001DC090818091CA048F5F8F732091CB0446
:103D4000821741F0E091CA04F0E0EF54FB4F958FE9
:103D50008093CA04FF91EF919F918F912F910F90C3
:103D60000BBE0F900FBE0F901F9018958081F2CF61
:103D70001F920F920FB60F9211240BB60F922F9332
:103D80003F934F935F936F937F938F939F93AF93E3
:103D9000BF93EF93FF9381EB94E03BDEFF91EF91B4
:103DA000BF91AF919F918F917F916F915F914F9153
:103DB0003F912F910F900BBE0F900FBE0F901F9051
:103DC0001895E1EBF4E01382128288EE93E0A0E014
:103DD000B0E084839583A683B78388EC92E09183D7
:103DE00080838DEC90E0958784878CEC90E09787BA
:103DF000868788EC90E0918B808B89EC90E0938BA8
:103E0000828B8AEC90E0958B848B8EEC90E0978B84
:103E1000868B118E128E138E148E08951F920F9220
:103E20000FB60F9211240BB60F922F938F939F937F
:103E3000EF93FF93E0915E05F0915F058081E09143
:103E40006405F091650582FD1DC090818091670534
:103E50008F5F8F7320916805821741F0E0916705AD
:103E6000F0E0E25BFA4F958F80936705FF91EF9149
:103E70009F918F912F910F900BBE0F900FBE0F90BF
:103E80001F9018958081F2CF1F920F920FB60F925C
:103E900011240BB60F922F933F934F935F936F9321
:103EA0007F938F939F93AF93BF93EF93FF938EE492
:103EB00095E0AFDDFF91EF91BF91AF919F918F9111
:103EC0007F916F915F914F913F912F910F900BBE1A
:103ED0000F900FBE0F901F901895EEE4F5E013823F
:103EE000128288EE93E0A0E0B0E084839583A683FD
:103EF000B78388EC92E09183808385ED90E095878D
:103F0000848784ED90E09787868780ED90E0918BA1
:103F1000808B81ED90E0938B828B82ED90E0958B8E
:103F2000848B86ED90E0978B868B118E128E138E8C
:103F3000148E08951F920F920FB60F9211240BB694
:103F40000F922F938F939F93EF93FF93E091FB0535
:103F5000F091FC058081E0910106F091020682FD5E
:103F60001DC09081809104068F5F8F73209105069C
:103F7000821741F0E0910406F0E0E551FA4F958F89
:103F800080930406FF91EF919F918F912F910F9055
:103F90000BBE0F900FBE0F901F9018958081F2CF2F
:103FA0001F920F920FB60F9211240BB60F922F9300
:103FB0003F934F935F936F937F938F939F93AF93B1
:103FC000BF93EF93FF938BEE95E023DDFF91EF918D
:103FD000BF91AF919F918F917F916F915F914F9121
:103FE0003F912F910F900BBE0F900FBE0F901F901F
:103FF0001895EBEEF5E01382128288EE93E0A0E0D4
:10400000B0E084839583A683B78388EC92E09183A4
:10401000808385E391E09587848784E391E09787A7
:10402000868780E391E0918B808B81E391E0938B95
:10403000828B82E391E0958B848B86E391E0978B72
:10404000868B118E128E138E148E0895AF92BF92AE
:10405000CF92DF92EF92FF920F931F93CF93DF9354
:104060006C017B018B01040F151FEB015E01AE1883
:10407000BF08C017D10759F06991D601ED91FC91A5
:104080000190F081E02DC6011995892B79F7C501C2
:10409000DF91CF911F910F91FF90EF90DF90CF9024
:1040A000BF90AF900895FB0101900020E9F7319790
:1040B000AF01461B570BDC01ED91FC910280F381AF
:1040C000E02D19946115710509F0EDCF90E080E0C5
:1040D0000895DC01ED91FC910190F081E02D19949F
:1040E00066ED72E0E0CF8F929F92AF92BF92EF9217
:1040F000FF920F931F93CF93DF93CDB7DEB7A197B6
:104100000FB6F894DEBF0FBECDBF7C01FA01CB0124
:1041100019A2223008F42AE08E010F5D1F4F822E73
:10412000912CB12CA12CBF01A50194011BD2F90146
:10413000CA016A3004F5605DD8016E938D01232BAE
:10414000242B252B81F790E080E0109719F0BD011A
:10415000C701A9DFA1960FB6F894DEBF0FBECDBF91
:10416000DF91CF911F910F91FF90EF90BF90AF9093
:104170009F908F900895695CDFCFCF92DF92EF928E
:10418000FF920F931F93CF93DF932115310581F495
:10419000DC01ED91FC910190F081E02D642FDF9125
:1041A000CF911F910F91FF90EF90DF90CF901994D6
:1041B0002A303105F1F42AE077FF1BC06A017B0148
:1041C000EC016DE286DF8C0144275527BA014C19BA
:1041D0005D096E097F092AE0CE0185DF800F911FFE
:1041E000DF91CF911F910F91FF90EF90DF90CF90D3
:1041F0000895DF91CF911F910F91FF90EF90DF9085
:10420000CF9071CF9A01AB01770F660B770BB5CFCB
:104210000F931F93CF93DF93EC01F4DF8C01CE015A
:104220005FDF800F911FDF91CF911F910F91089554
:104230000F931F93CF93DF93EC019FDF8C01CE018F
:104240004FDF800F911FDF91CF911F910F91089544
:104250002115310541F4DC01ED91FC910190F081D3
:10426000E02D642F19943FCF9A01462F50E070E063
:1042700060E0EECF0F931F93CF93DF93EC01F4DF59
:104280008C01CE012DDF800F911FDF91CF911F9107
:104290000F9108959A01AB0170E060E0D9CF0F93C0
:1042A0001F93CF93DF93EC01F5DF8C01CE0118DF74
:1042B000800F911FDF91CF911F910F9108950F9360
:1042C0001F93CF93DF93EC01C3DF8C01CE0108DF96
:1042D000800F911FDF91CF911F910F9108952F9221
:1042E0003F924F925F926F927F928F929F92AF9286
:1042F000BF92CF92DF92EF92FF921F93CF93DF9303
:10430000EC016A017B01722EAB019601CB01B60173
:1043100053D169ED72E0811125C046015701E8943F
:10432000B7F82FEF3FEF4FE75FE7C501B40144D186
:1043300081110CC02FEF3FEF4FE75FE7C501B401DC
:104340000E94FC156DED72E0181664F02FEF3FEF40
:104350004FE75FE4C701B6010E94EC171816ACF4F2
:1043600061EE72E0CE01DF91CF911F91FF90EF904F
:10437000DF90CF90BF90AF909F908F907F906F9085
:104380005F904F903F902F908ECE2FEF3FEF4FE7F3
:104390005FECC701B6010E94FC1587FDE1CF20E06C
:1043A00030E0A901C701B6010E94FC15312C212C77
:1043B00087FF08C06DE2CE018CDE1C01F7FAF09495
:1043C000F7F8F09410E060E070E080E09FE3711691
:1043D00041F020E030E040E251E40E9400161F5F0F
:1043E000F6CFA70196010E9485152B013C010E9482
:1043F0006D164B015C012AE0BC01A401CE0173DE05
:104400007C01E20CF31C1123A1F1C501B4010E944F
:1044100099169B01AC01C301B2010E9484154B01A6
:104420005C016EE2CE0155DEE80EF91E115008F176
:1044300020E030E040E251E4C501B4010E94F017F1
:104440002B013C010E946D164B014AE050E0CE0169
:1044500021DFE80EF91EB40190E080E00E94991679
:104460009B01AC01C301B2010E9484154B015C01A8
:10447000DDCFC701DF91CF911F91FF90EF90DF90CB
:10448000CF90BF90AF909F908F907F906F905F90F4
:104490004F903F902F90089522CF0F931F93CF936B
:1044A000DF93EC011CDF8C01CE011ADE800F911F1F
:1044B000DF91CF911F910F9108950F931F93CF9389
:1044C000DF93EC010DD8688779878A879B87E8811D
:1044D000F9810284F385E02DCE01199597FF15C06F
:1044E0000E94701A088519852A853B85601B710B0F
:1044F000820B930B0C811D812E813F816017710708
:104500008207930720F38FEF9FEFDF91CF911F91E9
:104510000F910895AF92BF92CF92DF92EF92FF92E8
:104520000F931F93CF93DF935C017B018B01040FEB
:10453000151FEB016E01CE18DF08C017D10731F04F
:10454000C501BBDF97FD02C08993F4CFC601DF919F
:10455000CF911F910F91FF90EF90DF90CF90BF9080
:10456000AF900895A1E21A2EAA1BBB1BFD010DC03E
:10457000AA1FBB1FEE1FFF1FA217B307E407F50713
:1045800020F0A21BB30BE40BF50B661F771F881FEF
:10459000991F1A9469F760957095809590959B0185
:1045A000AC01BD01CF010895EE0FFF1F881F8BBF27
:1045B0000790F691E02D19940E943717880B990BFC
:0645C0000895F894FFCFFE
:1045C60067056B056F05730557055B055F05630595
:1045D600C903CF03D503DB0300C07F44000040407E
:1045E6000000B6420AD7A33B00000000000000000E
:1045F60000000000000040400000000000C0FF4333
:1046060000202645000024440000B443000040BFBB
:1046160099806D3F5C808EBD9A9919BD35FA8E3CA6
:10462600000048436DA3673F8A4FB93DCDCC4C3D52
:10463600000000006F12833A000048436DA3673FF5
:104646008A4FB93DCDCC4C3D000323531853185324
:104656001853185318531853185318014669786598
:1046660064537465704469736372657465004203CC
:104676000001FFFFFFFFFFFFFFFFFFFFFFFFFFFF41
:1046860005040302000000004A1D2620FA1C2B1D0B
:10469600CC1CE61CD81C0D0A006E616E00696E66A5
:0646A600006F76660000C3
:00000001FF
