:1000000005C100000C94E7190C94121A0C943D1AC7
:100010000C94681A0C94931A0C94BE1A0C94E91A56
:100020000C94141B24C1000022C1000020C1000058
:100030001EC100001CC100001AC1000018C1000050
:1000400016C1000014C1000012C1000010C1000060
:100050000EC100000CC100000AC100000C943F1B3F
:1000600006C100000C940F1F0C94451F00C1000036
:10007000FEC00000FCC00000FAC00000F8C0000094
:10008000F6C00000F4C00000F2C00000F0C00000A4
:100090000C949B1F0C94D11FEAC00000E8C0000024
:1000A000E6C00000E4C00000E2C00000E0C00000C4
:1000B000DEC00000DCC00000DAC00000D8C00000D4
:1000C000D6C00000D4C000000C94C1150C942720A9
:1000D0000C945D20CCC000000C94B3200C94E9205B
:1000E000C6C0000000000A0B02090C0D0E08070331
:1000F00004010000000000000000000000000000FB
:1001000000000000000000000000000000000000EF
:1001100012111000000000000000000000000000AC
:100120000000000000000000000001021020200874
:100130000810204010204080020102010804020142
:1001400001020408102040808040201008040201B1
:10015000800402018040201008040201080402010A
:100160000102040810204080010204081020408091
:1001700005050505070508080808020202020A0A23
:100180000808040404040101010101010101030341
:10019000030303030303040707070C0C0C0C0C0CEC
:1001A0000C0C0202020206060606060606060B0BE9
:1001B0000B0B0B0B0B0B000020002300260029006B
:1001C0002C002F003200000100000301060109018C
:1001D00000002200250028002B002E0031003400F2
:1001E00002010000050108010B01000021002400AC
:1001F00027002A002D003000330001010000040117
:1002000007010A016E1FFA1F8620122111241FBE4A
:10021000CFEFD1E2DEBFCDBF00E00CBF12E0A0E027
:10022000B2E0E8EFF7E400E00BBF02C007900D92E8
:10023000A63EB107D9F727E0A6EEB2E001C01D92B5
:10024000AE3EB207E1F711E0C6E0D1E000E006C043
:1002500021970109802FFE010E94ED23C230D107B2
:1002600080E00807A9F70E9466160C94FA23C8CE0E
:10027000611102C00C94541D6130E1F362E0FACFC9
:10028000662319F061E00C94901D60E0FCCFCF93E1
:10029000282F8823E1F0CB01BA01CFEFC20FEC2F5A
:1002A000F0E0EA51FD4F2081213059F490580E942E
:1002B00086179B01AC016C2F70E090E080E0CF913D
:1002C000A2C00E9481178C2FCF910C941A1CCF9141
:1002D00008950F931F938B019C0183E0369527951A
:1002E000179507958A95D1F7045D1C4F462F4770E7
:1002F00021E030E0F90102C0EE0FFF1F4A95E2F75E
:10030000AF01F80120812423CB010196211102C005
:1003100090E080E01F910F9108950F931F938B0140
:100320009C0183E036952795179507958A95D1F717
:10033000677081E090E001C0880F6A95EAF7F801E4
:10034000E45DFC4F2081452B31F48095822380832E
:100350001F910F910895822BFACF4F925F926F9267
:100360007F928F929F92AF92BF92CF92DF92EF9245
:10037000FF920F931F93CF93DF934B015C012901F1
:100380003A01670161E0882D0E94541DE401219625
:10039000AE01C501B401C1DF20E030E0A901C80110
:1003A000B6010E94051918168CF4F401EA51FD4FAC
:1003B00081E08083C801B6010E9486176B01C301EA
:1003C000B2010E948617A601C40121D0CE01DF919F
:1003D000CF911F910F91FF90EF90DF90CF90BF9042
:1003E000AF909F908F907F906F905F904F90089507
:1003F000882341F08150682F70E090E080E050E069
:1004000040E08BCF0895862FB9010C941A1C9C01F3
:10041000FC01EC51FF4FE491E150E231E0F4F0E0F7
:100420008827EA5EFD4F8F4F0C94ED2328022F02A0
:10043000320249025E022B0273027F0283029A0299
:10044000AF02C402DB02F0022B0205031C033103DE
:1004500084B5806884BD60E0822F0C94901D84B5C3
:100460008062F8CF809180008C7F826080938000D2
:1004700080918100807E8061682B60938100509321
:100480008700409386008091800080688093800080
:10049000E2CF809180008C7F826080938000809189
:1004A0008100807E8061682B60938100509387007B
:1004B00040938600809180008062E8CF8091800028
:1004C0008C7F82608093800080918100807E80613B
:1004D000682B609381005093870040938600809141
:1004E00080008860D3CF8091B00080688093B00096
:1004F0008091B100887F682B6093B100ACCF809170
:10050000B0008062F3CF809190008C7F82608093F6
:10051000900080919100807E8061682B60939100B3
:10052000509397004093960080919000806880934C
:10053000900091CF809190008C7F8260809390009A
:1005400080919100807E8061682B60939100509330
:10055000970040939600809190008062E8CF809150
:1005600090008C7F82608093900080919100807ECB
:100570008061682B609391005093970040939600A0
:10058000809190008860D3CF8091A0008C7F8260A2
:100590008093A0008091A100807E8061682B609391
:1005A000A1005093A7004093A6008091A00080680E
:1005B0008093A00050CF8091A0008C7F82608093B8
:1005C000A0008091A100807E8061682B6093A100D3
:1005D0005093A7004093A6008091A0008062E8CFCE
:1005E0008091A0008C7F82608093A0008091A10008
:1005F000807E8061682B6093A1005093A700409398
:10060000A6008091A0008860D3CF809120018C7FCC
:1006100082608093200180912101807E8061682B1F
:10062000609321015093270140932601809120017E
:100630008068809320010FCF809120018C7F8260A1
:100640008093200180912101807E8061682B6093DE
:10065000210150932701409326018091200180625F
:10066000E8CF809120018C7F82608093200180916F
:100670002101807E8061682B6093210150932701C6
:1006800040932601809120018860D3CFCF93DF93E0
:10069000882349F0EB0181500E94F71B99838883DE
:1006A000DF91CF910895FB0111821082F9CF0F9352
:1006B0001F938B019C0183E036952795179507952D
:1006C0008A95D1F70B5C1C4F462F477021E030E034
:1006D000F90102C0EE0FFF1F4A95E2F7AF01F801E2
:1006E00020812423CB010196211102C090E080E0FB
:1006F0001F910F9108950F931F938B019C0183E02D
:1007000036952795179507958A95D1F7677081E0FB
:1007100090E001C0880F6A95EAF7F801EB5CFC4FA6
:100720002081452B31F48095822380831F910F9186
:100730000895822BFACFCF92DF92EF92FF92CF9360
:10074000DF936B017C0160E086E3C816D104E1040D
:10075000F10490F486E38C0D0E94541DE60121966D
:10076000AE01C701B601C7DFCE01DF91CF91FF9087
:10077000EF90DF90CF9008958C2DEECF882341F03D
:100780008150682F70E090E080E050E040E0B3CF0F
:100790000895AB01BC0188E194E00C94A323AB0164
:1007A000BC0185EB94E00C94A323AB01BC0182E572
:1007B00095E00C94A323AB01BC018FEE95E00C9463
:1007C000A3238F929F92AF92BF92CF92DF92EF922C
:1007D000FF920F931F93CF93DF93CDB7DEB77B01CB
:1007E0004A015901CDB6DEB69B01220F331F4DB72A
:1007F0005EB7421B530B0FB6F8945EBF0FBE4DBFE2
:100800000DB71EB70F5F1F4FE82FF0E0EE0FFF1F71
:10081000E05FFD4F0190F081E02DC8011995F801CE
:10082000D401E00EF11EEE15FF0519F081918D93B4
:10083000FACF81E0F50180830FB6F894DEBE0FBEDB
:10084000CDBEDF91CF911F910F91FF90EF90DF9080
:10085000CF90BF90AF909F908F9008952F923F922E
:100860004F925F926F927F928F929F92AF92BF92C0
:10087000CF92DF92EF92FF920F931F93CF93DF936C
:1008800000D000D000D01F92CDB7DEB7682E7A8797
:100890006987742EB52E3C832B8348012A2C312C7A
:1008A0004E2C512C81E090E0012B11F490E080E07F
:1008B000849D9001859D300D949D300D11244985B6
:1008C0005A85420F531F5A834983062D10E0000FAB
:1008D000111FF801E050FE4F0190F081E02D1995B5
:1008E00041E050E0C114D10411F450E040E0429DD9
:1008F0009001439D300D529D300D1124A981BA8184
:100900002A0F3B1F821793075CF5E72DFB2D2985E6
:100910003A852E0F3F1F3A83298349815A81E41774
:10092000F50711F01192F9CFAB81BC811C922A9688
:100930000FB6F894DEBF0FBECDBFDF91CF911F91F0
:100940000F91FF90EF90DF90CF90BF90AF909F906E
:100950008F907F906F905F904F903F902F90089571
:10096000C114D10409F441C0F12CE12CF801E0508C
:10097000FE4FFE83ED839801285F3D4F38872F831C
:10098000AD81BE81ED91FC91E214F30474F51995EB
:10099000892B81F4E72DFB2D29853A852E0F3F1FEA
:1009A0003A83298349815A81E417F50709F4BCCFBA
:1009B0001192F8CFAF81B885ED91FC911995F601B0
:1009C000EE0DFF1D9081981761F021E030E0F601F7
:1009D0009081981302C030E020E0EE24FF24E21A58
:1009E000F30AFFEFEF1AFF0ACBCF980120503E4FDA
:1009F0006901D901ED91FC911995E981FA818E1770
:100A00009F0784F4E72DFB2D29853A852E0F3F1F84
:100A10003A83298349815A81E417F50709F484CF81
:100A20001192F8CF2B813C81472D5B2D69857A850A
:100A3000862DC7DE8114910409F479CF7401085F13
:100A40001D4FC70188199909841595050CF06FCFC2
:100A5000D601ED91FC911995892B81F4E72DFB2DA1
:100A600029853A852E0F3F1F3A83298349815A8170
:100A7000E417F50709F458CF1192F8CFD801ED919A
:100A8000FC911995F70191917F019817D1F2E72D0B
:100A9000FB2D29853A852E0F3F1F3A8329834981F3
:100AA0005A81E417F50709F43FCF1192F8CF88E196
:100AB00094E00C94FF1D85EB94E00C94FF1D82E5FF
:100AC00095E00C94FF1D8FEE95E00C94FF1D88E1DE
:100AD00094E00C94E51D85EB94E00C94E51D82E513
:100AE00095E00C94E51D8FEE95E00C94E51D8823B0
:100AF00011F1823071F08330A9F08130E1F426E009
:100B000030E040E050E16EE070E081E090E00C9475
:100B10006B1526E030E040E050E16EE070E082E0EE
:100B200090E0F5CF26E030E040E050E16EE070E08C
:100B300083E090E0ECCF08952F923F924F925F9226
:100B40006F927F928F929F92AF92BF92CF92DF92DD
:100B5000EF92FF920F931F93CF93DF931F92CDB726
:100B6000DEB72B013A01D02EE9829C2DCA2CF4016C
:100B7000EF88F88C998C6A8D7B8D4C8D843008F0D1
:100B8000EBC1823051F0833009F456C0813049F412
:100B900035EB232E34E0332E04C0A2E52A2EA5E047
:100BA0003A2E30E02830310511F424E030E0269D63
:100BB0005001279DB00C369DB00C11240AE010E0C6
:100BC000992351F000E110E0913031F008E010E09D
:100BD000923011F002E010E08111E1C0D11031C07B
:100BE0006115710529F050E088E194E00E943F21F1
:100BF000A501B20188E194E00E943F21E114F104D3
:100C000009F4AAC1492D50E0B70188E194E00F90A2
:100C1000DF91CF911F910F91FF90EF90DF90CF90D8
:100C2000BF90AF909F908F907F906F905F904F900C
:100C30003F902F900C943F215FEE252E55E0352EEE
:100C4000B0CFBF0188E194E00E947B218981873089
:100C500008F082C1E82FF0E08827EE5CF94F8F4F53
:100C60000C94ED235106640678068E06A406B80699
:100C70003906AC2CB12CE1E06E1A710808F46CC195
:100C8000D2014D915D916D917D912D01B1E0950164
:100C900088E194E0DB1280C00E946523ECCF0E94C3
:100CA00053226A94AFEF6A1609F456C1F2016191BA
:100CB0002F01F1E0A80188E194E0DF12F0CF0E945B
:100CC0004D22EFCF0E9468226A948FEF681609F4D4
:100CD00043C1D2016D917D912D01B1E0A80188E160
:100CE00094E0DB12EFCF0E946322EECF0E947822C5
:100CF0006A94EFEF6E1609F42FC1D2014D915D9108
:100D00006D917D912D01B1E0980188E194E0DB12B5
:100D1000EDCF0E944122ECCF0E9421226A94EFEF96
:100D20006E1609F419C1D2016D912D01062E000C29
:100D3000770BB1E0A80188E194E0DB12EDCF0E94CF
:100D40001B22ECCF0E9421226A94EFEF6E1609F469
:100D500003C1D2016D917D912D01B1E0A80188E11F
:100D600094E0DB12EFCF0E941B22EECF0E943122D3
:100D70006A94EFEF6E1609F4EFC0D2014D915D91C8
:100D80006D917D912D01B1E0980188E194E0DB1235
:100D9000EDCF0E94D621ECCF0E9466236CCFD110FC
:100DA00038C06115710549F050E0D101ED91FC9119
:100DB0000280F381E02DC1011995D101ED91FC91E3
:100DC0000280F381E02DA501B201C1011995E11462
:100DD000F10409F4C1C0492D50E0D101ED91FC911D
:100DE0000280F381E02DB701C1010F90DF91CF9117
:100DF0001F910F91FF90EF90DF90CF90BF90AF9039
:100E00009F908F907F906F905F904F903F902F902A
:100E10001994BF01C1010E947B21B981B73008F04C
:100E20009BC0EB2FF0E08827E75EF84F8F4F0C94C4
:100E3000ED23370749075C077107850797072007E8
:100E4000AC2CB12CE1E06E1A710808F485C0D20117
:100E50004D915D916D917D912D01B1E09501C101A3
:100E6000DB1277C00E946523EDCF0E9453226A9463
:100E7000EFEF6E1609F470C0D2016D912D01B1E053
:100E8000A801C101DB12F1CF0E944D22F0CF0E94D8
:100E900068226A94EFEF6E1609F45EC0D2016D917C
:100EA0007D912D01B1E0A801C101DB12F0CF0E94BC
:100EB0006322EFCF0E9478226A94EFEF6E1609F456
:100EC0004BC0D2014D915D916D917D912D01B1E0AD
:100ED0009801C101DB12EECF0E944122EDCF0E94AA
:100EE00021226A94EFEF6E16B9F1D2016D912D01B6
:100EF000062E000C770BB1E0A801C101DB12EFCF89
:100F00000E941B22EECF0E9421226A94EFEF6E1600
:100F100019F1D2016D917D912D01B1E0A801C101BE
:100F2000DB12F1CF0E941B22F0CF0E9431226A9483
:100F3000EFEF6E1689F0D2014D915D916D917D912B
:100F40002D01B1E09801C101DB12EFCF0E94D62143
:100F5000EECF0E94662376CF0F90DF91CF911F9145
:100F60000F91FF90EF90DF90CF90BF90AF909F9048
:100F70008F907F906F905F904F903F902F9008954B
:100F80008F929F92AF92BF92CF92DF92EF92FF9299
:100F90004B015C010E943613882399F0C090CE0764
:100FA000D090CF07E090D007F090D107C701B601ED
:100FB000FF90EF90DF90CF90BF90AF909F908F9079
:100FC0000895C501B4010E94F3128111E7CF20E01A
:100FD00030E0A901C501B4010E941517882329F149
:100FE00020E030E040E050E4C501B4010E9409185F
:100FF0006B017C0120E030E0A9010E9415178823D5
:10100000A1F020E030E0A901C501B4010E9415174C
:1010100087FFCCCF20E030E040E050E4C701B601CC
:101020000E949E166B017C01C1CFC12CD12C760190
:10103000BDCFFC0191E08091D703811190E09283B4
:101040000895CF92DF92EF92FF926B017C019F7720
:1010500020E030E040E859E50E94151787FF2BC0DB
:1010600020E030E040E05FE3C701B6010E940519CF
:1010700087FD0EC020E030E040E05FE3C701B6012D
:101080000E949E16FF90EF90DF90CF900C94EF1788
:1010900020E030E040E05FEBC701B6010E94051997
:1010A000181684F420E030E0A901C701B6010E94BF
:1010B00009196B017C01C701B601FF90EF90DF9029
:1010C000CF90089520E030E040E05FE3C701B60133
:1010D0000E949D16FF90EF90DF90CF900C94021726
:1010E0002F923F924F925F926F927F928F929F9238
:1010F000AF92BF92CF92DF92EF92FF920F931F9326
:10110000CF93DF93CDB7DEB7A3970FB6F894DEBFCA
:101110000FBECDBF8091D7039091D603911105C02A
:1011200091E0811190E09093D8038F5F8A3008F0AE
:10113000CFC18093D703E0917A07F0917B0780813C
:101140009181A281B3818093800790938107A093BE
:101150008207B093830784819581A681B7818093AC
:10116000840790938507A0938607B09387078085AF
:101170009185A285B3858093880790938907A09372
:101180008A07B0938B07C0903002D0903102E09074
:101190003202F0903302A70196016091B20670917D
:1011A000B3068091B4069091B5060E941517882366
:1011B00041F0C092B206D092B306E092B406F0922B
:1011C000B506C0903402D0903502E0903602F0901F
:1011D0003702A70196016091B6067091B70680911B
:1011E000B8069091B9060E941517882341F0C09265
:1011F000B606D092B706E092B806F092B9066091B2
:10120000BA067091BB06A12CD12CC12CE12C10E0A8
:1012100000E09E012D5F3F4F4CE857E080E01EDB71
:101220008B818130A1F560918C0770918D07809141
:101230008E0790918F0705DF6B017C01C092BC0780
:10124000D092BD07E092BE07F092BF0720E030E0E9
:1012500040E053E40E94151787FF19C020E030E0FA
:1012600040E053ECC701B6010E94051987FD0FC08D
:10127000C701B6010E948117633009F47AC10CF0EE
:101280002AC1613009F445C1623009F45AC1809124
:10129000140790911507A0911607B0911707809336
:1012A000AC079093AD07A093AE07B093AF078091C2
:1012B000180790911907A0911A07B0911B07809306
:1012C000B0079093B107A093B207B093B307AA24D5
:1012D000A394B12CAAE8CA2EA2E0DA2EEE24E3945D
:1012E000F12C09E812E021E030E048E852E064EE39
:1012F00076E080EC97E00E9498134090AC07509005
:10130000AD076090AE077090AF0720E030E0A90114
:10131000C301B2010E9415172090C0073090C10789
:1013200081117EC080901C0790901D07A0901E0721
:10133000B0901F0720E030E0A90160913C07709158
:101340003D0780913E0790913F070E94151720E0CE
:1013500030E0A9018111B6C1C501B4010E94151781
:1013600081112FC0109238071092390710923A0756
:1013700010923B0710923C0710923D0710923E07D7
:1013800010923F07109240071092410710924207B7
:1013900010924307109248071092490710924A078B
:1013A00010924B0710924C0710924D0710924E0767
:1013B00010924F07E0E5F7E088E2DF011D928A9581
:1013C000E9F7C0903807D0903907E0903A07F090DD
:1013D0003B0720E030E0A901C701B6010E941517C4
:1013E0008111F7C01092340710923507109236071A
:1013F0001092370720E030E040E85FE3C501B40118
:101400000E94151781110CC080E090E0A0E8BFE3B6
:101410008093380790933907A0933A07B0933B071E
:1014200080903C0790903D07A0903E07B0903F070A
:10143000B101330C880B990B0E94B4176B017C012E
:1014400020E030E040E85FE3C501B4010E941517D9
:1014500081115FC120914C0730914D0740914E079B
:1014600050914F0760E070EC8CEA94EC0E949D165E
:10147000A70196010E949E166B017C01C092B807DD
:10148000D092B907E092BA07F092BB0720E030E0B3
:1014900040E85FE360912007709121078091220767
:1014A000909123070E941517882309F43BC180916E
:1014B000340790913507A0913607B0913707809394
:1014C000BC079093BD07A093BE07B093BF0755C15B
:1014D0001092D70330CE643009F463C0653009F050
:1014E000D6CE20E030E040E85FE3609124077091C1
:1014F000250780912607909127070E949E1640DDC0
:1015000060932407709325078093260790932707FD
:10151000BECE20E030E040E85FE3609118077091B4
:10152000190780911A0790911B070E949E1628DDCB
:10153000609318077093190780931A0790931B07FD
:10154000A6CE20E030E040E85FE360911C07709198
:101550001D0780911E0790911F070E949E1610DDA7
:1015600060931C0770931D0780931E0790931F07BD
:101570008ECE20E030E040E85FE36091200770917C
:10158000210780912207909123070E949E16F8DC84
:10159000609320077093210780932207909323077D
:1015A00076CE20E030E040E85FE360911407709170
:1015B000150780911607909117070E949E16E0DC90
:1015C000609314077093150780931607909317077D
:1015D0005ECE20E030E040E85FE3C701B6010E9444
:1015E0001517811111C080E090E0A6E9B3EC80935B
:1015F000340790933507A0933607B093370780E000
:1016000090E0A0E0B0E404CF8090400790904107C4
:10161000A0904207B090430720E030E046E153E459
:10162000C501B4010E94151781113BC0B101032C03
:10163000000C880B990B0E94B4174B015C0100E56C
:1016400017E0E8E7CE2EE7E0DE2EF8012191319198
:10165000419151918F01C501B4010E94151781116B
:10166000D0C4C016D10689F71092340710923507FE
:10167000109236071092370780E090E0A0E8BFE3B1
:1016800080933C0790933D07A0933E07B0933F079C
:1016900080924C0790924D07A0924E07B0924F0750
:1016A000BFCE20E030E040E85FE3C501B4010E9416
:1016B0009E16609340077093410780934207909372
:1016C0004307AECEC501B4010E9415178111A8CE03
:1016D000109238071092390710923A0710923B0780
:1016E00010923C0710923D0710923E0710923F0760
:1016F0001092400710924107109242071092430740
:1017000010924C0710924D0710924E0710924F07FF
:1017100087CEC092B807D092B907E092BA07F0928C
:10172000BB07C5CEA70196016091300770913107C4
:1017300080913207909133070E949D166B017C01C6
:101740009F7720E030E040E85FE30E94151787FDB7
:1017500023C4A701960160912C0770912D078091F9
:101760002E0790912F070E9409196093BC07709370
:10177000BD078093BE079093BF078B81813081F4B2
:101780008091900790919107A0919207B091930753
:101790008093100790931107A0931207B09313073B
:1017A00020E030E0A901C301B2010E9415178111A8
:1017B00010C08091BC079091BD07A091BE07B09169
:1017C000BF078093280790932907A0932A07B09317
:1017D0002B0720E030E040E85FE3C301B2010E9444
:1017E000151781112AC020E030E040E85FE3C50111
:1017F000B4010E941517811120C020E030E040E8BC
:101800005FE36091240770912507809126079091EE
:1018100027070E9415178111C8C380911007909166
:101820001107A0911207B091130780932807909396
:101830002907A0932A07B0932B078091280790913E
:101840002907A0912A07B0912B078093B4079093A2
:10185000B507A093B607B093B707C0902402D09005
:101860002502E0902602F0902702A70196016091E0
:10187000C8067091C9068091CA069091CB060E9455
:101880001517882341F0C092C806D092C906E0928D
:10189000CA06F092CB066BE370E080E090E00E9415
:1018A00057039093C7068093C60643E050E0BE01FD
:1018B0006F5F7F4F0E94460369817A8190E080E0EC
:1018C0000E94B2172B013C01409294075092950759
:1018D0006092960770929707209184073091850750
:1018E000409186075091870760918007709181072A
:1018F00080918207909183070E949D16209140025B
:101900003091410240914202509143020E941917C6
:101910004B015C01C0908807D0908907E0908A074E
:10192000F0908B0720E030EC4FEF53E4C701B60195
:101930000E94151787FF42C3A701960160913C02E0
:1019400070913D0280913E0290913F020E949E164E
:101950006093BC077093BD078093BE079093BF0749
:10196000A5019401C301B2010E9419176B017C010A
:101970002091BC073091BD074091BE075091BF0731
:101980006091440270914502809146029091470215
:101990000E949E16A50194010E9419179B01AC019B
:1019A000C701B6010E949D166B017C01C092980789
:1019B000D0929907E0929A07F0929B072091E8064F
:1019C0003091E9064091EA065091EB0660914C0295
:1019D00070914D0280914E0290914F020E94091920
:1019E0004B015C0120915002309151024091520212
:1019F00050915302C701B6010E9409199B01AC0125
:101A0000C501B4010E949E1660939C0770939D07C8
:101A100080939E0790939F0748EA842E47E0942E78
:101A200054EAA52E57E0B52E60EAC62E67E0D62E02
:101A300074E9E72E77E0F72E08EB17E02CEA37E0A1
:101A400044EB57E06CE977E080EB97E012D76091C8
:101A5000A0077091A1078091A2079091A307F1DAE6
:101A60006B017C01C092BC07D092BD07E092BE071B
:101A7000F092BF0720E030E040E853E40E941517E1
:101A800087FFAAC220E030E0A901C701B6010E9489
:101A9000051987FD9FC2C701B6010E9486176B8397
:101AA0006B818CE00E9440016091A4077091A507B2
:101AB0008091A6079091A707C4DA6B017C01C092C0
:101AC000BC07D092BD07E092BE07F092BF0720E0AE
:101AD00030E040E853E40E94151787FF82C220E0FF
:101AE00030E0A901C701B6010E94051987FD77C240
:101AF000C701B6010E9486176B836B8182E20E9448
:101B000040016BE070E080E090E00E9469018C0190
:101B10009093E3068093E206C090A807D090A907AF
:101B2000E090AA07F090AB0720E030E04FE753E4E5
:101B3000C701B6010E94151718160CF455C2C092C1
:101B4000BC07D092BD07E092BE07F092BF0720E02D
:101B500030E0A9016091BC077091BD078091BE077C
:101B60009091BF070E94051987FF08C01092BC071B
:101B70001092BD071092BE071092BF074091BC079C
:101B80005091BD076091BE077091BF07C8010E94C8
:101B9000470120919C0730919D0740919E075091ED
:101BA0009F07609154027091550280915602909166
:101BB00057020E9409194B015C018092BC07909268
:101BC000BD07A092BE07B092BF0720915802309186
:101BD000590240915A0250915B020E9409196C838C
:101BE0007D838E839F832091EC063091ED0640919A
:101BF000EE065091EF060E949D16688779878A87C6
:101C00009B8720916C0230916D0240916E02509141
:101C10006F026091B8077091B9078091BA079091EF
:101C2000BB070E949D162091700230917102409175
:101C30007202509173020E9409192091740230912E
:101C4000750240917602509177020E949E166B01B8
:101C50007C01209178023091790240917A02509172
:101C60007B020E9409196C877D878E879F87209150
:101C7000F4063091F5064091F6065091F7060E9461
:101C80009D162B013C018091D803882309F4A0C044
:101C90002091640230916502409166025091670282
:101CA000288B398B4A8B5B8B80916002909161020B
:101CB000A0916202B09163028C8B9D8BAE8BBF8B27
:101CC0002091F0063091F1064091F2065091F30612
:101CD000288F398F4A8F5B8F6091840270918502C3
:101CE000809186029091870220918002309181023A
:101CF00040918202509183022C8F3D8F4E8F5F8FD7
:101D00002091F8063091F9064091FA065091FB06B1
:101D100028A339A34AA35BA300916802109169022A
:101D200020916A0230916B020093FC061093FD062D
:101D30002093FE063093FF06C0920007D092010761
:101D4000E0920207F0920307A30192010E94091991
:101D50006B017C0128A139A14AA15BA16C8D7D8D0D
:101D60008E8D9F8D0E940919A7019601E7D7609378
:101D700004077093050780930607909307078092E6
:101D8000080790920907A0920A07B0920B072885CE
:101D900039854A855B85688979898A899B890E940A
:101DA00009196B017C01288D398D4A8D5B8D6C89F9
:101DB0007D898E899F890E940919A7019601BED746
:101DC00060930C0770930D0780930E0790930F0795
:101DD000AA24A394B12C2AE8C22E22E0D22EEE240B
:101DE000E394F12C09E812E021E030E048E852E009
:101DF00064EE76E080EC97E0C1D42091E806309163
:101E0000E9064091EA065091EB0660914802709114
:101E1000490280914A0290914B020E940919209137
:101E200098073091990740919A0750919B0786D760
:101E30006093E8067093E9068093EA069093EB06B8
:101E40008C819D81AE81BF818093EC069093ED06DD
:101E5000A093EE06B093EF062091F0063091F106C4
:101E60004091F2065091F30660915C0270915D0220
:101E700080915E0290915F020E9409192885398540
:101E80004A855B855BD76093F0067093F10680937B
:101E9000F2069093F3062C853D854E855F85209351
:101EA000F4063093F5064093F6065093F70620911A
:101EB000F8063091F9064091FA065091FB066091C0
:101EC0007C0270917D0280917E0290917F020E943F
:101ED0000919A301920132D76093F8067093F906AD
:101EE0008093FA069093FB066091C9037091CA0330
:101EF0008091CB039091CC036F5F7F4F8F4F9F4FAB
:101F00006093C9037093CA038093CB039093CC036F
:101F10000091DB031091DC030E94B2179B01AC011E
:101F20006091CD037091CE038091CF039091D00347
:101F30000E940919D8016D937D938D939C931397FB
:101F40008091D1039091D203A091D303B091D40397
:101F50000196A11DB11D8093D1039093D203A0934C
:101F6000D303B093D403A3960FB6F894DEBF0FBE8D
:101F7000CDBFDF91CF911F910F91FF90EF90DF9038
:101F8000CF90BF90AF909F908F907F906F905F9019
:101F90004F903F902F9008951092BC071092BD076C
:101FA0001092BE071092BF07E8CB1092280710923C
:101FB000290710922A0710922B073FCC20913C0250
:101FC00030913D0240913E0250913F02C701B6015F
:101FD000B4D6BECC1B8264CD8FEF8B8361CD1B82C8
:101FE0008CCD8FEF8B8389CD80E090E0AFE7B3E4B9
:101FF0008093BC079093BD07A093BE07B093BF0723
:10200000A6CD20E030E040E85FE3609144077091A6
:102010004507809146079091470790D66B017C0158
:10202000C0924407D0924507E0924607F0924707D6
:1020300068D7605D7F4F660F771F660F771FFB01C4
:10204000E457F94F8091480790914907A0914A07BA
:10205000B0914B0780839183A283B38320E030E06B
:1020600040E251E4C701B601E0D6811108C01092E8
:102070004407109245071092460710924707809236
:10208000480790924907A0924A07B0924B07C8C9E7
:102090008F929F92AF92CF92DF92EF92FF920F9327
:1020A0001F93CF93DF93CDB7DEB764970FB6F89445
:1020B000DEBF0FBECDBFC0903802D0903902E09095
:1020C0003A02F0903B02A70196016091920670914E
:1020D00093068091940690919506A7D6882341F0A7
:1020E000C0929206D0929306E0929406F0929506E2
:1020F000ACEFB6E0FE013196CE014596DE2EFF2E06
:102100004D915D916D917D91419351936193719347
:10211000E817F907A9F76091A6067091A7068091C4
:10212000A8069091A906F2D6C62E60919E067091DF
:102130009F068091A0069091A106E8D6E62E6091B8
:10214000A2067091A3068091A4069091A506DED602
:10215000062F60919A0670919B0680919C06909143
:102160009D06D4D6162F60919606709197068091A1
:10217000980690919906CAD6862F1F921F921F9299
:102180001F921F921F92912C812C92E0A92E212F39
:1021900045E050E06D2D7F2D0E949C050F900F9023
:1021A0000F900F900F900F9064960FB6F894DEBFCB
:1021B0000FBECDBFDF91CF911F910F91FF90EF9098
:1021C000DF90CF90AF909F908F9008954F925F9245
:1021D0006F927F92AF92BF92DF92EF92FF920F9336
:1021E0001F93CF93DF9384E090E0C6D184E2A82EC2
:1021F00082E0B82E8091CA079091CB07A091CC07BE
:10220000B091CD078093680290936902A0936A020F
:10221000B0936B02E2E4F3E089ED93E0958384836D
:10222000CBEDD3E0D7AFC6AF0DEC13E0138B028B31
:10223000F093AB03E093AA03F383E28321E030E061
:10224000DC012D933C931092C1031092C8038CE9DA
:1022500092E0918780878DED93E0998388834AE0AF
:1022600057ED63EA7BE3F801408351836283738314
:10227000CCE8D6E08EE393E09093790780937807DB
:1022800088E192E090937B0780937A0710927F0712
:1022900010927E071092E4061092E5061092E60670
:1022A0001092E706F50184819581A681B78180931C
:1022B000EC069093ED06A093EE06B093EF068085B2
:1022C0009185A285B3858093F4069093F506A0933B
:1022D000F606B093F70680E090E0A0E2B1E48093C8
:1022E0002C0790932D07A0932E07B0932F0718A2C9
:1022F00084859585A685B7858EA39FA3A8A7B9A732
:1023000080899189A289B3898AA79BA7ACA7BDA719
:10231000412C512C3201439449A25AA26BA27CA2B7
:1023200084E090E099AB88AB88E090E09FA78EA70F
:1023300080E00E947705DD24D394DDA21CAAF5017C
:1023400080819181A281B3818CAF9DAFAEAFBFAFD1
:102350004DAA5EAA6FAA78AE6BE370E080E090E0D1
:102360000E949B039BAF8AAFD9AE1092D4064092D5
:10237000D5065092D6066092D7067092D80661E0D4
:102380008CE00E943801D092D9061092CC0640927F
:10239000CD065092CE066092CF067092D00661E0D4
:1023A00082E20E943801D092D1061092DC0640925F
:1023B000DD065092DE066092DF067092E006E12CA8
:1023C000F12C8701A80197016BE070E080E090E0BC
:1023D0000E94AD019093E3068093E206D092E1065D
:1023E0001882F50184899589A689B7898E839F8390
:1023F000A887B98749825A826B827C82EA86FB86EB
:102400000C871D8780E090E0A0E0B1E48E879F8775
:10241000A88BB98B80E090E0A0ECB0E48A8B9B8B1A
:10242000AC8BBD8BEE8AFF8A088F198FEA8EFB8EEC
:102430000C8F1D8F80E00E947705DD82DF91CF91A8
:102440001F910F91FF90EF90DF90BF90AF907F9022
:102450006F905F904F9008958091AC06811103C0FA
:1024600081E08093AC068091C00681111FC081E09D
:102470008093C0068091C1069091C206A091C306C8
:10248000B091C4060197A105B10581F48091C506FC
:10249000882361F06BE370E080E090E00E945703D6
:1024A0009093C7068093C6060E94BE038091D4060F
:1024B000811103C081E08093D4068091CC06811104
:1024C00003C081E08093CC068091DC0681112EC090
:1024D00081E08093DC068091DD069091DE06A0917C
:1024E000DF06B091E0060197A105B105F9F48091EE
:1024F000E1068823D9F06BE070E080E090E00E9474
:1025000069019093E3068093E20640E050E0BA014F
:102510000E9447016BE070E080E090E00E9469015A
:102520009093E3068093E2060E94F80180918C0666
:10253000811103C081E080938C06089560E070E013
:1025400080E89FE7089560E070E080E89FE70895E5
:1025500060E070E080E89FEF089560E070E080E860
:102560009FEF089560E070E080EC9FEF089560E0D9
:1025700070E080EC9FEF0895F5DF6093CE077093D5
:10258000CF078093D0079093D107F1DF6093C20704
:102590007093C3078093C4079093C507CFDF609300
:1025A000CA077093CB078093CC079093CD07CBDFFE
:1025B0006093C6077093C7078093C8079093C907B5
:1025C000C7DF6093D2077093D3078093D4079093AB
:1025D000D507C3DF6093D6077093D7078093D807DA
:1025E0009093D9070895CF92DF92EF92FF92CF9305
:1025F0006B017C01AC019B016091CA077091CB0714
:102600008091CC079091CD0710D4C1E0882369F068
:10261000A70196016091D2077091D3078091D407EA
:102620009091D50702D48111C0E08C2FCF91FF90FB
:10263000EF90DF90CF9008950F931F938B019C0133
:102640000027112720783F770115110520483F47C3
:1026500049F4AB01BC016F77772781E0452B462B0E
:10266000472B09F480E01F910F910895E5CF029761
:102670008431910540F480559D4FFC018081082EE6
:10268000000C990B08958FEF9FEF0895CF93DF9380
:10269000EC0170E060E06C177D071CF0DF91CF91DA
:1026A0000895072E000C880B990B5ED420E030E0D3
:1026B000A90144D320E030E0A90140D320E030E07C
:1026C00040E450E43BD320E030E040E450E435D334
:1026D00018D46F5F7F4FDFCFCF93DF938091EB03F1
:1026E0009091EC030E94BD1DEC018091EF0390914D
:1026F000F003CCDF8091E9039091EA030E94BD1DB5
:10270000019771F48091ED039091EE03CD2B71F45C
:1027100001969093EE038093ED03DF91CF9108959E
:102720008091ED039091EE03219791F30197F1CF02
:102730000F931F93CF93DF93EC018A0120E030E0E9
:1027400040E85FE3DB016D917D918D919C916DD3AC
:1027500081110FC0D801EC91B8E0EB9FF00111247A
:10276000E751FC4F848195819195819591099983D9
:102770008883DF91CF911F910F910895CF92DF92BF
:10278000EF92FF920F931F93CF93DF937B01EA01A8
:1027900020E030E040E85FE3DB016D917D918D91B9
:1027A0009C9143D3882309F45BC0E881D8018C91C4
:1027B00090E0B8E0EB9FF0011124E751FC4F9183CA
:1027C0008083E881D6018C9190E0B8E0EB9FF00126
:1027D0001124E751FC4F93838283E88128E0E29F34
:1027E000F0011124E751FC4F8081918160E00E944B
:1027F000541DE88188E0E89FF0011124E751FC4F67
:102800008281938160E00E94541DE881A8E0EA9FE4
:10281000F0011124E751FC4F8081918161E00E9419
:10282000901DE881B8E0EB9FF0011124E751FC4FC7
:102830008281938161E00E94901D8091E9039091D3
:10284000EA0315DF41E050E06CE673E146D580E035
:1028500090E0A0E8BFE3F70180839183A283B38374
:10286000DF91CF911F910F91FF90EF90DF90CF906C
:1028700008952F923F924F925F926F927F928F9224
:102880009F92AF92BF92CF92DF92EF92FF920F93FF
:102890001F93CF93DF9300D01F92CDB7DEB72C01EB
:1028A0003B017A011901BA82A9829C828B82FB01C9
:1028B00080809180A280B38020E030E0A901C50132
:1028C000B401B3D287FF93C080E090E0A0E8BFEBF3
:1028D0008093E8079093E907A093EA07B093EB078A
:1028E00020E030E040E85FE3F201608171818281A5
:1028F00093819BD28111DDC0BB24B394B092E707D2
:1029000020E030E0A901F101608171818281938131
:102910008CD2811182C0F701408051806280738027
:1029200020E030E0A901C301B2017FD218160CF4F7
:10293000A5C0C301B20190582FE93CE34CEB50E431
:1029400078D26093E3077093E4078093E507909350
:10295000E607B092E2078091E8079091E907A0911D
:10296000EA07B091EB078093DE079093DF07A0930F
:10297000E007B093E1076091E70770E090E080E046
:10298000F1D2F60160837183828393836091E207C1
:1029900070E090E080E0E6D2E981FA8160837183A3
:1029A000828393838091E3079091E407A091E507E8
:1029B000B091E607EB81FC8180839183A283B3838E
:1029C0000F900F900F900F90DF91CF911F910F916B
:1029D000FF90EF90DF90CF90BF90AF909F908F903F
:1029E0007F906F905F904F903F902F90089520E0E0
:1029F00030E0A901C501B40108D418162CF480E018
:102A000090E0A0E8BFE364CF1092E8071092E907D6
:102A10001092EA071092EB0763CFF30140805180D8
:102A20006280738020E030E040EA51ECC301B201E3
:102A3000ECD387FD20C020E030E040EA51E4C30140
:102A4000B201F3D11816BCF0F801408051806280C9
:102A5000738020E030E44BEA54E4C301B201E5D1D5
:102A600018164CF020E030E44BEA54ECC301B201FC
:102A7000CCD387FF50CF1092E7076DCF20E030E036
:102A8000A901C301B201C1D318160CF064CF2FE91C
:102A90003CE34CEB50E4C301B201CBD16093E307BC
:102AA0007093E4078093E5079093E6071092E2079E
:102AB00052CF10920104109202041092030410925B
:102AC0000404D9CF26E030E040E050E16EE070E051
:102AD00090E080E000C01092060410920504893056
:102AE000910508F03BC0FC018827E658FA4E8F4F4D
:102AF0000C94ED2383158D1596159F15A815AF150C
:102B0000B215B515BB1581E090E090930604809353
:102B1000050488E194E00C94AF1E82E090E090936D
:102B200006048093050485EB94E0F5CF84E090E003
:102B3000909306048093050482E595E0ECCF88E04D
:102B400090E090930604809305048FEE95E0E3CF28
:102B500080E190E09093060480930504089580E25C
:102B600090E0F8CF80E490E0F5CF80E890E090939B
:102B700006048093050480910504909106049160F9
:102B8000E9CF1F920F920FB60F9211240BB60F923E
:102B90002F933F934F935F936F937F938F939F9365
:102BA000AF93BF93EF93FF938EE19BEF909325013B
:102BB0008093240134D0FF91EF91BF91AF919F9109
:102BC0008F917F916F915F914F913F912F910F90D6
:102BD0000BBE0F900FBE0F901F9018958EE19BEFCC
:102BE0009093250180932401A3E7B0E08C918E7F20
:102BF0008C93E0E2F1E080818C7F8083E1E2F1E080
:102C00008081877E808380818360808380818B7FC9
:102C100080838C9181608C93089581E00895CF9397
:102C2000DF9300D0CDB7DEB780910A0491E0980F12
:102C300090930A04882371F021E030E030930E0471
:102C400020930D0480930A040F900F900F90DF9152
:102C5000CF910895CE0101960E94190878940E94A0
:102C60007008F89480910A04815080930A048B8143
:102C7000882389F08091090491E0980F90930904CA
:102C8000882349F021E030E030930E0420930D04B6
:102C900080930904D9CF809109048823A9F28091F7
:102CA0000B048111D1CF80910C048F5F80930C04B1
:102CB0007894EED9F89480910904815080930904A6
:102CC00080910C04815080930C04BECFCF93DF938E
:102CD0001092ED071092EC0728D5F4DEC091AE02F9
:102CE000D091AF021982188271DAF89477DF81E00F
:102CF00028813981232B09F080E08093EC077894B8
:102D000078948091EC07811107C0A6DBF89490E0DD
:102D100080E0DF91CF91089581E028813981232BD4
:102D200009F480E08093ED079091ED0781E0911127
:102D300080E08093EC0771DFE4CF5058BB27AA27CF
:102D40000ED012C203D230F008D220F031F49F3FEF
:102D500011F41EF4F8C10EF4E095E7FBC5C1E92FAC
:102D600014D280F3BA17620773078407950718F027
:102D700071F49EF543C20EF4E0950B2EBA2FA02DF0
:102D80000B01B90190010C01CA01A0011124FF2718
:102D9000591B99F0593F50F4503E68F11A16F04013
:102DA000A22F232F342F4427585FF3CF4695379512
:102DB0002795A795F0405395C9F77EF41F16BA0BD7
:102DC000620B730B840BBAF09150A1F0FF0FBB1F85
:102DD000661F771F881FC2F70EC0BA0F621F731FCE
:102DE000841F48F4879577956795B795F7959E3F2B
:102DF00008F0B3CF9395880F08F09927EE0F9795B9
:102E000087950895E4D180F09F3740F491110EF436
:102E1000F6C160E070E080E89FE3089526F01B169D
:102E2000611D711D811D66C180C13AD108F481E028
:102E300008950CD099C191D140F088D130F021F49F
:102E40005F3F19F051C15111DAC17DC19ED198F394
:102E50009923C9F35523B1F3951B550BBB27AA271B
:102E600062177307840738F09F5F5F4F220F331F8D
:102E7000441FAA1FA9F333D00E2E3AF0E0E830D059
:102E800091505040E695001CCAF729D0FE2F27D05C
:102E9000660F771F881FBB1F261737074807AB072A
:102EA000B0E809F0BB0B802DBF01FF2793585F4F9F
:102EB0002AF09E3F510568F017C1A1C15F3FECF3B6
:102EC000983EDCF3869577956795B795F7959F5F64
:102ED000C9F7880F911D9695879597F90895E1E0B8
:102EE000660F771F881FBB1F621773078407BA0717
:102EF00020F0621B730B840BBA0BEE1F88F7E09572
:102F0000089504D06894B1117AC1089546D188F02B
:102F10009F5790F0B92F9927B751A0F0D1F0660FC5
:102F2000771F881F991F1AF0BA95C9F712C0B130E0
:102F300081F064D1B1E0089561C1672F782F8827AF
:102F4000B85F39F0B93FCCF3869577956795B3951F
:102F5000D9F73EF490958095709561957F4F8F4F8E
:102F60009F4F0895E89409C097FB3EF49095809593
:102F7000709561957F4F8F4F9F4F9923A9F0F92F3F
:102F800096E9BB279395F695879577956795B795BD
:102F9000F111F8CFFAF4BB0F11F460FF1BC06F5FA3
:102FA0007F4F8F4F9F4F16C0882311F096E911C0B5
:102FB000772321F09EE8872F762F05C0662371F0D6
:102FC00096E8862F70E060E02AF09A95660F771FEA
:102FD000881FDAF7880F9695879597F90895F7D0A7
:102FE00080F09F3740F491110EF009C160E070E06D
:102FF00080E89FEB089526F41B16611D711D811D4D
:1030000079C093C0A3D018F011F0A7D038F49BC0BA
:10301000F6C0E92FBAD0B0F35523C9F3E7FB621726
:10302000730784079507A8F199F3E92FFF278823F1
:103030002AF03197660F771F881FDAF7952F5527EB
:10304000442332F091505040220F331F441FD2F7D7
:10305000BB27E91BF50B621B730B840BB109C1F293
:1030600022F4620F731F841FB11D31972AF0660F7F
:10307000771F881FBB1FEFCF915050405AF041F08F
:10308000882332F0660F771F881F91505040C1F798
:1030900093954BC08695779567959F5FD9F7F8CF45
:1030A000990F0008550FAA0BE0E8FEEF1616170659
:1030B000E807F907C0F012161306E407F50798F0C1
:1030C000621B730B840B950B39F40A2661F0232BDA
:1030D000242B252B21F408950A2609F4A140A69556
:1030E0008FEF811D811D089597F99F6780E870E03B
:1030F00060E00895882371F4772321F09850872B9E
:10310000762F07C0662311F499270DC09051862BA6
:1031100070E060E02AF09A95660F771F881FDAF753
:10312000880F9695879597F908959F3F31F09150B4
:1031300020F4879577956795B795880F911D96959B
:10314000879597F908959FEF80EC089500240A94DD
:103150001616170618060906089500240A94121672
:103160001306140605060895092E0394000C11F4A5
:10317000882352F0BB0F40F4BF2B11F460FF04C052
:103180006F5F7F4F8F4F9F4F089557FD9058440FAB
:10319000551F59F05F3F71F04795880F97FB991FB6
:1031A00061F09F3F79F08795089512161306140673
:1031B000551FF2CF4695F1DF08C016161706180600
:1031C000991FF1CF86957105610508940895E5DF93
:1031D000A0F0BEE7B91788F4BB279F3860F4161635
:1031E000B11D672F782F8827985FF7CF8695779541
:1031F0006795B11D93959639C8F30895E894BB2758
:1032000066277727CB0197F908954ADF08F48FEFF7
:1032100008950BD0A9CF9ADF28F09FDF18F09523EF
:1032200009F062CF90CF1124EACFAFDFA0F3959FD2
:10323000D1F3950F50E0551F629FF001729FBB279D
:10324000F00DB11D639FAA27F00DB11DAA1F649F49
:103250006627B00DA11D661F829F2227B00DA11DFC
:10326000621F739FB00DA11D621F839FA00D611D82
:10327000221F749F3327A00D611D231F849F600DA3
:10328000211D822F762F6A2F11249F5750408AF0DC
:10329000E1F088234AF0EE0FFF1FBB1F661F771F68
:1032A000881F91505040A9F79E3F510570F01CCFE8
:1032B000A6CF5F3FECF3983EDCF386957795679554
:1032C000B795F795E7959F5FC1F7FE2B880F911D86
:1032D0009695879597F908950895883008F076C0F7
:1032E000E82FF0E0EE0FFF1FE557FD4F718360837D
:1032F0008150873008F03DC0E82FF0E08827EC5778
:10330000F64E8F4F0C94ED23C1198B1993199F1909
:10331000AC19CD19DA19809169008C7F482B409344
:103320006900E89A089580916900837F440F551FD2
:10333000440F551F482B40936900E99A08958091E6
:1033400069008F7C74E0440F551F7A95E1F7482B94
:1033500040936900EA9A0895809169008F7366E04E
:10336000440F551F6A95E1F7482B40936900EB9A8B
:10337000089580916A008C7F482B40936A00EC9AF4
:10338000089580916A00837F440F551F440F551F95
:10339000482B40936A00ED9A089580916A008F7CD3
:1033A00024E0440F551F2A95E1F7482B40936A000B
:1033B000EE9A089580916A008F7396E0440F551F2E
:1033C0009A95E1F7482B40936A00EF9A08951F926F
:1033D0000F920FB60F9211240BB60F922F933F93BB
:1033E0004F935F936F937F938F939F93AF93BF930D
:1033F000EF93FF93E0918F02F09190021995FF9166
:10340000EF91BF91AF919F918F917F916F915F915C
:103410004F913F912F910F900BBE0F900FBE0F90C9
:103420001F9018951F920F920FB60F9211240BB692
:103430000F922F933F934F935F936F937F938F934D
:103440009F93AF93BF93EF93FF93E0919102F0911D
:1034500092021995FF91EF91BF91AF919F918F913A
:103460007F916F915F914F913F912F910F900BBE84
:103470000F900FBE0F901F9018951F920F920FB6CE
:103480000F9211240BB60F922F933F934F935F939C
:103490006F937F938F939F93AF93BF93EF93FF931C
:1034A000E0919302F09194021995FF91EF91BF91F1
:1034B000AF919F918F917F916F915F914F913F91CC
:1034C0002F910F900BBE0F900FBE0F901F9018956D
:1034D0001F920F920FB60F9211240BB60F922F93DB
:1034E0003F934F935F936F937F938F939F93AF938C
:1034F000BF93EF93FF93E0919502F0919602199597
:10350000FF91EF91BF91AF919F918F917F916F91BB
:103510005F914F913F912F910F900BBE0F900FBE77
:103520000F901F9018951F920F920FB60F921124B3
:103530000BB60F922F933F934F935F936F937F93AD
:103540008F939F93AF93BF93EF93FF93E0918B0281
:10355000F0918C021995FF91EF91BF91AF919F91DE
:103560008F917F916F915F914F913F912F910F902C
:103570000BBE0F900FBE0F901F9018951F920F92C9
:103580000FB60F9211240BB60F922F933F934F93C8
:103590005F936F937F938F939F93AF93BF93EF93BB
:1035A000FF93E0918D02F0918E021995FF91EF91BA
:1035B000BF91AF919F918F917F916F915F914F914B
:1035C0003F912F910F900BBE0F900FBE0F901F9049
:1035D00018951F920F920FB60F9211240BB60F92EF
:1035E0002F933F934F935F936F937F938F939F930B
:1035F000AF93BF93EF93FF93E0919702F0919802FE
:103600001995FF91EF91BF91AF919F918F917F910C
:103610006F915F914F913F912F910F900BBE0F9043
:103620000FBE0F901F9018951F920F920FB60F921A
:1036300011240BB60F922F933F934F935F936F9389
:103640007F938F939F93AF93BF93EF93FF93E091FB
:103650009902F0919A021995FF91EF91BF91AF9164
:103660009F918F917F916F915F914F913F912F919A
:103670000F900BBE0F900FBE0F901F9018951F92CA
:103680000F920FB60F9211242F933F938F939F9316
:10369000AF93BF938091100490911104A0911204F4
:1036A000B091130430910F0423E0230F2D3758F508
:1036B0000196A11DB11D20930F04809310049093D7
:1036C0001104A0931204B0931304809114049091F8
:1036D0001504A0911604B09117040196A11DB11D07
:1036E0008093140490931504A0931604B0931704C8
:1036F000BF91AF919F918F913F912F910F900FBEEE
:103700000F901F90189526E8230F0296A11DB11D5A
:10371000D2CF2FB7F894609110047091110480916A
:103720001204909113042FBF0895789484B5826099
:1037300084BD84B5816084BD85B5826085BD85B555
:10374000816085BDEEE6F0E0808181608083E1E804
:10375000F0E010828081826080838081816080833C
:10376000E0E8F0E0808181608083E1EBF0E080813F
:1037700084608083E0EBF0E0808181608083E1E918
:10378000F0E0808182608083808181608083E0E9D5
:10379000F0E0808181608083E1EAF0E080818260F6
:1037A0008083808181608083E0EAF0E080818160B5
:1037B0008083E1E2F1E080818260808380818160AA
:1037C0008083E0E2F1E0808181608083EAE7F0E0DD
:1037D0008081846080838081826080838081816039
:1037E00080838081806880831092C1000895863331
:1037F00008F0865320917B00982F9870277F922B9A
:1038000090937B0020919B0290E4299F90011124CA
:103810008770822B80937C0080917A0080648093F3
:103820007A0080917A0086FDFCCF8091780090919B
:10383000790008951F93CF93DF93182FEB0161E078
:1038400033D1209731F460E0812FDF91CF911F9128
:1038500067C1CF3FD10511F461E0F6CFE12FF0E071
:10386000EC51FF4FE491E150E23108F0B2C0F0E0DA
:103870008827E35CF34E8F4FB0C74F1C571C5C1C6E
:10388000661C701CE91C7A1C821C8A1C941C9E1CE1
:10389000A81CB71CC11CE91CCB1CD51CDF1C84B5A3
:1038A000806884BDC7BDDF91CF911F91089584B515
:1038B000806284BDC8BDF7CF80918000806880930E
:1038C0008000D0938900C0938800EDCF8091800064
:1038D000806280938000D0938B00C0938A00E3CFF6
:1038E00080918000886080938000D0938D00C09389
:1038F0008C00D9CF8091B00080688093B000C093D5
:10390000B300D1CF8091B00080628093B000C093AB
:10391000B400C9CF80919000806880939000D093CC
:103920009900C0939800BFCF8091900080628093EF
:103930009000D0939B00C0939A00B5CF80919000E7
:10394000886080939000D0939D00C0939C00ABCF83
:103950008091A00080688093A0008091A0008F7B60
:103960008093A000D093A900C093A8009CCF809121
:10397000A00080628093A000D093AB00C093AA0007
:1039800092CF8091A00088608093A000D093AD007A
:10399000C093AC0088CF8091200180688093200183
:1039A000D0932901C09328017ECF809120018062AD
:1039B00080932001D0932B01C0932A0174CF809172
:1039C0002001886080932001D0932D01C0932C01A9
:1039D0006ACFC038D1050CF03FCF35CF815082314E
:1039E00008F059C0E82FF0E08827E750F34E8F4FDA
:1039F000F4C6191D1D1D0B1D111D151D4B1D201D70
:103A0000261D2A1D301D341D381D3E1D421D4B1D17
:103A1000461D4C1D501D809180008F778093800043
:103A20000895809180008F7DF9CF80918000877FFD
:103A3000F5CF84B58F7784BD089584B58F7DFBCF96
:103A40008091B0008F778093B00008958091B0008E
:103A50008F7DF9CF809190008F77809390000895AB
:103A6000809190008F7DF9CF80919000877FF5CF76
:103A70008091A0008F778093A00008958091A0008E
:103A80008F7DF9CF8091A000877FF5CF80912001B5
:103A90008F77809320010895809120018F7DF9CF49
:103AA00080912001877FF5CFCF93DF9390E0FC01D9
:103AB000E65DFE4F249180599E4FFC01849188233E
:103AC000C9F090E0880F991FFC01E651FE4FA591C7
:103AD000B491FC01E053FE4FC591D49161110DC02A
:103AE0009FB7F8948C91209582238C93888128230A
:103AF00028839FBFDF91CF910895623051F49FB723
:103B0000F8943C91822F809583238C93E8812E2B0F
:103B1000EFCF8FB7F894EC912E2B2C938FBFEACF79
:103B20001F93CF93DF93282F30E0F901EC51FF4F23
:103B30008491F901E65DFE4FD491F901E059FE4F01
:103B4000C491CC23A1F0162F811148DFEC2FF0E0B7
:103B5000EE0FFF1FE053FE4FA591B4918FB7F8947D
:103B6000EC91111108C0D095DE23DC938FBFDF915B
:103B7000CF911F910895DE2BF8CFCF93DF93282F9D
:103B800030E0F901EC51FF4F8491F901E65DFE4F01
:103B9000D491F901E059FE4FC491CC2399F08111E1
:103BA0001DDFEC2FF0E0EE0FFF1FEA54FE4FA59152
:103BB000B491EC91ED2381E090E009F480E0DF9195
:103BC000CF91089580E090E0FACFFC01918D228D95
:103BD000892F90E0805C9F4F821B91098F739927FA
:103BE0000895FC01918D828D981731F0828DE80F38
:103BF000F11D858D90E008958FEF9FEF0895FC01F2
:103C0000918D828D981761F0A28DAE0FBF2FB11DDF
:103C10005D968C91928D9F5F9F73928F90E0089537
:103C20008FEF9FEF0895FC01538D448D252F30E0D9
:103C3000842F90E0821B930B541710F0CF960895B9
:103C400001970895FC01A48DA80FB92FB11DA35AA7
:103C5000BF4F2C91848D90E001968F739927848FAC
:103C6000A689B7892C93A089B1898C9183708064CF
:103C70008C93938D848D981306C00288F389E02D70
:103C800080818F7D80830895CF93DF93EC01888DB1
:103C90008823B1F0AA89BB89E889F9898C9185FDCF
:103CA00003C0808186FD0CC00FB607FCF7CF8C9156
:103CB00085FFF2CF808185FFEDCFCE01C3DFEACF54
:103CC000DF91CF910895EF92FF920F931F93CF93BF
:103CD000DF93EC0181E0888F9B8D8C8D98131AC047
:103CE000E889F989808185FF15C09FB7F894EE892E
:103CF000FF896083E889F98980818370806480838B
:103D00009FBF81E090E0DF91CF911F910F91FF90D5
:103D1000EF900895F62E0B8D10E00F5F1F4F0F737D
:103D20001127E02E8C8D8E110BC00FB607FCFACF39
:103D3000E889F989808185FFF5CFCE0183DFF2CF55
:103D4000EB8DEC0FFD2FF11DE35AFF4FF0829FB773
:103D5000F8940B8FEA89FB8980818062D0CFCF9263
:103D6000DF92EF92FF921F93CF93DF93EC016A01F2
:103D70007B01122FE889F98982E08083C11481EEEA
:103D8000D806E104F10499F060E079E08DE390E079
:103D9000A701960100D521503109410951095695D5
:103DA000479537952795211580E1380790F0E889E8
:103DB000F989108260E874E88EE190E0A70196012D
:103DC000EAD4215031094109510956954795379553
:103DD0002795EC85FD853083EE85FF852083188E41
:103DE000EC89FD891083EA89FB8980818061808369
:103DF000EA89FB89808188608083EA89FB898081E8
:103E000080688083EA89FB8980818F7D8083DF9150
:103E1000CF911F91FF90EF90DF90CF9008951F9268
:103E20000F920FB60F9211240BB60F922F938F9310
:103E30009F93EF93FF93E0912804F09129048081F0
:103E4000E0912E04F0912F0482FD1DC0908180919D
:103E500031048F5F8F7320913204821741F0E0911B
:103E60003104F0E0E85EFB4F958F80933104FF91C1
:103E7000EF919F918F912F910F900BBE0F900FBEDE
:103E80000F901F9018958081F2CF1F920F920FB65E
:103E90000F9211240BB60F922F933F934F935F9382
:103EA0006F937F938F939F93AF93BF93EF93FF9302
:103EB00088E194E0C7DEFF91EF91BF91AF919F91B0
:103EC0008F917F916F915F914F913F912F910F90C3
:103ED0000BBE0F900FBE0F901F901895E8E1F4E015
:103EE0001382128288EE93E0A0E0B0E08483958391
:103EF000A683B78388EC92E09183808385EC90E081
:103F00009587848784EC90E09787868780EC90E0A3
:103F1000918B808B81EC90E0938B828B82EC90E094
:103F2000958B848B86EC90E0978B868B118E128E0E
:103F3000138E148E08951F920F920FB60F921124B4
:103F40000BB60F922F938F939F93EF93FF93E09174
:103F5000C504F091C6048081E091CB04F091CC04BB
:103F600082FD1DC090818091CE048F5F8F73209160
:103F7000CF04821741F0E091CE04F0E0EB54FB4F08
:103F8000958F8093CE04FF91EF919F918F912F9108
:103F90000F900BBE0F900FBE0F901F901895808151
:103FA000F2CF1F920F920FB60F9211240BB60F9201
:103FB0002F933F934F935F936F937F938F939F9331
:103FC000AF93BF93EF93FF9385EB94E03BDEFF91BC
:103FD000EF91BF91AF919F918F917F916F915F9181
:103FE0004F913F912F910F900BBE0F900FBE0F90EE
:103FF0001F901895E5EBF4E01382128288EE93E0AF
:10400000A0E0B0E084839583A683B78388EC92E038
:10401000918380838DEC90E0958784878CEC90E091
:104020009787868788EC90E0918B808B89EC90E075
:10403000938B828B8AEC90E0958B848B8EEC90E056
:10404000978B868B118E128E138E148E08951F926D
:104050000F920FB60F9211240BB60F922F938F93DE
:104060009F93EF93FF93E0916205F0916305808148
:10407000E0916805F091690582FD1DC090818091F5
:104080006B058F5F8F7320916C05821741F0E09173
:104090006B05F0E0EE5AFA4F958F80936B05FF9118
:1040A000EF919F918F912F910F900BBE0F900FBEAC
:1040B0000F901F9018958081F2CF1F920F920FB62C
:1040C0000F9211240BB60F922F933F934F935F9350
:1040D0006F937F938F939F93AF93BF93EF93FF93D0
:1040E00082E595E0AFDDFF91EF91BF91AF919F9198
:1040F0008F917F916F915F914F913F912F910F9091
:104100000BBE0F900FBE0F901F901895E2E5F5E0E3
:104110001382128288EE93E0A0E0B0E0848395835E
:10412000A683B78388EC92E09183808385ED90E04D
:104130009587848784ED90E09787868780ED90E06F
:10414000918B808B81ED90E0938B828B82ED90E060
:10415000958B848B86ED90E0978B868B118E128EDB
:10416000138E148E08951F920F920FB60F92112482
:104170000BB60F922F938F939F93EF93FF93E09142
:10418000FF05F09100068081E0910506F09106069A
:1041900082FD1DC09081809108068F5F8F732091F2
:1041A0000906821741F0E0910806F0E0E151FA4F6C
:1041B000958F80930806FF91EF919F918F912F919A
:1041C0000F900BBE0F900FBE0F901F90189580811F
:1041D000F2CF1F920F920FB60F9211240BB60F92CF
:1041E0002F933F934F935F936F937F938F939F93FF
:1041F000AF93BF93EF93FF938FEE95E023DDFF9195
:10420000EF91BF91AF919F918F917F916F915F914E
:104210004F913F912F910F900BBE0F900FBE0F90BB
:104220001F901895EFEEF5E01382128288EE93E06E
:10423000A0E0B0E084839583A683B78388EC92E006
:104240009183808385E391E09587848784E391E07F
:104250009787868780E391E0918B808B81E391E063
:10426000938B828B82E391E0958B848B86E391E044
:10427000978B868B118E128E138E148E0895AF92AB
:10428000BF92CF92DF92EF92FF920F931F93CF9343
:10429000DF936C017B018B01040F151FEB015E01A5
:1042A000AE18BF08C017D10759F06991D601ED913A
:1042B000FC910190F081E02DC6011995892B79F7C9
:1042C000C501DF91CF911F910F91FF90EF90DF908B
:1042D000CF90BF90AF900895FB0101900020E9F7C7
:1042E0003197AF01461B570BDC01ED91FC91028029
:1042F000F381E02D19946115710509F0EDCF90E07F
:1043000080E00895DC01ED91FC910190F081E02DB9
:10431000199466ED72E0E0CF8F929F92AF92BF92B8
:10432000EF92FF920F931F93CF93DF93CDB7DEB73A
:10433000A1970FB6F894DEBF0FBECDBF7C01FA0186
:10434000CB0119A2223008F42AE08E010F5D1F4F25
:10435000822E912CB12CA12CBF01A50194011BD25E
:10436000F901CA016A3004F5605DD8016E938D01D0
:10437000232B242B252B81F790E080E0109719F058
:10438000BD01C701A9DFA1960FB6F894DEBF0FBE2D
:10439000CDBFDF91CF911F910F91FF90EF90BF9014
:1043A000AF909F908F900895695CDFCFCF92DF929E
:1043B000EF92FF920F931F93CF93DF932115310557
:1043C00081F4DC01ED91FC910190F081E02D642FEE
:1043D000DF91CF911F910F91FF90EF90DF90CF90E1
:1043E00019942A303105F1F42AE077FF1BC06A01E5
:1043F0007B01EC016DE286DF8C0144275527BA0171
:104400004C195D096E097F092AE0CE0185DF800F16
:10441000911FDF91CF911F910F91FF90EF90DF904F
:10442000CF900895DF91CF911F910F91FF90EF9062
:10443000DF90CF9071CF9A01AB01770F660B770BAE
:10444000B5CF0F931F93CF93DF93EC01F4DF8C0173
:10445000CE015FDF800F911FDF91CF911F910F91F0
:1044600008950F931F93CF93DF93EC019FDF8C018F
:10447000CE014FDF800F911FDF91CF911F910F91E0
:1044800008952115310541F4DC01ED91FC91019075
:10449000F081E02D642F19943FCF9A01462F50E010
:1044A00070E060E0EECF0F931F93CF93DF93EC01AA
:1044B000F4DF8C01CE012DDF800F911FDF91CF91B2
:1044C0001F910F9108959A01AB0170E060E0D9CF80
:1044D0000F931F93CF93DF93EC01F5DF8C01CE0197
:1044E00018DF800F911FDF91CF911F910F910895D9
:1044F0000F931F93CF93DF93EC01C3DF8C01CE01A9
:1045000008DF800F911FDF91CF911F910F910895C8
:104510002F923F924F925F926F927F928F929F92D3
:10452000AF92BF92CF92DF92EF92FF921F93CF9301
:10453000DF93EC016A017B01722EAB019601CB0186
:10454000B60153D169ED72E0811125C046015701D2
:10455000E894B7F82FEF3FEF4FE75FE7C501B401ED
:1045600044D181110CC02FEF3FEF4FE75FE7C5014A
:10457000B4010E9415176DED72E0181664F02FEF6C
:104580003FEF4FE75FE4C701B6010E940519181617
:10459000ACF461EE72E0CE01DF91CF911F91FF90FC
:1045A000EF90DF90CF90BF90AF909F908F907F90D3
:1045B0006F905F904F903F902F908ECE2FEF3FEFF8
:1045C0004FE75FECC701B6010E94151787FDE1CFE9
:1045D00020E030E0A901C701B6010E941517312C77
:1045E000212C87FF08C06DE2CE018CDE1C01F7FA9A
:1045F000F094F7F8F09410E060E070E080E09FE362
:10460000711641F020E030E040E251E40E941917B9
:104610001F5FF6CFA70196010E949E162B013C0159
:104620000E9486174B015C012AE0BC01A401CE0167
:1046300073DE7C01E20CF31C1123A1F1C501B4016E
:104640000E94B2179B01AC01C301B2010E949D16EA
:104650004B015C016EE2CE0155DEE80EF91E1150F1
:1046600008F120E030E040E251E4C501B4010E94CD
:1046700009192B013C010E9486174B014AE050E0CA
:10468000CE0121DFE80EF91EB40190E080E00E9427
:10469000B2179B01AC01C301B2010E949D164B01F0
:1046A0005C01DDCFC701DF91CF911F91FF90EF90AB
:1046B000DF90CF90BF90AF909F908F907F906F9042
:1046C0005F904F903F902F90089522CF0F931F93AC
:1046D000CF93DF93EC011CDF8C01CE011ADE800F3B
:1046E000911FDF91CF911F910F9108950F931F9309
:1046F000CF93DF93EC010DD8688779878A879B87F2
:10470000E881F9810284F385E02DCE01199597FFA8
:1047100015C00E94891B088519852A853B85601B69
:10472000710B820B930B0C811D812E813F816017D1
:1047300071078207930720F38FEF9FEFDF91CF91EF
:104740001F910F910895AF92BF92CF92DF92EF9297
:10475000FF920F931F93CF93DF935C017B018B013B
:10476000040F151FEB016E01CE18DF08C017D1072B
:1047700031F0C501BBDF97FD02C08993F4CFC601BC
:10478000DF91CF911F910F91FF90EF90DF90CF902D
:10479000BF90AF900895A1E21A2EAA1BBB1BFD018A
:1047A0000DC0AA1FBB1FEE1FFF1FA217B307E40710
:1047B000F50720F0A21BB30BE40BF50B661F771F68
:1047C000881F991F1A9469F7609570958095909548
:1047D0009B01AC01BD01CF010895EE0FFF1F881FA3
:1047E0008BBF0790F691E02D19940E945018880B0A
:0847F000990B0895F894FFCF26
:1047F80067056B056F05730557055B055F05630561
:10480800C903CF03D503DB0300C07F440000404049
:104818000000B6420AD7A33B0000000000000000D9
:1048280000000000000040400000000000C0FF43FE
:104838000000B443000040BF99806D3F5C808E3D0E
:104848009A99193D35FA8E3C000048436DA3673F9D
:104858008A4FB93DCDCC4C3D000000000080ACC46F
:10486800D49E8339C3F5A8BE000048436DA3673FB3
:104878008A4FB93DCDCC4C3D0003236C196C196CA3
:10488800196C196C196C196C196C190146697865E1
:104898006453746570446973637265746500420398
:1048A8000001FFFFFFFFFFFFFFFFFFFFFFFFFFFF0D
:1048B8000504030200000000631E3F21131E441E6E
:1048C800E51DFF1DF11D0D0A006E616E00696E6623
:0648D800006F766600008F
:00000001FF
