:1000000005C100000C94BF300C94EA300C941531FB
:100010000C9440310C946B310C9496310C94C1319A
:100020000C94EC3124C1000022C1000020C100006A
:100030001EC100001CC100001AC1000018C1000050
:1000400016C1000014C1000012C1000010C1000060
:100050000EC100000CC100000AC100000C94173250
:1000600006C100000C9436360C946C3600C10000BA
:10007000FEC00000FCC00000FAC00000F8C0000094
:10008000F6C00000F4C00000F2C00000F0C00000A4
:100090000C94C2360C94F836EAC00000E8C00000A8
:1000A000E6C00000E4C00000E2C00000E0C00000C4
:1000B000DEC00000DCC00000DAC00000D8C00000D4
:1000C000D6C00000D4C000000C94402C0C944E37D5
:1000D0000C948437CCC000000C94DA370C941038A0
:1000E000C6C0000000000A0B02090C0D0E08070331
:1000F00004010000000000000000000000000000FB
:1001000000000000000000000000000000000000EF
:1001100012111000000000000000000000000000AC
:100120000000000000000000000001021020200874
:100130000810204010204080020102010804020142
:1001400001020408102040808040201008040201B1
:10015000800402018040201008040201080402010A
:100160000102040810204080010204081020408091
:1001700005050505070508080808020202020A0A23
:100180000808040404040101010101010101030341
:10019000030303030303040707070C0C0C0C0C0CEC
:1001A0000C0C0202020206060606060606060B0BE9
:1001B0000B0B0B0B0B0B000020002300260029006B
:1001C0002C002F003200000100000301060109018C
:1001D00000002200250028002B002E0031003400F2
:1001E00002010000050108010B01000021002400AC
:1001F00027002A002D003000330001010000040117
:1002000007010A0195362137AD37393811241FBE51
:10021000CFEFD1E2DEBFCDBF00E00CBF13E0A0E026
:10022000B2E0EAEFF1E700E00BBF02C007900D92E9
:10023000A436B107D9F72BE0A4E6B3E001C01D92C4
:10024000A335B207E1F711E0C6E0D1E000E006C057
:1002500021970109802FFE010E94CA38C230D107C0
:1002600080E00807A9F70E94322D0C94FB38C8CE15
:10027000611102C00C947B346130E1F362E0FACF8B
:10028000662319F061E00C94B73460E0FCCFCF93A3
:10029000282F8823E1F0CB01BA01CFEFC20FEC2F5A
:1002A000F0E0EC59FC4F2081213059F490580E9425
:1002B000AC2E9B01AC016C2F70E090E080E0CF9100
:1002C000A2C00E94A72E8C2FCF910C944133CF91C6
:1002D00008950F931F938B019C0183E0369527951A
:1002E000179507958A95D1F706551C4F462F4770ED
:1002F00021E030E0F90102C0EE0FFF1F4A95E2F75E
:10030000AF01F80120812423CB010196211102C005
:1003100090E080E01F910F9108950F931F938B0140
:100320009C0183E036952795179507958A95D1F717
:10033000677081E090E001C0880F6A95EAF7F801E4
:10034000E655FC4F2081452B31F480958223808334
:100350001F910F910895822BFACF4F925F926F9267
:100360007F928F929F92AF92BF92CF92DF92EF9245
:10037000FF920F931F93CF93DF934B015C012901F1
:100380003A01670161E0882D0E947B34E4012196E7
:10039000AE01C501B401C1DF20E030E0A901C80110
:1003A000B6010E94DD2F18168CF4F401EC59FC4FB5
:1003B00081E08083C801B6010E94AC2E6B01C301AD
:1003C000B2010E94AC2EA601C40121D0CE01DF9162
:1003D000CF911F910F91FF90EF90DF90CF90BF9042
:1003E000AF909F908F907F906F905F904F90089507
:1003F000882341F08150682F70E090E080E050E069
:1004000040E08BCF0895862FB9010C9441339C01B5
:10041000FC01EC51FF4FE491E150E231E0F4F0E0F7
:100420008827EA5EFD4F8F4F0C94CA3828022F02AE
:10043000320249025E022B0273027F0283029A0299
:10044000AF02C402DB02F0022B0205031C033103DE
:1004500084B5806884BD60E0822F0C94B73484B585
:100460008062F8CF809180008C7F826080938000D2
:1004700080918100807E8061682B60938100509321
:100480008700409386008091800080688093800080
:10049000E2CF809180008C7F826080938000809189
:1004A0008100807E8061682B60938100509387007B
:1004B00040938600809180008062E8CF8091800028
:1004C0008C7F82608093800080918100807E80613B
:1004D000682B609381005093870040938600809141
:1004E00080008860D3CF8091B00080688093B00096
:1004F0008091B100887F682B6093B100ACCF809170
:10050000B0008062F3CF809190008C7F82608093F6
:10051000900080919100807E8061682B60939100B3
:10052000509397004093960080919000806880934C
:10053000900091CF809190008C7F8260809390009A
:1005400080919100807E8061682B60939100509330
:10055000970040939600809190008062E8CF809150
:1005600090008C7F82608093900080919100807ECB
:100570008061682B609391005093970040939600A0
:10058000809190008860D3CF8091A0008C7F8260A2
:100590008093A0008091A100807E8061682B609391
:1005A000A1005093A7004093A6008091A00080680E
:1005B0008093A00050CF8091A0008C7F82608093B8
:1005C000A0008091A100807E8061682B6093A100D3
:1005D0005093A7004093A6008091A0008062E8CFCE
:1005E0008091A0008C7F82608093A0008091A10008
:1005F000807E8061682B6093A1005093A700409398
:10060000A6008091A0008860D3CF809120018C7FCC
:1006100082608093200180912101807E8061682B1F
:10062000609321015093270140932601809120017E
:100630008068809320010FCF809120018C7F8260A1
:100640008093200180912101807E8061682B6093DE
:10065000210150932701409326018091200180625F
:10066000E8CF809120018C7F82608093200180916F
:100670002101807E8061682B6093210150932701C6
:1006800040932601809120018860D3CFCF93DF93E0
:10069000882349F0EB0181500E941E33998388839F
:1006A000DF91CF910895FB0111821082F9CF0F9352
:1006B0001F938B019C0183E036952795179507952D
:1006C0008A95D1F70D541C4F462F477021E030E03A
:1006D000F90102C0EE0FFF1F4A95E2F7AF01F801E2
:1006E00020812423CB010196211102C090E080E0FB
:1006F0001F910F9108950F931F938B019C0183E02D
:1007000036952795179507958A95D1F7677081E0FB
:1007100090E001C0880F6A95EAF7F801ED54FC4FAC
:100720002081452B31F48095822380831F910F9186
:100730000895822BFACFCF92DF92EF92FF92CF9360
:10074000DF936B017C0160E086E3C816D104E1040D
:10075000F10490F486E38C0D0E947B34E60121962F
:10076000AE01C701B601C7DFCE01DF91CF91FF9087
:10077000EF90DF90CF9008958C2DEECF882341F03D
:100780008150682F70E090E080E050E040E0B3CF0F
:10079000089590E080E008950F931F93009709F467
:1007A00089C06115710509F485C000916B02109133
:1007B0006C0220916D0230916E020E3F1F4F2F4F41
:1007C0003F4F09F068C04FEF5FEFBA0140936B02F3
:1007D00050936C0260936D0270936E0240916B02B5
:1007E00050916C0260916D0270916E02DC01129664
:1007F000ED91FC9180819181A281B3818093C904A4
:100800009093CA04A093CB04B093CC0484819581C7
:10081000A681B7818093C5049093C604A093C704B2
:10082000B093C80480859185A285B3858093C10467
:100830009093C204A093C304B093C40484859585A7
:10084000A685B7858093BD049093BE04A093BF0492
:10085000B093C0041092B9041092BA041092BB0471
:100860001092BC040E94DB0E80E09FE09093BD03D9
:100870008093BC039093BF038093BE030E94CA0D74
:10088000009731F421E030E03093CE042093CD0482
:100890001F910F91089500916B0210916C022091AD
:1008A0006D0230916E02DB010D931D932D933C93ED
:1008B000139794CF8FEF9FEFEBCF8F929F92AF92D2
:1008C000BF92CF92DF92EF92FF921F93CF93DF936D
:1008D0004B015C011091D00482E090E09093CE0433
:1008E0008093CD0481149104A104B10441F480915A
:1008F000D004811104C08091CF04C1E08111C0E017
:10090000C12CD12C76018091D004811106C0809138
:10091000CF04811102C0CC23D9F083E090E0909302
:10092000CE048093CD04CC2381F1CCE9DFEF11110B
:1009300002C00E946512CE01DF91CF911F91FF90FE
:10094000EF90DF90CF90BF90AF909F908F900895E1
:100950006AE070E080E090E00E94863280E1C80E9C
:1009600087E2D81EE11CF11C8FEF88169806A806B6
:10097000B80631F0C1E08C149D04AE04BF0408F049
:10098000C0E080E00E94FE0DBECFD0E0C0E0CFCF3F
:10099000CF92DF92EF92FF920F931F93CF93DF934B
:1009A0008F3F910511F008F051C02091CD04309196
:1009B000CE042330310539F02091CD043091CE049E
:1009C0002130310531F424E030E03093CE0420931F
:1009D000CD046A017B01EC0182309105A8F011E0A1
:1009E000AE01C701B6010E94C90DAB01BC01CE0129
:1009F0001123F9F0DF91CF911F910F91FF90EF90AC
:100A0000DF90CF900C9491148C01000F111F0454AF
:100A10001C4FD8018D919C91892B09F30E949B1446
:100A20000297E9F6D801ED91FC91CE011995182FA6
:100A3000D7CF0E94B31490E080E0DF91CF911F9157
:100A40000F91FF90EF90DF90CF9008958FEF9FEF81
:100A5000F4CF80E00C94FE0DCF93DF9386E090E01E
:100A60009093CE048093CD040E94570EEC01ECEBE2
:100A7000F3E084E0DF011D928A95E9F70E94FD1101
:100A80001092CE041092CD04CE01DF91CF91089543
:100A90008091CF0408958091B804089560936B020B
:100AA00070936C0280936D0290936E0290E080E0F0
:100AB0000895CF92DF92EF92FF926B017C019F77B6
:100AC00020E030E040E859E50E943B2E87FF2BC034
:100AD00020E030E040E05FE3C701B6010E94DD2F77
:100AE00087FD0EC020E030E040E05FE3C701B601C3
:100AF0000E94C42DFF90EF90DF90CF900C94152FA3
:100B000020E030E040E05FEBC701B6010E94DD2F3E
:100B1000181684F420E030E0A901C701B6010E9454
:100B2000E12F6B017C01C701B601FF90EF90DF90D0
:100B3000CF90089520E030E040E05FE3C701B601C8
:100B40000E94C32DFF90EF90DF90CF900C94282E41
:100B50004F925F926F927F928F929F92AF92BF92CD
:100B6000CF92DF92EF92FF920F931F93CF93DF9379
:100B7000CDB7DEB72E970FB6F894DEBF0FBECDBF50
:100B80008091500B8150823008F465C480E08093DE
:100B9000500B80914F0B8150823008F45EC480E08E
:100BA00080934F0BAA24A394B12C7AE6C72E72E04F
:100BB000D72EEE24E394F12C09E612E021E030E098
:100BC00048E652E067EE7AE081EC9AE00E94402B22
:100BD0006091C10A7091C20A072E000C880B990B14
:100BE0000E94DA2E209118023091190240911A02C7
:100BF00050911B020E943F2E20911C0230911D0239
:100C000040911E0250911F020E94E12F6B017C0156
:100C100020E030E0A9016091750A7091760A809118
:100C2000770A9091780A0E943B2E811176C08090BD
:100C3000790A90907A0AA0907B0AB0907C0A20E012
:100C400030E0A90160910B0B70910C0B80910D0BA2
:100C500090910E0B0E943B2E20E030E0A901811103
:100C600056C4C501B4010E943B2E81112FC01092C1
:100C7000070B1092080B1092090B10920A0B10929E
:100C80000B0B10920C0B10920D0B10920E0B10927E
:100C90000F0B1092100B1092110B1092120B10925E
:100CA000170B1092180B1092190B10921A0B10922E
:100CB0001B0B10921C0B10921D0B10921E0BEFE1E0
:100CC000FBE088E2DF011D928A95E9F74090070B6F
:100CD0005090080B6090090B70900A0B20E030E0F8
:100CE000A901C301B2010E943B2E20E030E040E8A0
:100CF0005FE38111B4C3C501B4010E943B2E811191
:100D00000CC080E090E0A0E8BFE38093070B9093D5
:100D1000080BA093090BB0930A0B20E030E040E8E9
:100D20005FE360910B0B70910C0B80910D0B909118
:100D30000E0B0E943B2E811116C020911B0B30918F
:100D40001C0B40911D0B50911E0B60E070E088EC75
:100D500093EC0E94C32D9B01AC01C701B6010E9418
:100D6000C42D6B017C012091200230912102409121
:100D7000220250912302C701B6010E94E12F609325
:100D8000810A7093820A8093830A9093840A209147
:100D900024023091250240912602509127020E94A0
:100DA000E12F6B837C838D839E832091EB0A3091AE
:100DB000EC0A4091ED0A5091EE0A0E94C32D6F8318
:100DC000788789879A872091EF0A3091F00A4091BD
:100DD000F10A5091F20A60912C0270912D028091DB
:100DE0002E0290912F020E94E12F6B017C01209135
:100DF00030023091310240913202509133026F81C2
:100E0000788589859A850E94E12F9B01AC01C701F5
:100E1000B6010E94C42D6093850A7093860A809360
:100E2000870A9093880AC0900C02D0900D02E0903F
:100E30000E02F0900F02A70196016091CB0A70910B
:100E4000CC0A8091CD0A9091CE0A0E943B2E882335
:100E500041F0C092CB0AD092CC0AE092CD0AF09237
:100E6000CE0A6BE370E080E090E021DC9093CA0A48
:100E70008093C90A43E050E0BE016F5F7F4F06DCFC
:100E800069817A8190E080E00E94D82E4B015C015C
:100E90008092890A90928A0AA0928B0AB0928C0A58
:100EA000E091490BF0914A0B6081718182819381BD
:100EB00060938D0A70938E0A80938F0A9093900AA4
:100EC00024813581468157812093910A3093920A7B
:100ED0004093930A5093940AC084D184E284F384AB
:100EE000C092950AD092960AE092970AF092980AD8
:100EF0000E94C32D20913402309135024091360278
:100F0000509137020E943F2E2B013C01AC019B0106
:100F1000C501B4010E943F2E4B015C018092990AE9
:100F200090929A0AA0929B0AB0929C0A20E030EC20
:100F30004FEF53E4C701B6010E943B2E87FF15C354
:100F4000A7019601609138027091390280913A02AE
:100F500090913B020E94C42D60939D0A70939E0A5B
:100F600080939F0A9093A00A8091500B882309F4E4
:100F7000F9C2833009F0F2C281E090E08093500B17
:100F800020919D0A30919E0A40919F0A5091A00A9B
:100F900060913C0270913D0280913E0290913F022F
:100FA0000E94C42DA30192010E943F2E9B01AC011F
:100FB0002093A10A3093A20A4093A30A5093A40A53
:100FC000C501B4010E94C32D6093A50A7093A60ABF
:100FD0008093A70A9093A80A209148023091490271
:100FE00040914A0250914B020E94E12F6B017C011B
:100FF0002091F30A3091F40A4091F50A5091F60AD3
:10100000609144027091450280914602909147029E
:101010000E94E12FA70196010E94C42D20914C024D
:1010200030914D0240914E0250914F020E94E12FAB
:101030006B017C01C092A90AD092AA0AE092AB0A85
:10104000F092AC0A2091500230915102409152022C
:10105000509153020E94E12F2B013C012091F70A8D
:101060003091F80A4091F90A5091FA0A0E94C32D72
:101070006B877C878D879E872091FB0A3091FC0AC5
:101080004091FD0A5091FE0A6091580270915902F8
:1010900080915A0290915B020E94E12F4B015C010A
:1010A00020915C0230915D0240915E0250915F029E
:1010B0006B857C858D859E850E94E12F9B01AC010F
:1010C000C501B4010E94C42D6093AD0A7093AE0AAD
:1010D0008093AF0A9093B00A0091810A1091820A1E
:1010E0002091830A3091840A0093B10A1093B20AC6
:1010F0002093B30A3093B40A0091850A1091860AAE
:101100002091870A3091880A0093B50A1093B60A95
:101110002093B70A3093B80AC092B90AD092BA0A9B
:10112000E092BB0AF092BC0A6093BD0A7093BE0ABB
:101130008093BF0A9093C00AC090FF0AD090000B22
:10114000E090010BF090020B20910C0230910D0207
:1011500040910E0250910F0260E070E080E89FE342
:101160000E943F2E9B01AC01C701B6010E943B2E9D
:1011700087FF21C220E030E040E85FE3C701B6010D
:101180000E94C42D6093FF0A7093000B8093010BA3
:101190009093020B6091030B7091040B8091050BEF
:1011A0009091060B86DC6B017C0120E030E040E88A
:1011B00053E40E943B2E6FEF87FF0EC020E030E02B
:1011C000A901C701B6010E94DD2F60E087FD04C0C0
:1011D000C701B6010E94AC2E8CE052D8609160022B
:1011E00070916102809162029091630262DC6B01F6
:1011F0007C0120E030E040E853E40E943B2E6FEF9A
:1012000087FF0EC020E030E0A901C701B6010E94AF
:10121000DD2F60E087FD04C0C701B6010E94AC2E3F
:1012200082E22ED86BE070E080E090E052D87C0142
:101230009093E60A8093E50A80906402909065029C
:10124000A0906602B090670220E030E04FE753E4E0
:10125000C501B4010E943B2E18160CF4B9C120E060
:1012600030E0A901C501B4010E94DD2F87FDB7C19F
:10127000B501A401C7010BD8AA24A394B12C2AE676
:10128000C22E22E0D22EEE24E394F12C09E612E0E5
:1012900021E030E048E652E067EE7AE081EC9AE047
:1012A0000E94662B8B819C81AD81BE818093EB0A6D
:1012B0009093EC0AA093ED0AB093EE0A2091EF0A06
:1012C0003091F00A4091F10A5091F20A609128029F
:1012D0007091290280912A0290912B020E94E12FA5
:1012E0002F81388549855A850E94C42D6093EF0A65
:1012F0007093F00A8093F10A9093F20A2091F30A16
:101300003091F40A4091F50A5091F60A609140023A
:101310007091410280914202909143020E94E12F1C
:101320002091A50A3091A60A4091A70A5091A80AD7
:101330000E94C42D6093F30A7093F40A8093F50A17
:101340009093F60A4092F70A5092F80A6092F90ACE
:101350007092FA0A2091FB0A3091FC0A4091FD0A32
:101360005091FE0A6091540270915502809156028C
:10137000909157020E94E12F2B853C854D855E851B
:101380000E94C42D6093FB0A7093FC0A8093FD0AAF
:101390009093FE0A409187045091880460918904DB
:1013A00070918A0481E090E0F3DA60917F0470919B
:1013B000800480918104909182046F5F7F4F8F4FF2
:1013C0009F4F60937F047093800480938104909377
:1013D000820400919204109193040E94D82E9B01E4
:1013E000AC01609183047091840480918504909194
:1013F00086040E94E12FD8016D937D938D939C9379
:1014000013978091870490918804A0918904B091EA
:101410008A040196A11DB11D8093870490938804CE
:10142000A0938904B0938A042E960FB6F894DEBF79
:101430000FBECDBFDF91CF911F910F91FF90EF9025
:10144000DF90CF90BF90AF909F908F907F906F90E4
:101450005F904F90089583E09ACB83E0A1CBC301C6
:10146000B2010E943B2E811105C080E090E0A0E017
:10147000B0E44BCC80900F0B9090100BA090110B10
:10148000B090120B20E030E048EC52E4C501B4010A
:101490000E943B2E81112AC00FE11BE057E4A52ECC
:1014A0005BE0B52EF80161917191819191918F016D
:1014B000A70196010E943B2E811195C0A016B1068E
:1014C00089F780E090E0A0E8BFE380930B0B909356
:1014D0000C0BA0930D0BB0930E0BC0921B0BD09274
:1014E0001C0BE0921D0BF0921E0B17CC20E030E09D
:1014F00040E85FE3C501B4010E94C42D60930F0B67
:101500007093100B8093110B9093120B06CCC501B6
:10151000B4010E943B2E811100CC1092070B109257
:10152000080B1092090B10920A0B10920B0B1092E1
:101530000C0B10920D0B10920E0B10920F0B1092C1
:10154000100B1092110B1092120B10921B0B109299
:101550001C0B10921D0B10921E0BDFCB082E000CE3
:10156000990B0CCD82E090E009CD209138023091AA
:10157000390240913A0250913B02C701B6010E94E4
:10158000C32D60939D0A70939E0A80939F0A909347
:10159000A00A80914F0B882359F0833029F481E011
:1015A00090E080934F0BECCC082E000C990BF9CFF8
:1015B00082E090E0F6CF80E090E0A0E8BFE3809387
:1015C000030B9093040BA093050BB093060BE2CD95
:1015D000812C912C4FE7A42E43E4B42E49CE812CCC
:1015E000912C540145CE20E030E040E85FE360916B
:1015F000130B7091140B8091150B9091160B0E9498
:10160000C42D4B015C018092130B9092140BA0929D
:10161000150BB092160B0E94A72E6A5E7F4F660FC5
:10162000771F660F771FFB01ED53F54F8091170B66
:101630009091180BA091190BB0911A0B8083918394
:10164000A283B38320E030E040E251E4C501B4015D
:101650000E943B2E811108C01092130B1092140BA4
:101660001092150B1092160BC092170BD092180BFC
:10167000E092190BF0921A0B50CB8F929F92AF927F
:10168000BF92DF92EF92FF920F931F93CF93DF935E
:10169000E4EEF3E08FE894E097838683C2E9D4E038
:1016A000D0932504C093240403E814E0158B048B25
:1016B000F0934F04E0934E04F583E48321E030E09F
:1016C000DC012D933C931092650410926C0485EA22
:1016D00092E09387828724E934E03983288340E0CD
:1016E00050E060E070E440938B0450938C0460936E
:1016F0008D0470938E044AE057ED63EA7BE3D801D2
:101700004D935D936D937C931397CDE6D4E088E879
:1017100095EFABE8BCEF88839983AA83BB8382E90A
:1017200098E7AEE4B9E48093710490937204A093B7
:101730007304B093740481E29FE2A4E9B4EC809353
:10174000750490937604A0937704B09378048FE7A0
:1017500096ECA7EDB6E28093790490937A04A09377
:101760007B04B0937C04A8EDB3E0B383A283E4ECE4
:10177000F3E01196FC93EE9387EB92E091838083E4
:1017800093838283958384839783868391878087DD
:1017900093878287958784879787868780E59BE0F4
:1017A000918B808B8FE49BE0938B828B8DE794E011
:1017B00015969C938E9314971396DC93CE93129761
:1017C00017963C932E931697C3ECDAE080EC93E0E7
:1017D0009093480B8093470B80E092E090934A0BE4
:1017E0008093490B10924E0B10924D0B1CA21DA220
:1017F0001EA21FA2ECE0F2E084819581A681B78150
:1018000088A799A7AAA7BBA780859185A285B3853C
:101810008CAB9DABAEABBFAB80E090E0A0E8BFE38C
:101820008CAF9DAFAEAFBFAF188280819181A28196
:10183000B38188879987AA87BB87812C912C540113
:10184000839489829A82AB82BC826BE370E080E0F1
:1018500090E00E949B039F838E83DD24D394DD82DE
:101860001C8A8D8A9E8AAF8AB88E61E08CE00E94C5
:101870003801D98E1C868D869E86AF86B88A61E037
:1018800082E20E943801D98A1C8E8D8E9E8EAF8E88
:10189000B8A2E12CF12C8701A80197016BE070E060
:1018A00080E090E00E94AD019BA38AA3D9A2DF91C2
:1018B000CF911F910F91FF90EF90DF90BF90AF906D
:1018C0009F908F9008958091C30A81111FC081E07D
:1018D0008093C30A8091C40A9091C50AA091C60A58
:1018E000B091C70A0197A105B10581F48091C80A9A
:1018F000882361F06BE370E080E090E00E94570382
:101900009093CA0A8093C90A0E94BE038091D70AA5
:10191000811103C081E08093D70A8091CF0A8111A1
:1019200003C081E08093CF0A8091DF0A81112EC02D
:1019300081E08093DF0A8091E00A9091E10AA09112
:10194000E20AB091E30A0197A105B105F9F480918B
:10195000E40A8823D9F06BE070E080E090E00E9418
:1019600069019093E60A8093E50A40E050E0BA01ED
:101970000E9447016BE070E080E090E00E94690106
:101980009093E60A8093E50A0C94F80108954F922B
:101990005F926F927F928F929F92AF92BF92CF92FF
:1019A000DF92EF92FF920F931F93F8944090A80458
:1019B0005090A9046090AA047090AB04C0909C045D
:1019C000D0909D04E0909E04F0909F04413051051A
:1019D00009F0A4C09B01AC01241935094609570937
:1019E00029013A010091A4041091A5042091A604B4
:1019F0003091A70448015901840C951CA61CB71C02
:101A000080169106A206B306A0F40091A0041091DE
:101A1000A1042091A2043091A3040F5F1F4F2F4F08
:101A20003F4F0093A0041093A1042093A20430938D
:101A3000A3048092A4049092A504A092A604B0925C
:101A4000A7040091A0041091A1042091A204309158
:101A5000A3048092AC049092AD04A092AE04B09224
:101A6000AF040093B0041093B1042093B2043093F8
:101A7000B3046093A8047093A9048093AA0490937C
:101A8000AB04A8E8B3E1A30192010E94D2386C0D27
:101A90007D1D8E1D9F1D60939C0470939D048093FB
:101AA0009E0490939F0400916B0210916C02209110
:101AB0006D0230916E020F3F1F4F2F4F3F4FF1F0DD
:101AC00000916B0210916C0220916D0230916E02B8
:101AD0000E3F1F4F2F4F3F4F89F0C0906B02D090A9
:101AE0006C02E0906D02F0906E0221E08C149D0477
:101AF000AE04BF0408F420E02093B80478941F914A
:101B00000F91FF90EF90DF90CF90BF90AF909F909C
:101B10008F907F906F905F904F9008954B015C0184
:101B200084189508A608B708A3019201261B370B55
:101B3000480B590B6415750586059705D0F082167C
:101B40009306A406B50640F420E030E0A901811414
:101B50009104A104B10491F4A8E8B3E10E94D23841
:101B6000A7019601261B370B480B590BCA01B90177
:101B7000C5CF82169306A406B50670F7A8E8B3E1B0
:101B8000A50194010E94D2386C0D7D1D8E1D9F1DF4
:101B9000B5CFFDCECF93DF9300D01F92CDB7DEB788
:101BA0001C821B821A8219821092B4041092B5040E
:101BB0001092B6041092B704BE016F5F7F4FCE0142
:101BC00003960E94D22A69817A818B819C810E942E
:101BD000C023009761F4BE016F5F7F4FCE01039673
:101BE0000E94DE2A69817A818B819C8132D50F9097
:101BF0000F900F900F90DF91CF910895FF920F9368
:101C00001F93CF93DF93082F60E070E0CB010E9419
:101C10008632FF24F3940E94A922EC01892B89F0DB
:101C200010E0CE3F8FEFD80769F0002361F160E04C
:101C300070E0CB010E94863281E090E0892B59F35D
:101C400022C011E029D5EC01892B21F0CE3F8FEF86
:101C5000D80759F711111EC011E0229609F410E0BF
:101C60000E945922EC01892B21F0CE3F8FEFD8073B
:101C7000E1F6111111C011E0CE3F8FEFD80709F442
:101C800010E001110BC0CE01DF91CF911F910F9198
:101C9000FF90089511E0E4CF11E0F3CF60E070E031
:101CA000CB010E9486321F25812F90E0C7CFCF93B2
:101CB000DF938091B804882321F060E070E0CB01CD
:101CC00050D639D6D0E0C0E0892B71F06AE070E0E0
:101CD00080E090E00E94863281E090DF2CD6219651
:101CE000C03D27E0D20781F72BD60E941424109222
:101CF000D0041092CF041092C9041092CA0410921A
:101D0000CB041092CC041092C5041092C604109219
:101D1000C7041092C8041092C1041092C204109219
:101D2000C3041092C4041092BD041092BE04109219
:101D3000BF041092C0041092B9041092BA04109219
:101D4000BB041092BC044EEF5FEF6FEF7FEF409348
:101D50006B0250936C0260936D0270936E0210924E
:101D6000B804ECEAF4E028E0DF011D922A95E9F7D7
:101D70001092A8041092A9041092AA041092AB0425
:101D80001092A4041092A5041092A6041092A70425
:101D90001092A0041092A1041092A2041092A30425
:101DA00010929C0410929D0410929E0410929F0425
:101DB000DF91CF9108951092DC041092DD0410920F
:101DC000DE041092DF041092DB048091E404909111
:101DD000E5049093DA048093D9041092D804109209
:101DE000D7041092D3041092D4041092D504109208
:101DF000D6041092E1041092E00490E080E008958F
:101E0000CF92DF92EF92FF920F931F93CF938C01AB
:101E1000019709F055C02091E4043091E5048091C8
:101E2000D9049091DA044091E4045091E504509370
:101E3000DA044093D9042817390781F01092D804A6
:101E40001092D7041092D3041092D4041092D504A7
:101E50001092D6041092E1041092E0048091E40400
:101E60009091E504019761F58091E0049091E1047F
:101E7000892B21F480916F02811112C08091E004BE
:101E80009091E1040197E1F48091D3049091D404FE
:101E9000A091D504B091D6040197A105B10581F4B4
:101EA0001092D3041092D4041092D5041092D60448
:101EB00010926F0282E090E09093E1048093E0043E
:101EC0008091E4049091E504019709F01CC1809190
:101ED000FA049091FB048017910709F014C18091D6
:101EE000F6049091F704A091F804B091F9040097DA
:101EF00009F409C12091F50421110DC04091F604A7
:101F00005091F7046091F8047091F904452B462B29
:101F1000472B09F4F8C02091E0043091E10422300D
:101F2000310509F0F0C02091D7042111ECC0FC016B
:101F3000C080D180E280F3808091DB04882309F4A3
:101F4000D3C08091E7049091E804892B09F4FEC086
:101F50002091E7043091E80481E02230310509F056
:101F600080E02091E7043091E804C1E021303105A0
:101F700049F02091E7043091E804C1E022303105B6
:101F800009F0C0E0882309F456C02091F104309193
:101F9000F2044091F3045091F404C701B6010E9489
:101FA000DD2F87FD14C02091F1043091F20440919F
:101FB000F3045091F4046091DC047091DD0480918D
:101FC000DE049091DF040E943B2E87FD22C0209109
:101FD000F1043091F2044091F3045091F404C701EC
:101FE000B6010E94DD2F181634F52091F1043091CE
:101FF000F2044091F3045091F4046091DC04709178
:10200000DD048091DE049091DF040E943B2E81115B
:1020100012C08091E9049091EA04A091EB04B09180
:10202000EC04892B8A2B8B2B19F481E08093D80444
:1020300081E08093D704CC2309F456C02091F104A9
:102040003091F2044091F3045091F404C701B601B9
:102050000E943B2E87FF14C02091F1043091F204BE
:102060004091F3045091F4046091DC047091DD041C
:102070008091DE049091DF040E94DD2F87FF22C053
:102080002091F1043091F2044091F3045091F40452
:10209000C701B6010E943B2E811126C02091F10498
:1020A0003091F2044091F3045091F4046091DC0407
:1020B0007091DD048091DE049091DF040E94DD2F99
:1020C000181694F48091E9049091EA04A091EB042D
:1020D000B091EC04892B8A2B8B2B19F481E080932F
:1020E000D80481E08093D70481E09091D7049111C6
:1020F00080E08093DB04C092DC04D092DD04E092A7
:10210000DE04F092DF040130110509F067C180910F
:10211000E0049091E104892BD9F41092E604109226
:10212000D70480916F02882379F082E090E0909349
:10213000E1048093E00410926F022091E404309156
:10214000E50481E0232BE9F080E01BC081E009CFAA
:1021500010926F028091E604882349F01092D8040F
:102160001092E1041092E0041092E604EDCF809109
:10217000E4049091E504892BE1F08091D70410925A
:10218000D7042091E0043091E1042230310509F4B4
:102190005EC088F42115310509F448C021303105AD
:1021A00009F4F3C01092D8041092D7041092E604F8
:1021B00038C081E0E6CF2330310509F4B1C02430C6
:1021C000310581F74091D3045091D4046091D50436
:1021D0007091D604411551056105710561F04150BA
:1021E0005109610971094093D3045093D404609359
:1021F000D5047093D6044091D3045091D4046091D7
:10220000D5047091D604452B462B472BD9F4209149
:10221000E2043091E3042130310509F046C0109208
:10222000D8041092E1041092E0040CC080916F0277
:10223000882341F082E090E09093E1048093E004F1
:1022400010926F021092D1048091D804CEC08823DE
:10225000C9F38091E9049091EA04A091EB04B09154
:10226000EC04181619061A061B060CF07DC08091A6
:10227000E4049091E504019709F076C08091E904A7
:102280009091EA04A091EB04B091EC048093D30404
:102290009093D404A093D504B093D60483E090E047
:1022A0009093E1048093E004CDCF4091ED045091F0
:1022B000EE046091EF047091F004452B462B472B00
:1022C000A9F01092D8048091ED049091EE04A091B1
:1022D000EF04B091F0048093D3049093D404A093BE
:1022E000D504B093D60481E090E0DACF882399F04A
:1022F0008091700290917102A0917202B09173026C
:102300008093D3049093D404A093D504B093D604BF
:1023100084E090E0C5CF1092D80482E090E0C0CF76
:102320008091D3049091D404A091D504B091D604A7
:102330000097A105B10559F00197A109B109809352
:10234000D3049093D404A093D504B093D604809181
:10235000D3049091D404A091D504B091D604892BD4
:102360008A2B8B2B09F06ECF8091700290917102B5
:10237000A0917202B0917302892B8A2B8B2B09F4E6
:102380004ECF81E08093D804B3CF4091D3045091D5
:10239000D4046091D5047091D604411551056105AE
:1023A000710561F041505109610971094093D304ED
:1023B0005093D4046093D5047093D6044091D30411
:1023C0005091D4046091D5047091D604452B462BCE
:1023D000472B09F037CF8111C7CF9FCF8091D10410
:1023E000882309F431CF8091D204CF911F910F91AE
:1023F000FF90EF90DF90CF9008951092DC04109240
:10240000DD041092DE041092DF041092DB041092BF
:10241000E1041092E0041092DA041092D9041092B0
:10242000FB041092FA041092D8041092D704109270
:10243000D3041092D4041092D5041092D6041092B2
:10244000D2041092D1041092F6041092F704109264
:10245000F8041092F9041092F5041092F10410920D
:10246000F2041092F3041092F40488EE93E0A0E0DA
:10247000B0E08093700290937102A0937202B093C7
:1024800073021092ED041092EE041092EF04109279
:10249000F0041092E9041092EA041092EB041092F6
:1024A000EC041092E8041092E70481E080936F023C
:1024B0001092E6041092E5041092E4041092E304F2
:1024C0001092E20490E080E008958091E4049091FD
:1024D000E504892B19F580916F02882351F08091D2
:1024E000E604811106C081E08093D2048093D10478
:1024F00008952091E60430916F0281E090E033234B
:1025000011F090E080E030E082239323892B21F0CA
:102510001092D20481E0EACF1092D104089582E0B3
:1025200090E0FA01918380838FEF9FEF0895CF931E
:10253000DF93EA01009711F00E9434251982188276
:1025400090E080E0DF91CF910895DB01009719F4CE
:102550008FEF8C9308952EEF2C93FC017096E03151
:10256000F10508F037C08827E754FD4E8F4F0C94D3
:10257000CA38E812E612E412E212E012DE12DA12AF
:10258000DC12D812D612D412D112CD12C912CF1227
:10259000EA1280E311968C93089589E2FBCF82E2E0
:1025A000F9CF11961C92089583E2F4CF81E2F2CF25
:1025B00081E1F0CF87E2EECF8AE2ECCF80E1EACF93
:1025C00084E2E8CF88E2E6CF86E2E4CF81E3E2CF9F
:1025D00083E3E0CF80E2DECF80910805909109058A
:1025E0000895909309058093080508958091070543
:1025F000089590910705892B809307050895982FDA
:10260000909580910705892380930705089580910F
:1026100006050895809104059091050508956115BA
:10262000710559F0FB0130E020E070E060E0241714
:10263000350719F06115710511F0CB010895A081DE
:10264000B181A817B90709F4BF012F5F3F4F369634
:10265000EECF80910A0581111CC060D266D29093A2
:10266000FD048093FC040E94321D0E94441D90933F
:102670000105809300050E94C1210E94C82190930A
:10268000FF048093FE0481E080930A0590E080E0DF
:10269000089584EF9FEF08958F929F92AF92BF921B
:1026A000CF92DF92EF92FF920F931F93CF93DF931E
:1026B00000D000D000D01F92CDB7DEB71A861986A1
:1026C00018861F821E821D821C821B821A8219821A
:1026D00080910A0507EF1FEF882309F49CC08E0143
:1026E0000D5F1F4F9E012B5F3F4FAE01495F5F4F54
:1026F000BE01675F7F4F90E080E00E9445238C0120
:10270000009721F00596029708F0DBC029853A85ED
:102710002115310509F402C1ED80FE804B815C81F9
:10272000B701640F751F8F8198858617970708F486
:10273000F5C0E20EF31ED7019C91903C09F07FC0DA
:102740004230510508F47BC011968C9140910805E8
:1027500050910905452B09F49CC0913F08F071C0C8
:102760002CE1290F2D3008F48BC02DE2290F2031E8
:1027700008F489C0903C21F48150823008F483C071
:1027800088E3890F8B3008F481C095EAC92E92E165
:10279000D92EEFE8F2E16D817E81AE014F5F5F4F90
:1027A00089859A8519955C01C114D104A1F18980AC
:1027B0009A808114910479F18B819C818815990507
:1027C00008F487C010E000E04B815C8170E060E0BD
:1027D000C7010E94F43801151105E9F449815A81B5
:1027E00069857A858D819E81680F791FC501F60103
:1027F0001995E980FA800D811E812F8138854985E0
:102800005A856FEF7FEF81E090E00E94E0228C011B
:10281000892B09F056C0C8012A960FB6F894DEBF7E
:102820000FBECDBFDF91CF911F910F91FF90EF9021
:10283000DF90CF90BF90AF909F908F90089580E0F1
:1028400085CF30E020E0220F331FF901E450FB4F29
:102850000190F081E02D309709F497CF892F90E017
:102860001995009709F491CFDC011296ED91FC9136
:1028700013971496CD90DC90309709F08CCF1FC041
:1028800021E030E0E0CF22E030E0DDCF23E030E0B7
:10289000DACFD12CC12CE7E9F2E19F3F09F07BCFE1
:1028A000E091FC04F091FD04309721F4C90104EF9C
:1028B0001FEF0CC08FEF90E019950097A9F604EF79
:1028C0001FEF89859A85009709F4A5CF0E943425CA
:1028D000A2CF0E940F248C0189859A850E943425FD
:1028E00070E060E0C4010E94A82398878F830E9453
:1028F000DD229E838D836F8178856115710559F086
:10290000C8010E94C0269A87898706EF1FEF892B8E
:1029100009F058CF59CF08EF1FEF56CF08EF1FEF40
:10292000D0CF20910A05222319F020E00C94491DF4
:1029300087EF9FEF0895809108059091090508950C
:102940000E94CD210E942721F5D0ECEFF4E088E031
:10295000DF011D928A95E9F710920A0590E080E068
:1029600008950C94851F21E040E050E0BA010C94DA
:10297000491D86E090E0FA019183808390E080E039
:10298000089547E050E06AEB72E049CEDF92EF92A3
:10299000FF920F931F93CF93DF938A01EC01C60F31
:1029A000D71FE0900E05F0900F05D9800E94F72305
:1029B000D816190678F082E090E0F80191838083C0
:1029C0008EEF9FEFDF91CF911F910F91FF90EF90CE
:1029D000DF900895EF2841F482E090E0F8019183C0
:1029E000808384EF9FEFEECF898180930D0590E087
:1029F0000196F8019183808390E080E0E3CFCF934C
:102A0000DF93EA010E943620882321F00E940424EB
:102A10000E94372082E090E0998388838BEF9FEFBC
:102A2000DF91CF910895CF93DF93EB0186E0FB0117
:102A300011928A95E9F78FEF8883D8DD8983E7DDE6
:102A40008A83E8DD9D838C83DF91CF910895CF93B6
:102A5000DF93EA010E943920811109C082E090E0F1
:102A60009983888385EF9FEFDF91CF91089590E060
:102A700080E0B7DD81E090E09983888390E080E09A
:102A8000F3CF0F931F93CF93DF93EA018C01060FCF
:102A9000171F0E94392081110BC082E090E09983BA
:102AA000888385EF9FEFDF91CF911F910F9108955C
:102AB000F8018181823038F082E090E09983888348
:102AC0008EEF9FEFF0CF81E090E08BDD88E090E02B
:102AD0009983888390E080E0E6CFCF93DF930097DF
:102AE000D1F4EB01FB01329686E0DF011D928A955D
:102AF000E9F78FEF888385E089831A820E94F723A4
:102B00008B830E94F6239D838C8381E08E838F8349
:102B1000DF91CF910895DF91CF9117CD81EC94E1B2
:102B200090930C0580930B05089580910B0590916F
:102B30000C05089510920C0510920B0508958091D4
:102B40000E0590910F050895411105C0611571059D
:102B50008105910561F060930E0570930F058093D8
:102B60001005909311054093120581E0089580E0CF
:102B70000895FF920F931F93CF93DF938A01EC0187
:102B8000C60FD71FF9800E94F723F816190668F0C0
:102B900082E090E0F801918380838EEF9FEFDF91D8
:102BA000CF911F910F91FF9008956C817D818E814F
:102BB0009F814B81C9DF811108C082E090E0F8015C
:102BC0009183808384EF9FEFEACF898180930D0505
:102BD00090E00196F8019183808390E080E0DFCF60
:102BE000CF93DF93EA01FC01E60FF71F6481758143
:102BF000868197814381A8DF811109C082E090E03E
:102C00009983888384EF9FEFDF91CF91089581E0CE
:102C100090E09983888390E080E0F6CFEEE0F5E0E5
:102C20004081518162817381480F511D611D711D69
:102C300040835183628373830895CF93C0910D05C0
:102C40004C2F50E060910E0570910F0501960E9487
:102C5000EB388C2FE3DF10920D05CF91089500978C
:102C600099F480910E0590910F052FEFFB012083C1
:102C7000892B59F020910D0530E02F5F3F4F24172D
:102C8000350719F4CB01D9CF60CC0895009799F49A
:102C900080910E0590910F052FEFFB012083892B6A
:102CA00059F020910D0530E02F5F3F4F2417350775
:102CB00019F4CB01C2CF49CC089523E1AC01249F84
:102CC000C001259F900D1124E0911705F091180582
:102CD000E80FF91F238134812250310981E022302D
:102CE000310508F080E008950F931F93CF93DF9391
:102CF0000091190510911A05D0E0C0E080E00C1792
:102D00001D0749F491E0811190E0892FDF91CF9167
:102D10001F910F9108958111F5CFCE01CEDF21963D
:102D2000EECFA0911705B0911805109729F12091C9
:102D3000190530911A0582179307F0F453E1589F53
:102D40009001599F300D1124A20FB31FED91FC91FA
:102D50001197309789F012968C91681768F48DE07E
:102D6000689FE00DF11D112480819181892B21F054
:102D700081E09281491708F080E008959C0143E1C9
:102D8000429FC001439F900D1124E0911705F091DF
:102D90001805E80FF91F8385823091F481E090E0F7
:102DA00065817681409174025091750264177507B0
:102DB00011F490E080E0892B19F081E0232B09F0D9
:102DC00080E00895FC01A081B1818DE0689FA00D95
:102DD000B11D112413964D915C9185859685489F70
:102DE0009001499F300D589F300D1124C901019663
:102DF000611103C0478144FD04960895EF92FF924C
:102E00000F931F93CF93DF93EA01FC01E60FF71FA7
:102E100002811381E480F5804F2D6E2DC80181DF82
:102E200081110DC082E090E0998388838EEF9FEF3F
:102E3000DF91CF911F910F91FF90EF900895C801FE
:102E40003CDF882339F082E090E09983888388EF23
:102E50009FEFEECF10937B0200937A02E0927C0208
:102E6000F0927D0281E090E09983888390E080E099
:102E7000DFCFCF92DF92EF92FF920F931F93CF930A
:102E8000DF937A01EC01C60FD71FC0907A02D09071
:102E90007B0200917C0210917D02412F602FC601C0
:102EA00040DF811110C082E090E0F70191838083C0
:102EB0008AEF9FEFDF91CF911F910F91FF90EF90DD
:102EC000DF90CF900895C601F8DE882341F082E0BC
:102ED00090E0F7019183808388EF9FEFEBCF4C81E7
:102EE0005D816E817F819A8189818F3F41F082E08F
:102EF00090E0F701918380838EEF9FEFDBCFE3E1DA
:102F0000EC9D9001ED9D300D1124E0911705F0919D
:102F10001805E20FF31F0190F081E02D2DE0029FD4
:102F2000E00DF11D11240190F081E02D27E0129FAA
:102F3000E00DF11D1124808391838B818283438373
:102F40005483658376831F5F10937D0281E090E058
:102F5000F7019183808390E080E0ACCFEF92FF9205
:102F60000F931F93CF93DF937A018C01060F171FE6
:102F7000C0911705D0911805209781F021E030E02D
:102F8000F801828193814091190550911A058417A7
:102F9000950710F030E020E0232B71F482E090E000
:102FA000F701918380838EEF9FEFDF91CF911F9187
:102FB0000F91FF90EF90089543E1489F9001499F42
:102FC000300D1124C20FD31F78DE882341F082E038
:102FD00090E0F7019183808388EF9FEFE6CFF801BF
:102FE0002481358120383105C8F687818111D6CFFB
:102FF0004181842F90E08F7E009741F082E090E045
:10300000F7019183808386EF9FEFCFCF4F833E837D
:103010002D83268128871986223010F421E0288705
:1030200021E030E0F70131832083BFCF88E090E0DA
:10303000FA019183808390E080E00895FB018FEF97
:10304000808381E181838FEF9FEF9383828380E888
:1030500090E095838483168217820895FB018FEF99
:10306000808391E0918382839383848384E3858347
:1030700081E090E097838683089582E090E0FA01F2
:103080009183808380EF9FEF0895DF92EF92FF920C
:103090000F931F93CF93DF93EA01FC01E60FF71F15
:1030A0008181813071F082E090E0998388838FEF95
:1030B0009FEFDF91CF911F910F91FF90EF90DF90E5
:1030C000089582819381D4802581E680F7800091E4
:1030D0001705109118050115110539F482E090E0EB
:1030E000998388838CEF9FEFE4CF4091190550912D
:1030F0001A058417950738F082E090E09983888359
:103100008EEF9FEFD6CF892B39F082E090E0998344
:10311000888386EF9FEFCDCF8D2D8D7FB1F7213046
:10312000A1F781E0D11006C091E0E916F10431F079
:1031300080E004C0E2E0EE16F104D0F3882329F326
:1031400090E080E0BADD882339F082E090E0998356
:10315000888388EF9FEFADCFF801D38681E0848725
:10316000F686E586108A178681E090E09983888349
:1031700090E080E09ECF4DE050E064EE72E04FCAF8
:103180008F929F92BF92CF92DF92EF92FF920F9316
:103190001F93CF93DF93EA01FC01E60FF71F8281B3
:1031A00093810481B580E0911705F091180530975F
:1031B00091F482E090E0998388838CEF9FEFDF9118
:1031C000CF911F910F91FF90EF90DF90CF90BF9024
:1031D0009F908F9008952091190530911A058217BC
:1031E000930738F082E090E0998388838EEF9FEF19
:1031F000E6CF23E1289F6001299FD00C1124EC0D1C
:10320000FD1DE080F180E114F10499F2828108173C
:1032100048F78DE0089F80011124E00EF11EF701B0
:1032200080819181892B29F6BB20E1F2F7E0BF9ED6
:1032300040011124C4010E94FB24F7019183808383
:10324000E0911705F0911805EC0DFD1D0190F0813E
:10325000E02DE00FF11F80819181009739F482E029
:1032600090E0998388838DEF9FEFA9CFA40170E050
:1032700060E00E94F4388091170590911805C80EFF
:10328000D91EF60180819181080F191FF801B282C1
:1032900081E090E09983888390E080E090CFAF92C6
:1032A000BF92CF92DF92FF920F931F93CF93DF9342
:1032B000EA01FC01E60FF71F82819381F4800091FF
:1032C0001705109118050115110581F482E090E0B1
:1032D000998388838CEF9FEFDF91CF911F910F919E
:1032E000FF90DF90CF90BF90AF9008952091190587
:1032F00030911A058217930738F082E090E09983A5
:1033000088838EEF9FEFE8CF2FEF2F0D2C3FA8F78C
:1033100023E1289F6001299FD00C11240C0D1D1D55
:10332000F80180819181892B89F6FDE0FF9E500193
:103330001124C5010E94FB24F80191838083E09150
:103340001705F0911805EC0DFD1D80819181009706
:1033500039F482E090E0998388838DEF9FEFBCCFB2
:10336000A50170E060E00E94F438E0911705F0914B
:103370001805EC0DFD1DF28281E090E099838883B1
:1033800090E080E0A9CFCF92DF92EF92FF920F936F
:103390001F93CF93DF93860F971FFC010281138148
:1033A0008091170590911805892B81F082E090E0BB
:1033B000FA01918380838CEF9FEFDF91CF911F9172
:1033C0000F91FF90EF90DF90CF900895C801B0E08B
:1033D000A0E00197A109B1098F3F9F4FA105B10559
:1033E00040F082E090E0FA01918380838EEF9FEFBE
:1033F000E4CF7A0183E1809F6001819FD00C11248A
:10340000C6010E94FB24EC01009741F482E090E0A9
:10341000F701918380838DEF9FEFCFCFA60170E0FE
:1034200060E00E94F438D0931805C09317051093FC
:103430001A050093190590E080E02FEF3FEF41E07F
:1034400061E070E08017910741F481E090E0F701BE
:103450009183808390E080E0B0CF3A8B298B1B86EC
:103460004C877E876D87188A1F8601966396EACF00
:10347000EF92FF921F93CF93DF93EC0110E0F12CBA
:10348000E12C6A811617B0F083E0689FB001112427
:10349000AE014F5E5F4FC7010E946025009721F08B
:1034A0002FEF3FEF3A8B298BDF91CF911F91FF9048
:1034B000EF900895612FCE0185DC61E070E00E94FD
:1034C000A823E816F90608F47C011F5FDACFF89408
:1034D000209115053091160581E02115310509F07F
:1034E00080E0232B09F0789408952F923F924F9219
:1034F0005F926F927F928F929F92AF92BF92CF9284
:10350000DF92EF92FF920F931F93CF93DF933C01D3
:10351000660E771EF301828193814C01B12CA12CA0
:10352000C0911705D0911805209769F021E030E08F
:103530006091190570911A058617970710F030E011
:1035400020E0232BD1F482E090E0FA019183808384
:103550008EEF9FEFDF91CF911F910F91FF90EF9032
:10356000DF90CF90BF90AF909F908F907F906F90A3
:103570005F904F903F902F90089580927E0290929E
:103580007F02A0928002B092810263E1689F900165
:10359000699F300D1124C20FD31FF3018181833045
:1035A00040F082E090E0FA019183808386EF9FEF04
:1035B000D1CF2A012B813C81232BF1F42881398141
:1035C0009F8191FF2EC0232B09F46FC020911C0511
:1035D0009A81422F490F5527551FBA0141E050E00B
:1035E0006138710514F050E040E0452B09F45DC0EE
:1035F0002A87920F90931C058150823008F481C075
:1036000066DF882309F4D8C0F3018181813009F491
:103610008DC008F47BC0823009F4C6C090E080E021
:10362000ADC0232B09F441C020911B059A81E22FE4
:10363000E90FFF27FF1F41E050E0ED3FF10514F0D7
:1036400050E040E0452B89F12A87920F90931B05AB
:10365000D3CFA081B181A20FB31F11966C91060F39
:10366000111D0196295F3F4F8417950794F38D85AF
:103670009E85089F1001099F300C189F300C112463
:10368000C114D104D1F48F8184FF17C00E94F623A6
:10369000F5E02F0E311C21E08215930508F420E09F
:1036A000A701435F5F4F21110EC082E090E0F2015D
:1036B0009183808387EF9FEF4DCF0E94F6232FEFFA
:1036C000221A320AE8CF88819981E80EF91EF701A3
:1036D00014830383FFEFCF1ADF0A7A018A818C15E6
:1036E0001D0409F00CF48CCFE881F981EE0DFF1D6B
:1036F000428150E030E020E010E000E090E080E027
:10370000B3CFF12CE12CD12CC12CE8CF81E090E09B
:103710009C838B83E9DA882309F480CF81E090E0F1
:103720000E94F11280E40E94FF1278CF89899A8961
:10373000019661F083E090E09C838B8382E090E0CF
:103740000E94F11280E40E94F91268CF8D819E815F
:10375000209174023091750282179307D1F4609121
:10376000780270917902AE014F5E5F4F80917602D0
:10377000909177020E947F260097E1F2789422E0F0
:1037800030E0F20131832083892B99F08DEF9FEF98
:10379000E1CE89288A288B2869F6029758F6CE014F
:1037A00067DE188A1F86E8CF82E090E09C838B83D7
:1037B00035CF90E080E0CECE82E090E0F2019183C0
:1037C000808385EF9FEFC6CE8F929F92AF92BF927C
:1037D000CF92DF92EF92FF920F931F93CF93DF93DD
:1037E000EA018C01060F171FF8018181833098F0E0
:1037F00082E090E09983888386EF9FEFDF91CF91FD
:103800001F910F91FF90EF90DF90CF90BF90AF90FE
:103810009F908F9008958091170590911805892B9E
:1038200061F081E090E02091190530911A05232B79
:1038300011F490E080E0892B39F482E090E09983E4
:1038400088838EEF9FEFDACF42DE882309F4E0C051
:10385000F8018181813009F496C0E8F0823099F452
:103860002091190530911A05E0911705F09118057E
:1038700090E080E041E050E02817390709F0BEC031
:1038800033DA811117C0789481E090E099838883BE
:1038900090E080E0B3CF2091190530911A05E091B6
:1038A0001705F091180590E080E041E050E02817FE
:1038B000390741F481E090E00E94F11280E40E9417
:1038C000FF12E1CF63817481672B11F0548343832E
:1038D00001967396ECCFE0911705F0911805E00F73
:1038E000F11F2381348122303105D9F421893289B5
:1038F0002F3F3F4FB1F425813681409174025091A2
:1039000075022417350761F5AF014F5E5F4F609177
:1039100078027091790280917602909177020E94EC
:103920007F26EFEFCE1ADE0AEE0AFE0A0D5E1F4F6B
:103930004091190550911A0570E060E0C416D50653
:10394000E606F70644F5009731F27894892B09F4DE
:103950009BCF82E090E0998388838DEF9FEF4ECFDD
:10396000C114D104E104F104E1F622303105C8F6B6
:10397000CF017EDDE0911705F0911805E00FF11FF2
:10398000108A1786CECF10E000E090E080E0C12CD6
:10399000D12C7601CDCF0097C1F610E000E0812C4C
:1039A000912C540183E0E82EF12C1AC0E091170508
:1039B000F0911805E00FF11F83819481029749F47B
:1039C000F482E38282E090E00E94F11280E40E949F
:1039D000F912FFEF8F1A9F0AAF0ABF0A0D5E1F4F41
:1039E0008091190590911A05B0E0A0E0881699061B
:1039F000AA06BB06DCF290E080E0A7CF6381748169
:103A00006230710511F4548343830196739634CF69
:103A100082E090E09983888385EF9FEFEFCE009757
:103A2000B9F48FEFFB01808320917E0230917F02F9
:103A300043E1429FC001439F900D1124E09117057F
:103A4000F0911805E80FF91F8285FB018183089525
:103A50000C94A51288E090E0FA019183808390E0B5
:103A600080E008951092160510921505E7E1F5E043
:103A700086E0DF011D928A95E9F78BEB98E1909340
:103A800014058093130508958091130590911405F2
:103A900008952F923F924F925F926F927F928F92F2
:103AA0009F92AF92BF92CF92DF92EF92FF920F93CD
:103AB0001F93CF93DF93CDB7DEB72F970FB6F89450
:103AC000DEBF0FBECDBFF894E0911505F09116054D
:103AD0003196F0931605E0931505789440901705FC
:103AE000509018054114510409F40CC2E0911905D5
:103AF000F0911A05EF2B09F405C22D8749875A87E3
:103B00006B877C8798878F831201B12CA12C10E0E2
:103B100000E08091190590911A05A816B90618F4CD
:103B20000115110529F1F89480911505909116055C
:103B3000019790931605809315057894C8012F96E8
:103B40000FB6F894DEBF0FBECDBFDF91CF911F91AE
:103B50000F91FF90EF90DF90CF90BF90AF909F902C
:103B60008F907F906F905F904F903F902F9008952F
:103B70007101E418F508D10117968C91179781FD12
:103B800054C013968D919C911497039709F04DC0E2
:103B900015968D919C91EF81F8858E179F0709F0FE
:103BA00044C0B50190E080E07FD48A83209117055E
:103BB000309118053D832C833D85332309F44CC097
:103BC0004C815D81452B09F49AC180911905909132
:103BD0001A05A816B90608F092C1C501CFD88823E6
:103BE000E9F06C817D816E0D7F1D7D836C83DB012F
:103BF0001F968D919C91892B89F0D12CC12CF12C91
:103C0000E12CAC81BD8112968C9112978E151F0408
:103C100009F094F450961C921E921F972A81222339
:103C200021F0B50190E080E041D43FEFA31AB30A40
:103C300043E1240E311C6DCFAC81BD81ED91FC912F
:103C4000EC0DFD1D858196810FD7BFEFEB1AFB0AA6
:103C5000EDE0CE0ED11CD5CFEC81FD81309709F47B
:103C60004EC18091190590911A05A816B90608F061
:103C700046C1EE0DFF1DFF87EE87C5017FD88B8300
:103C8000882339F1AE85BF851F968D919C91509701
:103C9000019621E01D964D915C918417950709F0DE
:103CA00020E02E831982712C10E000E0AE85BF85E4
:103CB00012968C91781608F45DC0EE85FF85878595
:103CC00090890196658576850E949438908B8787C8
:103CD000A5CFB1E0BE83E6CF992493946BC08BD679
:103CE000F6019683858382C0D601ED90FC90B7E003
:103CF0006B9EE00CF11C1124F701638174818081BB
:103D00008F3F61F121E030E002C0220F331F8A951E
:103D1000E2F7C901092E000CAA0BBB0BFB01408185
:103D200051816281738184239523A623B72321E0E7
:103D3000892B8A2B8B2B09F420E0D4012C93D701FB
:103D400011968C91F60123853485820F932F911D56
:103D5000880E991E1486138663949BC0418150E09F
:103D6000C4010E94EB38EBCF998206EF1FEFC5C06C
:103D70001982C3C0F981F111A0CFEDE07E9E7001E0
:103D80001124AE85BF85CD90DC90CE0CDF1C15D400
:103D90009D838C83BB81BB2309F49ECF81E0EE859C
:103DA000FF8527853089232B09F080E0982E882312
:103DB00009F458C0672D8E859F8504D8D6011896C2
:103DC0009C938E93179761E070E0C2D4EE85FF85D7
:103DD000218932892F3F320709F481CFBC01C90103
:103DE000CFD7D60116969C938E931597D60115962C
:103DF0008D919C911697009709F4B6CFEC81FD81C7
:103E00008E0F9F1F1A969C938E931997AE85BF8530
:103E1000ED91FC911197EE0EFF1EF7012185328581
:103E2000148613861A968C91870DD9018D93711083
:103E300016C0EE85FF85878184FF11C049855A85AC
:103E40006B857C85F9014183528363837483F70119
:103E5000838594850496A80FB91F14861386F701ED
:103E6000B287A187D60115968D919C911697892BC3
:103E700009F443C0EE85FF85258136818091740267
:103E8000909175022817390779F019968D909C90BA
:103E9000612CD60112968C911297681608F424CFE3
:103EA0001A969C928E921997BE81BB2309F460CF1B
:103EB00061E070E0F601878190854AD4D6011796BB
:103EC000ED90FC90189715964D915C91E1E0F0E033
:103ED000BA81BB2311F0F0E0E0E00C811D819C0170
:103EE000B501882799278E1B9F0B6AD38C01892BDC
:103EF00021F0F60185819681B7D57394D7CE0FEF67
:103F00001FEF8CCE10E000E00ECE2F923F924F922A
:103F10005F926F927F928F929F92AF92BF92CF9259
:103F2000DF92EF92FF920F931F93CF93DF938091D5
:103F300017059091180510E000E0892BA9F0C7DA69
:103F40000AEF1FEF882381F02090190530901A05A1
:103F5000C0911705D0911805D12CC12C10E000E0BC
:103F60002C143D04A9F47894C801DF91CF911F91DE
:103F70000F91FF90EF90DF90CF90BF90AF909F9008
:103F80008F907F906F905F904F903F902F9008950B
:103F9000C6010E94BE16882309F18B819C8103977C
:103FA000E9F48F859889892BC9F0B60190E080E00B
:103FB0007BD221E030E0882311F030E020E044247F
:103FC0005524421A530AB12CA12C912C812C8A81A0
:103FD0008815190409F038F4188A1F864FEFC41A9F
:103FE000D40A6396BDCFE881F981EA0DFB1D858176
:103FF0009681892BA1F161E070E087819085A8D33B
:104000003C01DBD28C01E881F981EA0DFB1D818541
:10401000928525813681200F311FAC01421B530B45
:104020009A0147815085421B530B70E060E00E946B
:10403000F438E881F981EA0DFB1DE780F0844581C1
:1040400056819301B601C201BBD28C01892B39F094
:10405000E881F981EA0DFB1D8581968105D55FEF29
:10406000851A950A8DE0A80EB11CB1CF30CA78949C
:1040700008952F923F924F925F926F927F929F92FC
:10408000AF92BF92CF92DF92EF92FF920F931F9366
:10409000CF93DF9300D000D0CDB7DEB700911705E6
:1040A00010911805992493940115110509F43EC047
:1040B000A0901905B0901A050ADA982E8823B1F15C
:1040C000109218051092170510921A0510921905F2
:1040D00010921B0510921C058FEF9FEFDC0180935F
:1040E0007E0290937F02A0938002B0938102789425
:1040F0007FD31E830D83C12CD12C7601C501B0E086
:10410000A0E089839A83AB83BC8322242A94322C37
:1041100089819A81AB81BC81C816D906EA06FB0663
:10412000F4F0C801A1D480E40E94FF12892D2696E4
:104130000FB6F894DEBF0FBECDBFDF91CF911F91B8
:104140000F91FF90EF90DF90CF90BF90AF909F9036
:104150007F906F905F904F903F902F900895AD812A
:10416000BE8115968D919C91169720917402309185
:10417000750282179307D1F451968D919C91EED5DB
:10418000ED81FE8180819181B12CA12C412C512C9B
:104190003201892B89F5BFEFCB1ADB0AEB0AFB0A48
:1041A000ED81FE817396FE83ED83B2CFC114D104FD
:1041B000E104F10429F7029718F7ED81FE81818966
:1041C00092898F3F980709F029D5AD81BE8152961B
:1041D0003C922E925197D4CF8A0D9B1DDC018D917C
:1041E0009C91009709F040D4BFEF4B1A5B0A6B0A11
:1041F0007B0AEDE0AE0EB11CAD81BE818D919C912C
:10420000119712964C9150E070E060E0441655060C
:10421000660677060CF328D4BECFCF93DF93EA016E
:1042200028DF811109C082E090E09983888385EFBF
:104230009FEFDF91CF91089581E090E00E94F1120D
:1042400081E090E09983888390E080E0F2CF11DFF5
:104250001092140510921305089542E050E062E3B5
:1042600073E00C940F13FF920F931F93CF93DF9380
:104270008A01EC01C60FD71FF980B9D20897F8164A
:10428000190671F068F082E090E0F8019183808374
:104290008EEF9FEFDF91CF911F910F91FF900895C7
:1042A0006C817D818E819F814B810E94A41581113B
:1042B00008C082E090E0F8019183808384EF9FEF53
:1042C000E9CFF9800E949F154F2D50E0BE01685F35
:1042D0007F4F0E94EB3889810E940E1681E090E0AA
:1042E000F8019183808390E080E0D4CFDF92EF9259
:1042F000FF920F931F93CF93DF938A01EC01C60FB8
:10430000D71F0E949F157C01D98071D2DD2059F002
:10431000029721E030E0D816190619F010F030E0CD
:1043200020E0232B79F482E090E0F80191838083F0
:104330008EEF9FEFDF91CF911F910F91FF90EF9044
:10434000DF900895EF2841F482E090E0F801918336
:10435000808384EF9FEFEECFF9800E949F154F2D51
:1043600050E0BE016E5F7F4F0E94EB3889810E9452
:104370000E1681E090E0F8019183808390E080E068
:10438000D9CF8DE291E290931E0580931D0508958B
:1043900080911D0590911E0508950895FC011182DC
:1043A0001082938382830895DB011D921C92DC01AD
:1043B0001296ED91FC9113977183608313967C9311
:1043C0006E9312970895FC0180819181DB018D939A
:1043D0009C93A081B181109741F08D919C91918324
:1043E0008083892B11F4F383E2830895FC0180819B
:1043F0009181DB018D939C93892B11F473836283EC
:10440000718360830895FC011182108293838283FB
:104410000895CF93DF931F921F92CDB7DEB71A8214
:104420001982F894BE016F5F7F4F84E295E0CBDF85
:1044300089819A81009709F017D389819A81892B04
:1044400089F7BE016F5F7F4F88E295E0BCDF89810D
:104450009A81009709F008D389819A81892B89F77D
:1044600078940F900F90DF91CF910895CF93DF93C1
:104470001F921F92CDB7DEB71A821982F894BE013F
:104480006F5F7F4F80E295E09EDF89819A81009780
:1044900009F0EAD289819A81892B89F778940F9063
:1044A0000F90DF91CF91089581E0089590E080E032
:1044B0000895EF92FF920F931F93CF93DF931F9274
:1044C0001F92CDB7DEB71A82198280911F0507EFC0
:1044D0001FEF8823A1F1F894BE016F5F7F4F88E240
:1044E00095E071DF789489819A81EE24E394F12C30
:1044F000892B51F4F894BE016F5F7F4F84E295E001
:1045000062DF7894F12CE12C89819A810EEF1FEF04
:104510000097A9F0FC014281538164E070E076D6F7
:104520008C01892B61F0F89469817A81C701880F29
:10453000991F880F991F8C5D9A4F58DF7894C80196
:104540000F900F90DF91CF911F910F91FF90EF90FF
:1045500008950F931F93CF93DF9300D01F92CDB791
:10456000DEB71C821B821A82198280911F0507EF19
:104570001FEF8823C1F0AE014D5F5F4F64E070E034
:10458000CE010196B6D68C01892B69F4E981FA81B6
:104590008B819C8193838283F89469817A8180E204
:1045A00095E002DF7894C8010F900F900F900F9064
:1045B000DF91CF911F910F910895BBD70496089575
:1045C0008F929F92AF92BF92CF92DF92EF92FF9223
:1045D0000F931F93CF93DF931F921F92CDB7DEB738
:1045E0001A821982BC016F5F7F4F6330710598F0AA
:1045F000AA24AA94BA2CC5010F900F90DF91CF91F5
:104600001F910F91FF90EF90DF90CF90BF90AF90F0
:104610009F908F9008954115510551F3480159011C
:104620008A016C01CADF8815990511F7E114F104BC
:10463000F9F28E0D9F1DA816B906D0F280911F05C4
:104640008823F1F0F894B501645071099701AE0127
:104650004F5F5F4FC8010496E1D65C01892B71F46E
:1046600089819A81F80193838283C601880F991FFB
:10467000880F991FB8018C5D9A4F96DE7894BBCF56
:1046800087EFA82EBB24BA94B6CFAF92BF92CF9239
:10469000DF92EF92FF920F931F93CF93DF931F92BE
:1046A0001F92CDB7DEB71A821982892B09F047C055
:1046B0006115710509F443C04115510509F43FC066
:1046C0002115310509F43BC001151105C1F1809197
:1046D0001F058823B9F179016A015B01F894BE01D5
:1046E0006F5F7F4F80E295E06EDE789489819A81DA
:1046F000009759F1DC0112966D917C91A801049606
:10470000A6D68C01E981FA81D501ED93FC938281D3
:1047100093810496F601918380834FDFD7018D93B7
:104720009C93C8010F900F90DF91CF911F910F9133
:10473000FF90EF90DF90CF90BF90AF9008950FEF74
:104740001FEFEFCF07EF1FEFECCF0EEF1FEFE9CF1B
:10475000CF93DF93EC01672B71F4F4D68C179D0790
:1047600060F0E7D62496C80FD91FE6D68C0F9D1FA0
:10477000DF91CF910895E3D6F1CF90E080E0F8CFBC
:104780000F931F93CF93DF9320911F0521112BC00F
:104790008B01EC0184E295E001DE88E295E0FEDD2C
:1047A00080E295E0FBDD97D00097C1F4CBD670E0B6
:1047B00060E0CEDF42E852E062E070E081D1009735
:1047C00069F48091820290918302CED6B801CE0125
:1047D00003D5009719F421E020931F05DF91CF91B5
:1047E0001F910F91089584EF9FEFF8CFA8C6AAC636
:1047F000CF93DF93AAD6EC01892B11F40ADE36DEC3
:10480000CE01DF91CF910895CF93DF939ED6EC0137
:10481000892B09F4FEDDCE01DF91CF9108958091BF
:104820008202909183020895CF93DF9380911F05B8
:10483000D0E0C0E08823D1F09CD6EC01892BB1F404
:10484000E8DD14DE8091820290918302E7D1E8D204
:10485000EC01892B59F484E295E0D5DD88E295E0FE
:10486000D2DD80E295E0CFDD10921F05CE01DF9111
:10487000CF910895EF92FF920F931F93CF93DF9301
:10488000EC017A018B010F5F1F4F0E9DA0010F9D60
:10489000500D1E9D500D112470E060E00E94F43810
:1048A00090E080E0F0E0E0E02FEFE816F90639F460
:1048B000DF91CF911F910F91FF90EF9008951A8291
:1048C00019822883309711F0D283C1830196FE01AB
:1048D000C00FD11FEACFCF92DF92EF92FF920F93DA
:1048E0001F93CF93DF9309E017E00C7F43E050E084
:1048F00064E872E08AE892E01CD484E8E82E82E062
:10490000F82E9AE8C92E92E0D92EC0EAD7E0D70156
:104910004D915D917D01F601619171916F01198356
:1049200008835D834C835B834A837F836E839B0113
:104930002F5F3F4F249FC001259F900D349F900D06
:104940001124998788870115110511F0C80192DF9C
:1049500088859985080F191F2A96FAE8EF16F2E064
:10496000FF06A9F6EEE2F5E088ED91E0DF019C019B
:104970001D9221503040E1F710922D0510922C0528
:104980001092BF071092BE071092C3071092C20781
:104990001092C1071092C0071092C5071092C40769
:1049A0001092C7071092C6071092C9071092C80745
:1049B0001092CD071092CC071092CB071092CA0725
:1049C0001092CF071092CE071092D1071092D00705
:1049D00010929D0710929C0710929F0710929E07BD
:1049E00090E080E0DF91CF911F910F91FF90EF90C9
:1049F000DF90CF9008950097F1F0F894AAE8B2E024
:104A0000E0EAF7E030E020E04D915D91481759076A
:104A1000A8F0428153814115510581F08AE0829FBF
:104A2000F001839FF00D1124E056F84F80819181B1
:104A3000009759F4789490E080E008952F5F3F4FFD
:104A40003A962330310501F7F5CFDC0111966D91CF
:104A50007C91718360834150510953834283FC01EF
:104A60002193CF0178940895009749F1DC018E914C
:104A7000853041F4E0919E07F0919F073097F9F05F
:104A8000CD0119948530D8F4282F30E0F8948FEFB9
:104A90008C938AE0829FF001839FF00D1124E056F1
:104AA000F84F8081918112969C938E931197B183D8
:104AB000A083828193810196938382837894089561
:104AC000CF92DF92EF92FF920F931F93CF93DF93DA
:104AD0009C0181E395E08C7F4115510509F49BC051
:104AE0002115310509F497C06115710509F493C0CA
:104AF0007A01AB01B9016D5F7F4F6C7F9B012F5F26
:104B00003F4F249F8001259F100D349F100D1124CD
:104B1000F8942091BE073091BF07232B59F42091C0
:104B2000C6073091C7072115310569F120173107F4
:104B300008F058C02091C8073091C907232B91F481
:104B40002091C6073091C707820F931F2091D0078D
:104B50003091D1072115310509F441C020173107E3
:104B600008F056C07894CFEFDFEF86EF9FEFF701A4
:104B7000D183C083DF91CF911F910F91FF90EF9070
:104B8000DF90CF900895C3E0D0E0C0902C05D09086
:104B90002D0525ED31E02C193D092017310710F3C3
:104BA0002AE02C9FF0012D9FF00D1124E056F84FC4
:104BB00091838083558344835383428377836683C1
:104BC00011870087009709F055DE0C0D1D1D10930D
:104BD0002D0500932C05789490E080E0C8CFC4E0C8
:104BE000D0E0D3CFC3E0D0E02AE02C9FF0012D9F8E
:104BF000F00D1124E056F84F918380835583448350
:104C00005383428377836683009729F333DEE3CFB0
:104C1000C4E0D0E0E9CF8FEF9FEFACCF9C010397CA
:104C2000029708F069C0F89484E09AE0482F50E0B9
:104C3000241735070CF44DC091E08AE0829FF00103
:104C4000839FF00D1124E056F84F118210821582D7
:104C5000148213821282178216829923B1F18091F5
:104C6000BE079091BF07892BA9F42091C607309108
:104C7000C7072115310571F080912C0590912D0504
:104C8000821B930B90932D0580932C051092C707E0
:104C90001092C6078091C8079091C907892BA9F483
:104CA0002091D0073091D1072115310571F0809105
:104CB0002C0590912D05821B930B90932D058093CD
:104CC0002C051092D1071092D007789490E080E0E4
:104CD0000895949FF001959FF00D1124E056F84F30
:104CE00040815181452B31F440855185452B11F48C
:104CF00081509CCF90E0A1CF8FEF9FEF0895411599
:104D0000510549F1009739F16115710521F1F894C8
:104D100020919C0730919D07232BB9F420919E0789
:104D200030919F07232B89F490939D0780939C07D4
:104D300070939F0760939E07789425E030E090E0A1
:104D400080E0FA0131832083089578942FEF3FEFBC
:104D500086EF9FEFF6CF8FEF9FEF0895059769F4E9
:104D6000F89410929D0710929C0710929F07109242
:104D70009E07789490E080E008958FEF9FEF08956C
:104D80006115710519F4F0E0E0E011C0853091057E
:104D900081F4E0919C07F0919D073097A1F3CB013E
:104DA00001961995009779F3FC0185E08193CF0175
:104DB00008959C01235031092230310520F72AE063
:104DC000289FD001299FB00D1124A056B84F2D91D6
:104DD0003C911197232BB9F216962D913C91179780
:104DE0002617370780F2F89412962D913C9113976D
:104DF0002115310529F0ED91FC911197309711F4AF
:104E00007894C1CF4181528111965C934E93215089
:104E1000310913963C932E93129781937894C7CFC0
:104E2000E6E0F7E086E9DF011D928A95E9F7EEE218
:104E3000F5E088ED91E0DF019C011D9221503040AA
:104E4000E1F710922D0510922C05E0EAF7E082E3DD
:104E5000DF011D928A95E9F7ECE9F7E084E0DF01D4
:104E60001D928A95E9F790E080E00895CF93DF9353
:104E7000C0919002D0919102CF3FDC0759F461D5E7
:104E8000909391028093900297FF09C0D093910272
:104E9000C093900284EF9FEFDF91CF91089590E04F
:104EA00080E0FACF8230910528F48093D20790E019
:104EB00080E008958FEF9FEF08954F925F926F9279
:104EC0007F92AF92BF92CF92DF92EF92FF920F93B9
:104ED0001F93CF93DF931F921F92CDB7DEB71A8235
:104EE0001982009709F479C06115710509F475C03C
:104EF000209190023091910207EF1FEF2F3F3F4F1B
:104F000009F445C06B015C01412C512C3201F12C9C
:104F1000E12C10E000E09E012F5F3F4FA6014E19EB
:104F20005F09B5016E0D7F1D8091900290919102F5
:104F30006CD5892B09F04BC089819A81009741F487
:104F4000E114F10429F42091D207222309F442C08C
:104F5000E80EF91EEC14FD04D0F480E8481684E84D
:104F600058068EE16806710420F560E070E0CB0120
:104F70000E9486322AE0420E511C611C711C0A3FBD
:104F80004FEF140721F0043F8FEF1807A1F4C80179
:104F90000F900F90DF91CF911F910F91FF90EF90A5
:104FA000DF90CF90BF90AF907F906F905F904F90C9
:104FB000089501EF1FEF81E090E0013F2FEF12070E
:104FC00011F090E080E0892B09F4A5CFE0CF04EF49
:104FD0001FEFDDCF0AEF1FEFDACF0FEF1FEFD7CFB5
:104FE0004F925F926F927F92AF92BF92CF92DF9279
:104FF000EF92FF920F931F93CF93DF931F921F9215
:10500000CDB7DEB71A821982009709F479C061150D
:10501000710509F475C0209190023091910207EF5B
:105020001FEF2F3F3F4F09F445C06B015C01412C3E
:10503000512C3201F12CE12C10E000E09E012F5F99
:105040003F4FA6014E195F09B5016E0D7F1D80917E
:105050009002909191028CD4892B09F04BC08981E8
:105060009A81009741F4E114F10429F42091D207C8
:10507000222309F442C0E80EF91EEC14FD04D0F41A
:1050800080E4481682E458068FE06806710420F533
:1050900060E070E0CB010E9486322AE0420E511C93
:1050A000611C711C0E3F4FEF140721F0043F8FEF7E
:1050B0001807A1F4C8010F900F90DF91CF911F91B5
:1050C0000F91FF90EF90DF90CF90BF90AF907F90C7
:1050D0006F905F904F90089502EF1FEF81E090E096
:1050E000023F2FEF120711F090E080E0892B09F4C6
:1050F000A5CFE0CF04EF1FEFDDCF0EEF1FEFDACF2C
:105100000FEF1FEFD7CF80919002909191028F3FC8
:10511000980749F00ED4892B49F48FEF9FEF9093B5
:1051200091028093900290E080E0089584EF9FEFD9
:105130000895CF92DF92EF92FF920F931F93CF9338
:10514000DF9321E04115510509F020E0415051095C
:1051500021112CC0DC01FB01D12CC12C21E022C08B
:105160003FEFC31AD30A7D010D911D91E701EA803B
:10517000FB80E016F106A8F420813181E280F38003
:10518000F182E08233832283ED90FC9011979D01A0
:1051900022503109E901F982E88211961C930E939D
:1051A00020E03296C416D506D8F2D2CFDF91CF9147
:1051B0001F910F91FF90EF90DF90CF900895FC0129
:1051C000680F791F90E080E0E617F70709F408956B
:1051D0002191820F911DF8CF2091D307211113C087
:1051E00045DE009791F41092D9071092D8071092DB
:1051F000D7071092D6071092D5071092D40721E056
:105200002093D307089584EF9FEF0895AF92BF9244
:10521000CF92DF92EF92FF920F931F93CF93DF9382
:10522000009709F460C04630510508F45CC0209135
:10523000D307C7EFDFEF222309F449C08C01060F23
:10524000171FF801C080D180C114D10409F44EC0E9
:1052500096012A5F3F4F4217530708F447C07C016D
:105260008091D8079091D90793838283B6016C5FB0
:105270007F4F5801A60EB71EC801A1DFF50191832B
:10528000808364E070E0C80118DEEC01892BF9F43A
:1052900081E090E007DEB601C80104960EDEEC0165
:1052A000892B91F462E070E0C50107DEEC01892BE7
:1052B00059F4C701D9DB8091D8079091D90701969D
:1052C0009093D9078093D80790E080E0EBDDCE0182
:1052D000DF91CF911F910F91FF90EF90DF90CF90D2
:1052E000BF90AF900895CFEFDFEFF1CFC9EFDFEFC1
:1052F000EECF6F927F928F929F92AF92BF92CF929A
:10530000DF92EF92FF920F931F93CF93DF9300D022
:105310001F92CDB7DEB7009709F47AC04115510549
:1053200009F476C02091D30707EF1FEF222309F479
:105330004DC03A017B015C0164E070E0CE01019652
:105340004FDE8C01892B09F041C009811A810115BA
:10535000110509F45AC0480186E0880E911CB70176
:10536000680D791D809192029091930209DD6C0184
:10537000009709F450C0A70170E060E00E94F43883
:1053800089819A81AB81BC81EC0CFD1CF701819372
:105390009193A193B1937F0181E090E083DDB80107
:1053A000C7011EDE892B31F562E070E0C701800F76
:1053B000911F16DE8C01892BE9F490E080E072DD0C
:1053C000F501D182C082F30191828082C8010F90E1
:1053D0000F900F900F90DF91CF911F910F91FF9041
:1053E000EF90DF90CF90BF90AF909F908F907F9085
:1053F0006F90089590E080E055DDF50111821082F4
:10540000F30111821082C6012FDB09EF1FEFDECFFF
:105410000FEF1FEFDBCF06EF1FEFD8CF0097A1F004
:105420004115510589F02115310571F0F9013696C4
:105430006E177F0748F0DC012D933C93DA01ED9362
:10544000FC9390E080E008958FEF9FEF0895AF9276
:10545000BF92CF92DF92EF92FF920F931F93CF9361
:10546000DF93009709F45FC04115510509F45BC053
:105470006530710508F457C02091D307C7EFDFEFFF
:10548000222391F1DC01CD90DC9011971296ED91E1
:10549000FC9196012A5F3F4FC9EFDFEF26173707D0
:1054A00019F5C091D407D091D507209749F521E08F
:1054B00030E03093D5072093D4077A018C01F09324
:1054C000D707E093D6075601B4E0AB0EB11CB50187
:1054D00076DE0A0D1B1DF8012081318182179307AA
:1054E00029F5D701CD92DC92CE01DF91CF911F91AA
:1054F0000F91FF90EF90DF90CF90BF90AF90089505
:105500002091D6073091D7072F5F3F4FCCEFDFEFC9
:10551000E217F30790F2CBEFDFEF2E173F0768F2A9
:10552000D0E0C0E0CACFCFEFDFEFDECFC3EFDFEFD9
:10553000DBCF84E090E0089582E090E008958CEF66
:105540009FEF089580E290E008951092D90710929D
:10555000D8071092D7071092D6071092D50710924D
:10556000D40790E080E00895909393028093920294
:1055700008958091D307882391F0C5DD009789F4C1
:105580001092D9071092D8071092D7071092D60719
:105590001092D5071092D4071092D307089590E087
:1055A00080E00895009749F06115710531F0FC0124
:1055B00011821082FB01118210820895F3CF0297AD
:1055C0008431910540F4825C9C4FFC018081082E5F
:1055D000000C990B08958FEF9FEF0895CF93DF9301
:1055E000EC0170E060E06C177D071CF0DF91CF915B
:1055F0000895072E000C880B990BDCD320E030E0D7
:10560000A901C2D220E030E0A901BED220E030E002
:1056100040E450E4B9D220E030E040E450E4B3D2BA
:1056200096D36F5F7F4FDFCFCF93DF938091DC07FF
:105630009091DD070E94E434EC018091E0079091A5
:10564000E107CCDF8091DA079091DB070E94E43418
:10565000019771F48091DE079091DF07CD2B71F4F3
:1056600001969093DF078093DE07DF91CF91089535
:105670008091DE079091DF07219791F30197F1CF99
:105680000F931F93CF93DF93EC018A0120E030E06A
:1056900040E85FE3DB016D917D918D919C91EBD2B0
:1056A00081110FC0D801EC91B8E0EB9FF0011124FB
:1056B000E652F84F8481958191958195910999835E
:1056C0008883DF91CF911F910F910895CF92DF9240
:1056D000EF92FF920F931F93CF93DF937B01EA0129
:1056E00020E030E040E85FE3DB016D917D918D913A
:1056F0009C91C1D2882309F45BC0E881D8018C91C8
:1057000090E0B8E0EB9FF0011124E652F84F91834E
:105710008083E881D6018C9190E0B8E0EB9FF001A6
:105720001124E652F84F93838283E88128E0E29FB8
:10573000F0011124E652F84F8081918160E00E94CF
:105740007B34E88188E0E89FF0011124E652F84FAD
:105750008281938160E00E947B34E881A8E0EA9F27
:10576000F0011124E652F84F8081918161E00E949E
:10577000B734E881B8E0EB9FF0011124E652F84F0E
:105780008281938161E00E94B7348091DA07909121
:10579000DB0715DF41E050E064E17BE276D480E096
:1057A00090E0A0E8BFE3F70180839183A283B383F5
:1057B000DF91CF911F910F91FF90EF90DF90CF90ED
:1057C000089526E030E040E855E260E070E090E0C7
:1057D00080E000C01092F3071092F2078930910523
:1057E00008F03BC0FC018827E750F44D8F4F0C9424
:1057F000CA38022C0C2C152C1E2C272C2E2C312CAC
:10580000342C3A2C81E090E09093F3078093F207D8
:1058100081E098E00C94D63582E090E09093F30715
:105820008093F2078EE998E0F5CF84E090E09093C2
:10583000F3078093F2078BE399E0ECCF88E090E0E8
:105840009093F3078093F20788ED99E0E3CF80E12E
:1058500090E09093F3078093F207089580E290E040
:10586000F8CF80E490E0F5CF80E890E09093F307E4
:105870008093F2078091F2079091F3079160E9CF4E
:105880001F920F920FB60F9211240BB60F922F9307
:105890003F934F935F936F937F938F939F93AF93B8
:1058A000BF93EF93FF938EE19BEF9093250180933D
:1058B0002401BFD0FF91EF91BF91AF919F918F9144
:1058C0007F916F915F914F913F912F910F900BBE00
:1058D0000F900FBE0F901F9018958EE19BEF909345
:1058E000250180932401A3E7B0E08C918E7F8C93F7
:1058F000E0E2F1E080818C7F8083E1E2F1E0808171
:10590000877E808380818360808380818B7F80839A
:105910008C9181608C930895E3E7F0E08081908121
:105920009E7F90838170089581E008951092F4071E
:10593000089568EE73E080E090E0E8D590E080E0C4
:10594000089526E030E040E050E16EE070E090E045
:1059500080E040DF81E098E00E940C35892B29F03F
:1059600081E098E00E942635F5CF90E080E0089530
:10597000CF92DF92EF92FF920F931F93CF93DF931B
:105980006B017A01E9011982188281E098E00E9496
:105990000C35892B79F18601CC24C39482E0D82E72
:1059A0008091F407811111C081E098E00E942635B2
:1059B0000297B1F7C092F407F801D1928F01888164
:1059C0009981019699838883EBCF888199818E157F
:1059D0009F0580F481E098E00E9426358F3F98076C
:1059E000A1F3F80181938F018881998101969983B0
:1059F0008883EBCF90E080E0DF91CF911F910F91F2
:105A0000FF90EF90DF90CF9008950F931F93CF9367
:105A1000DF93EA01890181E098E00E946638F8018D
:105A2000D183C08390E080E0DF91CF911F910F91EF
:105A300008958091F50791E0980F9093F5078823DA
:105A400049F021E030E03093F7072093F607809388
:105A5000F507089578940E94A805F8948091F507B9
:105A60008150F5CF0F931F93CF93DF931092520B7A
:105A70001092510B81D5A5DEC091B802D091B90228
:105A80001982188260E971E080E090E00E944E0582
:105A900070E060E090E080E00E94C903009709F0A8
:105AA00042C00E943D0BF8947894BE0169557F4F27
:105AB0008A819B810E94CC03892B71F46FEF7FEF69
:105AC000CB010E945D040E944805882329F081E0F3
:105AD000FE01E355FF4F8083F894FFDE0E944B05E3
