:1000000061C000000C94BC170C94E31783C000007F
:1000100081C000007FC000007DC000007BC00000E8
:1000200079C0000077C0000075C0000073C00000F8
:1000300071C000000C94F3136DC000006BC0000091
:100040000C940A1867C000000C94F51A0C94271B36
:1000500061C000005FC000005DC000005BC0000028
:1000600059C0000057C00000000000080002010055
:100070000003040700000000000000000102040863
:100080001020408001020408102001020408102002
:10009000040404040404040402020202020203032E
:1000A00003030303000000002300260029000000D2
:1000B0000000250028002B0000000000240027007D
:1000C0002A004C1B11241FBECFEFD8E0DEBFCDBFEE
:1000D00011E0A0E0B1E0E0E5FCE302C005900D9284
:1000E000A03CB107D9F724E0A0ECB1E001C01D921B
:1000F000A73EB207E1F710E0C2E6D0E004C02197C6
:10010000FE010E941C1EC136D107C9F70E9495143A
:100110000C94261E75CF611102C00C943A196130FF
:10012000E1F362E0FACF662319F061E00C947619EE
:1001300060E0FCCFCF93282F8823E1F0CB01BA01F8
:10014000CFEFC20FEC2FF0E0E054FE4F20812130C2
:1001500059F490580E94B5159B01AC016C2F70E0CA
:1001600090E080E0CF91A2C00E94B0158C2FCF917B
:100170000C94B618CF9108950F931F938B019C0197
:1001800083E036952795179507958A95D1F70C52F8
:100190001E4F462F477021E030E0F90102C0EE0FFC
:1001A000FF1F4A95E2F7AF01F80120812423CB011C
:1001B0000196211102C090E080E01F910F910895F7
:1001C0000F931F938B019C0183E03695279517951C
:1001D00007958A95D1F7677081E090E001C0880F9C
:1001E0006A95EAF7F801EC52FE4F2081452B31F475
:1001F0008095822380831F910F910895822BFACFDF
:100200004F925F926F927F928F929F92AF92BF9226
:10021000CF92DF92EF92FF920F931F93CF93DF93D2
:100220004B015C0129013A01670161E0882D0E94C0
:100230003A19E4012196AE01C501B401C1DF20E005
:1002400030E0A901C801B6010E94341718168CF4D9
:10025000F401E054FE4F81E08083C801B6010E94A2
:10026000B5156B01C301B2010E94B515A601C40109
:1002700021D0CE01DF91CF911F910F91FF90EF9090
:10028000DF90CF90BF90AF909F908F907F906F90B6
:100290005F904F900895882341F08150682F70E05F
:1002A00090E080E050E040E08BCF0895862FB901C8
:1002B0000C94B6189C01FC01E859FF4FE491E3301F
:1002C00061F140F4E13011F1E23021F160E0822F80
:1002D0000C947619E730C1F1E83009F441C0E430FC
:1002E000A9F7809180008C7F82608093800090913C
:1002F0008100907E9061692B60938100509387000C
:10030000409386008091800080621BC084B5806825
:1003100084BDDCCF84B58062FBCF809180008C7F70
:1003200082608093800090918100907E9061692B23
:1003300060938100509387004093860080918000F5
:10034000806880938000C2CF8091B00080688093E5
:10035000B0008091B100887F682B6093B100B6CF68
:100360008091B0008062F3CFCF93DF93882349F070
:10037000EB0181500E949B1899838883DF91CF9174
:100380000895FB0111821082F9CF0F931F938B0107
:100390009C0183E036952795179507958A95D1F7A7
:1003A00003521E4F462F477021E030E0F90102C092
:1003B000EE0FFF1F4A95E2F7AF01F80120812423D9
:1003C000CB010196211102C090E080E01F910F91B6
:1003D00008950F931F938B019C0183E03695279519
:1003E000179507958A95D1F7677081E090E001C075
:1003F000880F6A95EAF7F801E352FE4F2081452BFA
:1004000031F48095822380831F910F910895822B70
:10041000FACFCF92DF92EF92FF92CF93DF936B01EF
:100420007C0160E08EE0C816D104E104F10490F490
:100430008EE08C0D0E943A19E6012196AE01C701AB
:10044000B601C7DFCE01DF91CF91FF90EF90DF9033
:10045000CF9008958C2DEECF882341F08150682FE6
:1004600070E090E080E050E040E0B3CF0895AB0151
:10047000BC0180EC92E00C94D21D8F929F92AF92BF
:10048000BF92CF92DF92EF92FF920F931F93CF9381
:10049000DF93CDB7DEB77B014A015901CDB6DEB699
:1004A0009B01220F331F4DB75EB7421B530B0FB694
:1004B000F8945EBF0FBE4DBF0DB71EB70F5F1F4F45
:1004C000E82FF0E0EE0FFF1FEC5FFE4F0190F08190
:1004D000E02DC8010995F801D401E00EF11EEE15DA
:1004E000FF0519F081918D93FACF81E0F5018083AA
:1004F0000FB6F894DEBE0FBECDBEDF91CF911F9137
:100500000F91FF90EF90DF90CF90BF90AF909F90B2
:100510008F9008952F923F924F925F926F927F92A9
:100520008F929F92AF92BF92CF92DF92EF92FF9203
:100530000F931F93CF93DF93CDB7DEB72A970FB6F4
:10054000F894DEBF0FBECDBF682E7A876987742E00
:10055000B52E3C832B8348012A2C312C4E2C512C58
:1005600081E090E0012B11F490E080E0849D900107
:10057000859D300D949D300D112449855A85420F7B
:10058000531F5A834983062D10E0000F111FF801F5
:10059000E050FF4F0190F081E02D099541E050E0DF
:1005A000C114D10411F450E040E0429D9001439DFC
:1005B000300D529D300D1124A981BA812A0F3B1FA5
:1005C000821793075CF5E72DFB2D29853A852E0FC1
:1005D0003F1F3A83298349815A81E417F50711F0B7
:1005E0001192F9CFAB81BC811C922A960FB6F89478
:1005F000DEBF0FBECDBFDF91CF911F910F91FF9056
:10060000EF90DF90CF90BF90AF909F908F907F90B2
:100610006F905F904F903F902F900895C114D10438
:1006200009F441C0F12CE12CF801E050FF4FFE83AA
:10063000ED8398012E5F3E4F38872F83AD81BE81B9
:10064000ED91FC91E214F30474F50995892B81F482
:10065000E72DFB2D29853A852E0F3F1F3A832983ED
:1006600049815A81E417F50709F4BCCF1192F8CFFC
:10067000AF81B885ED91FC910995F601EE0DFF1D56
:100680009081981761F021E030E0F6019081981395
:1006900002C030E020E0EE24FF24E21AF30AFFEF6C
:1006A000EF1AFF0ACBCF980120503F4F6901D901C3
:1006B000ED91FC910995E981FA818E179F0784F4E9
:1006C000E72DFB2D29853A852E0F3F1F3A8329837D
:1006D00049815A81E417F50709F484CF1192F8CFC4
:1006E0002B813C81472D5B2D69857A85862DC5DE62
:1006F0008114910409F479CF74010E5F1E4FC70174
:1007000088199909841595050CF06FCFD601ED91E4
:10071000FC910995892B81F4E72DFB2D29853A85DC
:100720002E0F3F1F3A83298349815A81E417F50729
:1007300009F458CF1192F8CFD801ED91FC910995A9
:10074000F70191917F019817D1F2E72DFB2D2985B3
:100750003A852E0F3F1F3A83298349815A81E41736
:10076000F50709F43FCF1192F8CF80EC92E00C949A
:10077000E51980EC92E00C94CB1908952F923F92EA
:100780004F925F926F927F928F929F92AF92BF92A1
:10079000CF92DF92EF92FF920F931F93CF93DF934D
:1007A000CDB7DEB72B013A01F02E9C2D2D883E8867
:1007B000BF88688D798D4A8D8111F2C0C22ED12CEF
:1007C00088E0C816D10419F484E0C82ED12C0AE0C0
:1007D00010E0992351F000E110E0913031F008E091
:1007E00010E0923011F002E010E0F11031C061151C
:1007F000710529F050E080EC92E00E94791BC69CC4
:10080000A001C79C500DD69C500D1124B20180EC64
:1008100092E00E94791B2114310409F4C1C04B2DD0
:1008200050E0B10180EC92E0DF91CF911F910F91E8
:10083000FF90EF90DF90CF90BF90AF909F908F9000
:100840007F906F905F904F903F902F900C94791B0A
:10085000B40180EC92E00E94B51BE6E0EE1508F4CE
:100860009FC0EE2DF0E0E95CFB4F0C941C1E55047C
:1008700068047C049204A704BA043E04B12C81E00D
:10088000681A710808F48CC0F2014191519161918C
:1008900071912F01F1E0950180EC92E0FF127DC093
:1008A0000E94951DECCF0E948D1C6A94FFEF6F167D
:1008B00009F476C0F20161912F01F1E0A80180EC0A
:1008C00092E0FF12F0CF0E94871CEFCF0E94A21C83
:1008D0006A948FEF681609F463C0F2016191719117
:1008E0002F01F1E0A80180EC92E0FF12EFCF0E940F
:1008F0009D1CEECF0E94B21C6A948FEF681609F41B
:100900004FC0F20141915191619171912F01F1E03C
:10091000980180EC92E0FF12EDCF0E947B1CECCF9F
:100920000E945B1C6A948FEF6816D1F1F20161910D
:100930002F01062E000C770BF1E0A80180EC92E06D
:10094000FF12EECF0E94551CEDCF0E945B1C6A94F3
:100950008FEF681629F1F201619171912F01F1E099
:10096000A80180EC92E0FF12F0CF0E94551CEFCF5F
:100970000E946B1C6A948FEF681691F0F20141910E
:100980005191619171912F01F1E0980180EC92E019
:10099000FF12EECF0E94101CEDCF0E94961D6FCF6C
:1009A000DF91CF911F910F91FF90EF90DF90CF904B
:1009B000BF90AF909F908F907F906F905F904F907F
:1009C0003F902F9008958F929F92AF92BF92CF92B7
:1009D000DF92EF92FF924B015C010E948411882309
:1009E00099F0C090C704D090C804E090C904F0907A
:1009F000CA04C701B601FF90EF90DF90CF90BF907F
:100A0000AF909F908F900895C501B4010E9441114D
:100A10008111E7CF20E030E0A901C501B4010E94B7
:100A20004415882329F120E030E040E050E4C5017E
:100A3000B4010E9438166B017C0120E030E0A9016E
:100A40000E9444158823A1F020E030E0A901C501EF
:100A5000B4010E94441587FFCCCF20E030E040E095
:100A600050E4C701B6010E94CD146B017C01C1CFD7
:100A7000C12CD12C7601BDCFFC0191E080917F0289
:100A8000811190E092830895CF92DF92EF92FF92CE
:100A90006B017C019F7720E030E040E859E50E943F
:100AA000441587FF2BC020E030E040E05FE3C70142
:100AB000B6010E94341787FD0EC020E030E040E010
:100AC0005FE3C701B6010E94CD14FF90EF90DF9065
:100AD000CF900C941E1620E030E040E05FEBC701A1
:100AE000B6010E943417181684F420E030E0A90102
:100AF000C701B6010E9438176B017C01C701B6011E
:100B0000FF90EF90DF90CF90089520E030E040E03C
:100B10005FE3C701B6010E94CC14FF90EF90DF9015
:100B2000CF900C9431152F923F924F925F926F921B
:100B30007F928F929F92AF92BF92CF92DF92EF926D
:100B4000FF920F931F93CF93DF93CDB7DEB7A39799
:100B50000FB6F894DEBF0FBECDBF80917F0290919B
:100B60007E02911105C091E0811190E09093800286
:100B70008F5F8A3008F0A3C280937F02E0917304F4
:100B8000F091740480819181A281B3818093790472
:100B900090937A04A0937B04B0937C048481958124
:100BA000A681B78180937D0490937E04A0937F04F7
:100BB000B093800480859185A285B385809381045C
:100BC00090938204A0938304B0938404C0901E0188
:100BD000D0901F01E0902001F0902101A701960123
:100BE00060918303709184038091850390918603C3
:100BF0000E944415882341F0C0928303D09284035D
:100C0000E0928503F0928603C0902201D0902301E8
:100C1000E0902401F0902501A701960160918703DF
:100C2000709188038091890390918A030E944415F2
:100C3000882341F0C0928703D0928803E092890311
:100C4000F0928A0360918B0370918C03A12CD12CBC
:100C5000C12CE12C10E000E09E012D5F3F4F45E8E4
:100C600054E080E057DC8B818130A1F560918504F0
:100C700070918604809187049091880405DF6B0150
:100C80007C01C092B504D092B604E092B704F09211
:100C9000B80420E030E040E053E40E94441587FFB0
:100CA00019C020E030E040E053ECC701B6010E94DB
:100CB000341787FD0FC0C701B6010E94B01563301D
:100CC00009F44EC20CF0FEC1613009F419C2623061
:100CD00009F42EC280910D0490910E04A0910F048E
:100CE000B09110048093A5049093A604A093A70448
:100CF000B093A804609111047091120480911304C0
:100D0000909114046093A9047093AA048093AB0497
:100D10009093AC04B9DE6B017C01C092B504D09213
:100D2000B604E092B704F092B80420E030E040E866
:100D300053E40E9444156FEF87FF0EC020E030E0BF
:100D4000A901C701B6010E94341760E087FD04C005
:100D5000C701B6010E94B51582E0E5D9609115047E
:100D60007091160480911704909118048DDE6B0128
:100D70007C01C092B504D092B604E092B704F09220
:100D8000B80420E030E040E853E40E9444156FEFDF
:100D900087FF0EC020E030E0A901C701B6010E9424
:100DA000341760E087FD04C0C701B6010E94B51585
:100DB00083E0B9D96091190470911A0480911B04E1
:100DC00090911C0461DE6B017C01C092B504D0924D
:100DD000B604E092B704F092B80420E030E040E8B6
:100DE00053E40E9444156FEF87FF0EC020E030E00F
:100DF000A901C701B6010E94341760E087FD04C055
:100E0000C701B6010E94B51584E08DD96091A50493
:100E10007091A6048091A7049091A80435DE6B011F
:100E20007C01C092B504D092B604E092B704F0926F
:100E3000B80420E030E040E853E40E9444156FEF2E
:100E400087FF0EC020E030E0A901C701B6010E9473
:100E5000341760E087FD04C0C701B6010E94B515D4
:100E600085E061D960911D0470911E0480911F047A
:100E70009091200409DE6B017C01C092B504D092F0
:100E8000B604E092B704F092B80420E030E040E805
:100E900053E40E9444156FEF87FF0EC020E030E05E
:100EA000A901C701B6010E94341760E087FD04C0A4
:100EB000C701B6010E94B51586E035D9AA24A394CE
:100EC000B12CA0E7CA2EA1E0DA2EEE24E394F12C97
:100ED0000FE611E021E030E04EE651E06DED73E009
:100EE00089EB94E00E94E4114090A5045090A60480
:100EF0006090A7047090A80420E030E0A901C3012D
:100F0000B2010E9444152090B9043090BA048111B6
:100F10007EC08090150490901604A0901704B090A5
:100F2000180420E030E0A901609135047091360486
:100F300080913704909138040E94441520E030E0FD
:100F4000A9018111B6C1C501B4010E9444158111E6
:100F50002FC0109231041092320410923304109278
:100F60003404109235041092360410923704109213
:100F700038041092390410923A0410923B041092F3
:100F80003C041092410410924204109243041092C7
:100F900044041092450410924604109247041092A3
:100FA0004804E9E4F4E088E2DF011D928A95E9F75C
:100FB000C0903104D0903204E0903304F0903404B7
:100FC00020E030E0A901C701B6010E94441581115B
:100FD000F7C010922D0410922E0410922F0410923C
:100FE000300420E030E040E85FE3C501B4010E9436
:100FF000441581110CC080E090E0A0E8BFE380932D
:10100000310490933204A0933304B093340480905D
:10101000350490903604A0903704B0903804B101A4
:10102000330C880B990B0E94E3156B017C0120E0C7
:1010300030E040E85FE3C501B4010E94441581112E
:101040005FC120914504309146044091470450917E
:10105000480460E070EC8CEA94EC0E94CC14A70188
:1010600096010E94CD146B017C01C092B104D09214
:10107000B204E092B304F092B40420E030E040E81F
:101080005FE36091190470911A0480911B049091A0
:101090001C040E944415882309F43BC180912D044F
:1010A00090912E04A0912F04B09130048093B50448
:1010B0009093B604A093B704B093B80455C11092AE
:1010C0007F025CCD643009F463C0653009F002CE64
:1010D00020E030E040E85FE360911D0470911E0461
:1010E00080911F04909120040E94CD146CDC6093C9
:1010F0001D0470931E0480931F0490932004EACD76
:1011000020E030E040E85FE3609111047091120448
:1011100080911304909114040E94CD1454DC6093C8
:101120001104709312048093130490931404D2CD8D
:1011300020E030E040E85FE3609115047091160410
:1011400080911704909118040E94CD143CDC6093A8
:101150001504709316048093170490931804BACD65
:1011600020E030E040E85FE36091190470911A04D8
:1011700080911B0490911C040E94CD1424DC609388
:10118000190470931A0480931B0490931C04A2CD3D
:1011900020E030E040E85FE360910D0470910E04C0
:1011A00080910F04909110040E94CD140CDC609388
:1011B0000D0470930E0480930F04909310048ACD55
:1011C00020E030E040E85FE3C701B6010E9444152B
:1011D000811111C080E090E0A6E9B3EC80932D046A
:1011E00090932E04A0932F04B093300480E090E0FD
:1011F000A0E0B0E404CF8090390490903A04A0902D
:101200003B04B0903C0420E030E046E153E4C501EB
:10121000B4010E94441581113BC0B101032C000CA4
:10122000880B990B0E94E3154B015C0109E414E063
:10123000E1E7CE2EE4E0DE2EF8016191719181911B
:1012400091918F01A50194010E9444158111B4C4AC
:10125000C016D10689F710922D0410922E04109218
:101260002F041092300480E090E0A0E8BFE3809368
:10127000350490933604A0933704B09338048092D9
:10128000450490924604A0924704B0924804BFCE11
:1012900020E030E040E85FE3C501B4010E94CD14D6
:1012A0006093390470933A0480933B0490933C0418
:1012B000AECEC501B4010E9444158111A8CE109292
:1012C00031041092320410923304109234041092BC
:1012D000350410923604109237041092380410929C
:1012E000390410923A0410923B0410923C0410927C
:1012F000450410924604109247041092480487CE89
:10130000C092B104D092B204E092B304F092B4045B
:10131000C5CEA70196016091290470912A0480919D
:101320002B0490912C040E94CC146B017C019F77BC
:1013300020E030E040E85FE30E94441587FD11C4DF
:10134000A7019601609125047091260480912704DD
:10135000909128040E9438176093B5047093B604E6
:101360008093B7049093B8048B81813081F480918D
:10137000890490918A04A0918B04B0918C0480938D
:10138000090490930A04A0930B04B0930C0420E08A
:1013900030E0A901C301B2010E944415811110C0BF
:1013A0008091B5049091B604A091B704B091B804AF
:1013B0008093210490932204A0932304B0932404E7
:1013C00020E030E040E85FE3C301B2010E94441531
:1013D00081112AC020E030E040E85FE3C501B4019C
:1013E0000E944415811120C020E030E040E85FE316
:1013F00060911D0470911E0480911F04909120043F
:101400000E9444158111B6C38091090490910A0489
:10141000A0910B04B0910C048093210490932204BA
:10142000A0932304B093240480912104909122047A
:10143000A0912304B09124048093AD049093AE0452
:10144000A093AF04B093B004C0901201D0901301E8
:10145000E0901401F0901501A701960160919903A5
:1014600070919A0380919B0390919C030E94441574
:10147000882341F0C0929903D0929A03E0929B0393
:10148000F0929C0363E170E080E090E00E94C5016F
:10149000909398038093970343E050E0BE016F5F01
:1014A0007F4F0E94B40169817A8190E080E00E94C0
:1014B000E1152B013C0140928D0450928E04609204
:1014C0008F047092900420917D0430917E044091AD
:1014D0007F04509180046091790470917A04809126
:1014E0007B0490917C040E94CC1420912E013091B9
:1014F0002F0140913001509131010E9448154B015C
:101500005C01C0908104D0908204E0908304F0904C
:10151000840420E030EC4FEF53E4C701B6010E9491
:10152000441587FF30C3A701960160912A0170918D
:101530002B0180912C0190912D010E94CD1460937C
:10154000B5047093B6048093B7049093B804A501D2
:101550009401C301B2010E9448156B017C012091E6
:10156000B5043091B6044091B7045091B80460912D
:1015700032017091330180913401909135010E94C4
:10158000CD14A50194010E9448159B01AC01C7012F
:10159000B6010E94CC146B017C01C0929104D092E0
:1015A0009204E0929304F09294042091E10330912C
:1015B000E2034091E3035091E40360913A0170919A
:1015C0003B0180913C0190913D010E9438174B01F5
:1015D0005C0120913E0130913F01409140015091CA
:1015E0004101C701B6010E9438179B01AC01C5013A
:1015F000B4010E94CD146093950470939604809377
:1016000097049093980441EA842E44E0942E5DE977
:10161000A52E54E0B52E69E9C62E64E0D62E7DE8ED
:10162000E72E74E0F72E01EB14E025EA34E04DEAF2
:1016300054E065E974E089EA94E063D76091990425
:1016400070919A0480919B0490919C041DDA6B0127
:101650007C01C092B504D092B604E092B704F09237
:10166000B80420E030E040E853E40E9444156FEFF6
:1016700087FF0EC020E030E0A901C701B6010E943B
:10168000341760E087FD04C0C701B6010E94B5159C
:101690008CE00E94930060919D0470919E04809163
:1016A0009F049091A004F0D96B017C01C092B50415
:1016B000D092B604E092B704F092B80420E030E093
:1016C00040E853E40E9444156FEF87FF0EC020E00E
:1016D00030E0A901C701B6010E94341760E087FD20
:1016E00004C0C701B6010E94B5158DE00E949300A9
:1016F0006BE070E080E090E00E94BC008C01909371
:10170000DC038093DB03C090A104D090A204E0909E
:10171000A304F090A40420E030E04FE753E4C701B5
:10172000B6010E94441518160CF439C2C092B504D3
:10173000D092B604E092B704F092B80420E030E012
:10174000A9016091B5047091B6048091B70490919D
:10175000B8040E94341787FF08C01092B504109295
:10176000B6041092B7041092B8044091B504509199
:10177000B6046091B7047091B804C8010E949A0041
:1017800020919504309196044091970450919804CB
:101790006091420170914301809144019091450113
:1017A0000E9438174B015C018092B5049092B604F8
:1017B000A092B704B092B80420914601309147013D
:1017C00040914801509149010E9438176C837D83F4
:1017D0008E839F832091E5033091E6034091E703D8
:1017E0005091E8030E94CC14688779878A879B8789
:1017F0002091B1043091B2044091B3045091B404EB
:1018000060915A0170915B0180915C0190915D0142
:101810000E9438176B017C0120915E0130915F01BD
:1018200040916001509161010E9438176C877D875B
:101830008E879F872091ED033091EE034091EF0357
:101840005091F0030E94CC142B013C018091800246
:10185000882309F4A2C02091520130915301409194
:10186000540150915501288B398B4A8B5B8B8091A9
:101870004E0190914F01A0915001B09151018C8B7C
:101880009D8BAE8BBF8B2091E9033091EA03409191
:10189000EB035091EC03288F398F4A8F5B8F609157
:1018A0006A0170916B0180916C0190916D012091A2
:1018B00066013091670140916801509169012C8F58
:1018C0003D8F4E8F5F8F2091F1033091F203409155
:1018D000F3035091F40328A339A34AA35BA3009117
:1018E00056011091570120915801309159010093F0
:1018F000F5031093F6032093F7033093F803C09297
:10190000F903D092FA03E092FB03F092FC03A301E7
:1019100092010E9438176B017C0128A139A14AA1CC
:101920005BA16C8D7D8D8E8D9F8D0E943817A701D8
:1019300096010E94CD146093FD037093FE03809383
:10194000FF03909300048092010490920204A092FD
:101950000304B0920404288539854A855B8568892B
:1019600079898A899B890E9438176B017C01288DAF
:10197000398D4A8D5B8D6C897D898E899F890E9406
:101980003817A70196010E94CD1460930504709347
:1019900006048093070490930804AA24A394B12C0E
:1019A00020E7C22E21E0D22EEE24E394F12C0FE6A4
:1019B00011E021E030E04EE651E06DED73E089EB9F
:1019C00094E028D52091E1033091E2034091E303B4
:1019D0005091E40360913601709137018091380194
:1019E000909139010E94381720919104309192040E
:1019F0004091930450919404D0D76093E103709385
:101A0000E2038093E3039093E4038C819D81AE8194
:101A1000BF818093E5039093E603A093E703B0931F
:101A2000E8032091E9033091EA034091EB035091E0
:101A3000EC0360914A0170914B0180914C019091AF
:101A40004D010E943817288539854A855B85A5D7C1
:101A50006093E9037093EA038093EB039093EC03A4
:101A60002C853D854E855F852093ED033093EE03F5
:101A70004093EF035093F0032091F1033091F20370
:101A80004091F3035091F4036091620170916301FE
:101A900080916401909165010E943817A301920121
:101AA0007CD76093F1037093F2038093F3039093D8
:101AB000F4036091710270917202809173029091AF
:101AC00074026F5F7F4F8F4F9F4F609371027093CF
:101AD00072028093730290937402009183021091BA
:101AE00084020E94E1159B01AC0160917502709126
:101AF000760280917702909178020E943817D8017F
:101B00006D937D938D939C9313978091790290911F
:101B10007A02A0917B02B0917C020196A11DB11DB9
:101B20008093790290937A02A0937B02B0937C0217
:101B3000A3960FB6F894DEBF0FBECDBFDF91CF9155
:101B40001F910F91FF90EF90DF90CF90BF90AF90DB
:101B50009F908F907F906F905F904F903F902F90CD
:101B600008951092B5041092B6041092B704109222
:101B7000B804FACB1092210410922204109223048C
:101B80001092240451CC20912A0130912B014091D4
:101B90002C0150912D01C701B601FED6D0CC80E0BA
:101BA00090E0AFE7B3E48093B5049093B604A093BC
:101BB000B704B093B804C2CD20E030E040E85FE362
:101BC00060913D0470913E0480913F0490914004E7
:101BD000E4D66B017C01C0923D04D0923E04E092B9
:101BE0003F04F0924004BCD7665C7F4F660F771FBE
:101BF000660F771FFB01E35AFC4F809141049091DF
:101C00004204A0914304B091440480839183A28351
:101C1000B38320E030E040E251E4C701B60134D79D
:101C2000811108C010923D0410923E0410923F04AE
:101C3000109240048092410490924204A092430486
:101C4000B0924404E4C98F929F92AF92CF92DF92F8
:101C5000EF92FF920F931F93CF93DF93CDB7DEB731
:101C600064970FB6F894DEBF0FBECDBFC0902601BB
:101C7000D0902701E0902801F0902901A70196015A
:101C80006091630370916403809165039091660392
:101C9000FBD6882341F0C0926303D0926403E092A4
:101CA0006503F0926603A5EFB3E0FE013196CE0125
:101CB0004596DE2EFF2E4D915D916D917D91419364
:101CC000519361937193E817F907A9F7609177032E
:101CD000709178038091790390917A0346D7C62E4C
:101CE00060916F0370917003809171039091720302
:101CF0003CD7E62E60917303709174038091750355
:101D00009091760332D7062F60916B0370916C032C
:101D100080916D0390916E0328D7162F6091670311
:101D2000709168038091690390916A031ED7862F92
:101D30001F921F921F921F921F921F92912C812C13
:101D400092E0A92E212F45E050E06D2D7F2D0E94BD
:101D5000BE030F900F900F900F900F900F9064960E
:101D60000FB6F894DEBF0FBECDBFDF91CF911F91AC
:101D70000F91FF90EF90DF90CF90AF909F908F905A
:101D800008954F925F926F927F92AF92BF92DF92CF
:101D9000EF92FF920F931F93CF93DF9384E090E035
:101DA00039D282E1A82E81E0B82E8091C3049091AF
:101DB000C404A091C504B091C604809356019093C9
:101DC0005701A0935801B0935901EAEEF1E081E880
:101DD00092E095838483C3E8D2E0D7AFC6AF05E72E
:101DE00012E0138B028BF0935302E0935202F383C1
:101DF000E28321E030E0DC012D933C9310926902F4
:101E00001092700286E791E09187808785E892E0E2
:101E1000998388834AE057ED63EA7BE3F8014083C6
:101E2000518362837383CDE5D3E086EE91E0909396
:101E300072048093710486E091E09093740480931F
:101E4000730410927804109277041092DD031092BC
:101E5000DE031092DF031092E003F5018481958187
:101E6000A681B7818093E5039093E603A093E703EF
:101E7000B093E80380859185A285B3858093ED03B7
:101E80009093EE03A093EF03B093F00380E090E013
:101E9000A0E2B1E48093250490932604A093270444
:101EA000B093280418A284859585A685B7858EA34E
:101EB0009FA3A8A7B9A780899189A289B3898AA776
:101EC0009BA7ACA7BDA7412C512C3201439449A23A
:101ED0005AA26BA27CA284E090E099AB88AB88E028
:101EE00090E09FA78EA780E00E94BD03DD24D394DD
:101EF000DDA21092CD034092CE035092CF036092A8
:101F0000D0037092D10361E082E00E948B00D092F6
:101F1000D2031092C5034092C6035092C703609249
:101F2000C8037092C90361E083E00E948B00D092E5
:101F3000CA031092BD034092BE035092BF03609249
:101F4000C0037092C10361E084E00E948B00D092D4
:101F5000C2031092B5034092B6035092B703609249
:101F6000B8037092B90361E085E00E948B00D092C3
:101F7000BA031092AD034092AE035092AF03609249
:101F8000B0037092B10361E086E00E948B00D092B2
:101F9000B2031CAAF50180819181A281B3818CAF2B
:101FA0009DAFAEAFBFAF4DAA5EAA6FAA78AE63E198
:101FB00070E080E090E00E9409029BAF8AAFD9AE4A
:101FC0001092A5034092A6035092A7036092A80323
:101FD0007092A90361E08CE00E948B00D092AA036A
:101FE00010929D0340929E0350929F036092A00323
:101FF0007092A10361E08DE00E948B00D092A20359
:102000001092D5034092D6035092D7036092D80322
:102010007092D903E12CF12C8701A80197016BE0A4
:1020200070E080E090E00E9400019093DC038093D8
:10203000DB03D092DA031882F50184899589A68999
:10204000B7898E839F83A887B98749825A826B821A
:102050007C82EA86FB860C871D8780E090E0A0E00A
:10206000B1E48E879F87A88BB98B80E090E0A0ECCD
:10207000B0E48A8B9B8BAC8BBD8BEE8AFF8A088F7A
:10208000198FEA8EFB8E0C8F1D8F80E00E94BD039E
:10209000DD82DF91CF911F910F91FF90EF90DF9044
:1020A000BF90AF907F906F905F904F900895809118
:1020B0007D03811103C081E080937D038091CD0376
:1020C000811103C081E08093CD038091C50381110C
:1020D00003C081E08093C5038091BD03811103C0DB
:1020E00081E08093BD038091B503811103C081E03D
:1020F0008093B5038091AD03811103C081E080938B
:10210000AD038091910381111FC081E08093910301
:102110008091920390919303A0919403B0919503C1
:102120000197A105B10581F480919603882361F0A0
:1021300063E170E080E090E00E94C5019093980315
:10214000809397030E942C028091A503811103C004
:1021500081E08093A50380919D03811103C081E0FC
:1021600080939D038091D50381112EC081E08093DF
:10217000D5038091D6039091D703A091D803B09155
:10218000D9030197A105B105F9F48091DA038823F9
:10219000D9F06BE070E080E090E00E94BC0090938A
:1021A000DC038093DB0340E050E0BA010E949A0018
:1021B0006BE070E080E090E00E94BC009093DC0354
:1021C0008093DB030E944B0180915D03811103C06A
:1021D00081E080935D03089560E070E080E89FE710
:1021E000089560E070E080E89FE7089560E070E0A7
:1021F00080E89FEF089560E070E080E89FEF089529
:1022000060E070E080EC9FEF089560E070E080ECAB
:102210009FEF0895F5DF6093C7047093C80480931F
:10222000C9049093CA04F1DF6093BB047093BC04AB
:102230008093BD049093BE04CFDF6093C30470937A
:10224000C4048093C5049093C604CBDF6093BF049D
:102250007093C0048093C1049093C204C7DF60935D
:10226000CB047093CC048093CD049093CE04C3DF51
:102270006093CF047093D0048093D1049093D204E0
:102280000895CF92DF92EF92FF92CF936B017C0182
:10229000AC019B016091C3047091C4048091C5049A
:1022A0009091C604F1D3C1E0882369F0A70196019B
:1022B0006091CB047091CC048091CD049091CE04B8
:1022C000E3D38111C0E08C2FCF91FF90EF90DF908E
:1022D000CF9008950F931F938B019C010027112726
:1022E00020783F770115110520483F4749F4AB019D
:1022F000BC016F77772781E0452B462B472B09F4EC
:1023000080E01F910F910895E5CF029784319105E8
:1023100040F486579E4FFC018081082E000C990BDB
:1023200008958FEF9FEF0895CF93DF93EC0170E056
:1023300060E06C177D071CF0DF91CF910895072EA8
:10234000000C880B990B3FD420E030E0A90125D385
:1023500020E030E0A90121D320E030E040E450E467
:102360001CD320E030E040E450E416D3F9D36F5F93
:102370007F4FDFCFCF93DF938091930290919402B0
:10238000E2D7EC018091970290919802CDDF809185
:10239000910290919202D7D7019771F480919502A2
:1023A00090919602CD2B71F40196909396028093B2
:1023B0009502DF91CF9108958091950290919602B8
:1023C000219791F30197F1CF0F931F93CF93DF9351
:1023D000EC018A0120E030E040E85FE3DB016D9131
:1023E0007D918D919C9150D381110FC0D801EC91BA
:1023F000B8E0EB9FF0011124EF56FD4F84819581E9
:1024000091958195910999838883DF91CF911F914F
:102410000F910895CF92DF92EF92FF920F931F9347
:10242000CF93DF937B01EA0120E030E040E85FE3F7
:10243000DB016D917D918D919C9126D3882309F4C8
:1024400057C0E881D8018C9190E0B8E0EB9FF00193
:102450001124EF56FD4F91838083E881D6018C9142
:1024600090E0B8E0EB9FF0011124EF56FD4F93830D
:102470008283E88128E0E29FF0011124EF56FD4FAE
:102480008081918160E0F6D6E88188E0E89FF001E4
:102490001124EF56FD4F8281938160E0EBD6E881F5
:1024A000A8E0EA9FF0011124EF56FD4F8081918151
:1024B00061E01CD7E881B8E0EB9FF0011124EF56F2
:1024C000FD4F8281938161E011D7809191029091BB
:1024D00092021BDF41E050E06AEB71E12DD580E014
:1024E00090E0A0E8BFE3F70180839183A283B383E8
:1024F000DF91CF911F910F91FF90EF90DF90CF90E0
:1025000008952F923F924F925F926F927F928F9297
:102510009F92AF92BF92CF92DF92EF92FF920F9372
:102520001F93CF93DF9300D000D0CDB7DEB72C013F
:102530003B017A011901BA82A9829C828B82FB013C
:1025400080809180A280B38020E030E0A901C501A5
:10255000B4019AD287FF93C080E090E0A0E8BFEB7F
:102560008093E1049093E204A093E304B093E40425
:1025700020E030E040E85FE3F20160817181828118
:10258000938182D28111DDC0BB24B394B092E00468
:1025900020E030E0A901F1016081718182819381A5
:1025A00073D2811182C0F7014080518062807380B4
:1025B00020E030E0A901C301B20166D218160CF484
:1025C000A5C0C301B20190582FE93CE34CEB50E4A5
:1025D0005FD26093DC047093DD048093DE049093FB
:1025E000DF04B092DB048091E1049091E204A091B9
:1025F000E304B091E4048093D7049093D804A093AB
:10260000D904B093DA046091E00470E090E080E0D7
:10261000D8D2F60160837183828393836091DB0457
:1026200070E090E080E0CDD2E981FA81608371832F
:10263000828393838091DC049091DD04A091DE0479
:10264000B091DF04EB81FC8180839183A283B3830B
:102650000F900F900F900F90DF91CF911F910F91DE
:10266000FF90EF90DF90CF90BF90AF909F908F90B2
:102670007F906F905F904F903F902F90089520E053
:1026800030E0A901C501B401EFD318162CF480E0A5
:1026900090E0A0E8BFE364CF1092E1041092E2045E
:1026A0001092E3041092E40463CFF3014080518060
:1026B0006280738020E030E040EA51ECC301B20157
:1026C000D3D387FD20C020E030E040EA51E4C301CD
:1026D000B201DAD11816BCF0F80140805180628056
:1026E000738020E030E44BEA54E4C301B201CCD162
:1026F00018164CF020E030E44BEA54ECC301B20170
:10270000B3D387FF50CF1092E0046DCF20E030E0CC
:10271000A901C301B201A8D318160CF064CF2FE9A8
:102720003CE34CEB50E4C301B201B2D16093DC0452
:102730007093DD048093DE049093DF041092DB0439
:1027400052CF1092A9021092AA021092AB021092DC
:10275000AC02D9CF26E030E040E050E16EE070E01E
:1027600090E080E000C01092AE021092AD0289307D
:102770009105E8F481549C4EFC010C941C1EC81376
:10278000D113D813DB13DE13E113E413E713ED13B6
:1027900081E090E09093AE028093AD0280EC92E0F5
:1027A000C4C682E090E09093AE028093AD0208959B
:1027B00084E090E0F8CF88E090E0F5CF80E190E011
:1027C000F2CF80E290E0EFCF80E490E0ECCF80E8C1
:1027D00090E09093AE028093AD028091AD02909113
:1027E000AE029160E0CF1F920F920FB60F921124AC
:1027F0002F933F934F935F936F937F938F939F9309
:10280000AF93BF93EF93FF938EE19BEF909385007F
:102810008093840032D0FF91EF91BF91AF919F914F
:102820008F917F916F915F914F913F912F910F9079
:102830000FBE0F901F9018958EE19BEF909385002F
:1028400080938400AFE6B0E08C918E7F8C93E0E8BB
:10285000F0E080818C7F8083E1E8F0E08081877EFA
:10286000808380818360808380818B7F80838C9153
:1028700081608C93089581E00895CF93DF9300D019
:102880001F92CDB7DEB78091B20291E0980F90937E
:10289000B202882371F021E030E03093B602209339
:1028A000B5028093B2020F900F900F90DF91CF91FD
:1028B0000895CE0101960E943C0578940E949305EC
:1028C000F8948091B20281508093B2028B81882368
:1028D00089F08091B10291E0980F9093B102882322
:1028E00049F021E030E03093B6022093B5028093A6
:1028F000B102D9CF8091B1028823A9F28091B302AD
:102900008111D1CF8091B4028F5F8093B40278940B
:102910009AD9F8948091B10281508093B10280914C
:10292000B40281508093B402BECFCF93DF93109254
:10293000E6041092E504C4D30DDFC0918801D09164
:102940008901198218821DDAF89476DF81E02881E6
:102950003981232B09F080E08093E5047894789402
:102960008091E504811107C0A2DBF89490E080E03B
:10297000DF91CF91089581E028813981232B09F4DB
:1029800080E08093E6049091E60481E0911180E07C
:102990008093E50470DFE4CF5058BB27AA270ED000
:1029A00012C203D230F008D220F031F49F3F11F46C
:1029B0001EF4F8C10EF4E095E7FBC5C1E92F14D26F
:1029C00080F3BA17620773078407950718F071F44C
:1029D0009EF543C20EF4E0950B2EBA2FA02D0B01ED
:1029E000B90190010C01CA01A0011124FF27591B54
:1029F00099F0593F50F4503E68F11A16F040A22F5A
:102A0000232F342F4427585FF3CF469537952795CA
:102A1000A795F0405395C9F77EF41F16BA0B620BC9
:102A2000730B840BBAF09150A1F0FF0FBB1F661F10
:102A3000771F881FC2F70EC0BA0F621F731F841F53
:102A400048F4879577956795B795F7959E3F08F079
:102A5000B3CF9395880F08F09927EE0F9795879538
:102A60000895E4D180F09F3740F491110EF4F6C13F
:102A700060E070E080E89FE3089526F01B16611D7A
:102A8000711D811D66C180C13AD108F481E00895AD
:102A90000CD099C191D140F088D130F021F45F3F42
:102AA00019F051C15111DAC17DC19ED198F399231A
:102AB000C9F35523B1F3951B550BBB27AA27621702
:102AC0007307840738F09F5F5F4F220F331F441F47
:102AD000AA1FA9F333D00E2E3AF0E0E830D091507F
:102AE0005040E695001CCAF729D0FE2F27D0660F6C
:102AF000771F881FBB1F261737074807AB07B0E8AB
:102B000009F0BB0B802DBF01FF2793585F4F2AF0C0
:102B10009E3F510568F017C1A1C15F3FECF3983E9D
:102B2000DCF3869577956795B795F7959F5FC9F71D
:102B3000880F911D9695879597F90895E1E0660FA6
:102B4000771F881FBB1F621773078407BA0720F01F
:102B5000621B730B840BBA0BEE1F88F7E095089588
:102B600004D06894B1117AC1089546D188F09F5776
:102B700090F0B92F9927B751A0F0D1F0660F771FC9
:102B8000881F991F1AF0BA95C9F712C0B13081F0A9
:102B900064D1B1E0089561C1672F782F8827B85FAD
:102BA00039F0B93FCCF3869577956795B395D9F70A
:102BB0003EF490958095709561957F4F8F4F9F4F14
:102BC0000895E89409C097FB3EF490958095709520
:102BD00061957F4F8F4F9F4F9923A9F0F92F96E969
:102BE000BB279395F695879577956795B795F111DE
:102BF000F8CFFAF4BB0F11F460FF1BC06F5F7F4F7B
:102C00008F4F9F4F16C0882311F096E911C077238C
:102C100021F09EE8872F762F05C0662371F096E895
:102C2000862F70E060E02AF09A95660F771F881F64
:102C3000DAF7880F9695879597F90895F7D080F081
:102C40009F3740F491110EF009C160E070E080E818
:102C50009FEB089526F41B16611D711D811D79C01F
:102C600093C0A3D018F011F0A7D038F49BC0F6C0E1
:102C7000E92FBAD0B0F35523C9F3E7FB6217730706
:102C800084079507A8F199F3E92FFF2788232AF0F5
:102C90003197660F771F881FDAF7952F5527442342
:102CA00032F091505040220F331F441FD2F7BB2700
:102CB000E91BF50B621B730B840BB109C1F222F403
:102CC000620F731F841FB11D31972AF0660F771FA3
:102CD000881FBB1FEFCF915050405AF041F088231E
:102CE00032F0660F771F881F91505040C1F79395BF
:102CF0004BC08695779567959F5FD9F7F8CF990F69
:102D00000008550FAA0BE0E8FEEF16161706E807B5
:102D1000F907C0F012161306E407F50798F0621BD6
:102D2000730B840B950B39F40A2661F0232B242BAB
:102D3000252B21F408950A2609F4A140A6958FEFCA
:102D4000811D811D089597F99F6780E870E060E01C
:102D50000895882371F4772321F09850872B762FDC
:102D600007C0662311F499270DC09051862B70E09F
:102D700060E02AF09A95660F771F881FDAF7880FB0
:102D80009695879597F908959F3F31F0915020F4DB
:102D9000879577956795B795880F911D9695879537
:102DA00097F908959FEF80EC089500240A94161671
:102DB000170618060906089500240A941216130629
:102DC000140605060895092E0394000C11F48823B7
:102DD00052F0BB0F40F4BF2B11F460FF04C06F5FD3
:102DE0007F4F8F4F9F4F089557FD9058440F551FA9
:102DF00059F05F3F71F04795880F97FB991F61F07D
:102E00009F3F79F087950895121613061406551FF3
:102E1000F2CF4695F1DF08C0161617061806991F5F
:102E2000F1CF86957105610508940895E5DFA0F05E
:102E3000BEE7B91788F4BB279F3860F41616B11D9A
:102E4000672F782F8827985FF7CF869577956795B6
:102E5000B11D93959639C8F30895E894BB2766276A
:102E60007727CB0197F908954ADF08F48FEF08958B
:102E70000BD0A9CF9ADF28F09FDF18F0952309F037
:102E800062CF90CF1124EACFAFDFA0F3959FD1F3AB
:102E9000950F50E0551F629FF001729FBB27F00D08
:102EA000B11D639FAA27F00DB11DAA1F649F66275D
:102EB000B00DA11D661F829F2227B00DA11D621FAC
:102EC000739FB00DA11D621F839FA00D611D221F66
:102ED000749F3327A00D611D231F849F600D211D4A
:102EE000822F762F6A2F11249F5750408AF0E1F0ED
:102EF00088234AF0EE0FFF1FBB1F661F771F881F36
:102F000091505040A9F79E3F510570F01CCFA6CFBD
:102F10005F3FECF3983EDCF3869577956795B79520
:102F2000F795E7959F5FC1F7FE2B880F911D96954A
:102F3000879597F9089508958230E8F4E82FF0E036
:102F4000EE0FFF1FEF58FE4F71836083813041F019
:102F5000809169008C7F482B40936900E89A08951E
:102F600080916900837F440F551F440F551F482BE4
:102F700040936900E99A08951F920F920FB60F923D
:102F800011242F933F934F935F936F937F938F936E
:102F90009F93AF93BF93EF93FF93E0917101F091F3
:102FA00072010995FF91EF91BF91AF919F918F9120
:102FB0007F916F915F914F913F912F910F900FBE35
:102FC0000F901F9018951F920F920FB60F92112419
:102FD0002F933F934F935F936F937F938F939F9321
:102FE000AF93BF93EF93FF93E0917301F09174015E
:102FF0000995FF91EF91BF91AF919F918F917F9133
:103000006F915F914F913F912F910F900FBE0F9055
:103010001F9018951F920F920FB60F9211242F93A5
:103020003F938F939F93AF93BF938091B8029091FA
:10303000B902A091BA02B091BB023091B70223E06D
:10304000230F2D3758F50196A11DB11D2093B7020E
:103050008093B8029093B902A093BA02B093BB02D6
:103060008091BC029091BD02A091BE02B091BF02BE
:103070000196A11DB11D8093BC029093BD02A09347
:10308000BE02B093BF02BF91AF919F918F913F91CC
:103090002F910F900FBE0F901F90189526E8230FC9
:1030A0000296A11DB11DD2CF2FB7F8946091B8023E
:1030B0007091B9028091BA029091BB022FBF08951E
:1030C000789484B5826084BD84B5816084BD85B503
:1030D000826085BD85B5816085BDEEE6F0E08081CA
:1030E00081608083E1E8F0E01082808182608083EB
:1030F000808181608083E0E8F0E08081816080836E
:10310000E1EBF0E0808184608083E0EBF0E080819F
:1031100081608083EAE7F0E0808184608083808141
:1031200082608083808181608083808180688083E9
:103130001092C10008958E3008F08E5020917501D4
:1031400090E4299F900111248770822B80937C004A
:1031500080917A00806480937A0080917A0086FD65
:10316000FCCF809178009091790008951F93CF93C0
:10317000DF93182FEB0161E07DD0209731F460E000
:10318000812FDF91CF911F91B1C0CF3FD10511F4B5
:1031900061E0F6CFE12FF0E0E859FF4FE491E33032
:1031A00031F140F4E130B1F0E230E1F0C038D10566
:1031B0007CF7E5CFE73029F1E83059F1E430B1F799
:1031C00080918000806280938000D0938B00C093B8
:1031D0008A0004C084B5806884BDC7BDDF91CF91EB
:1031E0001F91089584B5806284BDC8BDF7CF8091DA
:1031F0008000806880938000D0938900C09388000D
:10320000EDCF8091B00080688093B000C093B30090
:10321000E5CF8091B00080628093B000C093B4008D
:10322000DDCF833081F028F4813099F08230A9F02D
:1032300008958730A9F08830C9F08430B1F48091C6
:1032400080008F7D03C0809180008F778093800005
:10325000089584B58F7784BD089584B58F7DFBCFA5
:103260008091B0008F778093B00008958091B00076
:103270008F7DF9CFCF93DF9390E0FC01E458FF4FAF
:10328000249180579F4FFC0184918823C9F090E0DE
:10329000880F991FFC01E854FF4FA591B491FC01E0
:1032A000E255FF4FC591D49161110DC09FB7F894BD
:1032B0008C91209582238C938881282328839FBF1B
:1032C000DF91CF910895623051F49FB7F8943C910B
:1032D000822F809583238C93E8812E2BEFCF8FB79D
:1032E000F894EC912E2B2C938FBFEACF1F93CF93A2
:1032F000DF93282F30E0F901E859FF4F8491F9015D
:10330000E458FF4FD491F901E057FF4FC491CC230B
:10331000A1F0162F811185DFEC2FF0E0EE0FFF1FDB
:10332000E255FF4FA591B4918FB7F894EC9111112C
:1033300008C0D095DE23DC938FBFDF91CF911F9122
:103340000895DE2BF8CFCF93DF93282F30E0F901DB
:10335000E859FF4F8491F901E458FF4FD491F901E6
:10336000E057FF4FC491CC2399F081115ADFEC2F25
:10337000F0E0EE0FFF1FEC55FF4FA591B491EC91DB
:10338000ED2381E090E009F480E0DF91CF91089592
:1033900080E090E0FACFFC01918D228D892F90E0A2
:1033A000805C9F4F821B91098F7399270895FC01C0
:1033B000918D828D981731F0828DE80FF11D858DEA
:1033C00090E008958FEF9FEF0895FC01918D828D1D
:1033D000981761F0A28DAE0FBF2FB11D5D968C9135
:1033E000928D9F5F9F73928F90E008958FEF9FEF74
:1033F0000895FC01538D448D252F30E0842F90E0FB
:10340000821B930B541710F0CF96089501970895DF
:10341000FC01A48DA80FB92FB11DA35ABF4F2C9149
:10342000848D90E001968F739927848FA689B78940
:103430002C93A089B1898C91837080648C93938D37
:10344000848D981306C00288F389E02D80818F7DDA
:1034500080830895CF93DF93EC01888D8823B1F0AA
:10346000AA89BB89E889F9898C9185FD03C080818F
:1034700086FD0CC00FB607FCF7CF8C9185FFF2CF0D
:10348000808185FFEDCFCE01C3DFEACFDF91CF9101
:103490000895EF92FF920F931F93CF93DF93EC0168
:1034A00081E0888F9B8D8C8D98131AC0E889F989EB
:1034B000808185FF15C09FB7F894EE89FF896083EE
:1034C000E889F98980818370806480839FBF81E06F
:1034D00090E0DF91CF911F910F91FF90EF900895B1
:1034E000F62E0B8D10E00F5F1F4F0F731127E02E8C
:1034F0008C8D8E110BC00FB607FCFACFE889F989C5
:10350000808185FFF5CFCE0183DFF2CFEB8DEC0F0D
:10351000FD2FF11DE35AFF4FF0829FB7F8940B8FF8
:10352000EA89FB8980818062D0CFCF92DF92EF92CF
:10353000FF921F93CF93DF93EC016A017B01122F5F
:10354000E889F98982E08083C11481EED806E1041C
:10355000F10499F060E079E08DE390E0A701960135
:1035600049D321503109410951095695479537955D
:103570002795211580E1380790F0E889F9891082B4
:1035800060E874E88EE190E0A701960133D3215002
:103590003109410951095695479537952795EC858D
:1035A000FD853083EE85FF852083188EEC89FD89AB
:1035B0001083EA89FB89808180618083EA89FB89A5
:1035C000808188608083EA89FB898081806880832C
:1035D000EA89FB8980818F7D8083DF91CF911F9164
:1035E000FF90EF90DF90CF9008951F920F920FB64B
:1035F0000F9211242F938F939F93EF93FF93E0915A
:10360000D002F091D1028081E091D602F091D702F0
:1036100082FD1BC090818091D9028F5F8F732091B2
:10362000DA02821741F0E091D902F0E0E054FD4F58
:10363000958F8093D902FF91EF919F918F912F9158
:103640000F900FBE0F901F9018958081F4CF1F929E
:103650000F920FB60F9211242F933F934F935F93C6
:103660006F937F938F939F93AF93BF93EF93FF934A
:1036700080EC92E0CDDEFF91EF91BF91AF919F91F1
:103680008F917F916F915F914F913F912F910F900B
:103690000FBE0F901F901895E0ECF2E0138212829B
:1036A00088EE93E0A0E0B0E084839583A683B7839F
:1036B00082EA91E09183808385EC90E0958784870E
:1036C00084EC90E09787868780EC90E0918B808BEC
:1036D00081EC90E0938B828B82EC90E0958B848BD5
:1036E00086EC90E0978B868B118E128E138E148E43
:1036F0000895AF92BF92CF92DF92EF92FF920F9315
:103700001F93CF93DF936C017B018B01040F151F77
:10371000EB015E01AE18BF08C017D10759F06991DF
:10372000D601ED91FC910190F081E02DC601099543
:10373000892B79F7C501DF91CF911F910F91FF90F0
:10374000EF90DF90CF90BF90AF900895FB01019074
:103750000020E9F73197AF01461B570BDC01ED91D3
:10376000FC910280F381E02D09946115710509F047
:10377000EDCF90E080E00895DC01ED91FC910190A7
:10378000F081E02D099460EB71E0E0CF8F929F9281
:10379000AF92BF92EF92FF920F931F93CF93DF935D
:1037A000CDB7DEB7A1970FB6F894DEBF0FBECDBF81
:1037B0007C01FA01CB0119A2223008F42AE08E0123
:1037C0000F5D1F4F822E912CB12CA12CBF01A501A2
:1037D000940110D2F901CA016A3004F5605DD80184
:1037E0006E938D01232B242B252B81F790E080E015
:1037F000109719F0BD01C701A9DFA1960FB6F89483
:10380000DEBF0FBECDBFDF91CF911F910F91FF9013
:10381000EF90BF90AF909F908F900895695CDFCF3D
:10382000CF92DF92EF92FF920F931F93CF93DF938C
:103830002115310581F4DC01ED91FC910190F081BD
:10384000E02D642FDF91CF911F910F91FF90EF90AA
:10385000DF90CF9009942A303105F1F42AE077FF08
:103860001BC06A017B01EC016DE286DF8C014427FD
:103870005527BA014C195D096E097F092AE0CE016E
:1038800085DF800F911FDF91CF911F910F91FF90E6
:10389000EF90DF90CF900895DF91CF911F910F911E
:1038A000FF90EF90DF90CF9071CF9A01AB01770F2F
:1038B000660B770BB5CF0F931F93CF93DF93EC017C
:1038C000F4DF8C01CE015FDF800F911FDF91CF917C
:1038D0001F910F9108950F931F93CF93DF93EC01E6
:1038E0009FDF8C01CE014FDF800F911FDF91CF91C1
:1038F0001F910F9108952115310541F4DC01ED91DF
:10390000FC910190F081E02D642F09943FCF9A0142
:10391000462F50E070E060E0EECF0F931F93CF93FF
:10392000DF93EC01F4DF8C01CE012DDF800F911FBE
:10393000DF91CF911F910F9108959A01AB0170E033
:1039400060E0D9CF0F931F93CF93DF93EC01F5DFA6
:103950008C01CE0118DF800F911FDF91CF911F9155
:103960000F9108950F931F93CF93DF93EC01C3DF63
:103970008C01CE0108DF800F911FDF91CF911F9145
:103980000F9108952F923F924F925F926F927F9284
:103990008F929F92AF92BF92CF92DF92EF92FF925F
:1039A0001F93CF93DF93EC016A017B01722EAB0171
:1039B0009601CB01B60146D163EB71E0811123C0C2
:1039C00046015701E894B7F82FEF3FEF4FE75FE765
:1039D000C501B40137D181110BC02FEF3FEF4FE785
:1039E0005FE7C501B40150D867EB71E018165CF0D1
:1039F0002FEF3FEF4FE75FE4C701B60135DA181646
:103A0000ACF46BEB71E0CE01DF91CF911F91FF9091
:103A1000EF90DF90CF90BF90AF909F908F907F906E
:103A20006F905F904F903F902F9090CE2FEF3FEF91
:103A30004FE75FECC701B60127D887FDE2CF20E052
:103A400030E0A901C701B6011FD8312C212C87FF16
:103A500008C06DE2CE0190DE1C01F7FAF094F7F891
:103A6000F09410E060E070E080E09FE3711639F0C0
:103A700020E030E040E251E40BD81F5FF7CFA70110
:103A800096010E94CD142B013C016FD84B015C01C3
:103A90002AE0BC01A401CE0179DE7C01E20CF31C1A
:103AA000112381F1C501B4018CD89B01AC01C30184
:103AB000B2010E94CC144B015C016EE2CE015CDECF
:103AC000E80EF91E1150F0F020E030E040E251E441
:103AD000C501B401CDD92B013C0147D84B014AE0C7
:103AE00050E0CE012ADFE80EF91EB40190E080E03C
:103AF00068D89B01AC01C301B2010E94CC144B01F8
:103B00005C01E0CFC701DF91CF911F91FF90EF9053
:103B1000DF90CF90BF90AF909F908F907F906F90ED
:103B20005F904F903F902F9008952CCF0F931F934D
:103B3000CF93DF93EC0126DF8C01CE0124DE800FD2
:103B4000911FDF91CF911F910F9108950F931F93B4
:103B5000CF93DF93EC01A8DA688779878A879B8700
:103B6000E881F9810284F385E02DCE01099597FF64
:103B700014C09ADA088519852A853B85601B710B6C
:103B8000820B930B0C811D812E813F816017710781
:103B90008207930728F38FEF9FEFDF91CF911F915B
:103BA0000F910895AF92BF92CF92DF92EF92FF9262
:103BB0000F931F93CF93DF935C017B018B01040F65
:103BC000151FEB016E01CE18DF08C017D10731F0C9
:103BD000C501BCDF97FD02C08993F4CFC601DF9118
:103BE000CF911F910F91FF90EF90DF90CF90BF90FA
:103BF000AF900895A1E21A2EAA1BBB1BFD010DC0B8
:103C0000AA1FBB1FEE1FFF1FA217B307E407F5078C
:103C100020F0A21BB30BE40BF50B661F771F881F68
:103C2000991F1A9469F760957095809590959B01FE
:103C3000AC01BD01CF010895EE0FFF1F0590F49177
:103C4000E02D09945CD8880B990B0895F894FFCF68
:103C5000B903B503370200C07F44000040400000B4
:103C6000B6420AD7A33B000000000000000000009D
:103C70000000000040400000000000C0FF430000C2
:103C8000B443000040BF99806D3F5C808E3D9A999F
:103C9000193D35FA8E3C000048436DA3673F8A4FBB
:103CA000B93DCDCC4C3D000000003CAFBD3900001B
:103CB00048436DA3673F8A4FB93DCDCC4C3D0003CF
:103CC000239B179B1701466978656453746570449C
:103CD0006973637265746500EA010001FFFFFFFF0D
:103CE000FFFFFFFFFFFFFFFFFFFF050403020000D0
:103CF0000000491A791BF9192A1ACB19E519D719A5
:103D00000D0A006E616E00696E66006F76660000D7
:00000001FF
