:1000000005C100000C9477190C94A2190C94CD1919
:100010000C94F8190C94231A0C944E1A0C94791A17
:100020000C94A41A24C1000022C1000020C10000C9
:100030001EC100001CC100001AC1000018C1000050
:1000400016C1000014C1000012C1000010C1000060
:100050000EC100000CC100000AC100000C94CF1AB0
:1000600006C100000C949F1E0C94D51E00C1000018
:10007000FEC00000FCC00000FAC00000F8C0000094
:10008000F6C00000F4C00000F2C00000F0C00000A4
:100090000C942B1F0C94611FEAC00000E8C0000004
:1000A000E6C00000E4C00000E2C00000E0C00000C4
:1000B000DEC00000DCC00000DAC00000D8C00000D4
:1000C000D6C00000D4C000000C9451150C94B71F8A
:1000D0000C94ED1FCCC000000C9443200C947920AC
:1000E000C6C0000000000A0B02090C0D0E08070331
:1000F00004010000000000000000000000000000FB
:1001000000000000000000000000000000000000EF
:1001100012111000000000000000000000000000AC
:100120000000000000000000000001021020200874
:100130000810204010204080020102010804020142
:1001400001020408102040808040201008040201B1
:10015000800402018040201008040201080402010A
:100160000102040810204080010204081020408091
:1001700005050505070508080808020202020A0A23
:100180000808040404040101010101010101030341
:10019000030303030303040707070C0C0C0C0C0CEC
:1001A0000C0C0202020206060606060606060B0BE9
:1001B0000B0B0B0B0B0B000020002300260029006B
:1001C0002C002F003200000100000301060109018C
:1001D00000002200250028002B002E0031003400F2
:1001E00002010000050108010B01000021002400AC
:1001F00027002A002D003000330001010000040117
:1002000007010A01FE1E8A1F1620A22011241FBE0C
:10021000CFEFD1E2DEBFCDBF00E00CBF12E0A0E027
:10022000B2E0E8E1F7E400E00BBF02C007900D92F6
:10023000AA3EB107D9F727E0AAEEB2E001C01D92AD
:10024000AE3EB207E1F711E0C6E0D1E000E006C043
:1002500021970109802FFE010E947D23C230D10722
:1002600080E00807A9F70E94F6150C948A23C8CEEF
:10027000611102C00C94E41C6130E1F362E0FACF3A
:10028000662319F061E00C94201D60E0FCCFCF9351
:10029000282F8823E1F0CB01BA01CFEFC20FEC2F5A
:1002A000F0E0E651FD4F2081213059F490580E9432
:1002B00016179B01AC016C2F70E090E080E0CF91AD
:1002C000A2C00E9411178C2FCF910C94AA1BCF9122
:1002D00008950F931F938B019C0183E0369527951A
:1002E000179507958A95D1F7005D1C4F462F4770EB
:1002F00021E030E0F90102C0EE0FFF1F4A95E2F75E
:10030000AF01F80120812423CB010196211102C005
:1003100090E080E01F910F9108950F931F938B0140
:100320009C0183E036952795179507958A95D1F717
:10033000677081E090E001C0880F6A95EAF7F801E4
:10034000E05DFC4F2081452B31F480958223808332
:100350001F910F910895822BFACF4F925F926F9267
:100360007F928F929F92AF92BF92CF92DF92EF9245
:10037000FF920F931F93CF93DF934B015C012901F1
:100380003A01670161E0882D0E94E41CE401219696
:10039000AE01C501B401C1DF20E030E0A901C80110
:1003A000B6010E94951818168CF4F401E651FD4F21
:1003B00081E08083C801B6010E9416176B01C3015A
:1003C000B2010E941617A601C40121D0CE01DF910F
:1003D000CF911F910F91FF90EF90DF90CF90BF9042
:1003E000AF909F908F907F906F905F904F90089507
:1003F000882341F08150682F70E090E080E050E069
:1004000040E08BCF0895862FB9010C94AA1B9C0164
:10041000FC01EC51FF4FE491E150E231E0F4F0E0F7
:100420008827EA5EFD4F8F4F0C947D2328022F0210
:10043000320249025E022B0273027F0283029A0299
:10044000AF02C402DB02F0022B0205031C033103DE
:1004500084B5806884BD60E0822F0C94201D84B533
:100460008062F8CF809180008C7F826080938000D2
:1004700080918100807E8061682B60938100509321
:100480008700409386008091800080688093800080
:10049000E2CF809180008C7F826080938000809189
:1004A0008100807E8061682B60938100509387007B
:1004B00040938600809180008062E8CF8091800028
:1004C0008C7F82608093800080918100807E80613B
:1004D000682B609381005093870040938600809141
:1004E00080008860D3CF8091B00080688093B00096
:1004F0008091B100887F682B6093B100ACCF809170
:10050000B0008062F3CF809190008C7F82608093F6
:10051000900080919100807E8061682B60939100B3
:10052000509397004093960080919000806880934C
:10053000900091CF809190008C7F8260809390009A
:1005400080919100807E8061682B60939100509330
:10055000970040939600809190008062E8CF809150
:1005600090008C7F82608093900080919100807ECB
:100570008061682B609391005093970040939600A0
:10058000809190008860D3CF8091A0008C7F8260A2
:100590008093A0008091A100807E8061682B609391
:1005A000A1005093A7004093A6008091A00080680E
:1005B0008093A00050CF8091A0008C7F82608093B8
:1005C000A0008091A100807E8061682B6093A100D3
:1005D0005093A7004093A6008091A0008062E8CFCE
:1005E0008091A0008C7F82608093A0008091A10008
:1005F000807E8061682B6093A1005093A700409398
:10060000A6008091A0008860D3CF809120018C7FCC
:1006100082608093200180912101807E8061682B1F
:10062000609321015093270140932601809120017E
:100630008068809320010FCF809120018C7F8260A1
:100640008093200180912101807E8061682B6093DE
:10065000210150932701409326018091200180625F
:10066000E8CF809120018C7F82608093200180916F
:100670002101807E8061682B6093210150932701C6
:1006800040932601809120018860D3CFCF93DF93E0
:10069000882349F0EB0181500E94871B998388834E
:1006A000DF91CF910895FB0111821082F9CF0F9352
:1006B0001F938B019C0183E036952795179507952D
:1006C0008A95D1F7075C1C4F462F477021E030E038
:1006D000F90102C0EE0FFF1F4A95E2F7AF01F801E2
:1006E00020812423CB010196211102C090E080E0FB
:1006F0001F910F9108950F931F938B019C0183E02D
:1007000036952795179507958A95D1F7677081E0FB
:1007100090E001C0880F6A95EAF7F801E75CFC4FAA
:100720002081452B31F48095822380831F910F9186
:100730000895822BFACFCF92DF92EF92FF92CF9360
:10074000DF936B017C0160E086E3C816D104E1040D
:10075000F10490F486E38C0D0E94E41CE6012196DE
:10076000AE01C701B601C7DFCE01DF91CF91FF9087
:10077000EF90DF90CF9008958C2DEECF882341F03D
:100780008150682F70E090E080E050E040E0B3CF0F
:100790000895AB01BC018CE194E00C943323AB01D0
:1007A000BC0189EB94E00C943323AB01BC0186E5DA
:1007B00095E00C943323AB01BC0183EF95E00C94DE
:1007C00033238F929F92AF92BF92CF92DF92EF929C
:1007D000FF920F931F93CF93DF93CDB7DEB77B01CB
:1007E0004A015901CDB6DEB69B01220F331F4DB72A
:1007F0005EB7421B530B0FB6F8945EBF0FBE4DBFE2
:100800000DB71EB70F5F1F4FE82FF0E0EE0FFF1F71
:10081000E05FFD4F0190F081E02DC8011995F801CE
:10082000D401E00EF11EEE15FF0519F081918D93B4
:10083000FACF81E0F50180830FB6F894DEBE0FBEDB
:10084000CDBEDF91CF911F910F91FF90EF90DF9080
:10085000CF90BF90AF909F908F9008952F923F922E
:100860004F925F926F927F928F929F92AF92BF92C0
:10087000CF92DF92EF92FF920F931F93CF93DF936C
:1008800000D000D000D01F92CDB7DEB7682E7A8797
:100890006987742EB52E3C832B8348012A2C312C7A
:1008A0004E2C512C81E090E0012B11F490E080E07F
:1008B000849D9001859D300D949D300D11244985B6
:1008C0005A85420F531F5A834983062D10E0000FAB
:1008D000111FF801E050FE4F0190F081E02D1995B5
:1008E00041E050E0C114D10411F450E040E0429DD9
:1008F0009001439D300D529D300D1124A981BA8184
:100900002A0F3B1F821793075CF5E72DFB2D2985E6
:100910003A852E0F3F1F3A83298349815A81E41774
:10092000F50711F01192F9CFAB81BC811C922A9688
:100930000FB6F894DEBF0FBECDBFDF91CF911F91F0
:100940000F91FF90EF90DF90CF90BF90AF909F906E
:100950008F907F906F905F904F903F902F90089571
:10096000C114D10409F441C0F12CE12CF801E0508C
:10097000FE4FFE83ED839801285F3D4F38872F831C
:10098000AD81BE81ED91FC91E214F30474F51995EB
:10099000892B81F4E72DFB2D29853A852E0F3F1FEA
:1009A0003A83298349815A81E417F50709F4BCCFBA
:1009B0001192F8CFAF81B885ED91FC911995F601B0
:1009C000EE0DFF1D9081981761F021E030E0F601F7
:1009D0009081981302C030E020E0EE24FF24E21A58
:1009E000F30AFFEFEF1AFF0ACBCF980120503E4FDA
:1009F0006901D901ED91FC911995E981FA818E1770
:100A00009F0784F4E72DFB2D29853A852E0F3F1F84
:100A10003A83298349815A81E417F50709F484CF81
:100A20001192F8CF2B813C81472D5B2D69857A850A
:100A3000862DC7DE8114910409F479CF7401085F13
:100A40001D4FC70188199909841595050CF06FCFC2
:100A5000D601ED91FC911995892B81F4E72DFB2DA1
:100A600029853A852E0F3F1F3A83298349815A8170
:100A7000E417F50709F458CF1192F8CFD801ED919A
:100A8000FC911995F70191917F019817D1F2E72D0B
:100A9000FB2D29853A852E0F3F1F3A8329834981F3
:100AA0005A81E417F50709F43FCF1192F8CF8CE192
:100AB00094E00C948F1D89EB94E00C948F1D86E5D7
:100AC00095E00C948F1D83EF95E00C948F1D8CE1C5
:100AD00094E00C94751D89EB94E00C94751D86E5EB
:100AE00095E00C94751D83EF95E00C94751D88239B
:100AF00011F1823071F08330A9F08130E1F426E009
:100B000030E040E050E16EE070E081E090E00C9475
:100B1000FB1426E030E040E050E16EE070E082E05F
:100B200090E0F5CF26E030E040E050E16EE070E08C
:100B300083E090E0ECCF08952F923F924F925F9226
:100B40006F927F928F929F92AF92BF92CF92DF92DD
:100B5000EF92FF920F931F93CF93DF931F92CDB726
:100B6000DEB72B013A01D02EE9829C2DCA2CF4016C
:100B7000EF88F88C998C6A8D7B8D4C8D843008F0D1
:100B8000EBC1823051F0833009F456C0813049F412
:100B900039EB232E34E0332E04C0A6E52A2EA5E03F
:100BA0003A2E30E02830310511F424E030E0269D63
:100BB0005001279DB00C369DB00C11240AE010E0C6
:100BC000992351F000E110E0913031F008E010E09D
:100BD000923011F002E010E08111E1C0D11031C07B
:100BE0006115710529F050E08CE194E00E94CF205E
:100BF000A501B2018CE194E00E94CF20E114F10440
:100C000009F4AAC1492D50E0B7018CE194E00F909E
:100C1000DF91CF911F910F91FF90EF90DF90CF90D8
:100C2000BF90AF909F908F907F906F905F904F900C
:100C30003F902F900C94CF2053EF252E55E0352E6A
:100C4000B0CFBF018CE194E00E940B2189818730F5
:100C500008F082C1E82FF0E08827EE5CF94F8F4F53
:100C60000C947D235106640678068E06A406B80609
:100C70003906AC2CB12CE1E06E1A710808F46CC195
:100C8000D2014D915D916D917D912D01B1E0950164
:100C90008CE194E0DB1280C00E94F522ECCF0E9430
:100CA000E3216A94AFEF6A1609F456C1F20161912B
:100CB0002F01F1E0A8018CE194E0DF12F0CF0E9457
:100CC000DD21EFCF0E94F8216A948FEF681609F4B6
:100CD00043C1D2016D917D912D01B1E0A8018CE15C
:100CE00094E0DB12EFCF0E94F321EECF0E940822A6
:100CF0006A94EFEF6E1609F42FC1D2014D915D9108
:100D00006D917D912D01B1E098018CE194E0DB12B1
:100D1000EDCF0E94D121ECCF0E94B1216A94EFEF78
:100D20006E1609F419C1D2016D912D01062E000C29
:100D3000770BB1E0A8018CE194E0DB12EDCF0E94CB
:100D4000AB21ECCF0E94B1216A94EFEF6E1609F44B
:100D500003C1D2016D917D912D01B1E0A8018CE11B
:100D600094E0DB12EFCF0E94AB21EECF0E94C121B5
:100D70006A94EFEF6E1609F4EFC0D2014D915D91C8
:100D80006D917D912D01B1E098018CE194E0DB1231
:100D9000EDCF0E946621ECCF0E94F6226CCFD110DD
:100DA00038C06115710549F050E0D101ED91FC9119
:100DB0000280F381E02DC1011995D101ED91FC91E3
:100DC0000280F381E02DA501B201C1011995E11462
:100DD000F10409F4C1C0492D50E0D101ED91FC911D
:100DE0000280F381E02DB701C1010F90DF91CF9117
:100DF0001F910F91FF90EF90DF90CF90BF90AF9039
:100E00009F908F907F906F905F904F903F902F902A
:100E10001994BF01C1010E940B21B981B73008F0BC
:100E20009BC0EB2FF0E08827E75EF84F8F4F0C94C4
:100E30007D23370749075C07710785079707200758
:100E4000AC2CB12CE1E06E1A710808F485C0D20117
:100E50004D915D916D917D912D01B1E09501C101A3
:100E6000DB1277C00E94F522EDCF0E94E3216A9445
:100E7000EFEF6E1609F470C0D2016D912D01B1E053
:100E8000A801C101DB12F1CF0E94DD21F0CF0E9449
:100E9000F8216A94EFEF6E1609F45EC0D2016D91ED
:100EA0007D912D01B1E0A801C101DB12F0CF0E94BC
:100EB000F321EFCF0E9408226A94EFEF6E1609F437
:100EC0004BC0D2014D915D916D917D912D01B1E0AD
:100ED0009801C101DB12EECF0E94D121EDCF0E941B
:100EE000B1216A94EFEF6E16B9F1D2016D912D0127
:100EF000062E000C770BB1E0A801C101DB12EFCF89
:100F00000E94AB21EECF0E94B1216A94EFEF6E16E2
:100F100019F1D2016D917D912D01B1E0A801C101BE
:100F2000DB12F1CF0E94AB21F0CF0E94C1216A9465
:100F3000EFEF6E1689F0D2014D915D916D917D912B
:100F40002D01B1E09801C101DB12EFCF0E946621B3
:100F5000EECF0E94F62276CF0F90DF91CF911F91B6
:100F60000F91FF90EF90DF90CF90BF90AF909F9048
:100F70008F907F906F905F904F903F902F9008954B
:100F80008F929F92AF92BF92CF92DF92EF92FF9299
:100F90004B015C010E94C612882399F0C090CE07D5
:100FA000D090CF07E090D007F090D107C701B601ED
:100FB000FF90EF90DF90CF90BF90AF909F908F9079
:100FC0000895C501B4010E9483128111E7CF20E08A
:100FD00030E0A901C501B4010E94A516882329F1BA
:100FE00020E030E040E050E4C501B4010E949917D0
:100FF0006B017C0120E030E0A9010E94A516882346
:10100000A1F020E030E0A901C501B4010E94A516BD
:1010100087FFCCCF20E030E040E050E4C701B601CC
:101020000E942E166B017C01C1CFC12CD12C760100
:10103000BDCFFC0191E08091DB03811190E09283B0
:101040000895CF92DF92EF92FF926B017C019F7720
:1010500020E030E040E859E50E94A51687FF2BC04C
:1010600020E030E040E05FE3C701B6010E94951840
:1010700087FD0EC020E030E040E05FE3C701B6012D
:101080000E942E16FF90EF90DF90CF900C947F1768
:1010900020E030E040E05FEBC701B6010E94951808
:1010A000181684F420E030E0A901C701B6010E94BF
:1010B00099186B017C01C701B601FF90EF90DF909A
:1010C000CF90089520E030E040E05FE3C701B60133
:1010D0000E942D16FF90EF90DF90CF900C94921607
:1010E0004F925F926F927F928F929F92AF92BF9238
:1010F000CF92DF92EF92FF920F931F93CF93DF93E4
:10110000CDB7DEB7A3970FB6F894DEBF0FBECDBF45
:101110008091DB039091DA03911105C091E0811178
:1011200090E09093DC038F5F8A3008F0AFC5809326
:10113000DB03E0917E07F0917F0780819181A2819E
:10114000B3818093840790938507A0938607B0931B
:10115000870784819581A681B781809388079093C2
:101160008907A0938A07B0938B0780859185A28514
:10117000B38580938C0790938D07A0938E07B093CF
:101180008F07C0903002D0903102E0903202F09090
:101190003302A70196016091B6067091B70680915F
:1011A000B8069091B9060E94A516882341F0C09216
:1011B000B606D092B706E092B806F092B906C09093
:1011C0003402D0903502E0903602F0903702A70149
:1011D00096016091BA067091BB068091BC06909111
:1011E000BD060E94A516882341F0C092BA06D0928F
:1011F000BB06E092BC06F092BD066091BE067091FF
:10120000BF06A12CD12CC12CE12C10E000E09E01E6
:101210002D5F3F4F40E957E080E020DB8B8181303C
:10122000A1F560919007709191078091920790913C
:10123000930707DF6B017C01C092B807D092B90712
:10124000E092BA07F092BB0720E030E040E053E4C0
:101250000E94A51687FF19C020E030E040E053EC63
:10126000C701B6010E94951887FD0FC0C701B601DE
:101270000E941117633009F457C50CF00AC561309C
:1012800009F424C5623009F438C580911C07909197
:101290001D07A0911E07B0911F078093B007909380
:1012A000B107A093B207B093B307AA24A394B12CBB
:1012B000AAE8CA2EA2E0DA2EEE24E394F12C09E883
:1012C00012E021E030E048E852E068EE76E080ECA1
:1012D00097E00E9428136091C0077091C107072E04
:1012E000000C880B990B0E9444172091400230910A
:1012F000410240914202509143020E94A91620915E
:1013000044023091450240914602509147020E94AA
:1013100099186B017C01C092BC07D092BD07E09286
:10132000BE07F092BF0720E030E0A90160911807E6
:101330007091190780911A0790911B070E94A516BA
:1013400081117EC08090200790902107A0902207F5
:10135000B090230720E030E0A90160914007709130
:10136000410780914207909143070E94A51620E013
:1013700030E0A901811172C5C501B4010E94A51612
:1013800081112FC010923C0710923D0710923E072A
:1013900010923F07109240071092410710924207A7
:1013A0001092430710924407109245071092460787
:1013B0001092470710924C0710924D0710924E075B
:1013C00010924F0710925007109251071092520737
:1013D00010925307E4E5F7E088E2DF011D928A9559
:1013E000E9F740903C0750903D0760903E077090B1
:1013F0003F0720E030E0A901C301B2010E94A51619
:101400008111C0C4109238071092390710923A0720
:1014100010923B0720E030E040E85FE3C501B401F3
:101420000E94A51681110CC080E090E0A0E8BFE307
:1014300080933C0790933D07A0933E07B0933F07EE
:1014400020E030E040E85FE36091400770914107A1
:1014500080914207909143070E94A51681112DC5E6
:1014600020915007309151074091520750915307F6
:1014700060E070E084EA93EC0E942D16A7019601CB
:101480000E942E166B017C01C092BC07D092BD0752
:10149000E092BE07F092BF0720E030E040E85FE353
:1014A0006091240770912507809126079091270766
:1014B0000E94A516811101C5A7019601609134070C
:1014C0007091350780913607909137070E942D164D
:1014D0006B017C01C092B807D092B907E092BA07BD
:1014E000F092BB079F7720E030E040E85FE30E9486
:1014F000A51687FDD9C4A7019601609130077091A8
:10150000310780913207909133070E9499186093B8
:101510002C0770932D0780932E0790932F078B81B4
:10152000813081F48091940790919507A09196075E
:10153000B09197078093140790931507A09316070F
:10154000B093170780912C0790912D07A0912E073B
:10155000B0912F078093B4079093B507A093B60777
:10156000B093B707C0902402D0902502E0902602E5
:10157000F0902702A70196016091CC067091CD06EC
:101580008091CE069091CF060E94A516882341F047
:10159000C092CC06D092CD06E092CE06F092CF0655
:1015A0006BE370E080E090E082D89093CB0680936C
:1015B000CA0643E050E0BE016F5F7F4F67D8698184
:1015C0007A8190E080E00E9442172B013C0140921A
:1015D00098075092990760929A0770929B07209102
:1015E00088073091890740918A0750918B07609155
:1015F00084077091850780918607909187070E94E4
:101600002D16209148023091490240914A02509192
:101610004B020E94A9164B015C01C0908C07D09030
:101620008D07E0908E07F0908F0720E030EC4FEFB1
:1016300053E4C701B6010E94A51687FF4FC4A70156
:10164000960160913C0270913D0280913E02909122
:101650003F020E942E166093B8077093B9078093DB
:10166000BA079093BB07A5019401C301B2010E9480
:10167000A9166B017C012091B8073091B907409100
:10168000BA075091BB0760914C0270914D02809156
:101690004E0290914F020E942E16A50194010E94C5
:1016A000A9169B01AC01C701B6010E942D166B0162
:1016B0007C01C0929C07D0929D07E0929E07F09219
:1016C0009F072091EC063091ED064091EE06509177
:1016D000EF066091540270915502809156029091EC
:1016E00057020E9499184B015C01209158023091D9
:1016F000590240915A0250915B02C701B6010E9403
:1017000099189B01AC01C501B4010E942E1660938B
:10171000A0077093A1078093A2079093A3074CEAB8
:10172000842E47E0942E58EAA52E57E0B52E64EAA1
:10173000C62E67E0D62E78E9E72E77E0F72E00EB8D
:1017400012E0980144EB57E060EA77E080EB97E025
:101750000E94C9136091A4077091A5078091A60704
:101760009091A7076EDC6B017C01C092B807D09204
:10177000B907E092BA07F092BB0720E030E040E8FA
:1017800053E40E94A51687FFB7C320E030E0A9010B
:10179000C701B6010E94951887FDACC3C701B60109
:1017A0000E9416176B836B818CE00E944001609150
:1017B000A8077091A9078091AA079091AB0741DC17
:1017C0006B017C01C092B807D092B907E092BA07CA
:1017D000F092BB0720E030E040E853E40E94A516F9
:1017E00087FF8FC320E030E0A901C701B6010E9446
:1017F000951887FD84C3C701B6010E9416176B8335
:101800006B8182E20E9440016BE070E080E090E03A
:101810000E9469018C019093E7068093E606C090D0
:10182000AC07D090AD07E090AE07F090AF0720E096
:1018300030E04FE753E4C701B6010E94A516181621
:101840000CF462C3C092B807D092B907E092BA070D
:10185000F092BB0720E030E0A9016091B8077091D9
:10186000B9078091BA079091BB070E94951887FF2E
:1018700008C01092B8071092B9071092BA071092D8
:10188000BB074091B8075091B9076091BA077091B2
:10189000BB07C8010E9447012091A0073091A10712
:1018A0004091A2075091A30760915C0270915D0284
:1018B00080915E0290915F020E9499184B015C0139
:1018C0008092B8079092B907A092BA07B092BB076E
:1018D0002091600230916102409162025091630256
:1018E0000E9499186C837D838E839F832091F006DC
:1018F0003091F1064091F2065091F3060E942D16A8
:10190000688779878A879B8720916C0230916D0266
:1019100040916E0250916F02288B398B4A8B5B8B02
:101920008091680290916902A0916A02B0916B0265
:101930008C8B9D8BAE8BBF8B2091F4063091F5067E
:101940004091F6065091F706288F398F4A8F5B8FAA
:101950002091740230917502409176025091770285
:101960006091BC077091BD078091BE079091BF0741
:101970000E9499186B017C01C092BC07D092BD07F0
:10198000E092BE07F092BF07209178023091790271
:1019900040917A0250917B020E9499186C877D8752
:1019A0008E879F872091F8063091F9064091FA06BC
:1019B0005091FB060E942D162B013C018091DC0307
:1019C000882309F47EC06091840270918502809121
:1019D000860290918702209180023091810240918D
:1019E0008202509183022C8F3D8F4E8F5F8F20910A
:1019F000FC063091FD064091FE065091FF0628A39B
:101A000039A34AA35BA30091700210917102209147
:101A10007202309173020093000710930107209324
:101A2000020730930307C0920407D0920507E092A3
:101A30000607F0920707A30192010E9499186B0113
:101A40007C0128A139A14AA15BA16C8D7D8D8E8D71
:101A50009F8D0E949918A70196010E942E166093EF
:101A600008077093090780930A0790930B078092E9
:101A70000C0790920D07A0920E07B0920F072885D1
:101A800039854A855B85688979898A899B890E941D
:101A900099186B017C01288D398D4A8D5B8D6C897D
:101AA0007D898E899F890E949918A70196010E94BD
:101AB0002E1660931007709311078093120790936E
:101AC0001307AA24A394B12C2AE8C22E22E0D22E16
:101AD000EE24E394F12C09E812E021E030E048E83C
:101AE00052E068EE76E080EC97E0D8D52091EC06E5
:101AF0003091ED064091EE065091EF066091500254
:101B00007091510280915202909153020E94991853
:101B100020919C0730919D0740919E0750919F070F
:101B20000E942E166093EC067093ED068093EE06ED
:101B30009093EF068C819D81AE81BF818093F006EA
:101B40009093F106A093F206B093F3062091F40669
:101B50003091F5064091F6065091F70660916402C7
:101B60007091650280916602909167020E949918B7
:101B7000288539854A855B850E942E166093F40678
:101B80007093F5068093F6069093F7062C853D85B5
:101B90004E855F852093F8063093F9064093FA0648
:101BA0005093FB062091FC063091FD064091FE0605
:101BB0005091FF0660917C0270917D0280917E02BF
:101BC00090917F020E949918A30192010E942E1603
:101BD0006093FC067093FD068093FE069093FF06CB
:101BE0006091CD037091CE038091CF039091D0038B
:101BF0006F5F7F4F8F4F9F4F6093CD037093CE03E6
:101C00008093CF039093D0030091DF031091E00302
:101C10000E9442179B01AC016091D1037091D203E5
:101C20008091D3039091D4030E949918D8016D93A9
:101C30007D938D939C9313978091D5039091D603B8
:101C4000A091D703B091D8030196A11DB11D809337
:101C5000D5039093D603A093D703B093D803A3964C
:101C60000FB6F894DEBF0FBECDBFDF91CF911F91AD
:101C70000F91FF90EF90DF90CF90BF90AF909F902B
:101C80008F907F906F905F904F9008951092DB033C
:101C900050CA643009F45FC0653009F0F6CA20E02C
:101CA00030E040E85FE36091280770912907809158
:101CB0002A0790912B07D2D763D960932807709396
:101CC000290780932A0790932B07DFCA20E030E092
:101CD00040E85FE360911C0770911D0780911E072B
:101CE00090911F07BBD74CD960931C0770931D07B9
:101CF00080931E0790931F07C8CA20E030E040E899
:101D00005FE36091200770912107809122079091F5
:101D10002307A4D735D960932007709321078093B8
:101D2000220790932307B1CA20E030E040E85FE348
:101D300060912407709125078091260790912707CD
:101D40008DD71ED9609324077093250780932607AB
:101D5000909327079ACA20E030E040E85FE3609163
:101D600018077091190780911A0790911B0776D771
:101D700007D9609318077093190780931A079093F7
:101D80001B0783CA20E030E040E85FE3C301B201F3
:101D9000DCD7811111C080E090E0AAE7B3EC80931A
:101DA000380790933907A0933A07B0933B0780E038
:101DB00090E0A0E0B0E43CCB8090440790904507D1
:101DC000A0904607B090470720E030E048EC52E48E
:101DD000C501B401BAD7811131C004E517E0ECE7C1
:101DE000AE2EE7E0BE2EF801219131914191519143
:101DF0008F01C701B601A9D7811193C0A016B10602
:101E000091F7109238071092390710923A07109202
:101E10003B0780E090E0A0E8BFE380934007909309
:101E20004107A0934207B0934307C0925007D09256
:101E30005107E0925207F092530702CB20E030E0C6
:101E400040E85FE3C501B40109D76093440770938C
:101E500045078093460790934707F2CAC501B4012E
:101E600074D78111EDCA10923C0710923D07109271
:101E70003E0710923F0710924007109241071092C0
:101E800042071092430710924407109245071092A0
:101E90004607109247071092500710925107109270
:101EA000520710925307CCCA10922C0710922D079C
:101EB00010922E0710922F0732CB80913807909105
:101EC0003907A0913A07B0913B0780932C07909374
:101ED0002D07A0932E07B0932F0721CB20913C0212
:101EE00030913D0240913E0250913F02C701B60140
:101EF000B4D6B1CB1B8257CC8FEF8B8354CC1B82D3
:101F00007FCC8FEF8B837CCC80E090E0AFE7B3E4B5
:101F10008093B8079093B907A093BA07B093BB0713
:101F200099CC20E030E040E85FE360914807709191
:101F3000490780914A0790914B0790D64B015C016D
:101F40008092480790924907A0924A07B0924B07A7
:101F500068D7605D7F4F660F771F660F771FFB01A5
:101F6000E057F94F80914C0790914D07A0914E0793
:101F7000B0914F0780839183A283B38320E030E048
:101F800040E251E4C501B401E0D6811108C01092CD
:101F900048071092490710924A0710924B07C092C7
:101FA0004C07D0924D07E0924E07F0924F0748CA77
:101FB0008F929F92AF92CF92DF92EF92FF920F9308
:101FC0001F93CF93DF93CDB7DEB764970FB6F89426
:101FD000DEBF0FBECDBFC0903802D0903902E09076
:101FE0003A02F0903B02A70196016091960670912B
:101FF00097068091980690919906A7D6882341F07C
:10200000C0929606D0929706E0929806F0929906B2
:10201000A0E0B7E0FE013196CE014596DE2EFF2E00
:102020004D915D916D917D91419351936193719328
:10203000E817F907A9F76091AA067091AB0680919D
:10204000AC069091AD06F2D6C62E6091A2067091B4
:10205000A3068091A4069091A506E8D6E62E60918D
:10206000A6067091A7068091A8069091A906DED6D3
:10207000062F60919E0670919F068091A006909118
:10208000A106D4D6162F60919A0670919B06809176
:102090009C0690919D06CAD6862F1F921F921F9272
:1020A0001F921F921F92912C812C92E0A92E212F1A
:1020B00045E050E06D2D7F2D0E949C050F900F9004
:1020C0000F900F900F900F9064960FB6F894DEBFAC
:1020D0000FBECDBFDF91CF911F910F91FF90EF9079
:1020E000DF90CF90AF909F908F9008954F925F9226
:1020F0006F927F92AF92BF92DF92EF92FF920F9317
:102100001F93CF93DF9384E090E0C6D184E2A82EA2
:1021100082E0B82E8091CA079091CB07A091CC079E
:10212000B091CD078093700290937102A0937202D8
:10213000B0937302E6E4F3E08DED93E0958384833E
:10214000CFEDD3E0D7AFC6AF01ED13E0138B028B19
:10215000F093AF03E093AE03F383E28321E030E03A
:10216000DC012D933C931092C5031092CC038CE9B3
:1021700092E09187808781EE93E0998388834AE09B
:1021800057ED63EA7BE3F8014083518362837383F5
:10219000C0E9D6E082E493E090937D0780937C07CA
:1021A00088E192E090937F0780937E0710928307E7
:1021B000109282071092E8061092E9061092EA0641
:1021C0001092EB06F50184819581A681B7818093F9
:1021D000F0069093F106A093F206B093F306808583
:1021E0009185A285B3858093F8069093F906A09314
:1021F000FA06B093FB0680E090E0A0E2B1E48093A1
:10220000300790933107A0933207B093330718A299
:1022100084859585A685B7858EA39FA3A8A7B9A712
:1022200080899189A289B3898AA79BA7ACA7BDA7FA
:10223000412C512C3201439449A25AA26BA27CA298
:1022400084E090E099AB88AB88E090E09FA78EA7F0
:1022500080E00E947705DD24D394DDA21CAAF5015D
:1022600080819181A281B3818CAF9DAFAEAFBFAFB2
:102270004DAA5EAA6FAA78AE6BE370E080E090E0B2
:102280000E949B039BAF8AAFD9AE1092D8064092B2
:10229000D9065092DA066092DB067092DC0661E0A5
:1022A0008CE00E943801D092DD061092D006409258
:1022B000D1065092D2066092D3067092D40661E0A5
:1022C00082E20E943801D092D5061092E006409238
:1022D000E1065092E2066092E3067092E406E12C79
:1022E000F12C8701A80197016BE070E080E090E09D
:1022F0000E94AD019093E7068093E606D092E50632
:102300001882F50184899589A689B7898E839F8370
:10231000A887B98749825A826B827C82EA86FB86CB
:102320000C871D8780E090E0A0E0B1E48E879F8756
:10233000A88BB98B80E090E0A0ECB0E48A8B9B8BFB
:10234000AC8BBD8BEE8AFF8A088F198FEA8EFB8ECD
:102350000C8F1D8F80E00E947705DD82DF91CF9189
:102360001F910F91FF90EF90DF90BF90AF907F9003
:102370006F905F904F9008958091B006811103C0D7
:1023800081E08093B0068091C40681111FC081E076
:102390008093C4068091C5069091C606A091C70699
:1023A000B091C8060197A105B10581F48091C906D5
:1023B000882361F06BE370E080E090E00E945703B7
:1023C0009093CB068093CA060E94BE038091D806E4
:1023D000811103C081E08093D8068091D0068111DD
:1023E00003C081E08093D0068091E00681112EC069
:1023F00081E08093E0068091E1069091E206A09151
:10240000E306B091E4060197A105B105F9F48091C6
:10241000E5068823D9F06BE070E080E090E00E9450
:1024200069019093E7068093E60640E050E0BA0128
:102430000E9447016BE070E080E090E00E9469013B
:102440009093E7068093E6060E94F801809190063B
:10245000811103C081E080939006089560E070E0F0
:1024600080E89FE7089560E070E080E89FE70895C6
:1024700060E070E080E89FEF089560E070E080E841
:102480009FEF089560E070E080EC9FEF089560E0BA
:1024900070E080EC9FEF0895F5DF6093CE077093B6
:1024A000CF078093D0079093D107F1DF6093C207E5
:1024B0007093C3078093C4079093C507CFDF6093E1
:1024C000CA077093CB078093CC079093CD07CBDFDF
:1024D0006093C6077093C7078093C8079093C90796
:1024E000C7DF6093D2077093D3078093D40790938C
:1024F000D507C3DF6093D6077093D7078093D807BB
:102500009093D9070895CF92DF92EF92FF92CF93E5
:102510006B017C01AC019B016091CA077091CB07F4
:102520008091CC079091CD0710D4C1E0882369F049
:10253000A70196016091D2077091D3078091D407CB
:102540009091D50702D48111C0E08C2FCF91FF90DC
:10255000EF90DF90CF9008950F931F938B019C0114
:102560000027112720783F770115110520483F47A4
:1025700049F4AB01BC016F77772781E0452B462BEF
:10258000472B09F480E01F910F910895E5CF029742
:102590008431910540F48C549D4FFC018081082EBC
:1025A000000C990B08958FEF9FEF0895CF93DF9361
:1025B000EC0170E060E06C177D071CF0DF91CF91BB
:1025C0000895072E000C880B990B5ED420E030E0B4
:1025D000A90144D320E030E0A90140D320E030E05D
:1025E00040E450E43BD320E030E040E450E435D315
:1025F00018D46F5F7F4FDFCFCF93DF938091EF03CE
:102600009091F0030E944D1DEC018091F303909195
:10261000F403CCDF8091ED039091EE030E944D1DF9
:10262000019771F48091F1039091F203CD2B71F435
:1026300001969093F2038093F103DF91CF91089577
:102640008091F1039091F203219791F30197F1CFDB
:102650000F931F93CF93DF93EC018A0120E030E0CA
:1026600040E85FE3DB016D917D918D919C916DD38D
:1026700081110FC0D801EC91B8E0EB9FF00111245B
:10268000E351FC4F848195819195819591099983BE
:102690008883DF91CF911F910F910895CF92DF92A0
:1026A000EF92FF920F931F93CF93DF937B01EA0189
:1026B00020E030E040E85FE3DB016D917D918D919A
:1026C0009C9143D3882309F45BC0E881D8018C91A5
:1026D00090E0B8E0EB9FF0011124E351FC4F9183AF
:1026E0008083E881D6018C9190E0B8E0EB9FF00107
:1026F0001124E351FC4F93838283E88128E0E29F19
:10270000F0011124E351FC4F8081918160E00E942F
:10271000E41CE88188E0E89FF0011124E351FC4FBC
:102720008281938160E00E94E41CE881A8E0EA9F36
:10273000F0011124E351FC4F8081918161E00E94FE
:10274000201DE881B8E0EB9FF0011124E351FC4F1C
:102750008281938161E00E94201D8091ED03909120
:10276000EE0315DF41E050E06CEF72E146D580E00A
:1027700090E0A0E8BFE3F70180839183A283B38355
:10278000DF91CF911F910F91FF90EF90DF90CF904D
:1027900008952F923F924F925F926F927F928F9205
:1027A0009F92AF92BF92CF92DF92EF92FF920F93E0
:1027B0001F93CF93DF9300D01F92CDB7DEB72C01CC
:1027C0003B017A011901BA82A9829C828B82FB01AA
:1027D00080809180A280B38020E030E0A901C50113
:1027E000B401B3D287FF93C080E090E0A0E8BFEBD4
:1027F0008093E8079093E907A093EA07B093EB076B
:1028000020E030E040E85FE3F20160817181828185
:1028100093819BD28111DDC0BB24B394B092E707B2
:1028200020E030E0A901F101608171818281938112
:102830008CD2811182C0F701408051806280738008
:1028400020E030E0A901C301B2017FD218160CF4D8
:10285000A5C0C301B20190582FE93CE34CEB50E412
:1028600078D26093E3077093E4078093E507909331
:10287000E607B092E2078091E8079091E907A091FE
:10288000EA07B091EB078093DE079093DF07A093F0
:10289000E007B093E1076091E70770E090E080E027
:1028A000F1D2F60160837183828393836091E207A2
:1028B00070E090E080E0E6D2E981FA816083718384
:1028C000828393838091E3079091E407A091E507C9
:1028D000B091E607EB81FC8180839183A283B3836F
:1028E0000F900F900F900F90DF91CF911F910F914C
:1028F000FF90EF90DF90CF90BF90AF909F908F9020
:102900007F906F905F904F903F902F90089520E0C0
:1029100030E0A901C501B40108D418162CF480E0F8
:1029200090E0A0E8BFE364CF1092E8071092E907B7
:102930001092EA071092EB0763CFF30140805180B9
:102940006280738020E030E040EA51ECC301B201C4
:10295000ECD387FD20C020E030E040EA51E4C30121
:10296000B201F3D11816BCF0F801408051806280AA
:10297000738020E030E44BEA54E4C301B201E5D1B6
:1029800018164CF020E030E44BEA54ECC301B201DD
:10299000CCD387FF50CF1092E7076DCF20E030E017
:1029A000A901C301B201C1D318160CF064CF2FE9FD
:1029B0003CE34CEB50E4C301B201CBD16093E3079D
:1029C0007093E4078093E5079093E6071092E2077F
:1029D00052CF109205041092060410920704109230
:1029E0000804D9CF26E030E040E050E16EE070E02E
:1029F00090E080E000C010920A041092090489302F
:102A0000910508F03BC0FC018827E65FFA4E8F4F26
:102A10000C947D2313151D1526152F1538153F15FC
:102A2000421545154B1581E090E090930A04809380
:102A300009048CE194E00C943F1E82E090E09093B6
:102A40000A048093090489EB94E0F5CF84E090E0D8
:102A500090930A048093090486E595E0ECCF88E022
:102A600090E090930A048093090483EF95E0E3CF0C
:102A700080E190E090930A0480930904089580E235
:102A800090E0F8CF80E490E0F5CF80E890E090937C
:102A90000A04809309048091090490910A049160CA
:102AA000E9CF1F920F920FB60F9211240BB60F921F
:102AB0002F933F934F935F936F937F938F939F9346
:102AC000AF93BF93EF93FF938EE19BEF909325011C
:102AD0008093240134D0FF91EF91BF91AF919F91EA
:102AE0008F917F916F915F914F913F912F910F90B7
:102AF0000BBE0F900FBE0F901F9018958EE19BEFAD
:102B00009093250180932401A3E7B0E08C918E7F00
:102B10008C93E0E2F1E080818C7F8083E1E2F1E060
:102B20008081877E808380818360808380818B7FAA
:102B300080838C9181608C93089581E00895CF9378
:102B4000DF9300D0CDB7DEB780910E0491E0980FEF
:102B500090930E04882371F021E030E0309312044A
:102B60002093110480930E040F900F900F90DF912B
:102B7000CF910895CE0101960E94190878940E9481
:102B80007008F89480910E04815080930E048B811C
:102B9000882389F080910D0491E0980F90930D04A3
:102BA000882349F021E030E030931204209311048F
:102BB00080930D04D9CF80910D048823A9F28091D0
:102BC0000F048111D1CF809110048F5F8093100486
:102BD0007894EED9F89480910D04815080930D047F
:102BE00080911004815080931004BECFCF93DF9367
:102BF0001092ED071092EC0728D5F4DEC091AE02DA
:102C0000D091AF021982188271DAF89477DF81E0EF
:102C100028813981232B09F080E08093EC07789498
:102C200078948091EC07811107C0A6DBF89490E0BE
:102C300080E0DF91CF91089581E028813981232BB5
:102C400009F480E08093ED079091ED0781E0911108
:102C500080E08093EC0771DFE4CF5058BB27AA27B0
:102C60000ED012C203D230F008D220F031F49F3FD0
:102C700011F41EF4F8C10EF4E095E7FBC5C1E92F8D
:102C800014D280F3BA17620773078407950718F008
:102C900071F49EF543C20EF4E0950B2EBA2FA02DD1
:102CA0000B01B90190010C01CA01A0011124FF27F9
:102CB000591B99F0593F50F4503E68F11A16F040F4
:102CC000A22F232F342F4427585FF3CF46953795F3
:102CD0002795A795F0405395C9F77EF41F16BA0BB8
:102CE000620B730B840BBAF09150A1F0FF0FBB1F66
:102CF000661F771F881FC2F70EC0BA0F621F731FAF
:102D0000841F48F4879577956795B795F7959E3F0B
:102D100008F0B3CF9395880F08F09927EE0F979599
:102D200087950895E4D180F09F3740F491110EF417
:102D3000F6C160E070E080E89FE3089526F01B167E
:102D4000611D711D811D66C180C13AD108F481E009
:102D500008950CD099C191D140F088D130F021F480
:102D60005F3F19F051C15111DAC17DC19ED198F375
:102D70009923C9F35523B1F3951B550BBB27AA27FC
:102D800062177307840738F09F5F5F4F220F331F6E
:102D9000441FAA1FA9F333D00E2E3AF0E0E830D03A
:102DA00091505040E695001CCAF729D0FE2F27D03D
:102DB000660F771F881FBB1F261737074807AB070B
:102DC000B0E809F0BB0B802DBF01FF2793585F4F80
:102DD0002AF09E3F510568F017C1A1C15F3FECF397
:102DE000983EDCF3869577956795B795F7959F5F45
:102DF000C9F7880F911D9695879597F90895E1E099
:102E0000660F771F881FBB1F621773078407BA07F7
:102E100020F0621B730B840BBA0BEE1F88F7E09552
:102E2000089504D06894B1117AC1089546D188F00C
:102E30009F5790F0B92F9927B751A0F0D1F0660FA6
:102E4000771F881F991F1AF0BA95C9F712C0B130C1
:102E500081F064D1B1E0089561C1672F782F882790
:102E6000B85F39F0B93FCCF3869577956795B39500
:102E7000D9F73EF490958095709561957F4F8F4F6F
:102E80009F4F0895E89409C097FB3EF49095809574
:102E9000709561957F4F8F4F9F4F9923A9F0F92F20
:102EA00096E9BB279395F695879577956795B7959E
:102EB000F111F8CFFAF4BB0F11F460FF1BC06F5F84
:102EC0007F4F8F4F9F4F16C0882311F096E911C096
:102ED000772321F09EE8872F762F05C0662371F0B7
:102EE00096E8862F70E060E02AF09A95660F771FCB
:102EF000881FDAF7880F9695879597F90895F7D088
:102F000080F09F3740F491110EF009C160E070E04D
:102F100080E89FEB089526F41B16611D711D811D2D
:102F200079C093C0A3D018F011F0A7D038F49BC09B
:102F3000F6C0E92FBAD0B0F35523C9F3E7FB621707
:102F4000730784079507A8F199F3E92FFF278823D2
:102F50002AF03197660F771F881FDAF7952F5527CC
:102F6000442332F091505040220F331F441FD2F7B8
:102F7000BB27E91BF50B621B730B840BB109C1F274
:102F800022F4620F731F841FB11D31972AF0660F60
:102F9000771F881FBB1FEFCF915050405AF041F070
:102FA000882332F0660F771F881F91505040C1F779
:102FB00093954BC08695779567959F5FD9F7F8CF26
:102FC000990F0008550FAA0BE0E8FEEF161617063A
:102FD000E807F907C0F012161306E407F50798F0A2
:102FE000621B730B840B950B39F40A2661F0232BBB
:102FF000242B252B21F408950A2609F4A140A69537
:103000008FEF811D811D089597F99F6780E870E01B
:1030100060E00895882371F4772321F09850872B7E
:10302000762F07C0662311F499270DC09051862B87
:1030300070E060E02AF09A95660F771F881FDAF734
:10304000880F9695879597F908959F3F31F0915095
:1030500020F4879577956795B795880F911D96957C
:10306000879597F908959FEF80EC089500240A94BE
:103070001616170618060906089500240A94121653
:103080001306140605060895092E0394000C11F486
:10309000882352F0BB0F40F4BF2B11F460FF04C033
:1030A0006F5F7F4F8F4F9F4F089557FD9058440F8C
:1030B000551F59F05F3F71F04795880F97FB991F97
:1030C00061F09F3F79F08795089512161306140654
:1030D000551FF2CF4695F1DF08C0161617061806E1
:1030E000991FF1CF86957105610508940895E5DF74
:1030F000A0F0BEE7B91788F4BB279F3860F4161616
:10310000B11D672F782F8827985FF7CF8695779521
:103110006795B11D93959639C8F30895E894BB2738
:1031200066277727CB0197F908954ADF08F48FEFD8
:1031300008950BD0A9CF9ADF28F09FDF18F09523D0
:1031400009F062CF90CF1124EACFAFDFA0F3959FB3
:10315000D1F3950F50E0551F629FF001729FBB277E
:10316000F00DB11D639FAA27F00DB11DAA1F649F2A
:103170006627B00DA11D661F829F2227B00DA11DDD
:10318000621F739FB00DA11D621F839FA00D611D63
:10319000221F749F3327A00D611D231F849F600D84
:1031A000211D822F762F6A2F11249F5750408AF0BD
:1031B000E1F088234AF0EE0FFF1FBB1F661F771F49
:1031C000881F91505040A9F79E3F510570F01CCFC9
:1031D000A6CF5F3FECF3983EDCF386957795679535
:1031E000B795F795E7959F5FC1F7FE2B880F911D67
:1031F0009695879597F908950895883008F076C0D8
:10320000E82FF0E0EE0FFF1FE557FD4F718360835D
:103210008150873008F03DC0E82FF0E08827EC5E51
:10322000F64E8F4F0C947D2351191B1923192F191A
:103230003C195D196A19809169008C7F482B409375
:103240006900E89A089580916900837F440F551FB3
:10325000440F551F482B40936900E99A08958091C7
:1032600069008F7C74E0440F551F7A95E1F7482B75
:1032700040936900EA9A0895809169008F7366E02F
:10328000440F551F6A95E1F7482B40936900EB9A6C
:10329000089580916A008C7F482B40936A00EC9AD5
:1032A000089580916A00837F440F551F440F551F76
:1032B000482B40936A00ED9A089580916A008F7CB4
:1032C00024E0440F551F2A95E1F7482B40936A00EC
:1032D000EE9A089580916A008F7396E0440F551F0F
:1032E0009A95E1F7482B40936A00EF9A08951F9250
:1032F0000F920FB60F9211240BB60F922F933F939C
:103300004F935F936F937F938F939F93AF93BF93ED
:10331000EF93FF93E0918F02F09190021995FF9146
:10332000EF91BF91AF919F918F917F916F915F913D
:103330004F913F912F910F900BBE0F900FBE0F90AA
:103340001F9018951F920F920FB60F9211240BB673
:103350000F922F933F934F935F936F937F938F932E
:103360009F93AF93BF93EF93FF93E0919102F091FE
:1033700092021995FF91EF91BF91AF919F918F911B
:103380007F916F915F914F913F912F910F900BBE65
:103390000F900FBE0F901F9018951F920F920FB6AF
:1033A0000F9211240BB60F922F933F934F935F937D
:1033B0006F937F938F939F93AF93BF93EF93FF93FD
:1033C000E0919302F09194021995FF91EF91BF91D2
:1033D000AF919F918F917F916F915F914F913F91AD
:1033E0002F910F900BBE0F900FBE0F901F9018954E
:1033F0001F920F920FB60F9211240BB60F922F93BC
:103400003F934F935F936F937F938F939F93AF936C
:10341000BF93EF93FF93E0919502F0919602199577
:10342000FF91EF91BF91AF919F918F917F916F919C
:103430005F914F913F912F910F900BBE0F900FBE58
:103440000F901F9018951F920F920FB60F92112494
:103450000BB60F922F933F934F935F936F937F938E
:103460008F939F93AF93BF93EF93FF93E0918B0262
:10347000F0918C021995FF91EF91BF91AF919F91BF
:103480008F917F916F915F914F913F912F910F900D
:103490000BBE0F900FBE0F901F9018951F920F92AA
:1034A0000FB60F9211240BB60F922F933F934F93A9
:1034B0005F936F937F938F939F93AF93BF93EF939C
:1034C000FF93E0918D02F0918E021995FF91EF919B
:1034D000BF91AF919F918F917F916F915F914F912C
:1034E0003F912F910F900BBE0F900FBE0F901F902A
:1034F00018951F920F920FB60F9211240BB60F92D0
:103500002F933F934F935F936F937F938F939F93EB
:10351000AF93BF93EF93FF93E0919702F0919802DE
:103520001995FF91EF91BF91AF919F918F917F91ED
:103530006F915F914F913F912F910F900BBE0F9024
:103540000FBE0F901F9018951F920F920FB60F92FB
:1035500011240BB60F922F933F934F935F936F936A
:103560007F938F939F93AF93BF93EF93FF93E091DC
:103570009902F0919A021995FF91EF91BF91AF9145
:103580009F918F917F916F915F914F913F912F917B
:103590000F900BBE0F900FBE0F901F9018951F92AB
:1035A0000F920FB60F9211242F933F938F939F93F7
:1035B000AF93BF938091140490911504A0911604C9
:1035C000B09117043091130423E0230F2D3758F5E1
:1035D0000196A11DB11D20931304809314049093B0
:1035E0001504A0931604B0931704809118049091C9
:1035F0001904A0911A04B0911B040196A11DB11DDC
:103600008093180490931904A0931A04B0931B0498
:10361000BF91AF919F918F913F912F910F900FBECE
:103620000F901F90189526E8230F0296A11DB11D3B
:10363000D2CF2FB7F8946091140470911504809143
:103640001604909117042FBF0895789484B5826072
:1036500084BD84B5816084BD85B5826085BD85B536
:10366000816085BDEEE6F0E0808181608083E1E8E5
:10367000F0E010828081826080838081816080831D
:10368000E0E8F0E0808181608083E1EBF0E0808120
:1036900084608083E0EBF0E0808181608083E1E9F9
:1036A000F0E0808182608083808181608083E0E9B6
:1036B000F0E0808181608083E1EAF0E080818260D7
:1036C0008083808181608083E0EAF0E08081816096
:1036D0008083E1E2F1E0808182608083808181608B
:1036E0008083E0E2F1E0808181608083EAE7F0E0BE
:1036F000808184608083808182608083808181601A
:1037000080838081806880831092C1000895863311
:1037100008F0865320917B00982F9870277F922B7A
:1037200090937B0020919B0290E4299F90011124AB
:103730008770822B80937C0080917A0080648093D4
:103740007A0080917A0086FDFCCF8091780090917C
:10375000790008951F93CF93DF93182FEB0161E059
:1037600033D1209731F460E0812FDF91CF911F9109
:1037700067C1CF3FD10511F461E0F6CFE12FF0E052
:10378000EC51FF4FE491E150E23108F0B2C0F0E0BB
:103790008827E353F44E8F4FB0C7DF1BE71BEC1BAA
:1037A000F61B001C791C0A1C121C1A1C241C2E1C43
:1037B000381C471C511C791C5B1C651C6F1C84B594
:1037C000806884BDC7BDDF91CF911F91089584B5F6
:1037D000806284BDC8BDF7CF8091800080688093EF
:1037E0008000D0938900C0938800EDCF8091800045
:1037F000806280938000D0938B00C0938A00E3CFD7
:1038000080918000886080938000D0938D00C09369
:103810008C00D9CF8091B00080688093B000C093B5
:10382000B300D1CF8091B00080628093B000C0938C
:10383000B400C9CF80919000806880939000D093AD
:103840009900C0939800BFCF8091900080628093D0
:103850009000D0939B00C0939A00B5CF80919000C8
:10386000886080939000D0939D00C0939C00ABCF64
:103870008091A00080688093A0008091A0008F7B41
:103880008093A000D093A900C093A8009CCF809102
:10389000A00080628093A000D093AB00C093AA00E8
:1038A00092CF8091A00088608093A000D093AD005B
:1038B000C093AC0088CF8091200180688093200164
:1038C000D0932901C09328017ECF8091200180628E
:1038D00080932001D0932B01C0932A0174CF809153
:1038E0002001886080932001D0932D01C0932C018A
:1038F0006ACFC038D1050CF03FCF35CF815082312F
:1039000008F059C0E82FF0E08827E757F34E8F4FB3
:10391000F4C6A91CAD1C9B1CA11CA51CDB1CB01C67
:10392000B61CBA1CC01CC41CC81CCE1CD21CDB1C80
:10393000D61CDC1CE01C809180008F778093800077
:103940000895809180008F7DF9CF80918000877FDE
:10395000F5CF84B58F7784BD089584B58F7DFBCF77
:103960008091B0008F778093B00008958091B0006F
:103970008F7DF9CF809190008F778093900008958C
:10398000809190008F7DF9CF80919000877FF5CF57
:103990008091A0008F778093A00008958091A0006F
:1039A0008F7DF9CF8091A000877FF5CF8091200196
:1039B0008F77809320010895809120018F7DF9CF2A
:1039C00080912001877FF5CFCF93DF9390E0FC01BA
:1039D000E65DFE4F249180599E4FFC01849188231F
:1039E000C9F090E0880F991FFC01E651FE4FA591A8
:1039F000B491FC01E053FE4FC591D49161110DC00B
:103A00009FB7F8948C91209582238C9388812823EA
:103A100028839FBFDF91CF910895623051F49FB703
:103A2000F8943C91822F809583238C93E8812E2BF0
:103A3000EFCF8FB7F894EC912E2B2C938FBFEACF5A
:103A40001F93CF93DF93282F30E0F901EC51FF4F04
:103A50008491F901E65DFE4FD491F901E059FE4FE2
:103A6000C491CC23A1F0162F811148DFEC2FF0E098
:103A7000EE0FFF1FE053FE4FA591B4918FB7F8945E
:103A8000EC91111108C0D095DE23DC938FBFDF913C
:103A9000CF911F910895DE2BF8CFCF93DF93282F7E
:103AA00030E0F901EC51FF4F8491F901E65DFE4FE2
:103AB000D491F901E059FE4FC491CC2399F08111C2
:103AC0001DDFEC2FF0E0EE0FFF1FEA54FE4FA59133
:103AD000B491EC91ED2381E090E009F480E0DF9176
:103AE000CF91089580E090E0FACFFC01918D228D76
:103AF000892F90E0805C9F4F821B91098F739927DB
:103B00000895FC01918D828D981731F0828DE80F18
:103B1000F11D858D90E008958FEF9FEF0895FC01D2
:103B2000918D828D981761F0A28DAE0FBF2FB11DC0
:103B30005D968C91928D9F5F9F73928F90E0089518
:103B40008FEF9FEF0895FC01538D448D252F30E0BA
:103B5000842F90E0821B930B541710F0CF9608959A
:103B600001970895FC01A48DA80FB92FB11DA35A88
:103B7000BF4F2C91848D90E001968F739927848F8D
:103B8000A689B7892C93A089B1898C9183708064B0
:103B90008C93938D848D981306C00288F389E02D51
:103BA00080818F7D80830895CF93DF93EC01888D92
:103BB0008823B1F0AA89BB89E889F9898C9185FDB0
:103BC00003C0808186FD0CC00FB607FCF7CF8C9137
:103BD00085FFF2CF808185FFEDCFCE01C3DFEACF35
:103BE000DF91CF910895EF92FF920F931F93CF93A0
:103BF000DF93EC0181E0888F9B8D8C8D98131AC028
:103C0000E889F989808185FF15C09FB7F894EE890E
:103C1000FF896083E889F98980818370806480836B
:103C20009FBF81E090E0DF91CF911F910F91FF90B6
:103C3000EF900895F62E0B8D10E00F5F1F4F0F735E
:103C40001127E02E8C8D8E110BC00FB607FCFACF1A
:103C5000E889F989808185FFF5CFCE0183DFF2CF36
:103C6000EB8DEC0FFD2FF11DE35AFF4FF0829FB754
:103C7000F8940B8FEA89FB8980818062D0CFCF9244
:103C8000DF92EF92FF921F93CF93DF93EC016A01D3
:103C90007B01122FE889F98982E08083C11481EECB
:103CA000D806E104F10499F060E079E08DE390E05A
:103CB000A701960100D521503109410951095695B6
:103CC000479537952795211580E1380790F0E889C9
:103CD000F989108260E874E88EE190E0A70196010E
:103CE000EAD4215031094109510956954795379534
:103CF0002795EC85FD853083EE85FF852083188E22
:103D0000EC89FD891083EA89FB8980818061808349
:103D1000EA89FB89808188608083EA89FB898081C8
:103D200080688083EA89FB8980818F7D8083DF9131
:103D3000CF911F91FF90EF90DF90CF9008951F9249
:103D40000F920FB60F9211240BB60F922F938F93F1
:103D50009F93EF93FF93E0912C04F0912D048081C9
:103D6000E0913204F091330482FD1DC09081809176
:103D700035048F5F8F7320913604821741F0E091F4
:103D80003504F0E0E45EFB4F958F80933504FF919E
:103D9000EF919F918F912F910F900BBE0F900FBEBF
:103DA0000F901F9018958081F2CF1F920F920FB63F
:103DB0000F9211240BB60F922F933F934F935F9363
:103DC0006F937F938F939F93AF93BF93EF93FF93E3
:103DD0008CE194E0C7DEFF91EF91BF91AF919F918D
:103DE0008F917F916F915F914F913F912F910F90A4
:103DF0000BBE0F900FBE0F901F901895ECE1F4E0F2
:103E00001382128288EE93E0A0E0B0E08483958371
:103E1000A683B7838CEC92E09183808385EC90E05D
:103E20009587848784EC90E09787868780EC90E084
:103E3000918B808B81EC90E0938B828B82EC90E075
:103E4000958B848B86EC90E0978B868B118E128EEF
:103E5000138E148E08951F920F920FB60F92112495
:103E60000BB60F922F938F939F93EF93FF93E09155
:103E7000C904F091CA048081E091CF04F091D0048C
:103E800082FD1DC090818091D2048F5F8F7320913D
:103E9000D304821741F0E091D204F0E0E754FB4FE5
:103EA000958F8093D204FF91EF919F918F912F91E5
:103EB0000F900BBE0F900FBE0F901F901895808132
:103EC000F2CF1F920F920FB60F9211240BB60F92E2
:103ED0002F933F934F935F936F937F938F939F9312
:103EE000AF93BF93EF93FF9389EB94E03BDEFF9199
:103EF000EF91BF91AF919F918F917F916F915F9162
:103F00004F913F912F910F900BBE0F900FBE0F90CE
:103F10001F901895E9EBF4E01382128288EE93E08B
:103F2000A0E0B0E084839583A683B7838CEC92E015
:103F3000918380838DEC90E0958784878CEC90E072
:103F40009787868788EC90E0918B808B89EC90E056
:103F5000938B828B8AEC90E0958B848B8EEC90E037
:103F6000978B868B118E128E138E148E08951F924E
:103F70000F920FB60F9211240BB60F922F938F93BF
:103F80009F93EF93FF93E0916605F0916705808121
:103F9000E0916C05F0916D0582FD1DC090818091CE
:103FA0006F058F5F8F7320917005821741F0E0914C
:103FB0006F05F0E0EA5AFA4F958F80936F05FF91F5
:103FC000EF919F918F912F910F900BBE0F900FBE8D
:103FD0000F901F9018958081F2CF1F920F920FB60D
:103FE0000F9211240BB60F922F933F934F935F9331
:103FF0006F937F938F939F93AF93BF93EF93FF93B1
:1040000086E595E0AFDDFF91EF91BF91AF919F9174
:104010008F917F916F915F914F913F912F910F9071
:104020000BBE0F900FBE0F901F901895E6E5F5E0C0
:104030001382128288EE93E0A0E0B0E0848395833F
:10404000A683B7838CEC92E09183808385ED90E02A
:104050009587848784ED90E09787868780ED90E050
:10406000918B808B81ED90E0938B828B82ED90E041
:10407000958B848B86ED90E0978B868B118E128EBC
:10408000138E148E08951F920F920FB60F92112463
:104090000BB60F922F938F939F93EF93FF93E09123
:1040A0000306F09104068081E0910906F0910A066A
:1040B00082FD1DC0908180910C068F5F8F732091CF
:1040C0000D06821741F0E0910C06F0E0ED50FA4F3A
:1040D000958F80930C06FF91EF919F918F912F9177
:1040E0000F900BBE0F900FBE0F901F901895808100
:1040F000F2CF1F920F920FB60F9211240BB60F92B0
:104100002F933F934F935F936F937F938F939F93DF
:10411000AF93BF93EF93FF9383EF95E023DDFF9180
:10412000EF91BF91AF919F918F917F916F915F912F
:104130004F913F912F910F900BBE0F900FBE0F909C
:104140001F901895E3EFF5E01382128288EE93E05A
:10415000A0E0B0E084839583A683B7838CEC92E0E3
:104160009183808385E391E09587848784E391E060
:104170009787868780E391E0918B808B81E391E044
:10418000938B828B82E391E0958B848B86E391E025
:10419000978B868B118E128E138E148E0895AF928C
:1041A000BF92CF92DF92EF92FF920F931F93CF9324
:1041B000DF936C017B018B01040F151FEB015E0186
:1041C000AE18BF08C017D10759F06991D601ED911B
:1041D000FC910190F081E02DC6011995892B79F7AA
:1041E000C501DF91CF911F910F91FF90EF90DF906C
:1041F000CF90BF90AF900895FB0101900020E9F7A8
:104200003197AF01461B570BDC01ED91FC91028009
:10421000F381E02D19946115710509F0EDCF90E05F
:1042200080E00895DC01ED91FC910190F081E02D9A
:1042300019946AED72E0E0CF8F929F92AF92BF9295
:10424000EF92FF920F931F93CF93DF93CDB7DEB71B
:10425000A1970FB6F894DEBF0FBECDBF7C01FA0167
:10426000CB0119A2223008F42AE08E010F5D1F4F06
:10427000822E912CB12CA12CBF01A50194011BD23F
:10428000F901CA016A3004F5605DD8016E938D01B1
:10429000232B242B252B81F790E080E0109719F039
:1042A000BD01C701A9DFA1960FB6F894DEBF0FBE0E
:1042B000CDBFDF91CF911F910F91FF90EF90BF90F5
:1042C000AF909F908F900895695CDFCFCF92DF927F
:1042D000EF92FF920F931F93CF93DF932115310538
:1042E00081F4DC01ED91FC910190F081E02D642FCF
:1042F000DF91CF911F910F91FF90EF90DF90CF90C2
:1043000019942A303105F1F42AE077FF1BC06A01C5
:104310007B01EC016DE286DF8C0144275527BA0151
:104320004C195D096E097F092AE0CE0185DF800FF7
:10433000911FDF91CF911F910F91FF90EF90DF9030
:10434000CF900895DF91CF911F910F91FF90EF9043
:10435000DF90CF9071CF9A01AB01770F660B770B8F
:10436000B5CF0F931F93CF93DF93EC01F4DF8C0154
:10437000CE015FDF800F911FDF91CF911F910F91D1
:1043800008950F931F93CF93DF93EC019FDF8C0170
:10439000CE014FDF800F911FDF91CF911F910F91C1
:1043A00008952115310541F4DC01ED91FC91019056
:1043B000F081E02D642F19943FCF9A01462F50E0F1
:1043C00070E060E0EECF0F931F93CF93DF93EC018B
:1043D000F4DF8C01CE012DDF800F911FDF91CF9193
:1043E0001F910F9108959A01AB0170E060E0D9CF61
:1043F0000F931F93CF93DF93EC01F5DF8C01CE0178
:1044000018DF800F911FDF91CF911F910F910895B9
:104410000F931F93CF93DF93EC01C3DF8C01CE0189
:1044200008DF800F911FDF91CF911F910F910895A9
:104430002F923F924F925F926F927F928F929F92B4
:10444000AF92BF92CF92DF92EF92FF921F93CF93E2
:10445000DF93EC016A017B01722EAB019601CB0167
:10446000B60153D16DED72E0811125C046015701AF
:10447000E894B7F82FEF3FEF4FE75FE7C501B401CE
:1044800044D181110CC02FEF3FEF4FE75FE7C5012B
:10449000B4010E94A51661EE72E0181664F02FEFC9
:1044A0003FEF4FE75FE4C701B6010E949518181669
:1044B000ACF465EE72E0CE01DF91CF911F91FF90D9
:1044C000EF90DF90CF90BF90AF909F908F907F90B4
:1044D0006F905F904F903F902F908ECE2FEF3FEFD9
:1044E0004FE75FECC701B6010E94A51687FDE1CF3B
:1044F00020E030E0A901C701B6010E94A516312CC9
:10450000212C87FF08C06DE2CE018CDE1C01F7FA7A
:10451000F094F7F8F09410E060E070E080E09FE342
:10452000711641F020E030E040E251E40E94A9160B
:104530001F5FF6CFA70196010E942E162B013C01AA
:104540000E9416174B015C012AE0BC01A401CE01B8
:1045500073DE7C01E20CF31C1123A1F1C501B4014F
:104560000E9442179B01AC01C301B2010E942D16AB
:104570004B015C016EE2CE0155DEE80EF91E1150D2
:1045800008F120E030E040E251E4C501B4010E94AE
:1045900099182B013C010E9416174B014AE050E08C
:1045A000CE0121DFE80EF91EB40190E080E00E9408
:1045B00042179B01AC01C301B2010E942D164B01B1
:1045C0005C01DDCFC701DF91CF911F91FF90EF908C
:1045D000DF90CF90BF90AF909F908F907F906F9023
:1045E0005F904F903F902F90089522CF0F931F938D
:1045F000CF93DF93EC011CDF8C01CE011ADE800F1C
:10460000911FDF91CF911F910F9108950F931F93E9
:10461000CF93DF93EC010DD8688779878A879B87D2
:10462000E881F9810284F385E02DCE01199597FF89
:1046300015C00E94191B088519852A853B85601BBA
:10464000710B820B930B0C811D812E813F816017B2
:1046500071078207930720F38FEF9FEFDF91CF91D0
:104660001F910F910895AF92BF92CF92DF92EF9278
:10467000FF920F931F93CF93DF935C017B018B011C
:10468000040F151FEB016E01CE18DF08C017D1070C
:1046900031F0C501BBDF97FD02C08993F4CFC6019D
:1046A000DF91CF911F910F91FF90EF90DF90CF900E
:1046B000BF90AF900895A1E21A2EAA1BBB1BFD016B
:1046C0000DC0AA1FBB1FEE1FFF1FA217B307E407F1
:1046D000F50720F0A21BB30BE40BF50B661F771F49
:1046E000881F991F1A9469F7609570958095909529
:1046F0009B01AC01BD01CF010895EE0FFF1F881F84
:104700008BBF0790F691E02D19940E94E017880B5B
:08471000990B0895F894FFCF06
:1047180067056B056F05730557055B055F05630541
:10472800C903CF03D503DB0300C07F44000040402A
:104738000000B6420AD7A33B0000000000000000BA
:1047480000000000000040400000000000C0FF43DF
:1047580000202645000024440000B443000040BF68
:1047680099806D3F5C808E3D9A99193D35FA8E3C53
:10477800000048436DA3673F8A4FB93DCDCC4C3DFF
:10478800000000006F12833A000048436DA3673FA2
:104798008A4FB93DCDCC4C3D000323FC18FC18FCD6
:1047A80018FC18FC18FC18FC18FC180146697865F8
:1047B8006453746570446973637265746500460375
:1047C800000000000001FFFFFFFFFFFFFFFFFFFFEA
:1047D800FFFFFFFF0504030200000000F31DCF20C8
:1047E800A31DD41D751D8F1D811D0D0A006E616EE0
:0A47F80000696E66006F766600002F
:00000001FF
