:1000000005C100000C94D6180C9401190C942C19FD
:100010000C9457190C9482190C94AD190C94D8199E
:100020000C94031A24C1000022C1000020C100006A
:100030001EC100001CC100001AC1000018C1000050
:1000400016C1000014C1000012C1000010C1000060
:100050000EC100000CC100000AC100000C942E1A51
:1000600006C100000C94FE1D0C94341E00C100005B
:10007000FEC00000FCC00000FAC00000F8C0000094
:10008000F6C00000F4C00000F2C00000F0C00000A4
:100090000C948A1E0C94C01EEAC00000E8C0000048
:1000A000E6C00000E4C00000E2C00000E0C00000C4
:1000B000DEC00000DCC00000DAC00000D8C00000D4
:1000C000D6C00000D4C000000C94B0140C94161FCD
:1000D0000C944C1FCCC000000C94A21F0C94D81F91
:1000E000C6C0000000000A0B02090C0D0E08070331
:1000F00004010000000000000000000000000000FB
:1001000000000000000000000000000000000000EF
:1001100012111000000000000000000000000000AC
:100120000000000000000000000001021020200874
:100130000810204010204080020102010804020142
:1001400001020408102040808040201008040201B1
:10015000800402018040201008040201080402010A
:100160000102040810204080010204081020408091
:1001700005050505070508080808020202020A0A23
:100180000808040404040101010101010101030341
:10019000030303030303040707070C0C0C0C0C0CEC
:1001A0000C0C0202020206060606060606060B0BE9
:1001B0000B0B0B0B0B0B000020002300260029006B
:1001C0002C002F003200000100000301060109018C
:1001D00000002200250028002B002E0031003400F2
:1001E00002010000050108010B01000021002400AC
:1001F00027002A002D003000330001010000040117
:1002000007010A015D1EE91E751F012011241FBE92
:10021000CFEFD1E2DEBFCDBF00E00CBF12E0A0E027
:10022000B2E0E6EDF5E400E00BBF02C007900D92EE
:10023000A23DB107D9F727E0A2EDB2E001C01D92BF
:10024000A63CB207E1F711E0C6E0D1E000E006C04D
:1002500021970109802FFE010E94DC22C230D107C4
:1002600080E00807A9F70E9455150C94E922C8CE32
:10027000611102C00C94431C6130E1F362E0FACFDB
:10028000662319F061E00C947F1C60E0FCCFCF93F3
:10029000282F8823E1F0CB01BA01CFEFC20FEC2F5A
:1002A000F0E0EE52FD4F2081213059F490580E9429
:1002B00075169B01AC016C2F70E090E080E0CF914F
:1002C000A2C00E9470168C2FCF910C94091BCF9165
:1002D00008950F931F938B019C0183E0369527951A
:1002E000179507958A95D1F7085E1C4F462F4770E2
:1002F00021E030E0F90102C0EE0FFF1F4A95E2F75E
:10030000AF01F80120812423CB010196211102C005
:1003100090E080E01F910F9108950F931F938B0140
:100320009C0183E036952795179507958A95D1F717
:10033000677081E090E001C0880F6A95EAF7F801E4
:10034000E85EFC4F2081452B31F480958223808329
:100350001F910F910895822BFACF4F925F926F9267
:100360007F928F929F92AF92BF92CF92DF92EF9245
:10037000FF920F931F93CF93DF934B015C012901F1
:100380003A01670161E0882D0E94431CE401219637
:10039000AE01C501B401C1DF20E030E0A901C80110
:1003A000B6010E94F41718168CF4F401EE52FD4FBA
:1003B00081E08083C801B6010E9475166B01C301FC
:1003C000B2010E947516A601C40121D0CE01DF91B1
:1003D000CF911F910F91FF90EF90DF90CF90BF9042
:1003E000AF909F908F907F906F905F904F90089507
:1003F000882341F08150682F70E090E080E050E069
:1004000040E08BCF0895862FB9010C94091B9C0105
:10041000FC01EC51FF4FE491E150E231E0F4F0E0F7
:100420008827EA5EFD4F8F4F0C94DC2228022F02B2
:10043000320249025E022B0273027F0283029A0299
:10044000AF02C402DB02F0022B0205031C033103DE
:1004500084B5806884BD60E0822F0C947F1C84B5D5
:100460008062F8CF809180008C7F826080938000D2
:1004700080918100807E8061682B60938100509321
:100480008700409386008091800080688093800080
:10049000E2CF809180008C7F826080938000809189
:1004A0008100807E8061682B60938100509387007B
:1004B00040938600809180008062E8CF8091800028
:1004C0008C7F82608093800080918100807E80613B
:1004D000682B609381005093870040938600809141
:1004E00080008860D3CF8091B00080688093B00096
:1004F0008091B100887F682B6093B100ACCF809170
:10050000B0008062F3CF809190008C7F82608093F6
:10051000900080919100807E8061682B60939100B3
:10052000509397004093960080919000806880934C
:10053000900091CF809190008C7F8260809390009A
:1005400080919100807E8061682B60939100509330
:10055000970040939600809190008062E8CF809150
:1005600090008C7F82608093900080919100807ECB
:100570008061682B609391005093970040939600A0
:10058000809190008860D3CF8091A0008C7F8260A2
:100590008093A0008091A100807E8061682B609391
:1005A000A1005093A7004093A6008091A00080680E
:1005B0008093A00050CF8091A0008C7F82608093B8
:1005C000A0008091A100807E8061682B6093A100D3
:1005D0005093A7004093A6008091A0008062E8CFCE
:1005E0008091A0008C7F82608093A0008091A10008
:1005F000807E8061682B6093A1005093A700409398
:10060000A6008091A0008860D3CF809120018C7FCC
:1006100082608093200180912101807E8061682B1F
:10062000609321015093270140932601809120017E
:100630008068809320010FCF809120018C7F8260A1
:100640008093200180912101807E8061682B6093DE
:10065000210150932701409326018091200180625F
:10066000E8CF809120018C7F82608093200180916F
:100670002101807E8061682B6093210150932701C6
:1006800040932601809120018860D3CFCF93DF93E0
:10069000882349F0EB0181500E94E61A99838883F0
:1006A000DF91CF910895FB0111821082F9CF0F9352
:1006B0001F938B019C0183E036952795179507952D
:1006C0008A95D1F70F5D1C4F462F477021E030E02F
:1006D000F90102C0EE0FFF1F4A95E2F7AF01F801E2
:1006E00020812423CB010196211102C090E080E0FB
:1006F0001F910F9108950F931F938B019C0183E02D
:1007000036952795179507958A95D1F7677081E0FB
:1007100090E001C0880F6A95EAF7F801EF5DFC4FA1
:100720002081452B31F48095822380831F910F9186
:100730000895822BFACFCF92DF92EF92FF92CF9360
:10074000DF936B017C0160E086E3C816D104E1040D
:10075000F10490F486E38C0D0E94431CE60121967F
:10076000AE01C701B601C7DFCE01DF91CF91FF9087
:10077000EF90DF90CF9008958C2DEECF882341F03D
:100780008150682F70E090E080E050E040E0B3CF0F
:100790000895AB01BC0184E094E00C949222AB017B
:1007A000BC0181EA94E00C949222AB01BC018EE37F
:1007B00095E00C949222AB01BC018BED95E00C947A
:1007C00092228F929F92AF92BF92CF92DF92EF923E
:1007D000FF920F931F93CF93DF93CDB7DEB77B01CB
:1007E0004A015901CDB6DEB69B01220F331F4DB72A
:1007F0005EB7421B530B0FB6F8945EBF0FBE4DBFE2
:100800000DB71EB70F5F1F4FE82FF0E0EE0FFF1F71
:10081000E05FFD4F0190F081E02DC8011995F801CE
:10082000D401E00EF11EEE15FF0519F081918D93B4
:10083000FACF81E0F50180830FB6F894DEBE0FBEDB
:10084000CDBEDF91CF911F910F91FF90EF90DF9080
:10085000CF90BF90AF909F908F9008952F923F922E
:100860004F925F926F927F928F929F92AF92BF92C0
:10087000CF92DF92EF92FF920F931F93CF93DF936C
:1008800000D000D000D01F92CDB7DEB7682E7A8797
:100890006987742EB52E3C832B8348012A2C312C7A
:1008A0004E2C512C81E090E0012B11F490E080E07F
:1008B000849D9001859D300D949D300D11244985B6
:1008C0005A85420F531F5A834983062D10E0000FAB
:1008D000111FF801E050FE4F0190F081E02D1995B5
:1008E00041E050E0C114D10411F450E040E0429DD9
:1008F0009001439D300D529D300D1124A981BA8184
:100900002A0F3B1F821793075CF5E72DFB2D2985E6
:100910003A852E0F3F1F3A83298349815A81E41774
:10092000F50711F01192F9CFAB81BC811C922A9688
:100930000FB6F894DEBF0FBECDBFDF91CF911F91F0
:100940000F91FF90EF90DF90CF90BF90AF909F906E
:100950008F907F906F905F904F903F902F90089571
:10096000C114D10409F441C0F12CE12CF801E0508C
:10097000FE4FFE83ED839801285F3D4F38872F831C
:10098000AD81BE81ED91FC91E214F30474F51995EB
:10099000892B81F4E72DFB2D29853A852E0F3F1FEA
:1009A0003A83298349815A81E417F50709F4BCCFBA
:1009B0001192F8CFAF81B885ED91FC911995F601B0
:1009C000EE0DFF1D9081981761F021E030E0F601F7
:1009D0009081981302C030E020E0EE24FF24E21A58
:1009E000F30AFFEFEF1AFF0ACBCF980120503E4FDA
:1009F0006901D901ED91FC911995E981FA818E1770
:100A00009F0784F4E72DFB2D29853A852E0F3F1F84
:100A10003A83298349815A81E417F50709F484CF81
:100A20001192F8CF2B813C81472D5B2D69857A850A
:100A3000862DC7DE8114910409F479CF7401085F13
:100A40001D4FC70188199909841595050CF06FCFC2
:100A5000D601ED91FC911995892B81F4E72DFB2DA1
:100A600029853A852E0F3F1F3A83298349815A8170
:100A7000E417F50709F458CF1192F8CFD801ED919A
:100A8000FC911995F70191917F019817D1F2E72D0B
:100A9000FB2D29853A852E0F3F1F3A8329834981F3
:100AA0005A81E417F50709F43FCF1192F8CF84E09B
:100AB00094E00C94EE1C81EA94E00C94EE1C8EE31E
:100AC00095E00C94EE1C8BED95E00C94EE1C84E00C
:100AD00094E00C94D41C81EA94E00C94D41C8EE332
:100AE00095E00C94D41C8BED95E00C94D41C8823D9
:100AF00011F1823071F08330A9F08130E1F426E009
:100B000030E040E050E16EE070E081E090E00C9475
:100B10005A1426E030E040E050E16EE070E082E000
:100B200090E0F5CF26E030E040E050E16EE070E08C
:100B300083E090E0ECCF08952F923F924F925F9226
:100B40006F927F928F929F92AF92BF92CF92DF92DD
:100B5000EF92FF920F931F93CF93DF931F92CDB726
:100B6000DEB72B013A01D02EE9829C2DCA2CF4016C
:100B7000EF88F88C998C6A8D7B8D4C8D843008F0D1
:100B8000EBC1823051F0833009F456C0813049F412
:100B900031EA232E34E0332E04C0AEE32A2EA5E042
:100BA0003A2E30E02830310511F424E030E0269D63
:100BB0005001279DB00C369DB00C11240AE010E0C6
:100BC000992351F000E110E0913031F008E010E09D
:100BD000923011F002E010E08111E1C0D11031C07B
:100BE0006115710529F050E084E094E00E942E2008
:100BF000A501B20184E094E00E942E20E114F104EA
:100C000009F4AAC1492D50E0B70184E094E00F90A7
:100C1000DF91CF911F910F91FF90EF90DF90CF90D8
:100C2000BF90AF909F908F907F906F905F904F900C
:100C30003F902F900C942E205BED252E55E0352E05
:100C4000B0CFBF0184E094E00E946A2089818730A0
:100C500008F082C1E82FF0E08827EE5CF94F8F4F53
:100C60000C94DC225106640678068E06A406B806AB
:100C70003906AC2CB12CE1E06E1A710808F46CC195
:100C8000D2014D915D916D917D912D01B1E0950164
:100C900084E094E0DB1280C00E945422ECCF0E94DA
:100CA00042216A94AFEF6A1609F456C1F2016191CC
:100CB0002F01F1E0A80184E094E0DF12F0CF0E9460
:100CC0003C21EFCF0E9457216A948FEF681609F4F8
:100CD00043C1D2016D917D912D01B1E0A80184E065
:100CE00094E0DB12EFCF0E945221EECF0E946721E9
:100CF0006A94EFEF6E1609F42FC1D2014D915D9108
:100D00006D917D912D01B1E0980184E094E0DB12BA
:100D1000EDCF0E943021ECCF0E9410216A94EFEFBA
:100D20006E1609F419C1D2016D912D01062E000C29
:100D3000770BB1E0A80184E094E0DB12EDCF0E94D4
:100D40000A21ECCF0E9410216A94EFEF6E1609F48D
:100D500003C1D2016D917D912D01B1E0A80184E024
:100D600094E0DB12EFCF0E940A21EECF0E942021F7
:100D70006A94EFEF6E1609F4EFC0D2014D915D91C8
:100D80006D917D912D01B1E0980184E094E0DB123A
:100D9000EDCF0E94C520ECCF0E9455226CCFD11020
:100DA00038C06115710549F050E0D101ED91FC9119
:100DB0000280F381E02DC1011995D101ED91FC91E3
:100DC0000280F381E02DA501B201C1011995E11462
:100DD000F10409F4C1C0492D50E0D101ED91FC911D
:100DE0000280F381E02DB701C1010F90DF91CF9117
:100DF0001F910F91FF90EF90DF90CF90BF90AF9039
:100E00009F908F907F906F905F904F903F902F902A
:100E10001994BF01C1010E946A20B981B73008F05E
:100E20009BC0EB2FF0E08827E75EF84F8F4F0C94C4
:100E3000DC22370749075C077107850797072007FA
:100E4000AC2CB12CE1E06E1A710808F485C0D20117
:100E50004D915D916D917D912D01B1E09501C101A3
:100E6000DB1277C00E945422EDCF0E9442216A9487
:100E7000EFEF6E1609F470C0D2016D912D01B1E053
:100E8000A801C101DB12F1CF0E943C21F0CF0E94EA
:100E900057216A94EFEF6E1609F45EC0D2016D918E
:100EA0007D912D01B1E0A801C101DB12F0CF0E94BC
:100EB0005221EFCF0E9467216A94EFEF6E1609F47A
:100EC0004BC0D2014D915D916D917D912D01B1E0AD
:100ED0009801C101DB12EECF0E943021EDCF0E94BC
:100EE00010216A94EFEF6E16B9F1D2016D912D01C8
:100EF000062E000C770BB1E0A801C101DB12EFCF89
:100F00000E940A21EECF0E9410216A94EFEF6E1624
:100F100019F1D2016D917D912D01B1E0A801C101BE
:100F2000DB12F1CF0E940A21F0CF0E9420216A94A7
:100F3000EFEF6E1689F0D2014D915D916D917D912B
:100F40002D01B1E09801C101DB12EFCF0E94C52055
:100F5000EECF0E94552276CF0F90DF91CF911F9157
:100F60000F91FF90EF90DF90CF90BF90AF909F9048
:100F70008F907F906F905F904F903F902F9008954B
:100F80008F929F92AF92BF92CF92DF92EF92FF9299
:100F90004B015C010E942512882399F0C090A6079E
:100FA000D090A707E090A807F090A907C701B60165
:100FB000FF90EF90DF90CF90BF90AF909F908F9079
:100FC0000895C501B4010E94E2118111E7CF20E02C
:100FD00030E0A901C501B4010E940416882329F15B
:100FE00020E030E040E050E4C501B4010E94F81672
:100FF0006B017C0120E030E0A9010E9404168823E7
:10100000A1F020E030E0A901C501B4010E9404165E
:1010100087FFCCCF20E030E040E050E4C701B601CC
:101020000E948D156B017C01C1CFC12CD12C7601A2
:10103000BDCFFC0191E08091C303811190E09283C8
:101040000895CF92DF92EF92FF926B017C019F7720
:1010500020E030E040E859E50E94041687FF2BC0ED
:1010600020E030E040E05FE3C701B6010E94F417E2
:1010700087FD0EC020E030E040E05FE3C701B6012D
:101080000E948D15FF90EF90DF90CF900C94DE16AC
:1010900020E030E040E05FEBC701B6010E94F417AA
:1010A000181684F420E030E0A901C701B6010E94BF
:1010B000F8176B017C01C701B601FF90EF90DF903C
:1010C000CF90089520E030E040E05FE3C701B60133
:1010D0000E948C15FF90EF90DF90CF900C94F1154B
:1010E0002F923F924F925F926F927F928F929F9238
:1010F000AF92BF92CF92DF92EF92FF920F931F9326
:10110000CF93DF93CDB7DEB763970FB6F894DEBF0A
:101110000FBECDBF8091C3039091C203911105C052
:1011200091E0811190E09093C4038F5F8A3008F0C2
:10113000BCC18093C303E0915E07F0915F0780819B
:101140009181A281B3818093640790936507A093F6
:101150006607B093670784819581A681B7818093E4
:10116000680790936907A0936A07B0936B0780851F
:101170009185A285B38580936C0790936D07A093AA
:101180006E07B0936F07C0902C02D0902D02E090B4
:101190002E02F0902F02A701960160919E06709199
:1011A0009F068091A0069091A1060E9404168823B4
:1011B00041F0C0929E06D0929F06E092A006F09267
:1011C000A106C0903002D0903102E0903202F0903F
:1011D0003302A70196016091A2067091A306809147
:1011E000A4069091A5060E940416882341F0C0929F
:1011F000A206D092A306E092A406F092A506609102
:10120000A6067091A706A12CD12CC12CE12C10E0D0
:1012100000E09E01255F3F4FAE014F5F5F4F80E0D2
:101220001DDB8B85813041F569817A818B819C81C1
:1012300008DF6B017C0120E030E040E053E40E94D5
:10124000041687FF19C020E030E040E053ECC701EE
:10125000B6010E94F41787FD0FC0C701B6010E94B6
:101260007016633009F472C10CF022C1613009F4C8
:101270003DC1623009F452C18091F8069091F9069F
:10128000A091FA06B091FB06809388079093890796
:10129000A0938A07B0938B078091FC069091FD067E
:1012A000A091FE06B091FF0680938C0790938D0766
:1012B000A0938E07B0938F07AA24A394B12CB6E70E
:1012C000CB2EB2E0DB2EEE24E394F12C05E712E006
:1012D00021E030E044E752E060ED76E088E997E015
:1012E0000E9487128090880790908907A0908A07B3
:1012F000B0908B0720E030E0A901C501B4010E9445
:101300000416209098073090990781117EC0409074
:10131000000750900107609002077090030720E0DB
:1013200030E0A90160912007709121078091220788
:10133000909123070E94041620E030E0A90181115A
:10134000AEC1C301B2010E94041681112FC01092D8
:101350001C0710921D0710921E0710921F07109273
:101360002007109221071092220710922307109253
:101370002407109225071092260710922707109233
:101380002C0710922D0710922E0710922F07109203
:101390003007109231071092320710923307E4E3BE
:1013A000F7E088E2DF011D928A95E9F7C0901C07FB
:1013B000D0901D07E0901E07F0901F0720E030E05E
:1013C000A901C701B6010E9404168111EFC0109255
:1013D00018071092190710921A0710921B0720E0A5
:1013E00030E040E85FE3C301B2010E9404168111BE
:1013F0000CC080E090E0A0E8BFE380931C079093CE
:101400001D07A0931E07B0931F0740902007509020
:1014100021076090220770902307B101330C880BDD
:10142000990B0E94A3166B017C0120E030E040E89C
:101430005FE3C301B2010E940416811157C12091DC
:10144000300730913107409132075091330760E007
:1014500070EC8CEA94EC0E948C15A70196010E9416
:101460008D156B017C01C0929407D0929507E09294
:101470009607F092970720E030E040E85FE3609144
:1014800004077091050780910607909107070E9455
:101490000416882309F433C1C0901807D0901907A7
:1014A000E0901A07F0901B074FC11092C30343CE80
:1014B000643009F463C0653009F0DECE20E030E02E
:1014C00040E85FE3609108077091090780910A077F
:1014D00090910B070E948D1553DD60930807709360
:1014E000090780930A0790930B07C6CE20E030E0EF
:1014F00040E85FE36091FC067091FD068091FE0676
:101500009091FF060E948D153BDD6093FC06709361
:10151000FD068093FE069093FF06AECE20E030E0FD
:1015200040E85FE360910007709101078091020736
:10153000909103070E948D1523DD6093000770933F
:101540000107809302079093030796CE20E030E0D6
:1015500040E85FE3609104077091050780910607FA
:10156000909107070E948D150BDD6093040770931F
:10157000050780930607909307077ECE20E030E0B2
:1015800040E85FE36091F8067091F9068091FA06F1
:101590009091FB060E948D15F3DC6093F806709322
:1015A000F9068093FA069093FB0666CE20E030E0C1
:1015B00040E85FE3C701B6010E940416811111C023
:1015C00080E090E0A6E9B3EC8093180790931907A8
:1015D000A0931A07B0931B0780E090E0A0E0B0E46E
:1015E0000CCF4090240750902507609026077090FC
:1015F000270720E030E046E153E4C301B2010E9436
:10160000041681113BC0B101032C000C880B990B0F
:101610000E94A3162B013C0104E317E0FCE5CF2E4A
:10162000F7E0DF2EF80161917191819191918F0125
:10163000A30192010E9404168111E1C3C016D106D4
:1016400089F7109218071092190710921A07109232
:101650001B0780E090E0A0E8BFE380932007909311
:101660002107A0932207B09323074092300750929E
:1016700031076092320770923307C7CE20E030E026
:1016800040E85FE3C301B2010E948D156093240717
:10169000709325078093260790932707B6CEC30142
:1016A000B2010E9404168111B0CE10921C07109254
:1016B0001D0710921E0710921F071092200710920C
:1016C00021071092220710922307109224071092EC
:1016D00025071092260710922707109230071092C4
:1016E000310710923207109233078FCEC0929407C1
:1016F000D0929507E0929607F0929707CDCEA7017A
:1017000096016091140770911507809116079091CA
:1017100017070E948C156B017C019F7720E030E059
:1017200040E85FE30E94041687FD43C32091100741
:10173000309111074091120750911307C701B6016C
:101740000E94F8176B017C018B85813061F48D81DB
:101750009E81AF81B8858093F4069093F506A0939F
:10176000F606B093F70620E030E0A901C501B40108
:101770000E940416811108C0C0920C07D0920D0778
:10178000E0920E07F0920F0720E030E040E85FE3C0
:10179000C501B4010E94041681112AC020E030E086
:1017A00040E85FE3C301B2010E940416811120C02A
:1017B00020E030E040E85FE360910807709109079E
:1017C00080910A0790910B070E9404168111F5C2BF
:1017D0008091F4069091F506A091F606B091F70677
:1017E00080930C0790930D07A0930E07B0930F07FB
:1017F00080910C0790910D07A0910E07B0910F07F3
:101800008093900790939107A0939207B0939307CA
:10181000C0902402D0902502E0902602F09027028A
:10182000A70196016091B4067091B5068091B60645
:101830009091B7060E940416882341F0C092B40626
:10184000D092B506E092B606F092B7066BE370E070
:1018500080E090E00E9457039093B3068093B20615
:1018600043E050E0BE01675F7F4F0E9446036985F9
:101870007A8590E080E00E94A1162B013C01409205
:1018800070075092710760927207709273072091EF
:1018900068073091690740916A0750916B07609122
:1018A00064077091650780916607909167070E94B1
:1018B0008C1520913C0230913D0240913E025091A6
:1018C0003F020E9408164B015C01C0906C07D0904B
:1018D0006D07E0906E07F0906F0720E030EC4FEF5F
:1018E00053E4C701B6010E940416209138023091DA
:1018F000390240913A0250913B0287FF67C2C7010B
:10190000B6010E948D156B017C01A5019401C301F4
:10191000B2010E9408162B013C0120914002309137
:1019200041024091420250914302C701B6010E9418
:101930008D15A50194010E9408169B01AC01C301FD
:10194000B2010E948C156B017C01C0927407D09289
:101950007507E0927607F09277072091D4063091D0
:10196000D5064091D6065091D706609148027091F5
:10197000490280914A0290914B020E94F8174B0154
:101980005C0120914C0230914D0240914E025091E9
:101990004F02C701B6010E94F8179B01AC01C501B7
:1019A000B4010E948D156093780770937907809336
:1019B0007A0790937B0754E8852E57E0952E60E8D0
:1019C000A62E67E0B62E7CE7C72E77E0D72EE0E79D
:1019D000EE2EE7E0FE2E04E917E028E837E040E9C4
:1019E00057E068E777E08CE897E032D660917C07B3
:1019F00070917D0780917E0790917F0722DB6B01BC
:101A00007C0120E030E040E853E40E94041687FFA8
:101A1000E3C120E030E0A901C701B6010E94F4173C
:101A200087FDD8C1C701B6010E9475166B876B850B
:101A30008CE00E9440016091800770918107809145
:101A4000820790918307FDDA6B017C0120E030E092
:101A500040E853E40E94041687FFC3C120E030E051
:101A6000A901C701B6010E94F41787FDB8C1C701DB
:101A7000B6010E9475166B876B8582E20E94400159
:101A80006BE070E080E090E00E9469018C0190932F
:101A9000CF068093CE06C0908407D0908507E09053
:101AA0008607F090870720E030E04FE753E4C70156
:101AB000B6010E94041618160CF496C120E030E01E
:101AC000A901C701B6010E94F41787FD94C1B701AF
:101AD000A601C8010E944701209158023091590285
:101AE00040915A0250915B02609194077091950762
:101AF00080919607909197070E948C1520915C0227
:101B000030915D0240915E0250915F020E94F81791
:101B10002091600230916102409162025091630213
:101B2000FCD76B017C0120916402309165024091E9
:101B30006602509167020E94F8176C877D878E8736
:101B40009F872091D8063091D9064091DA065091AE
:101B5000DB06E2D72B013C018091C403882309F402
:101B60006FC06091700270917102809172029091C9
:101B7000730220916C0230916D0240916E0250917F
:101B80006F02288B398B4A8B5B8B8090DC069090A0
:101B9000DD06A090DE06B090DF06009154021091A1
:101BA000550220915602309157020093E00610939F
:101BB000E1062093E2063093E306C092E406D09259
:101BC000E506E092E606F092E706A30192010E9484
:101BD000F8176B017C01A5019401688979898A89CC
:101BE0009B890E94F817A701960197D76093E80692
:101BF0007093E9068093EA069093EB0620917807AC
:101C00003091790740917A0750917B07609150029B
:101C10007091510280915202909153020E94F817E4
:101C20006093EC067093ED068093EE069093EF06BA
:101C30001092F0061092F1061092F2061092F3063E
:101C4000AA24A394B12C26E7C22E22E0D22EEE24A1
:101C5000E394F12C05E712E021E030E044E752E0A4
:101C600060ED76E088E997E078D42091D406309151
:101C7000D5064091D6065091D706609144027091E6
:101C8000450280914602909147020E94F8172091E8
:101C900074073091750740917607509177073DD7CB
:101CA0006093D4067093D5068093D6069093D7069A
:101CB0008C859D85AE85BF858093D8069093D90687
:101CC000A093DA06B093DB062091DC063091DD06A6
:101CD0004091DE065091DF066091680270916902C2
:101CE00080916A0290916B020E94F817A301920101
:101CF00014D76093DC067093DD068093DE06909324
:101D0000DF066091B5037091B6038091B70390919F
:101D1000B8036F5F7F4F8F4F9F4F6093B5037093F2
:101D2000B6038093B7039093B8030091C703109153
:101D3000C8030E94A1169B01AC016091B903709188
:101D4000BA038091BB039091BC030E94F817D8019D
:101D50006D937D938D939C9313978091BD03909188
:101D6000BE03A091BF03B091C0030196A11DB11D98
:101D70008093BD039093BE03A093BF03B093C003B1
:101D800063960FB6F894DEBF0FBECDBFDF91CF9143
:101D90001F910F91FF90EF90DF90CF90BF90AF9089
:101DA0009F908F907F906F905F904F903F902F907B
:101DB0000895C12CD12C7601C7CC10920C0710923B
:101DC0000D0710920E0710920F0712CDC701B60132
:101DD000A3D699CD1B862BCE8FEF8B8728CE1B8663
:101DE0004BCE8FEF8B8748CEC12CD12C4FE7E42E02
:101DF00043E4F42E6CCEC12CD12C760168CE20E0C9
:101E000030E040E85FE360912807709129078091F6
:101E10002A0790912B0781D66B017C01C09228077D
:101E2000D0922907E0922A07F0922B0759D7625DDA
:101E30007F4F660F771F660F771FFB01E858F94F3A
:101E400080912C0790912D07A0912E07B0912F071C
:101E500080839183A283B38320E030E040E251E4A9
:101E6000C701B601D1D6811108C01092280710927F
:101E7000290710922A0710922B0740922C075092A4
:101E80002D0760922E0770922F07BFCA8F929F92E4
:101E9000AF92CF92DF92EF92FF920F931F93CF9367
:101EA000DF93CDB7DEB764970FB6F894DEBF0FBEF1
:101EB000CDBFC0903402D0903502E0903602F09051
:101EC0003702A701960160917E0670917F0680918E
:101ED00080069091810698D6882341F0C0927E06B4
:101EE000D0927F06E0928006F0928106A0EEB6E0E6
:101EF000FE013196CE014596DE2EFF2E4D915D916D
:101F00006D917D914193519361937193E817F90716
:101F1000A9F7609192067091930680919406909132
:101F20009506E3D6C62E60918A0670918B06809145
:101F30008C0690918D06D9D6E62E60918E06709112
:101F40008F068091900690919106CFD6062F6091D2
:101F50008606709187068091880690918906C5D67D
:101F6000162F60918206709183068091840690916D
:101F70008506BBD6862F1F921F921F921F921F921B
:101F80001F92912C812C92E0A92E212F45E050E048
:101F90006D2D7F2D0E949C050F900F900F900F903C
:101FA0000F900F9064960FB6F894DEBF0FBECDBFB2
:101FB000DF91CF911F910F91FF90EF90DF90CF9025
:101FC000AF909F908F9008954F925F926F927F9203
:101FD000AF92BF92DF92EF92FF920F931F93CF9336
:101FE000DF9384E090E0B7D184E2A82E82E0B82E9F
:101FF0008091A2079091A307A091A407B091A50793
:10200000F50180AB91ABA2ABB3ABEEE2F3E085ECB4
:1020100093E095838483C7ECD3E0D7AFC6AF09EBD9
:1020200013E0138B028BF0939703E0939603F383F3
:10203000E28321E030E0DC012D933C931092AD036C
:102040001092B40388E892E09187808789EC93E04E
:10205000998388834AE057ED63EA7BE3F801408384
:10206000518362837383C8E7D6E08AE293E090935A
:102070005D0780935C0788E192E090935F0780930F
:102080005E0710926307109262071092D0061092BA
:10209000D1061092D2061092D306F5018481958163
:1020A000A681B7818093D8069093D906A093DA06CB
:1020B000B093DB0680E090E0A0E2B1E480931007EB
:1020C00090931107A0931207B093130718A280856D
:1020D0009185A285B3858EA39FA3A8A7B9A7848560
:1020E0009585A685B7858AA79BA7ACA7BDA7412CD8
:1020F000512C3201439449A25AA26BA27CA284E0E3
:1021000090E099AB88AB88E090E09FA78EA780E035
:102110000E947705DD24D394DDA21CAAF5018081FD
:102120009181A281B3818CAF9DAFAEAFBFAF4DAAFD
:102130005EAA6FAA78AE6BE370E080E090E00E9448
:102140009B039BAF8AAFD9AE1092C0064092C106E6
:102150005092C2066092C3067092C40661E08CE0A1
:102160000E943801D092C5061092B8064092B90676
:102170005092BA066092BB067092BC0661E082E2A1
:102180000E943801D092BD061092C8064092C9063E
:102190005092CA066092CB067092CC06E12CF12CCC
:1021A0008701A80197016BE070E080E090E00E9459
:1021B000AD019093CF068093CE06D092CD061882C3
:1021C000F50180899189A289B3898E839F83A8872D
:1021D000B98749825A826B827C82EA86FB860C87A9
:1021E0001D8780E090E0A0E0B1E48E879F87A88BF8
:1021F000B98B80E090E0A0ECB0E48A8B9B8BAC8B39
:10220000BD8BEE8AFF8A088F198FEA8EFB8E0C8FAA
:102210001D8F80E00E947705DD82DF91CF911F91B5
:102220000F91FF90EF90DF90BF90AF907F906F90F5
:102230005F904F90089580919806811103C081E0CE
:10224000809398068091AC0681111FC081E0809335
:10225000AC068091AD069091AE06A091AF06B0910C
:10226000B0060197A105B10581F48091B1068823DC
:1022700061F06BE370E080E090E00E945703909380
:10228000B3068093B2060E94BE038091C0068111FE
:1022900003C081E08093C0068091B806811103C01D
:1022A00081E08093B8068091C80681112EC081E03C
:1022B0008093C8068091C9069091CA06A091CB066A
:1022C000B091CC060197A105B105F9F48091CD0636
:1022D0008823D9F06BE070E080E090E00E94690113
:1022E0009093CF068093CE0640E050E0BA010E9462
:1022F00047016BE070E080E090E00E9469019093FC
:10230000CF068093CE060E94F80180917806811155
:1023100003C081E080937806089560E070E080E873
:102320009FE7089560E070E080E89FE7089560E02F
:1023300070E080E89FEF089560E070E080E89FEF34
:10234000089560E070E080EC9FEF089560E070E039
:1023500080EC9FEF0895F5DF6093A6077093A707C1
:102360008093A8079093A907F1DF60939A07709371
:102370009B0780939C0790939D07CFDF6093A207F4
:102380007093A3078093A4079093A507CBDF609376
:102390009E0770939F078093A0079093A107C7DFC4
:1023A0006093AA077093AB078093AC079093AD0737
:1023B000C3DF6093AE077093AF078093B00790932D
:1023C000B1070895CF92DF92EF92FF92CF936B0106
:1023D0007C01AC019B016091A2077091A3078091E1
:1023E000A4079091A50710D4C1E0882369F0A70144
:1023F00096016091AA077091AB078091AC0790910C
:10240000AD0702D48111C0E08C2FCF91FF90EF90E7
:10241000DF90CF9008950F931F938B019C010027AD
:10242000112720783F770115110520483F4749F4CF
:10243000AB01BC016F77772781E0452B462B472BFB
:1024400009F480E01F910F910895E5CF0297843140
:10245000910540F484569D4FFC018081082E000CAC
:10246000990B08958FEF9FEF0895CF93DF93EC01C1
:1024700070E060E06C177D071CF0DF91CF9108954C
:10248000072E000C880B990B5ED420E030E0A901E8
:1024900044D320E030E0A90140D320E030E040E424
:1024A00050E43BD320E030E040E450E435D318D48E
:1024B0006F5F7F4FDFCFCF93DF938091D7039091F2
:1024C000D8030E94AC1CEC018091DB039091DC03EB
:1024D000CCDF8091D5039091D6030E94AC1C01976C
:1024E00071F48091D9039091DA03CD2B71F40196A8
:1024F0009093DA038093D903DF91CF91089580916F
:10250000D9039091DA03219791F30197F1CF0F93BB
:102510001F93CF93DF93EC018A0120E030E040E885
:102520005FE3DB016D917D918D919C916DD3811164
:102530000FC0D801EC91B8E0EB9FF0011124EB52F1
:10254000FC4F848195819195819591099983888328
:10255000DF91CF911F910F910895CF92DF92EF926B
:10256000FF920F931F93CF93DF937B01EA0120E04B
:1025700030E040E85FE3DB016D917D918D919C91AE
:1025800043D3882309F45BC0E881D8018C9190E0A3
:10259000B8E0EB9FF0011124EB52FC4F9183808354
:1025A000E881D6018C9190E0B8E0EB9FF001112416
:1025B000EB52FC4F93838283E88128E0E29FF00195
:1025C0001124EB52FC4F8081918160E00E94431CFA
:1025D000E88188E0E89FF0011124EB52FC4F8281F2
:1025E000938160E00E94431CE881A8E0EA9FF0012B
:1025F0001124EB52FC4F8081918161E00E947F1C8D
:10260000E881B8E0EB9FF0011124EB52FC4F82818E
:10261000938161E00E947F1C8091D5039091D60345
:1026200015DF41E050E06BE572E146D580E090E0D7
:10263000A0E8BFE3F70180839183A283B383DF9196
:10264000CF911F910F91FF90EF90DF90CF90089561
:102650002F923F924F925F926F927F928F929F92B2
:10266000AF92BF92CF92DF92EF92FF920F931F93A0
:10267000CF93DF9300D01F92CDB7DEB72C013B0183
:102680007A011901BA82A9829C828B82FB01808027
:102690009180A280B38020E030E0A901C501B4019F
:1026A000B3D287FF93C080E090E0A0E8BFEB8093B7
:1026B000C0079093C107A093C207B093C30720E05F
:1026C00030E040E85FE3F2016081718182819381B3
:1026D0009BD28111DDC0BB24B394B092BF0720E030
:1026E00030E0A901F10160817181828193818CD2F6
:1026F000811182C0F701408051806280738020E0A8
:1027000030E0A901C301B2017FD218160CF4A5C0B4
:10271000C301B20190582FE93CE34CEB50E478D26E
:102720006093BB077093BC078093BD079093BE076F
:10273000B092BA078091C0079091C107A091C207DB
:10274000B091C3078093B6079093B707A093B807DB
:10275000B093B9076091BF0770E090E080E0F1D2DC
:10276000F60160837183828393836091BA0770E07E
:1027700090E080E0E6D2E981FA8160837183828310
:1027800093838091BB079091BC07A091BD07B09146
:10279000BE07EB81FC8180839183A283B3830F907A
:1027A0000F900F900F90DF91CF911F910F91FF909D
:1027B000EF90DF90CF90BF90AF909F908F907F90E1
:1027C0006F905F904F903F902F90089520E030E001
:1027D000A901C501B40108D418162CF480E090E0DA
:1027E000A0E8BFE364CF1092C0071092C107109217
:1027F000C2071092C30763CFF3014080518062800B
:10280000738020E030E040EA51ECC301B201ECD328
:1028100087FD20C020E030E040EA51E4C301B2016E
:10282000F3D11816BCF0F8014080518062807380AB
:1028300020E030E44BEA54E4C301B201E5D11816BC
:102840004CF020E030E44BEA54ECC301B201CCD3AD
:1028500087FF50CF1092BF076DCF20E030E0A90175
:10286000C301B201C1D318160CF064CF2FE93CE3C9
:102870004CEB50E4C301B201CBD16093BB07709322
:10288000BC078093BD079093BE071092BA0752CF42
:102890001092ED031092EE031092EF031092F003EA
:1028A000D9CF26E030E040E050E16EE070E090E00B
:1028B00080E000C01092F2031092F103893091057C
:1028C00008F03BC0FC018827E759FB4E8F4F0C9462
:1028D000DC2272147C1485148E1497149E14A11497
:1028E000A414AA1481E090E09093F2038093F10382
:1028F00084E094E00C949E1D82E090E09093F203BB
:102900008093F10381EA94E0F5CF84E090E0909326
:10291000F2038093F1038EE395E0ECCF88E090E042
:102920009093F2038093F1038BED95E0E3CF80E188
:1029300090E09093F2038093F103089580E290E099
:10294000F8CF80E490E0F5CF80E890E09093F20338
:102950008093F1038091F1039091F2039160E9CFAC
:102960001F920F920FB60F9211240BB60F922F9356
:102970003F934F935F936F937F938F939F93AF9307
:10298000BF93EF93FF938EE19BEF9093250180938C
:10299000240134D0FF91EF91BF91AF919F918F911E
:1029A0007F916F915F914F913F912F910F900BBE4F
:1029B0000F900FBE0F901F9018958EE19BEF909394
:1029C000250180932401A3E7B0E08C918E7F8C9346
:1029D000E0E2F1E080818C7F8083E1E2F1E08081C0
:1029E000877E808380818360808380818B7F8083EA
:1029F0008C9181608C93089581E00895CF93DF934B
:102A000000D0CDB7DEB78091F60391E0980F909398
:102A1000F603882371F021E030E03093FA0320932D
:102A2000F9038093F6030F900F900F90DF91CF91F1
:102A30000895CE0101960E94190878940E947008AA
:102A4000F8948091F60381508093F6038B8188235C
:102A500089F08091F50391E0980F9093F503882316
:102A600049F021E030E03093FA032093F90380939A
:102A7000F503D9CF8091F5038823A9F28091F7035C
:102A80008111D1CF8091F8038F5F8093F803789400
:102A9000FDD9F8948091F50381508093F5038091DE
:102AA000F80381508093F803BECFCF93DF93109249
:102AB000C5071092C40728D5F4DEC0919A02D091C0
:102AC0009B021982188280DAF89477DF81E02881EE
:102AD0003981232B09F080E08093C407789478949F
:102AE0008091C407811107C0A6DBF89490E080E0D4
:102AF000DF91CF91089581E028813981232B09F45A
:102B000080E08093C5079091C50781E0911180E036
:102B10008093C40771DFE4CF5058BB27AA270ED09B
:102B200012C203D230F008D220F031F49F3F11F4EA
:102B30001EF4F8C10EF4E095E7FBC5C1E92F14D2ED
:102B400080F3BA17620773078407950718F071F4CA
:102B50009EF543C20EF4E0950B2EBA2FA02D0B016B
:102B6000B90190010C01CA01A0011124FF27591BD2
:102B700099F0593F50F4503E68F11A16F040A22FD8
:102B8000232F342F4427585FF3CF46953795279549
:102B9000A795F0405395C9F77EF41F16BA0B620B48
:102BA000730B840BBAF09150A1F0FF0FBB1F661F8F
:102BB000771F881FC2F70EC0BA0F621F731F841FD2
:102BC00048F4879577956795B795F7959E3F08F0F8
:102BD000B3CF9395880F08F09927EE0F97958795B7
:102BE0000895E4D180F09F3740F491110EF4F6C1BE
:102BF00060E070E080E89FE3089526F01B16611DF9
:102C0000711D811D66C180C13AD108F481E008952B
:102C10000CD099C191D140F088D130F021F45F3FC0
:102C200019F051C15111DAC17DC19ED198F3992398
:102C3000C9F35523B1F3951B550BBB27AA27621780
:102C40007307840738F09F5F5F4F220F331F441FC5
:102C5000AA1FA9F333D00E2E3AF0E0E830D09150FD
:102C60005040E695001CCAF729D0FE2F27D0660FEA
:102C7000771F881FBB1F261737074807AB07B0E829
:102C800009F0BB0B802DBF01FF2793585F4F2AF03F
:102C90009E3F510568F017C1A1C15F3FECF3983E1C
:102CA000DCF3869577956795B795F7959F5FC9F79C
:102CB000880F911D9695879597F90895E1E0660F25
:102CC000771F881FBB1F621773078407BA0720F09E
:102CD000621B730B840BBA0BEE1F88F7E095089507
:102CE00004D06894B1117AC1089546D188F09F57F5
:102CF00090F0B92F9927B751A0F0D1F0660F771F48
:102D0000881F991F1AF0BA95C9F712C0B13081F027
:102D100064D1B1E0089561C1672F782F8827B85F2B
:102D200039F0B93FCCF3869577956795B395D9F788
:102D30003EF490958095709561957F4F8F4F9F4F92
:102D40000895E89409C097FB3EF49095809570959E
:102D500061957F4F8F4F9F4F9923A9F0F92F96E9E7
:102D6000BB279395F695879577956795B795F1115C
:102D7000F8CFFAF4BB0F11F460FF1BC06F5F7F4FF9
:102D80008F4F9F4F16C0882311F096E911C077230B
:102D900021F09EE8872F762F05C0662371F096E814
:102DA000862F70E060E02AF09A95660F771F881FE3
:102DB000DAF7880F9695879597F90895F7D080F000
:102DC0009F3740F491110EF009C160E070E080E897
:102DD0009FEB089526F41B16611D711D811D79C09E
:102DE00093C0A3D018F011F0A7D038F49BC0F6C060
:102DF000E92FBAD0B0F35523C9F3E7FB6217730785
:102E000084079507A8F199F3E92FFF2788232AF073
:102E10003197660F771F881FDAF7952F55274423C0
:102E200032F091505040220F331F441FD2F7BB277E
:102E3000E91BF50B621B730B840BB109C1F222F481
:102E4000620F731F841FB11D31972AF0660F771F21
:102E5000881FBB1FEFCF915050405AF041F088239C
:102E600032F0660F771F881F91505040C1F793953D
:102E70004BC08695779567959F5FD9F7F8CF990FE7
:102E80000008550FAA0BE0E8FEEF16161706E80734
:102E9000F907C0F012161306E407F50798F0621B55
:102EA000730B840B950B39F40A2661F0232B242B2A
:102EB000252B21F408950A2609F4A140A6958FEF49
:102EC000811D811D089597F99F6780E870E060E09B
:102ED0000895882371F4772321F09850872B762F5B
:102EE00007C0662311F499270DC09051862B70E01E
:102EF00060E02AF09A95660F771F881FDAF7880F2F
:102F00009695879597F908959F3F31F0915020F459
:102F1000879577956795B795880F911D96958795B5
:102F200097F908959FEF80EC089500240A941616EF
:102F3000170618060906089500240A9412161306A7
:102F4000140605060895092E0394000C11F4882335
:102F500052F0BB0F40F4BF2B11F460FF04C06F5F51
:102F60007F4F8F4F9F4F089557FD9058440F551F27
:102F700059F05F3F71F04795880F97FB991F61F0FB
:102F80009F3F79F087950895121613061406551F72
:102F9000F2CF4695F1DF08C0161617061806991FDE
:102FA000F1CF86957105610508940895E5DFA0F0DD
:102FB000BEE7B91788F4BB279F3860F41616B11D19
:102FC000672F782F8827985FF7CF86957795679535
:102FD000B11D93959639C8F30895E894BB276627E9
:102FE0007727CB0197F908954ADF08F48FEF08950A
:102FF0000BD0A9CF9ADF28F09FDF18F0952309F0B6
:1030000062CF90CF1124EACFAFDFA0F3959FD1F329
:10301000950F50E0551F629FF001729FBB27F00D86
:10302000B11D639FAA27F00DB11DAA1F649F6627DB
:10303000B00DA11D661F829F2227B00DA11D621F2A
:10304000739FB00DA11D621F839FA00D611D221FE4
:10305000749F3327A00D611D231F849F600D211DC8
:10306000822F762F6A2F11249F5750408AF0E1F06B
:1030700088234AF0EE0FFF1FBB1F661F771F881FB4
:1030800091505040A9F79E3F510570F01CCFA6CF3C
:103090005F3FECF3983EDCF3869577956795B7959F
:1030A000F795E7959F5FC1F7FE2B880F911D9695C9
:1030B000879597F908950895883008F076C0E82F2D
:1030C000F0E0EE0FFF1FE958FD4F718360838150E0
:1030D000873008F03DC0E82FF0E08827ED58F74E24
:1030E0008F4F0C94DC22B0187A1882188E189B1817
:1030F000BC18C918809169008C7F482B40936900E7
:10310000E89A089580916900837F440F551F440F0A
:10311000551F482B40936900E99A089580916900F2
:103120008F7C74E0440F551F7A95E1F7482B40934C
:103130006900EA9A0895809169008F7366E0440FF0
:10314000551F6A95E1F7482B40936900EB9A089563
:1031500080916A008C7F482B40936A00EC9A089516
:1031600080916A00837F440F551F440F551F482BE1
:1031700040936A00ED9A089580916A008F7C24E064
:10318000440F551F2A95E1F7482B40936A00EE9AA9
:10319000089580916A008F7396E0440F551F9A95A9
:1031A000E1F7482B40936A00EF9A08951F920F921F
:1031B0000FB60F9211240BB60F922F933F934F939C
:1031C0005F936F937F938F939F93AF93BF93EF938F
:1031D000FF93E0917B02F0917C021995FF91EF91B2
:1031E000BF91AF919F918F917F916F915F914F911F
:1031F0003F912F910F900BBE0F900FBE0F901F901D
:1032000018951F920F920FB60F9211240BB60F92C2
:103210002F933F934F935F936F937F938F939F93DE
:10322000AF93BF93EF93FF93E0917D02F0917E0205
:103230001995FF91EF91BF91AF919F918F917F91E0
:103240006F915F914F913F912F910F900BBE0F9017
:103250000FBE0F901F9018951F920F920FB60F92EE
:1032600011240BB60F922F933F934F935F936F935D
:103270007F938F939F93AF93BF93EF93FF93E091CF
:103280007F02F09180021995FF91EF91BF91AF916C
:103290009F918F917F916F915F914F913F912F916E
:1032A0000F900BBE0F900FBE0F901F9018951F929E
:1032B0000F920FB60F9211240BB60F922F933F93DC
:1032C0004F935F936F937F938F939F93AF93BF932E
:1032D000EF93FF93E0918102F09182021995FF91A3
:1032E000EF91BF91AF919F918F917F916F915F917E
:1032F0004F913F912F910F900BBE0F900FBE0F90EB
:103300001F9018951F920F920FB60F9211240BB6B3
:103310000F922F933F934F935F936F937F938F936E
:103320009F93AF93BF93EF93FF93E0917702F09158
:1033300078021995FF91EF91BF91AF919F918F9175
:103340007F916F915F914F913F912F910F900BBEA5
:103350000F900FBE0F901F9018951F920F920FB6EF
:103360000F9211240BB60F922F933F934F935F93BD
:103370006F937F938F939F93AF93BF93EF93FF933D
:10338000E0917902F0917A021995FF91EF91BF9146
:10339000AF919F918F917F916F915F914F913F91ED
:1033A0002F910F900BBE0F900FBE0F901F9018958E
:1033B0001F920F920FB60F9211240BB60F922F93FC
:1033C0003F934F935F936F937F938F939F93AF93AD
:1033D000BF93EF93FF93E0918302F09184021995DC
:1033E000FF91EF91BF91AF919F918F917F916F91DD
:1033F0005F914F913F912F910F900BBE0F900FBE99
:103400000F901F9018951F920F920FB60F921124D4
:103410000BB60F922F933F934F935F936F937F93CE
:103420008F939F93AF93BF93EF93FF93E0918502A8
:10343000F09186021995FF91EF91BF91AF919F9105
:103440008F917F916F915F914F913F912F910F904D
:103450000BBE0F900FBE0F901F9018951F920F92EA
:103460000FB60F9211242F933F938F939F93AF9397
:10347000BF938091FC039091FD03A091FE03B09156
:10348000FF033091FB0323E0230F2D3758F50196FE
:10349000A11DB11D2093FB038093FC039093FD03BA
:1034A000A093FE03B093FF03809100049091010468
:1034B000A0910204B09103040196A11DB11D809357
:1034C000000490930104A0930204B0930304BF91FD
:1034D000AF919F918F913F912F910F900FBE0F90C1
:1034E0001F90189526E8230F0296A11DB11DD2CF7B
:1034F0002FB7F8946091FC037091FD038091FE0357
:103500009091FF032FBF0895789484B5826084BDA5
:1035100084B5816084BD85B5826085BD85B58160D7
:1035200085BDEEE6F0E0808181608083E1E8F0E037
:103530001082808182608083808181608083E0E866
:10354000F0E0808181608083E1EBF0E08081846045
:103550008083E0EBF0E0808181608083E1E9F0E04E
:10356000808182608083808181608083E0E9F0E0F7
:10357000808181608083E1EAF0E0808182608083E5
:10358000808181608083E0EAF0E0808181608083D7
:10359000E1E2F1E0808182608083808181608083CC
:1035A000E0E2F1E0808181608083EAE7F0E0808101
:1035B0008460808380818260808380818160808359
:1035C0008081806880831092C1000895863308F05E
:1035D000865320917B00982F9870277F922B909391
:1035E0007B002091870290E4299F9001112487702D
:1035F000822B80937C0080917A00806480937A0093
:1036000080917A0086FDFCCF8091780090917900BE
:1036100008951F93CF93DF93182FEB0161E033D10F
:10362000209731F460E0812FDF91CF911F9167C126
:10363000CF3FD10511F461E0F6CFE12FF0E0EC517E
:10364000FF4FE491E150E23108F0B2C0F0E088278A
:10365000E45DF44E8F4FB0C73E1B461B4B1B551B02
:103660005F1BD81B691B711B791B831B8D1B971B51
:10367000A61BB01BD81BBA1BC41BCE1B84B580680D
:1036800084BDC7BDDF91CF911F91089584B580623D
:1036900084BDC8BDF7CF8091800080688093800092
:1036A000D0938900C0938800EDCF80918000806224
:1036B00080938000D0938B00C0938A00E3CF8091E9
:1036C0008000886080938000D0938D00C0938C0030
:1036D000D9CF8091B00080688093B000C093B300D0
:1036E000D1CF8091B00080628093B000C093B400CD
:1036F000C9CF80919000806880939000D09399000A
:10370000C0939800BFCF809190008062809390001A
:10371000D0939B00C0939A00B5CF809190008860B1
:1037200080939000D0939D00C0939C00ABCF80917C
:10373000A00080688093A0008091A0008F7B809380
:10374000A000D093A900C093A8009CCF8091A000B6
:1037500080628093A000D093AB00C093AA0092CF68
:103760008091A00088608093A000D093AD00C093AA
:10377000AC0088CF80912001806880932001D09395
:103780002901C09328017ECF80912001806280931F
:103790002001D0932B01C0932A0174CF8091200186
:1037A000886080932001D0932D01C0932C016ACFB3
:1037B000C038D1050CF03FCF35CF8150823108F0B1
:1037C00059C0E82FF0E08827E851F44E8F4FF4C637
:1037D000081C0C1CFA1B001C041C3A1C0F1C151C9A
:1037E000191C1F1C231C271C2D1C311C3A1C351CAA
:1037F0003B1C3F1C809180008F7780938000089550
:10380000809180008F7DF9CF80918000877FF5CFF8
:1038100084B58F7784BD089584B58F7DFBCF80916B
:10382000B0008F778093B00008958091B0008F7DB5
:10383000F9CF809190008F778093900008958091C8
:1038400090008F7DF9CF80919000877FF5CF809198
:10385000A0008F778093A00008958091A0008F7DB5
:10386000F9CF8091A000877FF5CF809120018F77DD
:10387000809320010895809120018F7DF9CF809160
:103880002001877FF5CFCF93DF9390E0FC01E65DC9
:10389000FE4F249180599E4FFC0184918823C9F0EA
:1038A00090E0880F991FFC01E651FE4FA591B4915D
:1038B000FC01E053FE4FC591D49161110DC09FB73B
:1038C000F8948C91209582238C93888128232883D7
:1038D0009FBFDF91CF910895623051F49FB7F89464
:1038E0003C91822F809583238C93E8812E2BEFCF00
:1038F0008FB7F894EC912E2B2C938FBFEACF1F93A8
:10390000CF93DF93282F30E0F901EC51FF4F8491E2
:10391000F901E65DFE4FD491F901E059FE4FC491E3
:10392000CC23A1F0162F811148DFEC2FF0E0EE0F31
:10393000FF1FE053FE4FA591B4918FB7F894EC911F
:10394000111108C0D095DE23DC938FBFDF91CF919A
:103950001F910895DE2BF8CFCF93DF93282F30E00F
:10396000F901EC51FF4F8491F901E65DFE4FD491CE
:10397000F901E059FE4FC491CC2399F081111DDF6C
:10398000EC2FF0E0EE0FFF1FEA54FE4FA591B4912B
:10399000EC91ED2381E090E009F480E0DF91CF919C
:1039A000089580E090E0FACFFC01918D228D892F5F
:1039B00090E0805C9F4F821B91098F739927089537
:1039C000FC01918D828D981731F0828DE80FF11DE9
:1039D000858D90E008958FEF9FEF0895FC01918D04
:1039E000828D981761F0A28DAE0FBF2FB11D5D962D
:1039F0008C91928D9F5F9F73928F90E008958FEFCF
:103A00009FEF0895FC01538D448D252F30E0842FC6
:103A100090E0821B930B541710F0CF9608950197F6
:103A20000895FC01A48DA80FB92FB11DA35ABF4F53
:103A30002C91848D90E001968F739927848FA689AD
:103A4000B7892C93A089B1898C91837080648C9301
:103A5000938D848D981306C00288F389E02D8081B0
:103A60008F7D80830895CF93DF93EC01888D882329
:103A7000B1F0AA89BB89E889F9898C9185FD03C0D9
:103A8000808186FD0CC00FB607FCF7CF8C9185FFB7
:103A9000F2CF808185FFEDCFCE01C3DFEACFDF918A
:103AA000CF910895EF92FF920F931F93CF93DF93DF
:103AB000EC0181E0888F9B8D8C8D98131AC0E8896A
:103AC000F989808185FF15C09FB7F894EE89FF8939
:103AD0006083E889F98980818370806480839FBFD7
:103AE00081E090E0DF91CF911F910F91FF90EF90D7
:103AF0000895F62E0B8D10E00F5F1F4F0F731127E7
:103B0000E02E8C8D8E110BC00FB607FCFACFE88922
:103B1000F989808185FFF5CFCE0183DFF2CFEB8D70
:103B2000EC0FFD2FF11DE35AFF4FF0829FB7F89481
:103B30000B8FEA89FB8980818062D0CFCF92DF92A0
:103B4000EF92FF921F93CF93DF93EC016A017B0109
:103B5000122FE889F98982E08083C11481EED806AA
:103B6000E104F10499F060E079E08DE390E0A701D1
:103B7000960100D5215031094109510956954795C3
:103B800037952795211580E1380790F0E889F98964
:103B9000108260E874E88EE190E0A7019601EAD413
:103BA0002150310941095109569547953795279577
:103BB000EC85FD853083EE85FF852083188EEC89AA
:103BC000FD891083EA89FB89808180618083EA898D
:103BD000FB89808188608083EA89FB898081806895
:103BE0008083EA89FB8980818F7D8083DF91CF91FB
:103BF0001F91FF90EF90DF90CF9008951F920F924A
:103C00000FB60F9211240BB60F922F938F939F93A1
:103C1000EF93FF93E0911404F09115048081E091FB
:103C20001A04F0911B0482FD1DC0908180911D0437
:103C30008F5F8F7320911E04821741F0E0911D0465
:103C4000F0E0EC5FFB4F958F80931D04FF91EF91A7
:103C50009F918F912F910F900BBE0F900FBE0F90E1
:103C60001F9018958081F2CF1F920F920FB60F927E
:103C700011240BB60F922F933F934F935F936F9343
:103C80007F938F939F93AF93BF93EF93FF9384E0C2
:103C900094E0C7DEFF91EF91BF91AF919F918F911B
:103CA0007F916F915F914F913F912F910F900BBE3C
:103CB0000F900FBE0F901F901895E4E0F4E0138270
:103CC000128288EE93E0A0E0B0E084839583A6831F
:103CD000B78384EB92E09183808385EC90E09587B5
:103CE000848784EC90E09787868780EC90E0918BC6
:103CF000808B81EC90E0938B828B82EC90E0958BB3
:103D0000848B86EC90E0978B868B118E128E138EAF
:103D1000148E08951F920F920FB60F9211240BB6B6
:103D20000F922F938F939F93EF93FF93E091B104A2
:103D3000F091B2048081E091B704F091B80482FD63
:103D40001DC090818091BA048F5F8F732091BB0456
:103D5000821741F0E091BA04F0E0EF55FB4F958FE8
:103D60008093BA04FF91EF919F918F912F910F90C3
:103D70000BBE0F900FBE0F901F9018958081F2CF51
:103D80001F920F920FB60F9211240BB60F922F9322
:103D90003F934F935F936F937F938F939F93AF93D3
:103DA000BF93EF93FF9381EA94E03BDEFF91EF91A5
:103DB000BF91AF919F918F917F916F915F914F9143
:103DC0003F912F910F900BBE0F900FBE0F901F9041
:103DD0001895E1EAF4E01382128288EE93E0A0E005
:103DE000B0E084839583A683B78384EB92E09183CC
:103DF00080838DEC90E0958784878CEC90E09787AA
:103E0000868788EC90E0918B808B89EC90E0938B97
:103E1000828B8AEC90E0958B848B8EEC90E0978B74
:103E2000868B118E128E138E148E08951F920F9210
:103E30000FB60F9211240BB60F922F938F939F936F
:103E4000EF93FF93E0914E05F0914F058081E09153
:103E50005405F091550582FD1DC090818091570554
:103E60008F5F8F7320915805821741F0E0915705BD
:103E7000F0E0E25CFA4F958F80935705FF91EF9148
:103E80009F918F912F910F900BBE0F900FBE0F90AF
:103E90001F9018958081F2CF1F920F920FB60F924C
:103EA00011240BB60F922F933F934F935F936F9311
:103EB0007F938F939F93AF93BF93EF93FF938EE383
:103EC00095E0AFDDFF91EF91BF91AF919F918F9101
:103ED0007F916F915F914F913F912F910F900BBE0A
:103EE0000F900FBE0F901F901895EEE3F5E0138230
:103EF000128288EE93E0A0E0B0E084839583A683ED
:103F0000B78384EB92E09183808385ED90E0958781
:103F1000848784ED90E09787868780ED90E0918B91
:103F2000808B81ED90E0938B828B82ED90E0958B7E
:103F3000848B86ED90E0978B868B118E128E138E7C
:103F4000148E08951F920F920FB60F9211240BB684
:103F50000F922F938F939F93EF93FF93E091EB0535
:103F6000F091EC058081E091F105F091F20582FD80
:103F70001DC090818091F4058F5F8F732091F505AE
:103F8000821741F0E091F405F0E0E552FA4F958F89
:103F90008093F405FF91EF919F918F912F910F9056
:103FA0000BBE0F900FBE0F901F9018958081F2CF1F
:103FB0001F920F920FB60F9211240BB60F922F93F0
:103FC0003F934F935F936F937F938F939F93AF93A1
:103FD000BF93EF93FF938BED95E023DDFF91EF917E
:103FE000BF91AF919F918F917F916F915F914F9111
:103FF0003F912F910F900BBE0F900FBE0F901F900F
:104000001895EBEDF5E01382128288EE93E0A0E0C4
:10401000B0E084839583A683B78384EB92E0918399
:10402000808385E391E09587848784E391E0978797
:10403000868780E391E0918B808B81E391E0938B85
:10404000828B82E391E0958B848B86E391E0978B62
:10405000868B118E128E138E148E0895AF92BF929E
:10406000CF92DF92EF92FF920F931F93CF93DF9344
:104070006C017B018B01040F151FEB015E01AE1873
:10408000BF08C017D10759F06991D601ED91FC9195
:104090000190F081E02DC6011995892B79F7C501B2
:1040A000DF91CF911F910F91FF90EF90DF90CF9014
:1040B000BF90AF900895FB0101900020E9F7319780
:1040C000AF01461B570BDC01ED91FC910280F3819F
:1040D000E02D19946115710509F0EDCF90E080E0B5
:1040E0000895DC01ED91FC910190F081E02D19948F
:1040F00062EC72E0E0CF8F929F92AF92BF92EF920C
:10410000FF920F931F93CF93DF93CDB7DEB7A197A5
:104110000FB6F894DEBF0FBECDBF7C01FA01CB0114
:1041200019A2223008F42AE08E010F5D1F4F822E63
:10413000912CB12CA12CBF01A50194011BD2F90136
:10414000CA016A3004F5605DD8016E938D01232B9E
:10415000242B252B81F790E080E0109719F0BD010A
:10416000C701A9DFA1960FB6F894DEBF0FBECDBF81
:10417000DF91CF911F910F91FF90EF90BF90AF9083
:104180009F908F900895695CDFCFCF92DF92EF927E
:10419000FF920F931F93CF93DF932115310581F485
:1041A000DC01ED91FC910190F081E02D642FDF9115
:1041B000CF911F910F91FF90EF90DF90CF901994C6
:1041C0002A303105F1F42AE077FF1BC06A017B0138
:1041D000EC016DE286DF8C0144275527BA014C19AA
:1041E0005D096E097F092AE0CE0185DF800F911FEE
:1041F000DF91CF911F910F91FF90EF90DF90CF90C3
:104200000895DF91CF911F910F91FF90EF90DF9074
:10421000CF9071CF9A01AB01770F660B770BB5CFBB
:104220000F931F93CF93DF93EC01F4DF8C01CE014A
:104230005FDF800F911FDF91CF911F910F91089544
:104240000F931F93CF93DF93EC019FDF8C01CE017F
:104250004FDF800F911FDF91CF911F910F91089534
:104260002115310541F4DC01ED91FC910190F081C3
:10427000E02D642F19943FCF9A01462F50E070E053
:1042800060E0EECF0F931F93CF93DF93EC01F4DF49
:104290008C01CE012DDF800F911FDF91CF911F91F7
:1042A0000F9108959A01AB0170E060E0D9CF0F93B0
:1042B0001F93CF93DF93EC01F5DF8C01CE0118DF64
:1042C000800F911FDF91CF911F910F9108950F9350
:1042D0001F93CF93DF93EC01C3DF8C01CE0108DF86
:1042E000800F911FDF91CF911F910F9108952F9211
:1042F0003F924F925F926F927F928F929F92AF9276
:10430000BF92CF92DF92EF92FF921F93CF93DF93F2
:10431000EC016A017B01722EAB019601CB01B60163
:1043200053D165EC72E0811125C046015701E89434
:10433000B7F82FEF3FEF4FE75FE7C501B40144D176
:1043400081110CC02FEF3FEF4FE75FE7C501B401CC
:104350000E94041669EC72E0181664F02FEF3FEF2C
:104360004FE75FE4C701B6010E94F4171816ACF4DA
:104370006DEC72E0CE01DF91CF911F91FF90EF9035
:10438000DF90CF90BF90AF909F908F907F906F9075
:104390005F904F903F902F908ECE2FEF3FEF4FE7E3
:1043A0005FECC701B6010E94041687FDE1CF20E053
:1043B00030E0A901C701B6010E940416312C212C5E
:1043C00087FF08C06DE2CE018CDE1C01F7FAF09485
:1043D000F7F8F09410E060E070E080E09FE3711681
:1043E00041F020E030E040E251E40E9408161F5FF7
:1043F000F6CFA70196010E948D152B013C010E946A
:1044000075164B015C012AE0BC01A401CE0173DEEC
:104410007C01E20CF31C1123A1F1C501B4010E943F
:10442000A1169B01AC01C301B2010E948C154B0186
:104430005C016EE2CE0155DEE80EF91E115008F166
:1044400020E030E040E251E4C501B4010E94F817D9
:104450002B013C010E9475164B014AE050E0CE0151
:1044600021DFE80EF91EB40190E080E00E94A11661
:104470009B01AC01C301B2010E948C154B015C0190
:10448000DDCFC701DF91CF911F91FF90EF90DF90BB
:10449000CF90BF90AF909F908F907F906F905F90E4
:1044A0004F903F902F90089522CF0F931F93CF935B
:1044B000DF93EC011CDF8C01CE011ADE800F911F0F
:1044C000DF91CF911F910F9108950F931F93CF9379
:1044D000DF93EC010DD8688779878A879B87E8810D
:1044E000F9810284F385E02DCE01199597FF15C05F
:1044F0000E94781A088519852A853B85601B710BF7
:10450000820B930B0C811D812E813F8160177107F7
:104510008207930720F38FEF9FEFDF91CF911F91D9
:104520000F910895AF92BF92CF92DF92EF92FF92D8
:104530000F931F93CF93DF935C017B018B01040FDB
:10454000151FEB016E01CE18DF08C017D10731F03F
:10455000C501BBDF97FD02C08993F4CFC601DF918F
:10456000CF911F910F91FF90EF90DF90CF90BF9070
:10457000AF900895A1E21A2EAA1BBB1BFD010DC02E
:10458000AA1FBB1FEE1FFF1FA217B307E407F50703
:1045900020F0A21BB30BE40BF50B661F771F881FDF
:1045A000991F1A9469F760957095809590959B0175
:1045B000AC01BD01CF010895EE0FFF1F881F8BBF17
:1045C0000790F691E02D19940E943F17880B990BE4
:0645D0000895F894FFCFEE
:1045D60067056B056F05730557055B055F05630585
:1045E600C903CF03D503DB0300C07F44000040406E
:1045F6000000B6420AD7A33B0000000000000000FE
:10460600000040400000000000C0FF430000B4432B
:10461600000040BF99806D3F5C808E3D9A99193DA0
:1046260035FA8E3C000000000080ACC4D49E83396D
:10463600C3F5A8BE000048436DA3673F8A4FB93D46
:10464600CDCC4C3D0003235B185B185B185B185BF5
:10465600185B185B185B18014669786564537465C6
:10466600704469736372657465002E030001FFFF71
:10467600FFFFFFFFFFFFFFFFFFFFFFFF0504030232
:1046860000000000521D2E20021D331DD41CEE1CFE
:10469600E01C0D0A006E616E00696E66006F76663C
:0246A600000012
:00000001FF
